{"contracts/campaign.sol":{"Campaign":{"abi":[{"inputs":[],"stateMutability":"nonpayable","type":"constructor"},{"inputs":[],"name":"admin","outputs":[{"internalType":"address","name":"","type":"address"}],"stateMutability":"view","type":"function"},{"inputs":[],"name":"campaign","outputs":[{"internalType":"uint256","name":"fundingGoal","type":"uint256"},{"internalType":"uint256","name":"sharedReturnPercentage","type":"uint256"},{"internalType":"string","name":"campaignName","type":"string"},{"internalType":"uint256","name":"startTime","type":"uint256"},{"internalType":"uint256","name":"fundingPeriodEndTime","type":"uint256"},{"internalType":"uint256","name":"campaignEndTime","type":"uint256"},{"internalType":"uint256","name":"campaignId","type":"uint256"},{"internalType":"string","name":"nftMetadataIPFSHash","type":"string"},{"internalType":"bool","name":"distributionLocked","type":"bool"},{"internalType":"bool","name":"nftMinted","type":"bool"}],"stateMutability":"view","type":"function"},{"inputs":[],"name":"campaignCounter","outputs":[{"internalType":"uint256","name":"","type":"uint256"}],"stateMutability":"view","type":"function"},{"inputs":[],"name":"claim","outputs":[],"stateMutability":"nonpayable","type":"function"},{"inputs":[],"name":"distribute","outputs":[],"stateMutability":"nonpayable","type":"function"},{"inputs":[],"name":"fund","outputs":[],"stateMutability":"payable","type":"function"},{"inputs":[{"internalType":"address","name":"","type":"address"}],"name":"funders","outputs":[{"internalType":"uint256","name":"donatedAmount","type":"uint256"},{"internalType":"uint256","name":"percentage","type":"uint256"}],"stateMutability":"view","type":"function"},{"inputs":[],"name":"fundersCount","outputs":[{"internalType":"uint256","name":"","type":"uint256"}],"stateMutability":"view","type":"function"},{"inputs":[{"internalType":"uint256","name":"","type":"uint256"}],"name":"fundersIndex","outputs":[{"internalType":"address","name":"","type":"address"}],"stateMutability":"view","type":"function"},{"inputs":[{"internalType":"uint256","name":"_fundingGoal","type":"uint256"},{"internalType":"uint256","name":"_sharedReturnPercentage","type":"uint256"},{"internalType":"string","name":"_campaignName","type":"string"},{"internalType":"uint256","name":"_fundingPeriodInDays","type":"uint256"},{"internalType":"uint256","name":"_campaignDurationInDays","type":"uint256"},{"internalType":"string","name":"_nftMetadataIPFSHash","type":"string"}],"name":"setupCampaign","outputs":[],"stateMutability":"nonpayable","type":"function"},{"inputs":[],"name":"totalFundedAmount","outputs":[{"internalType":"uint256","name":"","type":"uint256"}],"stateMutability":"view","type":"function"}],"evm":{"bytecode":{"linkReferences":{},"object":"608060405234801561001057600080fd5b5033600160006101000a81548173ffffffffffffffffffffffffffffffffffffffff021916908373ffffffffffffffffffffffffffffffffffffffff160217905550615825806100616000396000f3fe608060405260043610620000aa5760003560e01c8063a27924ab116200006d578063a27924ab14620001a7578063b60d428814620001d5578063d18f45e114620001e1578063e4fc6b6d1462000225578063f851a440146200023f578063fca604d7146200026f57620000aa565b8063031b367714620000af57806313a2e11714620000f45780631439aef214620001245780634e71d92d1462000154578063811e539c146200016e575b600080fd5b348015620000bc57600080fd5b50620000db6004803603810190620000d59190620014f3565b6200029f565b604051620000eb92919062001540565b60405180910390f35b3480156200010157600080fd5b506200010c620002c3565b6040516200011b91906200156d565b60405180910390f35b3480156200013157600080fd5b506200013c620002c9565b6040516200014b91906200156d565b60405180910390f35b3480156200016157600080fd5b506200016c620002cf565b005b3480156200017b57600080fd5b5062000186620004ca565b6040516200019e9a9998979695949392919062001641565b60405180910390f35b348015620001b457600080fd5b50620001d36004803603810190620001cd919062001881565b62000646565b005b620001df620009e7565b005b348015620001ee57600080fd5b506200020d60048036038101906200020791906200195b565b62000d5a565b6040516200021c91906200199e565b60405180910390f35b3480156200023257600080fd5b506200023d62000d9a565b005b3480156200024c57600080fd5b5062000257620012dc565b6040516200026691906200199e565b60405180910390f35b3480156200027c57600080fd5b506200028762001302565b6040516200029691906200156d565b60405180910390f35b600b6020528060005260406000206000915090508060000154908060010154905082565b600d5481565b600e5481565b600160009054906101000a900473ffffffffffffffffffffffffffffffffffffffff1673ffffffffffffffffffffffffffffffffffffffff163373ffffffffffffffffffffffffffffffffffffffff161462000362576040517f08c379a0000000000000000000000000000000000000000000000000000000008152600401620003599062001a31565b60405180910390fd5b600260080160009054906101000a900460ff16801562000386575060026004015442115b620003c8576040517f08c379a0000000000000000000000000000000000000000000000000000000008152600401620003bf9062001ac9565b60405180910390fd5b60004790506000811162000413576040517f08c379a00000000000000000000000000000000000000000000000000000000081526004016200040a9062001b3b565b60405180910390fd5b60003373ffffffffffffffffffffffffffffffffffffffff16826040516200043b9062001b92565b60006040518083038185875af1925050503d80600081146200047a576040519150601f19603f3d011682016040523d82523d6000602084013e6200047f565b606091505b5050905080620004c6576040517f08c379a0000000000000000000000000000000000000000000000000000000008152600401620004bd9062001c1f565b60405180910390fd5b5050565b6002806000015490806001015490806002018054620004e99062001c70565b80601f0160208091040260200160405190810160405280929190818152602001828054620005179062001c70565b8015620005685780601f106200053c5761010080835404028352916020019162000568565b820191906000526020600020905b8154815290600101906020018083116200054a57829003601f168201915b505050505090806003015490806004015490806005015490806006015490806007018054620005979062001c70565b80601f0160208091040260200160405190810160405280929190818152602001828054620005c59062001c70565b8015620006165780601f10620005ea5761010080835404028352916020019162000616565b820191906000526020600020905b815481529060010190602001808311620005f857829003601f168201915b5050505050908060080160009054906101000a900460ff16908060080160019054906101000a900460ff1690508a565b600160009054906101000a900473ffffffffffffffffffffffffffffffffffffffff1673ffffffffffffffffffffffffffffffffffffffff163373ffffffffffffffffffffffffffffffffffffffff1614620006d9576040517f08c379a0000000000000000000000000000000000000000000000000000000008152600401620006d09062001a31565b60405180910390fd5b600086116200071f576040517f08c379a0000000000000000000000000000000000000000000000000000000008152600401620007169062001d1b565b60405180910390fd5b60008511801562000731575060648511155b62000773576040517f08c379a00000000000000000000000000000000000000000000000000000000081526004016200076a9062001db3565b60405180910390fd5b60008311620007b9576040517f08c379a0000000000000000000000000000000000000000000000000000000008152600401620007b09062001e4b565b60405180910390fd5b828211620007fe576040517f08c379a0000000000000000000000000000000000000000000000000000000008152600401620007f59062001ee3565b60405180910390fd5b604051806101400160405280878152602001868152602001858152602001428152602001620151808562000833919062001f34565b4262000840919062001f7f565b8152602001620151808462000856919062001f34565b4262000863919062001f7f565b81526020016001600f5462000879919062001f7f565b815260200182815260200160001515815260200160001515815250600260008201518160000155602082015181600101556040820151816002019081620008c191906200218c565b50606082015181600301556080820151816004015560a0820151816005015560c0820151816006015560e08201518160070190816200090191906200218c565b506101008201518160080160006101000a81548160ff0219169083151502179055506101208201518160080160016101000a81548160ff0219169083151502179055509050506001600f60008282546200095c919062001f7f565b92505081905550600260070160405162000976906200146c565b62000982919062002303565b604051809103906000f0801580156200099f573d6000803e3d6000fd5b506000806101000a81548173ffffffffffffffffffffffffffffffffffffffff021916908373ffffffffffffffffffffffffffffffffffffffff160217905550505050505050565b6000341162000a2d576040517f08c379a000000000000000000000000000000000000000000000000000000000815260040162000a24906200239d565b60405180910390fd5b600260030154421015801562000a4857506002600401544211155b62000a8a576040517f08c379a000000000000000000000000000000000000000000000000000000000815260040162000a81906200240f565b60405180910390fd5b600260080160009054906101000a900460ff161562000ae0576040517f08c379a000000000000000000000000000000000000000000000000000000000815260040162000ad790620024a7565b60405180910390fd5b6000600b60003373ffffffffffffffffffffffffffffffffffffffff1673ffffffffffffffffffffffffffffffffffffffff1681526020019081526020016000206000015490506000348262000b37919062001f7f565b905034600e600082825462000b4d919062001f7f565b9250508190555060026000015481111562000c69576000600e543460026000015462000b7a919062001f7f565b62000b869190620024c9565b9050808262000b969190620024c9565b915080600e600082825462000bac9190620024c9565b9250508190555060003373ffffffffffffffffffffffffffffffffffffffff168260405162000bdb9062001b92565b60006040518083038185875af1925050503d806000811462000c1a576040519150601f19603f3d011682016040523d82523d6000602084013e62000c1f565b606091505b505090508062000c66576040517f08c379a000000000000000000000000000000000000000000000000000000000815260040162000c5d9062002554565b60405180910390fd5b50505b600060026000015460648362000c80919062001f34565b62000c8c9190620025a5565b905081600b60003373ffffffffffffffffffffffffffffffffffffffff1673ffffffffffffffffffffffffffffffffffffffff1681526020019081526020016000206000018190555080600b60003373ffffffffffffffffffffffffffffffffffffffff1673ffffffffffffffffffffffffffffffffffffffff16815260200190815260200160002060010181905550600260000154600e541062000d4a576001600260080160006101000a81548160ff0219169083151502179055505b62000d553362001308565b505050565b600c818154811062000d6b57600080fd5b906000526020600020016000915054906101000a900473ffffffffffffffffffffffffffffffffffffffff1681565b600260080160009054906101000a900460ff1615801562000dbf575060026004015442115b8062000dcf575060026005015442115b62000e11576040517f08c379a000000000000000000000000000000000000000000000000000000000815260040162000e089062002653565b60405180910390fd5b60004790506000811162000e5c576040517f08c379a000000000000000000000000000000000000000000000000000000000815260040162000e539062001b3b565b60405180910390fd5b600260080160009054906101000a900460ff1662000ff65760005b600d5481101562000fef576000600c828154811062000e9b5762000e9a62002675565b5b9060005260206000200160009054906101000a900473ffffffffffffffffffffffffffffffffffffffff1690506000600b60008373ffffffffffffffffffffffffffffffffffffffff1673ffffffffffffffffffffffffffffffffffffffff168152602001908152602001600020905060008273ffffffffffffffffffffffffffffffffffffffff16826000015460405162000f379062001b92565b60006040518083038185875af1925050503d806000811462000f76576040519150601f19603f3d011682016040523d82523d6000602084013e62000f7b565b606091505b505090508062000fc2576040517f08c379a000000000000000000000000000000000000000000000000000000000815260040162000fb990620026f4565b60405180910390fd5b6000826000018190555060008260010181905550505050808062000fe69062002716565b91505062000e77565b50620012d9565b600060026001015414620011e45760005b600d54811015620011e2576000600c82815481106200102b576200102a62002675565b5b9060005260206000200160009054906101000a900473ffffffffffffffffffffffffffffffffffffffff1690506000600b60008373ffffffffffffffffffffffffffffffffffffffff1673ffffffffffffffffffffffffffffffffffffffff16815260200190815260200160002090506000612710826001015460026001015487620010b8919062001f34565b620010c4919062001f34565b620010d09190620025a5565b905060008373ffffffffffffffffffffffffffffffffffffffff1682604051620010fa9062001b92565b60006040518083038185875af1925050503d806000811462001139576040519150601f19603f3d011682016040523d82523d6000602084013e6200113e565b606091505b505090508062001185576040517f08c379a00000000000000000000000000000000000000000000000000000000081526004016200117c90620027b3565b60405180910390fd5b600260080160019054906101000a900460ff16620011b457620011b3846002600601548560000154620013d4565b5b6000836001018190555060008360000181905550505050508080620011d99062002716565b91505062001007565b505b6001600260080160016101000a81548160ff0219169083151502179055506000600160009054906101000a900473ffffffffffffffffffffffffffffffffffffffff1673ffffffffffffffffffffffffffffffffffffffff16476040516200124c9062001b92565b60006040518083038185875af1925050503d80600081146200128b576040519150601f19603f3d011682016040523d82523d6000602084013e62001290565b606091505b5050905080620012d7576040517f08c379a0000000000000000000000000000000000000000000000000000000008152600401620012ce9062002825565b60405180910390fd5b505b50565b600160009054906101000a900473ffffffffffffffffffffffffffffffffffffffff1681565b600f5481565b6000600b60008373ffffffffffffffffffffffffffffffffffffffff1673ffffffffffffffffffffffffffffffffffffffff1681526020019081526020016000206000015403620013d157600c819080600181540180825580915050600190039060005260206000200160009091909190916101000a81548173ffffffffffffffffffffffffffffffffffffffff021916908373ffffffffffffffffffffffffffffffffffffffff160217905550600d6000815480929190620013cb9062002716565b91905055505b50565b60008054906101000a900473ffffffffffffffffffffffffffffffffffffffff1673ffffffffffffffffffffffffffffffffffffffff1663bb7fde718484846040518463ffffffff1660e01b815260040162001433939291906200286e565b600060405180830381600087803b1580156200144e57600080fd5b505af115801562001463573d6000803e3d6000fd5b50505050505050565b612f2f80620028c183390190565b6000604051905090565b600080fd5b600080fd5b600073ffffffffffffffffffffffffffffffffffffffff82169050919050565b6000620014bb826200148e565b9050919050565b620014cd81620014ae565b8114620014d957600080fd5b50565b600081359050620014ed81620014c2565b92915050565b6000602082840312156200150c576200150b62001484565b5b60006200151c84828501620014dc565b91505092915050565b6000819050919050565b6200153a8162001525565b82525050565b60006040820190506200155760008301856200152f565b6200156660208301846200152f565b9392505050565b60006020820190506200158460008301846200152f565b92915050565b600081519050919050565b600082825260208201905092915050565b60005b83811015620015c6578082015181840152602081019050620015a9565b60008484015250505050565b6000601f19601f8301169050919050565b6000620015f0826200158a565b620015fc818562001595565b93506200160e818560208601620015a6565b6200161981620015d2565b840191505092915050565b60008115159050919050565b6200163b8162001624565b82525050565b60006101408201905062001659600083018d6200152f565b62001668602083018c6200152f565b81810360408301526200167c818b620015e3565b90506200168d606083018a6200152f565b6200169c60808301896200152f565b620016ab60a08301886200152f565b620016ba60c08301876200152f565b81810360e0830152620016ce8186620015e3565b9050620016e061010083018562001630565b620016f061012083018462001630565b9b9a5050505050505050505050565b6200170a8162001525565b81146200171657600080fd5b50565b6000813590506200172a81620016ff565b92915050565b600080fd5b600080fd5b7f4e487b7100000000000000000000000000000000000000000000000000000000600052604160045260246000fd5b6200177482620015d2565b810181811067ffffffffffffffff821117156200179657620017956200173a565b5b80604052505050565b6000620017ab6200147a565b9050620017b9828262001769565b919050565b600067ffffffffffffffff821115620017dc57620017db6200173a565b5b620017e782620015d2565b9050602081019050919050565b82818337600083830152505050565b60006200181a6200181484620017be565b6200179f565b90508281526020810184848401111562001839576200183862001735565b5b62001846848285620017f4565b509392505050565b600082601f83011262001866576200186562001730565b5b81356200187884826020860162001803565b91505092915050565b60008060008060008060c08789031215620018a157620018a062001484565b5b6000620018b189828a0162001719565b9650506020620018c489828a0162001719565b955050604087013567ffffffffffffffff811115620018e857620018e762001489565b5b620018f689828a016200184e565b94505060606200190989828a0162001719565b93505060806200191c89828a0162001719565b92505060a087013567ffffffffffffffff81111562001940576200193f62001489565b5b6200194e89828a016200184e565b9150509295509295509295565b60006020828403121562001974576200197362001484565b5b6000620019848482850162001719565b91505092915050565b6200199881620014ae565b82525050565b6000602082019050620019b560008301846200198d565b92915050565b7f4f6e6c79207468652061646d696e2063616e20706572666f726d20746869732060008201527f616374696f6e2e00000000000000000000000000000000000000000000000000602082015250565b600062001a1960278362001595565b915062001a2682620019bb565b604082019050919050565b6000602082019050818103600083015262001a4c8162001a0a565b9050919050565b7f46756e64696e6720676f616c20686173206e6f74206265656e2072656163686560008201527f64207965742e0000000000000000000000000000000000000000000000000000602082015250565b600062001ab160268362001595565b915062001abe8262001a53565b604082019050919050565b6000602082019050818103600083015262001ae48162001aa2565b9050919050565b7f436f6e74726163742062616c616e6365206973207a65726f2e00000000000000600082015250565b600062001b2360198362001595565b915062001b308262001aeb565b602082019050919050565b6000602082019050818103600083015262001b568162001b14565b9050919050565b600081905092915050565b50565b600062001b7a60008362001b5d565b915062001b878262001b68565b600082019050919050565b600062001b9f8262001b6b565b9150819050919050565b7f4661696c656420746f2073656e6420746f74616c2066756e64656420616d6f7560008201527f6e742e0000000000000000000000000000000000000000000000000000000000602082015250565b600062001c0760238362001595565b915062001c148262001ba9565b604082019050919050565b6000602082019050818103600083015262001c3a8162001bf8565b9050919050565b7f4e487b7100000000000000000000000000000000000000000000000000000000600052602260045260246000fd5b6000600282049050600182168062001c8957607f821691505b60208210810362001c9f5762001c9e62001c41565b5b50919050565b7f46756e64696e6720676f616c206d75737420626520677265617465722074686160008201527f6e207a65726f2e00000000000000000000000000000000000000000000000000602082015250565b600062001d0360278362001595565b915062001d108262001ca5565b604082019050919050565b6000602082019050818103600083015262001d368162001cf4565b9050919050565b7f5368617265642072657475726e2070657263656e74616765206d75737420626560008201527f206265747765656e203120616e64203130302e00000000000000000000000000602082015250565b600062001d9b60338362001595565b915062001da88262001d3d565b604082019050919050565b6000602082019050818103600083015262001dce8162001d8c565b9050919050565b7f46756e64696e6720706572696f64206d7573742062652067726561746572207460008201527f68616e207a65726f2e0000000000000000000000000000000000000000000000602082015250565b600062001e3360298362001595565b915062001e408262001dd5565b604082019050919050565b6000602082019050818103600083015262001e668162001e24565b9050919050565b7f43616d706169676e206475726174696f6e206d7573742062652067726561746560008201527f72207468616e207468652066756e64696e6720706572696f642e000000000000602082015250565b600062001ecb603a8362001595565b915062001ed88262001e6d565b604082019050919050565b6000602082019050818103600083015262001efe8162001ebc565b9050919050565b7f4e487b7100000000000000000000000000000000000000000000000000000000600052601160045260246000fd5b600062001f418262001525565b915062001f4e8362001525565b925082820262001f5e8162001525565b9150828204841483151762001f785762001f7762001f05565b5b5092915050565b600062001f8c8262001525565b915062001f998362001525565b925082820190508082111562001fb45762001fb362001f05565b5b92915050565b60008190508160005260206000209050919050565b60006020601f8301049050919050565b600082821b905092915050565b6000600883026200201e7fffffffffffffffffffffffffffffffffffffffffffffffffffffffffffffffff8262001fdf565b6200202a868362001fdf565b95508019841693508086168417925050509392505050565b6000819050919050565b60006200206d62002067620020618462001525565b62002042565b62001525565b9050919050565b6000819050919050565b62002089836200204c565b620020a1620020988262002074565b84845462001fec565b825550505050565b600090565b620020b8620020a9565b620020c58184846200207e565b505050565b5b81811015620020ed57620020e1600082620020ae565b600181019050620020cb565b5050565b601f8211156200213c57620021068162001fba565b620021118462001fcf565b8101602085101562002121578190505b62002139620021308562001fcf565b830182620020ca565b50505b505050565b600082821c905092915050565b6000620021616000198460080262002141565b1980831691505092915050565b60006200217c83836200214e565b9150826002028217905092915050565b62002197826200158a565b67ffffffffffffffff811115620021b357620021b26200173a565b5b620021bf825462001c70565b620021cc828285620020f1565b600060209050601f831160018114620022045760008415620021ef578287015190505b620021fb85826200216e565b8655506200226b565b601f198416620022148662001fba565b60005b828110156200223e5784890151825560018201915060208501945060208101905062002217565b868310156200225e57848901516200225a601f8916826200214e565b8355505b6001600288020188555050505b505050505050565b60008154620022828162001c70565b6200228e818662001595565b94506001821660008114620022ac5760018114620022c357620022fa565b60ff198316865281151560200286019350620022fa565b620022ce8562001fba565b60005b83811015620022f257815481890152600182019150602081019050620022d1565b808801955050505b50505092915050565b600060208201905081810360008301526200231f818462002273565b905092915050565b7f46756e64696e6720616d6f756e74206d7573742062652067726561746572207460008201527f68616e207a65726f2e0000000000000000000000000000000000000000000000602082015250565b60006200238560298362001595565b9150620023928262002327565b604082019050919050565b60006020820190508181036000830152620023b88162002376565b9050919050565b7f46756e64696e6720706572696f642068617320656e6465642e00000000000000600082015250565b6000620023f760198362001595565b91506200240482620023bf565b602082019050919050565b600060208201905081810360008301526200242a81620023e8565b9050919050565b7f43616d706169676e20646973747269627574696f6e206973206c6f636b65642e60008201527f2043616e6e6f7420616363657074206e65772066756e64732e00000000000000602082015250565b60006200248f60398362001595565b91506200249c8262002431565b604082019050919050565b60006020820190508181036000830152620024c28162002480565b9050919050565b6000620024d68262001525565b9150620024e38362001525565b9250828203905081811115620024fe57620024fd62001f05565b5b92915050565b7f4661696c656420746f2073656e6420657863656564696e6720616d6f756e742e600082015250565b60006200253c60208362001595565b9150620025498262002504565b602082019050919050565b600060208201905081810360008301526200256f816200252d565b9050919050565b7f4e487b7100000000000000000000000000000000000000000000000000000000600052601260045260246000fd5b6000620025b28262001525565b9150620025bf8362001525565b925082620025d257620025d162002576565b5b828204905092915050565b7f446973747269627574696f6e206973206e6f742079657420617661696c61626c60008201527f652e000000000000000000000000000000000000000000000000000000000000602082015250565b60006200263b60228362001595565b91506200264882620025dd565b604082019050919050565b600060208201905081810360008301526200266e816200262c565b9050919050565b7f4e487b7100000000000000000000000000000000000000000000000000000000600052603260045260246000fd5b7f4661696c656420746f2073656e6420646f6e6174656420616d6f756e742e0000600082015250565b6000620026dc601e8362001595565b9150620026e982620026a4565b602082019050919050565b600060208201905081810360008301526200270f81620026cd565b9050919050565b6000620027238262001525565b91507fffffffffffffffffffffffffffffffffffffffffffffffffffffffffffffffff820362002758576200275762001f05565b5b600182019050919050565b7f4661696c656420746f2073656e642066756e6465722073686172652e00000000600082015250565b60006200279b601c8362001595565b9150620027a88262002763565b602082019050919050565b60006020820190508181036000830152620027ce816200278c565b9050919050565b7f4661696c656420746f2073656e642061646d696e2073686172652e0000000000600082015250565b60006200280d601b8362001595565b91506200281a82620027d5565b602082019050919050565b600060208201905081810360008301526200284081620027fe565b9050919050565b60006200285660008362001595565b9150620028638262001b68565b600082019050919050565b60006080820190506200288560008301866200198d565b6200289460208301856200152f565b620028a360408301846200152f565b8181036060830152620028b68162002847565b905094935050505056fe60806040523480156200001157600080fd5b5060405162002f2f38038062002f2f8339818101604052810190620000379190620001f9565b8062000049816200005160201b60201c565b50506200057c565b806002908162000062919062000495565b5050565b6000604051905090565b600080fd5b600080fd5b600080fd5b600080fd5b6000601f19601f8301169050919050565b7f4e487b7100000000000000000000000000000000000000000000000000000000600052604160045260246000fd5b620000cf8262000084565b810181811067ffffffffffffffff82111715620000f157620000f062000095565b5b80604052505050565b60006200010662000066565b9050620001148282620000c4565b919050565b600067ffffffffffffffff82111562000137576200013662000095565b5b620001428262000084565b9050602081019050919050565b60005b838110156200016f57808201518184015260208101905062000152565b60008484015250505050565b6000620001926200018c8462000119565b620000fa565b905082815260208101848484011115620001b157620001b06200007f565b5b620001be8482856200014f565b509392505050565b600082601f830112620001de57620001dd6200007a565b5b8151620001f08482602086016200017b565b91505092915050565b60006020828403121562000212576200021162000070565b5b600082015167ffffffffffffffff81111562000233576200023262000075565b5b6200024184828501620001c6565b91505092915050565b600081519050919050565b7f4e487b7100000000000000000000000000000000000000000000000000000000600052602260045260246000fd5b600060028204905060018216806200029d57607f821691505b602082108103620002b357620002b262000255565b5b50919050565b60008190508160005260206000209050919050565b60006020601f8301049050919050565b600082821b905092915050565b6000600883026200031d7fffffffffffffffffffffffffffffffffffffffffffffffffffffffffffffffff82620002de565b620003298683620002de565b95508019841693508086168417925050509392505050565b6000819050919050565b6000819050919050565b600062000376620003706200036a8462000341565b6200034b565b62000341565b9050919050565b6000819050919050565b620003928362000355565b620003aa620003a1826200037d565b848454620002eb565b825550505050565b600090565b620003c1620003b2565b620003ce81848462000387565b505050565b5b81811015620003f657620003ea600082620003b7565b600181019050620003d4565b5050565b601f82111562000445576200040f81620002b9565b6200041a84620002ce565b810160208510156200042a578190505b620004426200043985620002ce565b830182620003d3565b50505b505050565b600082821c905092915050565b60006200046a600019846008026200044a565b1980831691505092915050565b600062000485838362000457565b9150826002028217905092915050565b620004a0826200024a565b67ffffffffffffffff811115620004bc57620004bb62000095565b5b620004c8825462000284565b620004d5828285620003fa565b600060209050601f8311600181146200050d5760008415620004f8578287015190505b62000504858262000477565b86555062000574565b601f1984166200051d86620002b9565b60005b82811015620005475784890151825560018201915060208501945060208101905062000520565b8683101562000567578489015162000563601f89168262000457565b8355505b6001600288020188555050505b505050505050565b6129a3806200058c6000396000f3fe608060405234801561001057600080fd5b506004361061009d5760003560e01c80634e1273f4116100665780634e1273f41461017e578063a22cb465146101ae578063bb7fde71146101ca578063e985e9c5146101e6578063f242432a146102165761009d565b8062fdd58e146100a257806301ffc9a7146100d25780630e89341c146101025780631a2e9824146101325780632eb2c2d614610162575b600080fd5b6100bc60048036038101906100b791906116a6565b610232565b6040516100c991906116f5565b60405180910390f35b6100ec60048036038101906100e79190611768565b6102fa565b6040516100f991906117b0565b60405180910390f35b61011c600480360381019061011791906117cb565b6103dc565b6040516101299190611888565b60405180910390f35b61014c600480360381019061014791906116a6565b610470565b60405161015991906116f5565b60405180910390f35b61017c60048036038101906101779190611aa7565b6104cb565b005b61019860048036038101906101939190611c39565b61056c565b6040516101a59190611d6f565b60405180910390f35b6101c860048036038101906101c39190611dbd565b610685565b005b6101e460048036038101906101df9190611e9e565b61069b565b005b61020060048036038101906101fb9190611f21565b610724565b60405161020d91906117b0565b60405180910390f35b610230600480360381019061022b9190611f61565b6107b8565b005b60008073ffffffffffffffffffffffffffffffffffffffff168373ffffffffffffffffffffffffffffffffffffffff16036102a2576040517f08c379a00000000000000000000000000000000000000000000000000000000081526004016102999061206a565b60405180910390fd5b60008083815260200190815260200160002060008473ffffffffffffffffffffffffffffffffffffffff1673ffffffffffffffffffffffffffffffffffffffff16815260200190815260200160002054905092915050565b60007fd9b67a26000000000000000000000000000000000000000000000000000000007bffffffffffffffffffffffffffffffffffffffffffffffffffffffff1916827bffffffffffffffffffffffffffffffffffffffffffffffffffffffff191614806103c557507f0e89341c000000000000000000000000000000000000000000000000000000007bffffffffffffffffffffffffffffffffffffffffffffffffffffffff1916827bffffffffffffffffffffffffffffffffffffffffffffffffffffffff1916145b806103d557506103d482610859565b5b9050919050565b6060600280546103eb906120b9565b80601f0160208091040260200160405190810160405280929190818152602001828054610417906120b9565b80156104645780601f1061043957610100808354040283529160200191610464565b820191906000526020600020905b81548152906001019060200180831161044757829003601f168201915b50505050509050919050565b60006003600083815260200190815260200160002060008473ffffffffffffffffffffffffffffffffffffffff1673ffffffffffffffffffffffffffffffffffffffff16815260200190815260200160002054905092915050565b6104d36108c3565b73ffffffffffffffffffffffffffffffffffffffff168573ffffffffffffffffffffffffffffffffffffffff1614806105195750610518856105136108c3565b610724565b5b610558576040517f08c379a000000000000000000000000000000000000000000000000000000000815260040161054f9061215c565b60405180910390fd5b61056585858585856108cb565b5050505050565b606081518351146105b2576040517f08c379a00000000000000000000000000000000000000000000000000000000081526004016105a9906121ee565b60405180910390fd5b6000835167ffffffffffffffff8111156105cf576105ce6118af565b5b6040519080825280602002602001820160405280156105fd5781602001602082028036833780820191505090505b50905060005b845181101561067a5761064a8582815181106106225761062161220e565b5b602002602001015185838151811061063d5761063c61220e565b5b6020026020010151610232565b82828151811061065d5761065c61220e565b5b602002602001018181525050806106739061226c565b9050610603565b508091505092915050565b6106976106906108c3565b8383610bec565b5050565b6106b78484600160405180602001604052806000815250610d58565b816003600085815260200190815260200160002060008673ffffffffffffffffffffffffffffffffffffffff1673ffffffffffffffffffffffffffffffffffffffff168152602001908152602001600020600082825461071791906122b4565b9250508190555050505050565b6000600160008473ffffffffffffffffffffffffffffffffffffffff1673ffffffffffffffffffffffffffffffffffffffff16815260200190815260200160002060008373ffffffffffffffffffffffffffffffffffffffff1673ffffffffffffffffffffffffffffffffffffffff16815260200190815260200160002060009054906101000a900460ff16905092915050565b6107c06108c3565b73ffffffffffffffffffffffffffffffffffffffff168573ffffffffffffffffffffffffffffffffffffffff1614806108065750610805856108006108c3565b610724565b5b610845576040517f08c379a000000000000000000000000000000000000000000000000000000000815260040161083c9061215c565b60405180910390fd5b6108528585858585610f08565b5050505050565b60007f01ffc9a7000000000000000000000000000000000000000000000000000000007bffffffffffffffffffffffffffffffffffffffffffffffffffffffff1916827bffffffffffffffffffffffffffffffffffffffffffffffffffffffff1916149050919050565b600033905090565b815183511461090f576040517f08c379a00000000000000000000000000000000000000000000000000000000081526004016109069061235a565b60405180910390fd5b600073ffffffffffffffffffffffffffffffffffffffff168473ffffffffffffffffffffffffffffffffffffffff160361097e576040517f08c379a0000000000000000000000000000000000000000000000000000000008152600401610975906123ec565b60405180910390fd5b60006109886108c3565b90506109988187878787876111a3565b60005b8451811015610b495760008582815181106109b9576109b861220e565b5b6020026020010151905060008583815181106109d8576109d761220e565b5b60200260200101519050600080600084815260200190815260200160002060008b73ffffffffffffffffffffffffffffffffffffffff1673ffffffffffffffffffffffffffffffffffffffff16815260200190815260200160002054905081811015610a79576040517f08c379a0000000000000000000000000000000000000000000000000000000008152600401610a709061247e565b60405180910390fd5b81810360008085815260200190815260200160002060008c73ffffffffffffffffffffffffffffffffffffffff1673ffffffffffffffffffffffffffffffffffffffff168152602001908152602001600020819055508160008085815260200190815260200160002060008b73ffffffffffffffffffffffffffffffffffffffff1673ffffffffffffffffffffffffffffffffffffffff1681526020019081526020016000206000828254610b2e91906122b4565b9250508190555050505080610b429061226c565b905061099b565b508473ffffffffffffffffffffffffffffffffffffffff168673ffffffffffffffffffffffffffffffffffffffff168273ffffffffffffffffffffffffffffffffffffffff167f4a39dc06d4c0dbc64b70af90fd698a233a518aa5d07e595d983b8c0526c8f7fb8787604051610bc092919061249e565b60405180910390a4610bd68187878787876111ab565b610be48187878787876111b3565b505050505050565b8173ffffffffffffffffffffffffffffffffffffffff168373ffffffffffffffffffffffffffffffffffffffff1603610c5a576040517f08c379a0000000000000000000000000000000000000000000000000000000008152600401610c5190612547565b60405180910390fd5b80600160008573ffffffffffffffffffffffffffffffffffffffff1673ffffffffffffffffffffffffffffffffffffffff16815260200190815260200160002060008473ffffffffffffffffffffffffffffffffffffffff1673ffffffffffffffffffffffffffffffffffffffff16815260200190815260200160002060006101000a81548160ff0219169083151502179055508173ffffffffffffffffffffffffffffffffffffffff168373ffffffffffffffffffffffffffffffffffffffff167f17307eab39ab6107e8899845ad3d59bd9653f200f220920489ca2b5937696c3183604051610d4b91906117b0565b60405180910390a3505050565b600073ffffffffffffffffffffffffffffffffffffffff168473ffffffffffffffffffffffffffffffffffffffff1603610dc7576040517f08c379a0000000000000000000000000000000000000000000000000000000008152600401610dbe906125d9565b60405180910390fd5b6000610dd16108c3565b90506000610dde8561138a565b90506000610deb8561138a565b9050610dfc836000898585896111a3565b8460008088815260200190815260200160002060008973ffffffffffffffffffffffffffffffffffffffff1673ffffffffffffffffffffffffffffffffffffffff1681526020019081526020016000206000828254610e5b91906122b4565b925050819055508673ffffffffffffffffffffffffffffffffffffffff16600073ffffffffffffffffffffffffffffffffffffffff168473ffffffffffffffffffffffffffffffffffffffff167fc3d58168c5ae7397731d063d5bbf3d657854427343f4c083240f7aacaa2d0f628989604051610ed99291906125f9565b60405180910390a4610ef0836000898585896111ab565b610eff83600089898989611404565b50505050505050565b600073ffffffffffffffffffffffffffffffffffffffff168473ffffffffffffffffffffffffffffffffffffffff1603610f77576040517f08c379a0000000000000000000000000000000000000000000000000000000008152600401610f6e906123ec565b60405180910390fd5b6000610f816108c3565b90506000610f8e8561138a565b90506000610f9b8561138a565b9050610fab8389898585896111a3565b600080600088815260200190815260200160002060008a73ffffffffffffffffffffffffffffffffffffffff1673ffffffffffffffffffffffffffffffffffffffff16815260200190815260200160002054905085811015611042576040517f08c379a00000000000000000000000000000000000000000000000000000000081526004016110399061247e565b60405180910390fd5b85810360008089815260200190815260200160002060008b73ffffffffffffffffffffffffffffffffffffffff1673ffffffffffffffffffffffffffffffffffffffff168152602001908152602001600020819055508560008089815260200190815260200160002060008a73ffffffffffffffffffffffffffffffffffffffff1673ffffffffffffffffffffffffffffffffffffffff16815260200190815260200160002060008282546110f791906122b4565b925050819055508773ffffffffffffffffffffffffffffffffffffffff168973ffffffffffffffffffffffffffffffffffffffff168573ffffffffffffffffffffffffffffffffffffffff167fc3d58168c5ae7397731d063d5bbf3d657854427343f4c083240f7aacaa2d0f628a8a6040516111749291906125f9565b60405180910390a461118a848a8a86868a6111ab565b611198848a8a8a8a8a611404565b505050505050505050565b505050505050565b505050505050565b6111d28473ffffffffffffffffffffffffffffffffffffffff166115db565b15611382578373ffffffffffffffffffffffffffffffffffffffff1663bc197c8187878686866040518663ffffffff1660e01b8152600401611218959493929190612686565b6020604051808303816000875af192505050801561125457506040513d601f19601f820116820180604052508101906112519190612703565b60015b6112f95761126061273d565b806308c379a0036112bc575061127461275f565b8061127f57506112be565b806040517f08c379a00000000000000000000000000000000000000000000000000000000081526004016112b39190611888565b60405180910390fd5b505b6040517f08c379a00000000000000000000000000000000000000000000000000000000081526004016112f090612861565b60405180910390fd5b63bc197c8160e01b7bffffffffffffffffffffffffffffffffffffffffffffffffffffffff1916817bffffffffffffffffffffffffffffffffffffffffffffffffffffffff191614611380576040517f08c379a0000000000000000000000000000000000000000000000000000000008152600401611377906128f3565b60405180910390fd5b505b505050505050565b60606000600167ffffffffffffffff8111156113a9576113a86118af565b5b6040519080825280602002602001820160405280156113d75781602001602082028036833780820191505090505b50905082816000815181106113ef576113ee61220e565b5b60200260200101818152505080915050919050565b6114238473ffffffffffffffffffffffffffffffffffffffff166115db565b156115d3578373ffffffffffffffffffffffffffffffffffffffff1663f23a6e6187878686866040518663ffffffff1660e01b8152600401611469959493929190612913565b6020604051808303816000875af19250505080156114a557506040513d601f19601f820116820180604052508101906114a29190612703565b60015b61154a576114b161273d565b806308c379a00361150d57506114c561275f565b806114d0575061150f565b806040517f08c379a00000000000000000000000000000000000000000000000000000000081526004016115049190611888565b60405180910390fd5b505b6040517f08c379a000000000000000000000000000000000000000000000000000000000815260040161154190612861565b60405180910390fd5b63f23a6e6160e01b7bffffffffffffffffffffffffffffffffffffffffffffffffffffffff1916817bffffffffffffffffffffffffffffffffffffffffffffffffffffffff1916146115d1576040517f08c379a00000000000000000000000000000000000000000000000000000000081526004016115c8906128f3565b60405180910390fd5b505b505050505050565b6000808273ffffffffffffffffffffffffffffffffffffffff163b119050919050565b6000604051905090565b600080fd5b600080fd5b600073ffffffffffffffffffffffffffffffffffffffff82169050919050565b600061163d82611612565b9050919050565b61164d81611632565b811461165857600080fd5b50565b60008135905061166a81611644565b92915050565b6000819050919050565b61168381611670565b811461168e57600080fd5b50565b6000813590506116a08161167a565b92915050565b600080604083850312156116bd576116bc611608565b5b60006116cb8582860161165b565b92505060206116dc85828601611691565b9150509250929050565b6116ef81611670565b82525050565b600060208201905061170a60008301846116e6565b92915050565b60007fffffffff0000000000000000000000000000000000000000000000000000000082169050919050565b61174581611710565b811461175057600080fd5b50565b6000813590506117628161173c565b92915050565b60006020828403121561177e5761177d611608565b5b600061178c84828501611753565b91505092915050565b60008115159050919050565b6117aa81611795565b82525050565b60006020820190506117c560008301846117a1565b92915050565b6000602082840312156117e1576117e0611608565b5b60006117ef84828501611691565b91505092915050565b600081519050919050565b600082825260208201905092915050565b60005b83811015611832578082015181840152602081019050611817565b60008484015250505050565b6000601f19601f8301169050919050565b600061185a826117f8565b6118648185611803565b9350611874818560208601611814565b61187d8161183e565b840191505092915050565b600060208201905081810360008301526118a2818461184f565b905092915050565b600080fd5b7f4e487b7100000000000000000000000000000000000000000000000000000000600052604160045260246000fd5b6118e78261183e565b810181811067ffffffffffffffff82111715611906576119056118af565b5b80604052505050565b60006119196115fe565b905061192582826118de565b919050565b600067ffffffffffffffff821115611945576119446118af565b5b602082029050602081019050919050565b600080fd5b600061196e6119698461192a565b61190f565b9050808382526020820190506020840283018581111561199157611990611956565b5b835b818110156119ba57806119a68882611691565b845260208401935050602081019050611993565b5050509392505050565b600082601f8301126119d9576119d86118aa565b5b81356119e984826020860161195b565b91505092915050565b600080fd5b600067ffffffffffffffff821115611a1257611a116118af565b5b611a1b8261183e565b9050602081019050919050565b82818337600083830152505050565b6000611a4a611a45846119f7565b61190f565b905082815260208101848484011115611a6657611a656119f2565b5b611a71848285611a28565b509392505050565b600082601f830112611a8e57611a8d6118aa565b5b8135611a9e848260208601611a37565b91505092915050565b600080600080600060a08688031215611ac357611ac2611608565b5b6000611ad18882890161165b565b9550506020611ae28882890161165b565b945050604086013567ffffffffffffffff811115611b0357611b0261160d565b5b611b0f888289016119c4565b935050606086013567ffffffffffffffff811115611b3057611b2f61160d565b5b611b3c888289016119c4565b925050608086013567ffffffffffffffff811115611b5d57611b5c61160d565b5b611b6988828901611a79565b9150509295509295909350565b600067ffffffffffffffff821115611b9157611b906118af565b5b602082029050602081019050919050565b6000611bb5611bb084611b76565b61190f565b90508083825260208201905060208402830185811115611bd857611bd7611956565b5b835b81811015611c015780611bed888261165b565b845260208401935050602081019050611bda565b5050509392505050565b600082601f830112611c2057611c1f6118aa565b5b8135611c30848260208601611ba2565b91505092915050565b60008060408385031215611c5057611c4f611608565b5b600083013567ffffffffffffffff811115611c6e57611c6d61160d565b5b611c7a85828601611c0b565b925050602083013567ffffffffffffffff811115611c9b57611c9a61160d565b5b611ca7858286016119c4565b9150509250929050565b600081519050919050565b600082825260208201905092915050565b6000819050602082019050919050565b611ce681611670565b82525050565b6000611cf88383611cdd565b60208301905092915050565b6000602082019050919050565b6000611d1c82611cb1565b611d268185611cbc565b9350611d3183611ccd565b8060005b83811015611d62578151611d498882611cec565b9750611d5483611d04565b925050600181019050611d35565b5085935050505092915050565b60006020820190508181036000830152611d898184611d11565b905092915050565b611d9a81611795565b8114611da557600080fd5b50565b600081359050611db781611d91565b92915050565b60008060408385031215611dd457611dd3611608565b5b6000611de28582860161165b565b9250506020611df385828601611da8565b9150509250929050565b600067ffffffffffffffff821115611e1857611e176118af565b5b611e218261183e565b9050602081019050919050565b6000611e41611e3c84611dfd565b61190f565b905082815260208101848484011115611e5d57611e5c6119f2565b5b611e68848285611a28565b509392505050565b600082601f830112611e8557611e846118aa565b5b8135611e95848260208601611e2e565b91505092915050565b60008060008060808587031215611eb857611eb7611608565b5b6000611ec68782880161165b565b9450506020611ed787828801611691565b9350506040611ee887828801611691565b925050606085013567ffffffffffffffff811115611f0957611f0861160d565b5b611f1587828801611e70565b91505092959194509250565b60008060408385031215611f3857611f37611608565b5b6000611f468582860161165b565b9250506020611f578582860161165b565b9150509250929050565b600080600080600060a08688031215611f7d57611f7c611608565b5b6000611f8b8882890161165b565b9550506020611f9c8882890161165b565b9450506040611fad88828901611691565b9350506060611fbe88828901611691565b925050608086013567ffffffffffffffff811115611fdf57611fde61160d565b5b611feb88828901611a79565b9150509295509295909350565b7f455243313135353a2061646472657373207a65726f206973206e6f742061207660008201527f616c6964206f776e657200000000000000000000000000000000000000000000602082015250565b6000612054602a83611803565b915061205f82611ff8565b604082019050919050565b6000602082019050818103600083015261208381612047565b9050919050565b7f4e487b7100000000000000000000000000000000000000000000000000000000600052602260045260246000fd5b600060028204905060018216806120d157607f821691505b6020821081036120e4576120e361208a565b5b50919050565b7f455243313135353a2063616c6c6572206973206e6f7420746f6b656e206f776e60008201527f6572206f7220617070726f766564000000000000000000000000000000000000602082015250565b6000612146602e83611803565b9150612151826120ea565b604082019050919050565b6000602082019050818103600083015261217581612139565b9050919050565b7f455243313135353a206163636f756e747320616e6420696473206c656e67746860008201527f206d69736d617463680000000000000000000000000000000000000000000000602082015250565b60006121d8602983611803565b91506121e38261217c565b604082019050919050565b60006020820190508181036000830152612207816121cb565b9050919050565b7f4e487b7100000000000000000000000000000000000000000000000000000000600052603260045260246000fd5b7f4e487b7100000000000000000000000000000000000000000000000000000000600052601160045260246000fd5b600061227782611670565b91507fffffffffffffffffffffffffffffffffffffffffffffffffffffffffffffffff82036122a9576122a861223d565b5b600182019050919050565b60006122bf82611670565b91506122ca83611670565b92508282019050808211156122e2576122e161223d565b5b92915050565b7f455243313135353a2069647320616e6420616d6f756e7473206c656e6774682060008201527f6d69736d61746368000000000000000000000000000000000000000000000000602082015250565b6000612344602883611803565b915061234f826122e8565b604082019050919050565b6000602082019050818103600083015261237381612337565b9050919050565b7f455243313135353a207472616e7366657220746f20746865207a65726f20616460008201527f6472657373000000000000000000000000000000000000000000000000000000602082015250565b60006123d6602583611803565b91506123e18261237a565b604082019050919050565b60006020820190508181036000830152612405816123c9565b9050919050565b7f455243313135353a20696e73756666696369656e742062616c616e636520666f60008201527f72207472616e7366657200000000000000000000000000000000000000000000602082015250565b6000612468602a83611803565b91506124738261240c565b604082019050919050565b600060208201905081810360008301526124978161245b565b9050919050565b600060408201905081810360008301526124b88185611d11565b905081810360208301526124cc8184611d11565b90509392505050565b7f455243313135353a2073657474696e6720617070726f76616c2073746174757360008201527f20666f722073656c660000000000000000000000000000000000000000000000602082015250565b6000612531602983611803565b915061253c826124d5565b604082019050919050565b6000602082019050818103600083015261256081612524565b9050919050565b7f455243313135353a206d696e7420746f20746865207a65726f2061646472657360008201527f7300000000000000000000000000000000000000000000000000000000000000602082015250565b60006125c3602183611803565b91506125ce82612567565b604082019050919050565b600060208201905081810360008301526125f2816125b6565b9050919050565b600060408201905061260e60008301856116e6565b61261b60208301846116e6565b9392505050565b61262b81611632565b82525050565b600081519050919050565b600082825260208201905092915050565b600061265882612631565b612662818561263c565b9350612672818560208601611814565b61267b8161183e565b840191505092915050565b600060a08201905061269b6000830188612622565b6126a86020830187612622565b81810360408301526126ba8186611d11565b905081810360608301526126ce8185611d11565b905081810360808301526126e2818461264d565b90509695505050505050565b6000815190506126fd8161173c565b92915050565b60006020828403121561271957612718611608565b5b6000612727848285016126ee565b91505092915050565b60008160e01c9050919050565b600060033d111561275c5760046000803e612759600051612730565b90505b90565b600060443d106127ec576127716115fe565b60043d036004823e80513d602482011167ffffffffffffffff821117156127995750506127ec565b808201805167ffffffffffffffff8111156127b757505050506127ec565b80602083010160043d0385018111156127d45750505050506127ec565b6127e3826020018501866118de565b82955050505050505b90565b7f455243313135353a207472616e7366657220746f206e6f6e2d4552433131353560008201527f526563656976657220696d706c656d656e746572000000000000000000000000602082015250565b600061284b603483611803565b9150612856826127ef565b604082019050919050565b6000602082019050818103600083015261287a8161283e565b9050919050565b7f455243313135353a204552433131353552656365697665722072656a6563746560008201527f6420746f6b656e73000000000000000000000000000000000000000000000000602082015250565b60006128dd602883611803565b91506128e882612881565b604082019050919050565b6000602082019050818103600083015261290c816128d0565b9050919050565b600060a0820190506129286000830188612622565b6129356020830187612622565b61294260408301866116e6565b61294f60608301856116e6565b8181036080830152612961818461264d565b9050969550505050505056fea2646970667358221220f527051ec8deb26f86e04bdc565c17ac4467c493f4dd00abb591b5c9a30a9f0764736f6c63430008110033a2646970667358221220a8c25ca66aa3bcd495a6a3f6727c115f91b8ab497c113f0b3168da6742321ab464736f6c63430008110033","opcodes":"PUSH1 0x80 PUSH1 0x40 MSTORE CALLVALUE DUP1 ISZERO PUSH2 0x10 JUMPI PUSH1 0x0 DUP1 REVERT JUMPDEST POP CALLER PUSH1 0x1 PUSH1 0x0 PUSH2 0x100 EXP DUP2 SLOAD DUP2 PUSH20 0xFFFFFFFFFFFFFFFFFFFFFFFFFFFFFFFFFFFFFFFF MUL NOT AND SWAP1 DUP4 PUSH20 0xFFFFFFFFFFFFFFFFFFFFFFFFFFFFFFFFFFFFFFFF AND MUL OR SWAP1 SSTORE POP PUSH2 0x5825 DUP1 PUSH2 0x61 PUSH1 0x0 CODECOPY PUSH1 0x0 RETURN INVALID PUSH1 0x80 PUSH1 0x40 MSTORE PUSH1 0x4 CALLDATASIZE LT PUSH3 0xAA JUMPI PUSH1 0x0 CALLDATALOAD PUSH1 0xE0 SHR DUP1 PUSH4 0xA27924AB GT PUSH3 0x6D JUMPI DUP1 PUSH4 0xA27924AB EQ PUSH3 0x1A7 JUMPI DUP1 PUSH4 0xB60D4288 EQ PUSH3 0x1D5 JUMPI DUP1 PUSH4 0xD18F45E1 EQ PUSH3 0x1E1 JUMPI DUP1 PUSH4 0xE4FC6B6D EQ PUSH3 0x225 JUMPI DUP1 PUSH4 0xF851A440 EQ PUSH3 0x23F JUMPI DUP1 PUSH4 0xFCA604D7 EQ PUSH3 0x26F JUMPI PUSH3 0xAA JUMP JUMPDEST DUP1 PUSH4 0x31B3677 EQ PUSH3 0xAF JUMPI DUP1 PUSH4 0x13A2E117 EQ PUSH3 0xF4 JUMPI DUP1 PUSH4 0x1439AEF2 EQ PUSH3 0x124 JUMPI DUP1 PUSH4 0x4E71D92D EQ PUSH3 0x154 JUMPI DUP1 PUSH4 0x811E539C EQ PUSH3 0x16E JUMPI JUMPDEST PUSH1 0x0 DUP1 REVERT JUMPDEST CALLVALUE DUP1 ISZERO PUSH3 0xBC JUMPI PUSH1 0x0 DUP1 REVERT JUMPDEST POP PUSH3 0xDB PUSH1 0x4 DUP1 CALLDATASIZE SUB DUP2 ADD SWAP1 PUSH3 0xD5 SWAP2 SWAP1 PUSH3 0x14F3 JUMP JUMPDEST PUSH3 0x29F JUMP JUMPDEST PUSH1 0x40 MLOAD PUSH3 0xEB SWAP3 SWAP2 SWAP1 PUSH3 0x1540 JUMP JUMPDEST PUSH1 0x40 MLOAD DUP1 SWAP2 SUB SWAP1 RETURN JUMPDEST CALLVALUE DUP1 ISZERO PUSH3 0x101 JUMPI PUSH1 0x0 DUP1 REVERT JUMPDEST POP PUSH3 0x10C PUSH3 0x2C3 JUMP JUMPDEST PUSH1 0x40 MLOAD PUSH3 0x11B SWAP2 SWAP1 PUSH3 0x156D JUMP JUMPDEST PUSH1 0x40 MLOAD DUP1 SWAP2 SUB SWAP1 RETURN JUMPDEST CALLVALUE DUP1 ISZERO PUSH3 0x131 JUMPI PUSH1 0x0 DUP1 REVERT JUMPDEST POP PUSH3 0x13C PUSH3 0x2C9 JUMP JUMPDEST PUSH1 0x40 MLOAD PUSH3 0x14B SWAP2 SWAP1 PUSH3 0x156D JUMP JUMPDEST PUSH1 0x40 MLOAD DUP1 SWAP2 SUB SWAP1 RETURN JUMPDEST CALLVALUE DUP1 ISZERO PUSH3 0x161 JUMPI PUSH1 0x0 DUP1 REVERT JUMPDEST POP PUSH3 0x16C PUSH3 0x2CF JUMP JUMPDEST STOP JUMPDEST CALLVALUE DUP1 ISZERO PUSH3 0x17B JUMPI PUSH1 0x0 DUP1 REVERT JUMPDEST POP PUSH3 0x186 PUSH3 0x4CA JUMP JUMPDEST PUSH1 0x40 MLOAD PUSH3 0x19E SWAP11 SWAP10 SWAP9 SWAP8 SWAP7 SWAP6 SWAP5 SWAP4 SWAP3 SWAP2 SWAP1 PUSH3 0x1641 JUMP JUMPDEST PUSH1 0x40 MLOAD DUP1 SWAP2 SUB SWAP1 RETURN JUMPDEST CALLVALUE DUP1 ISZERO PUSH3 0x1B4 JUMPI PUSH1 0x0 DUP1 REVERT JUMPDEST POP PUSH3 0x1D3 PUSH1 0x4 DUP1 CALLDATASIZE SUB DUP2 ADD SWAP1 PUSH3 0x1CD SWAP2 SWAP1 PUSH3 0x1881 JUMP JUMPDEST PUSH3 0x646 JUMP JUMPDEST STOP JUMPDEST PUSH3 0x1DF PUSH3 0x9E7 JUMP JUMPDEST STOP JUMPDEST CALLVALUE DUP1 ISZERO PUSH3 0x1EE JUMPI PUSH1 0x0 DUP1 REVERT JUMPDEST POP PUSH3 0x20D PUSH1 0x4 DUP1 CALLDATASIZE SUB DUP2 ADD SWAP1 PUSH3 0x207 SWAP2 SWAP1 PUSH3 0x195B JUMP JUMPDEST PUSH3 0xD5A JUMP JUMPDEST PUSH1 0x40 MLOAD PUSH3 0x21C SWAP2 SWAP1 PUSH3 0x199E JUMP JUMPDEST PUSH1 0x40 MLOAD DUP1 SWAP2 SUB SWAP1 RETURN JUMPDEST CALLVALUE DUP1 ISZERO PUSH3 0x232 JUMPI PUSH1 0x0 DUP1 REVERT JUMPDEST POP PUSH3 0x23D PUSH3 0xD9A JUMP JUMPDEST STOP JUMPDEST CALLVALUE DUP1 ISZERO PUSH3 0x24C JUMPI PUSH1 0x0 DUP1 REVERT JUMPDEST POP PUSH3 0x257 PUSH3 0x12DC JUMP JUMPDEST PUSH1 0x40 MLOAD PUSH3 0x266 SWAP2 SWAP1 PUSH3 0x199E JUMP JUMPDEST PUSH1 0x40 MLOAD DUP1 SWAP2 SUB SWAP1 RETURN JUMPDEST CALLVALUE DUP1 ISZERO PUSH3 0x27C JUMPI PUSH1 0x0 DUP1 REVERT JUMPDEST POP PUSH3 0x287 PUSH3 0x1302 JUMP JUMPDEST PUSH1 0x40 MLOAD PUSH3 0x296 SWAP2 SWAP1 PUSH3 0x156D JUMP JUMPDEST PUSH1 0x40 MLOAD DUP1 SWAP2 SUB SWAP1 RETURN JUMPDEST PUSH1 0xB PUSH1 0x20 MSTORE DUP1 PUSH1 0x0 MSTORE PUSH1 0x40 PUSH1 0x0 KECCAK256 PUSH1 0x0 SWAP2 POP SWAP1 POP DUP1 PUSH1 0x0 ADD SLOAD SWAP1 DUP1 PUSH1 0x1 ADD SLOAD SWAP1 POP DUP3 JUMP JUMPDEST PUSH1 0xD SLOAD DUP2 JUMP JUMPDEST PUSH1 0xE SLOAD DUP2 JUMP JUMPDEST PUSH1 0x1 PUSH1 0x0 SWAP1 SLOAD SWAP1 PUSH2 0x100 EXP SWAP1 DIV PUSH20 0xFFFFFFFFFFFFFFFFFFFFFFFFFFFFFFFFFFFFFFFF AND PUSH20 0xFFFFFFFFFFFFFFFFFFFFFFFFFFFFFFFFFFFFFFFF AND CALLER PUSH20 0xFFFFFFFFFFFFFFFFFFFFFFFFFFFFFFFFFFFFFFFF AND EQ PUSH3 0x362 JUMPI PUSH1 0x40 MLOAD PUSH32 0x8C379A000000000000000000000000000000000000000000000000000000000 DUP2 MSTORE PUSH1 0x4 ADD PUSH3 0x359 SWAP1 PUSH3 0x1A31 JUMP JUMPDEST PUSH1 0x40 MLOAD DUP1 SWAP2 SUB SWAP1 REVERT JUMPDEST PUSH1 0x2 PUSH1 0x8 ADD PUSH1 0x0 SWAP1 SLOAD SWAP1 PUSH2 0x100 EXP SWAP1 DIV PUSH1 0xFF AND DUP1 ISZERO PUSH3 0x386 JUMPI POP PUSH1 0x2 PUSH1 0x4 ADD SLOAD TIMESTAMP GT JUMPDEST PUSH3 0x3C8 JUMPI PUSH1 0x40 MLOAD PUSH32 0x8C379A000000000000000000000000000000000000000000000000000000000 DUP2 MSTORE PUSH1 0x4 ADD PUSH3 0x3BF SWAP1 PUSH3 0x1AC9 JUMP JUMPDEST PUSH1 0x40 MLOAD DUP1 SWAP2 SUB SWAP1 REVERT JUMPDEST PUSH1 0x0 SELFBALANCE SWAP1 POP PUSH1 0x0 DUP2 GT PUSH3 0x413 JUMPI PUSH1 0x40 MLOAD PUSH32 0x8C379A000000000000000000000000000000000000000000000000000000000 DUP2 MSTORE PUSH1 0x4 ADD PUSH3 0x40A SWAP1 PUSH3 0x1B3B JUMP JUMPDEST PUSH1 0x40 MLOAD DUP1 SWAP2 SUB SWAP1 REVERT JUMPDEST PUSH1 0x0 CALLER PUSH20 0xFFFFFFFFFFFFFFFFFFFFFFFFFFFFFFFFFFFFFFFF AND DUP3 PUSH1 0x40 MLOAD PUSH3 0x43B SWAP1 PUSH3 0x1B92 JUMP JUMPDEST PUSH1 0x0 PUSH1 0x40 MLOAD DUP1 DUP4 SUB DUP2 DUP6 DUP8 GAS CALL SWAP3 POP POP POP RETURNDATASIZE DUP1 PUSH1 0x0 DUP2 EQ PUSH3 0x47A JUMPI PUSH1 0x40 MLOAD SWAP2 POP PUSH1 0x1F NOT PUSH1 0x3F RETURNDATASIZE ADD AND DUP3 ADD PUSH1 0x40 MSTORE RETURNDATASIZE DUP3 MSTORE RETURNDATASIZE PUSH1 0x0 PUSH1 0x20 DUP5 ADD RETURNDATACOPY PUSH3 0x47F JUMP JUMPDEST PUSH1 0x60 SWAP2 POP JUMPDEST POP POP SWAP1 POP DUP1 PUSH3 0x4C6 JUMPI PUSH1 0x40 MLOAD PUSH32 0x8C379A000000000000000000000000000000000000000000000000000000000 DUP2 MSTORE PUSH1 0x4 ADD PUSH3 0x4BD SWAP1 PUSH3 0x1C1F JUMP JUMPDEST PUSH1 0x40 MLOAD DUP1 SWAP2 SUB SWAP1 REVERT JUMPDEST POP POP JUMP JUMPDEST PUSH1 0x2 DUP1 PUSH1 0x0 ADD SLOAD SWAP1 DUP1 PUSH1 0x1 ADD SLOAD SWAP1 DUP1 PUSH1 0x2 ADD DUP1 SLOAD PUSH3 0x4E9 SWAP1 PUSH3 0x1C70 JUMP JUMPDEST DUP1 PUSH1 0x1F ADD PUSH1 0x20 DUP1 SWAP2 DIV MUL PUSH1 0x20 ADD PUSH1 0x40 MLOAD SWAP1 DUP2 ADD PUSH1 0x40 MSTORE DUP1 SWAP3 SWAP2 SWAP1 DUP2 DUP2 MSTORE PUSH1 0x20 ADD DUP3 DUP1 SLOAD PUSH3 0x517 SWAP1 PUSH3 0x1C70 JUMP JUMPDEST DUP1 ISZERO PUSH3 0x568 JUMPI DUP1 PUSH1 0x1F LT PUSH3 0x53C JUMPI PUSH2 0x100 DUP1 DUP4 SLOAD DIV MUL DUP4 MSTORE SWAP2 PUSH1 0x20 ADD SWAP2 PUSH3 0x568 JUMP JUMPDEST DUP3 ADD SWAP2 SWAP1 PUSH1 0x0 MSTORE PUSH1 0x20 PUSH1 0x0 KECCAK256 SWAP1 JUMPDEST DUP2 SLOAD DUP2 MSTORE SWAP1 PUSH1 0x1 ADD SWAP1 PUSH1 0x20 ADD DUP1 DUP4 GT PUSH3 0x54A JUMPI DUP3 SWAP1 SUB PUSH1 0x1F AND DUP3 ADD SWAP2 JUMPDEST POP POP POP POP POP SWAP1 DUP1 PUSH1 0x3 ADD SLOAD SWAP1 DUP1 PUSH1 0x4 ADD SLOAD SWAP1 DUP1 PUSH1 0x5 ADD SLOAD SWAP1 DUP1 PUSH1 0x6 ADD SLOAD SWAP1 DUP1 PUSH1 0x7 ADD DUP1 SLOAD PUSH3 0x597 SWAP1 PUSH3 0x1C70 JUMP JUMPDEST DUP1 PUSH1 0x1F ADD PUSH1 0x20 DUP1 SWAP2 DIV MUL PUSH1 0x20 ADD PUSH1 0x40 MLOAD SWAP1 DUP2 ADD PUSH1 0x40 MSTORE DUP1 SWAP3 SWAP2 SWAP1 DUP2 DUP2 MSTORE PUSH1 0x20 ADD DUP3 DUP1 SLOAD PUSH3 0x5C5 SWAP1 PUSH3 0x1C70 JUMP JUMPDEST DUP1 ISZERO PUSH3 0x616 JUMPI DUP1 PUSH1 0x1F LT PUSH3 0x5EA JUMPI PUSH2 0x100 DUP1 DUP4 SLOAD DIV MUL DUP4 MSTORE SWAP2 PUSH1 0x20 ADD SWAP2 PUSH3 0x616 JUMP JUMPDEST DUP3 ADD SWAP2 SWAP1 PUSH1 0x0 MSTORE PUSH1 0x20 PUSH1 0x0 KECCAK256 SWAP1 JUMPDEST DUP2 SLOAD DUP2 MSTORE SWAP1 PUSH1 0x1 ADD SWAP1 PUSH1 0x20 ADD DUP1 DUP4 GT PUSH3 0x5F8 JUMPI DUP3 SWAP1 SUB PUSH1 0x1F AND DUP3 ADD SWAP2 JUMPDEST POP POP POP POP POP SWAP1 DUP1 PUSH1 0x8 ADD PUSH1 0x0 SWAP1 SLOAD SWAP1 PUSH2 0x100 EXP SWAP1 DIV PUSH1 0xFF AND SWAP1 DUP1 PUSH1 0x8 ADD PUSH1 0x1 SWAP1 SLOAD SWAP1 PUSH2 0x100 EXP SWAP1 DIV PUSH1 0xFF AND SWAP1 POP DUP11 JUMP JUMPDEST PUSH1 0x1 PUSH1 0x0 SWAP1 SLOAD SWAP1 PUSH2 0x100 EXP SWAP1 DIV PUSH20 0xFFFFFFFFFFFFFFFFFFFFFFFFFFFFFFFFFFFFFFFF AND PUSH20 0xFFFFFFFFFFFFFFFFFFFFFFFFFFFFFFFFFFFFFFFF AND CALLER PUSH20 0xFFFFFFFFFFFFFFFFFFFFFFFFFFFFFFFFFFFFFFFF AND EQ PUSH3 0x6D9 JUMPI PUSH1 0x40 MLOAD PUSH32 0x8C379A000000000000000000000000000000000000000000000000000000000 DUP2 MSTORE PUSH1 0x4 ADD PUSH3 0x6D0 SWAP1 PUSH3 0x1A31 JUMP JUMPDEST PUSH1 0x40 MLOAD DUP1 SWAP2 SUB SWAP1 REVERT JUMPDEST PUSH1 0x0 DUP7 GT PUSH3 0x71F JUMPI PUSH1 0x40 MLOAD PUSH32 0x8C379A000000000000000000000000000000000000000000000000000000000 DUP2 MSTORE PUSH1 0x4 ADD PUSH3 0x716 SWAP1 PUSH3 0x1D1B JUMP JUMPDEST PUSH1 0x40 MLOAD DUP1 SWAP2 SUB SWAP1 REVERT JUMPDEST PUSH1 0x0 DUP6 GT DUP1 ISZERO PUSH3 0x731 JUMPI POP PUSH1 0x64 DUP6 GT ISZERO JUMPDEST PUSH3 0x773 JUMPI PUSH1 0x40 MLOAD PUSH32 0x8C379A000000000000000000000000000000000000000000000000000000000 DUP2 MSTORE PUSH1 0x4 ADD PUSH3 0x76A SWAP1 PUSH3 0x1DB3 JUMP JUMPDEST PUSH1 0x40 MLOAD DUP1 SWAP2 SUB SWAP1 REVERT JUMPDEST PUSH1 0x0 DUP4 GT PUSH3 0x7B9 JUMPI PUSH1 0x40 MLOAD PUSH32 0x8C379A000000000000000000000000000000000000000000000000000000000 DUP2 MSTORE PUSH1 0x4 ADD PUSH3 0x7B0 SWAP1 PUSH3 0x1E4B JUMP JUMPDEST PUSH1 0x40 MLOAD DUP1 SWAP2 SUB SWAP1 REVERT JUMPDEST DUP3 DUP3 GT PUSH3 0x7FE JUMPI PUSH1 0x40 MLOAD PUSH32 0x8C379A000000000000000000000000000000000000000000000000000000000 DUP2 MSTORE PUSH1 0x4 ADD PUSH3 0x7F5 SWAP1 PUSH3 0x1EE3 JUMP JUMPDEST PUSH1 0x40 MLOAD DUP1 SWAP2 SUB SWAP1 REVERT JUMPDEST PUSH1 0x40 MLOAD DUP1 PUSH2 0x140 ADD PUSH1 0x40 MSTORE DUP1 DUP8 DUP2 MSTORE PUSH1 0x20 ADD DUP7 DUP2 MSTORE PUSH1 0x20 ADD DUP6 DUP2 MSTORE PUSH1 0x20 ADD TIMESTAMP DUP2 MSTORE PUSH1 0x20 ADD PUSH3 0x15180 DUP6 PUSH3 0x833 SWAP2 SWAP1 PUSH3 0x1F34 JUMP JUMPDEST TIMESTAMP PUSH3 0x840 SWAP2 SWAP1 PUSH3 0x1F7F JUMP JUMPDEST DUP2 MSTORE PUSH1 0x20 ADD PUSH3 0x15180 DUP5 PUSH3 0x856 SWAP2 SWAP1 PUSH3 0x1F34 JUMP JUMPDEST TIMESTAMP PUSH3 0x863 SWAP2 SWAP1 PUSH3 0x1F7F JUMP JUMPDEST DUP2 MSTORE PUSH1 0x20 ADD PUSH1 0x1 PUSH1 0xF SLOAD PUSH3 0x879 SWAP2 SWAP1 PUSH3 0x1F7F JUMP JUMPDEST DUP2 MSTORE PUSH1 0x20 ADD DUP3 DUP2 MSTORE PUSH1 0x20 ADD PUSH1 0x0 ISZERO ISZERO DUP2 MSTORE PUSH1 0x20 ADD PUSH1 0x0 ISZERO ISZERO DUP2 MSTORE POP PUSH1 0x2 PUSH1 0x0 DUP3 ADD MLOAD DUP2 PUSH1 0x0 ADD SSTORE PUSH1 0x20 DUP3 ADD MLOAD DUP2 PUSH1 0x1 ADD SSTORE PUSH1 0x40 DUP3 ADD MLOAD DUP2 PUSH1 0x2 ADD SWAP1 DUP2 PUSH3 0x8C1 SWAP2 SWAP1 PUSH3 0x218C JUMP JUMPDEST POP PUSH1 0x60 DUP3 ADD MLOAD DUP2 PUSH1 0x3 ADD SSTORE PUSH1 0x80 DUP3 ADD MLOAD DUP2 PUSH1 0x4 ADD SSTORE PUSH1 0xA0 DUP3 ADD MLOAD DUP2 PUSH1 0x5 ADD SSTORE PUSH1 0xC0 DUP3 ADD MLOAD DUP2 PUSH1 0x6 ADD SSTORE PUSH1 0xE0 DUP3 ADD MLOAD DUP2 PUSH1 0x7 ADD SWAP1 DUP2 PUSH3 0x901 SWAP2 SWAP1 PUSH3 0x218C JUMP JUMPDEST POP PUSH2 0x100 DUP3 ADD MLOAD DUP2 PUSH1 0x8 ADD PUSH1 0x0 PUSH2 0x100 EXP DUP2 SLOAD DUP2 PUSH1 0xFF MUL NOT AND SWAP1 DUP4 ISZERO ISZERO MUL OR SWAP1 SSTORE POP PUSH2 0x120 DUP3 ADD MLOAD DUP2 PUSH1 0x8 ADD PUSH1 0x1 PUSH2 0x100 EXP DUP2 SLOAD DUP2 PUSH1 0xFF MUL NOT AND SWAP1 DUP4 ISZERO ISZERO MUL OR SWAP1 SSTORE POP SWAP1 POP POP PUSH1 0x1 PUSH1 0xF PUSH1 0x0 DUP3 DUP3 SLOAD PUSH3 0x95C SWAP2 SWAP1 PUSH3 0x1F7F JUMP JUMPDEST SWAP3 POP POP DUP2 SWAP1 SSTORE POP PUSH1 0x2 PUSH1 0x7 ADD PUSH1 0x40 MLOAD PUSH3 0x976 SWAP1 PUSH3 0x146C JUMP JUMPDEST PUSH3 0x982 SWAP2 SWAP1 PUSH3 0x2303 JUMP JUMPDEST PUSH1 0x40 MLOAD DUP1 SWAP2 SUB SWAP1 PUSH1 0x0 CREATE DUP1 ISZERO DUP1 ISZERO PUSH3 0x99F JUMPI RETURNDATASIZE PUSH1 0x0 DUP1 RETURNDATACOPY RETURNDATASIZE PUSH1 0x0 REVERT JUMPDEST POP PUSH1 0x0 DUP1 PUSH2 0x100 EXP DUP2 SLOAD DUP2 PUSH20 0xFFFFFFFFFFFFFFFFFFFFFFFFFFFFFFFFFFFFFFFF MUL NOT AND SWAP1 DUP4 PUSH20 0xFFFFFFFFFFFFFFFFFFFFFFFFFFFFFFFFFFFFFFFF AND MUL OR SWAP1 SSTORE POP POP POP POP POP POP POP JUMP JUMPDEST PUSH1 0x0 CALLVALUE GT PUSH3 0xA2D JUMPI PUSH1 0x40 MLOAD PUSH32 0x8C379A000000000000000000000000000000000000000000000000000000000 DUP2 MSTORE PUSH1 0x4 ADD PUSH3 0xA24 SWAP1 PUSH3 0x239D JUMP JUMPDEST PUSH1 0x40 MLOAD DUP1 SWAP2 SUB SWAP1 REVERT JUMPDEST PUSH1 0x2 PUSH1 0x3 ADD SLOAD TIMESTAMP LT ISZERO DUP1 ISZERO PUSH3 0xA48 JUMPI POP PUSH1 0x2 PUSH1 0x4 ADD SLOAD TIMESTAMP GT ISZERO JUMPDEST PUSH3 0xA8A JUMPI PUSH1 0x40 MLOAD PUSH32 0x8C379A000000000000000000000000000000000000000000000000000000000 DUP2 MSTORE PUSH1 0x4 ADD PUSH3 0xA81 SWAP1 PUSH3 0x240F JUMP JUMPDEST PUSH1 0x40 MLOAD DUP1 SWAP2 SUB SWAP1 REVERT JUMPDEST PUSH1 0x2 PUSH1 0x8 ADD PUSH1 0x0 SWAP1 SLOAD SWAP1 PUSH2 0x100 EXP SWAP1 DIV PUSH1 0xFF AND ISZERO PUSH3 0xAE0 JUMPI PUSH1 0x40 MLOAD PUSH32 0x8C379A000000000000000000000000000000000000000000000000000000000 DUP2 MSTORE PUSH1 0x4 ADD PUSH3 0xAD7 SWAP1 PUSH3 0x24A7 JUMP JUMPDEST PUSH1 0x40 MLOAD DUP1 SWAP2 SUB SWAP1 REVERT JUMPDEST PUSH1 0x0 PUSH1 0xB PUSH1 0x0 CALLER PUSH20 0xFFFFFFFFFFFFFFFFFFFFFFFFFFFFFFFFFFFFFFFF AND PUSH20 0xFFFFFFFFFFFFFFFFFFFFFFFFFFFFFFFFFFFFFFFF AND DUP2 MSTORE PUSH1 0x20 ADD SWAP1 DUP2 MSTORE PUSH1 0x20 ADD PUSH1 0x0 KECCAK256 PUSH1 0x0 ADD SLOAD SWAP1 POP PUSH1 0x0 CALLVALUE DUP3 PUSH3 0xB37 SWAP2 SWAP1 PUSH3 0x1F7F JUMP JUMPDEST SWAP1 POP CALLVALUE PUSH1 0xE PUSH1 0x0 DUP3 DUP3 SLOAD PUSH3 0xB4D SWAP2 SWAP1 PUSH3 0x1F7F JUMP JUMPDEST SWAP3 POP POP DUP2 SWAP1 SSTORE POP PUSH1 0x2 PUSH1 0x0 ADD SLOAD DUP2 GT ISZERO PUSH3 0xC69 JUMPI PUSH1 0x0 PUSH1 0xE SLOAD CALLVALUE PUSH1 0x2 PUSH1 0x0 ADD SLOAD PUSH3 0xB7A SWAP2 SWAP1 PUSH3 0x1F7F JUMP JUMPDEST PUSH3 0xB86 SWAP2 SWAP1 PUSH3 0x24C9 JUMP JUMPDEST SWAP1 POP DUP1 DUP3 PUSH3 0xB96 SWAP2 SWAP1 PUSH3 0x24C9 JUMP JUMPDEST SWAP2 POP DUP1 PUSH1 0xE PUSH1 0x0 DUP3 DUP3 SLOAD PUSH3 0xBAC SWAP2 SWAP1 PUSH3 0x24C9 JUMP JUMPDEST SWAP3 POP POP DUP2 SWAP1 SSTORE POP PUSH1 0x0 CALLER PUSH20 0xFFFFFFFFFFFFFFFFFFFFFFFFFFFFFFFFFFFFFFFF AND DUP3 PUSH1 0x40 MLOAD PUSH3 0xBDB SWAP1 PUSH3 0x1B92 JUMP JUMPDEST PUSH1 0x0 PUSH1 0x40 MLOAD DUP1 DUP4 SUB DUP2 DUP6 DUP8 GAS CALL SWAP3 POP POP POP RETURNDATASIZE DUP1 PUSH1 0x0 DUP2 EQ PUSH3 0xC1A JUMPI PUSH1 0x40 MLOAD SWAP2 POP PUSH1 0x1F NOT PUSH1 0x3F RETURNDATASIZE ADD AND DUP3 ADD PUSH1 0x40 MSTORE RETURNDATASIZE DUP3 MSTORE RETURNDATASIZE PUSH1 0x0 PUSH1 0x20 DUP5 ADD RETURNDATACOPY PUSH3 0xC1F JUMP JUMPDEST PUSH1 0x60 SWAP2 POP JUMPDEST POP POP SWAP1 POP DUP1 PUSH3 0xC66 JUMPI PUSH1 0x40 MLOAD PUSH32 0x8C379A000000000000000000000000000000000000000000000000000000000 DUP2 MSTORE PUSH1 0x4 ADD PUSH3 0xC5D SWAP1 PUSH3 0x2554 JUMP JUMPDEST PUSH1 0x40 MLOAD DUP1 SWAP2 SUB SWAP1 REVERT JUMPDEST POP POP JUMPDEST PUSH1 0x0 PUSH1 0x2 PUSH1 0x0 ADD SLOAD PUSH1 0x64 DUP4 PUSH3 0xC80 SWAP2 SWAP1 PUSH3 0x1F34 JUMP JUMPDEST PUSH3 0xC8C SWAP2 SWAP1 PUSH3 0x25A5 JUMP JUMPDEST SWAP1 POP DUP2 PUSH1 0xB PUSH1 0x0 CALLER PUSH20 0xFFFFFFFFFFFFFFFFFFFFFFFFFFFFFFFFFFFFFFFF AND PUSH20 0xFFFFFFFFFFFFFFFFFFFFFFFFFFFFFFFFFFFFFFFF AND DUP2 MSTORE PUSH1 0x20 ADD SWAP1 DUP2 MSTORE PUSH1 0x20 ADD PUSH1 0x0 KECCAK256 PUSH1 0x0 ADD DUP2 SWAP1 SSTORE POP DUP1 PUSH1 0xB PUSH1 0x0 CALLER PUSH20 0xFFFFFFFFFFFFFFFFFFFFFFFFFFFFFFFFFFFFFFFF AND PUSH20 0xFFFFFFFFFFFFFFFFFFFFFFFFFFFFFFFFFFFFFFFF AND DUP2 MSTORE PUSH1 0x20 ADD SWAP1 DUP2 MSTORE PUSH1 0x20 ADD PUSH1 0x0 KECCAK256 PUSH1 0x1 ADD DUP2 SWAP1 SSTORE POP PUSH1 0x2 PUSH1 0x0 ADD SLOAD PUSH1 0xE SLOAD LT PUSH3 0xD4A JUMPI PUSH1 0x1 PUSH1 0x2 PUSH1 0x8 ADD PUSH1 0x0 PUSH2 0x100 EXP DUP2 SLOAD DUP2 PUSH1 0xFF MUL NOT AND SWAP1 DUP4 ISZERO ISZERO MUL OR SWAP1 SSTORE POP JUMPDEST PUSH3 0xD55 CALLER PUSH3 0x1308 JUMP JUMPDEST POP POP POP JUMP JUMPDEST PUSH1 0xC DUP2 DUP2 SLOAD DUP2 LT PUSH3 0xD6B JUMPI PUSH1 0x0 DUP1 REVERT JUMPDEST SWAP1 PUSH1 0x0 MSTORE PUSH1 0x20 PUSH1 0x0 KECCAK256 ADD PUSH1 0x0 SWAP2 POP SLOAD SWAP1 PUSH2 0x100 EXP SWAP1 DIV PUSH20 0xFFFFFFFFFFFFFFFFFFFFFFFFFFFFFFFFFFFFFFFF AND DUP2 JUMP JUMPDEST PUSH1 0x2 PUSH1 0x8 ADD PUSH1 0x0 SWAP1 SLOAD SWAP1 PUSH2 0x100 EXP SWAP1 DIV PUSH1 0xFF AND ISZERO DUP1 ISZERO PUSH3 0xDBF JUMPI POP PUSH1 0x2 PUSH1 0x4 ADD SLOAD TIMESTAMP GT JUMPDEST DUP1 PUSH3 0xDCF JUMPI POP PUSH1 0x2 PUSH1 0x5 ADD SLOAD TIMESTAMP GT JUMPDEST PUSH3 0xE11 JUMPI PUSH1 0x40 MLOAD PUSH32 0x8C379A000000000000000000000000000000000000000000000000000000000 DUP2 MSTORE PUSH1 0x4 ADD PUSH3 0xE08 SWAP1 PUSH3 0x2653 JUMP JUMPDEST PUSH1 0x40 MLOAD DUP1 SWAP2 SUB SWAP1 REVERT JUMPDEST PUSH1 0x0 SELFBALANCE SWAP1 POP PUSH1 0x0 DUP2 GT PUSH3 0xE5C JUMPI PUSH1 0x40 MLOAD PUSH32 0x8C379A000000000000000000000000000000000000000000000000000000000 DUP2 MSTORE PUSH1 0x4 ADD PUSH3 0xE53 SWAP1 PUSH3 0x1B3B JUMP JUMPDEST PUSH1 0x40 MLOAD DUP1 SWAP2 SUB SWAP1 REVERT JUMPDEST PUSH1 0x2 PUSH1 0x8 ADD PUSH1 0x0 SWAP1 SLOAD SWAP1 PUSH2 0x100 EXP SWAP1 DIV PUSH1 0xFF AND PUSH3 0xFF6 JUMPI PUSH1 0x0 JUMPDEST PUSH1 0xD SLOAD DUP2 LT ISZERO PUSH3 0xFEF JUMPI PUSH1 0x0 PUSH1 0xC DUP3 DUP2 SLOAD DUP2 LT PUSH3 0xE9B JUMPI PUSH3 0xE9A PUSH3 0x2675 JUMP JUMPDEST JUMPDEST SWAP1 PUSH1 0x0 MSTORE PUSH1 0x20 PUSH1 0x0 KECCAK256 ADD PUSH1 0x0 SWAP1 SLOAD SWAP1 PUSH2 0x100 EXP SWAP1 DIV PUSH20 0xFFFFFFFFFFFFFFFFFFFFFFFFFFFFFFFFFFFFFFFF AND SWAP1 POP PUSH1 0x0 PUSH1 0xB PUSH1 0x0 DUP4 PUSH20 0xFFFFFFFFFFFFFFFFFFFFFFFFFFFFFFFFFFFFFFFF AND PUSH20 0xFFFFFFFFFFFFFFFFFFFFFFFFFFFFFFFFFFFFFFFF AND DUP2 MSTORE PUSH1 0x20 ADD SWAP1 DUP2 MSTORE PUSH1 0x20 ADD PUSH1 0x0 KECCAK256 SWAP1 POP PUSH1 0x0 DUP3 PUSH20 0xFFFFFFFFFFFFFFFFFFFFFFFFFFFFFFFFFFFFFFFF AND DUP3 PUSH1 0x0 ADD SLOAD PUSH1 0x40 MLOAD PUSH3 0xF37 SWAP1 PUSH3 0x1B92 JUMP JUMPDEST PUSH1 0x0 PUSH1 0x40 MLOAD DUP1 DUP4 SUB DUP2 DUP6 DUP8 GAS CALL SWAP3 POP POP POP RETURNDATASIZE DUP1 PUSH1 0x0 DUP2 EQ PUSH3 0xF76 JUMPI PUSH1 0x40 MLOAD SWAP2 POP PUSH1 0x1F NOT PUSH1 0x3F RETURNDATASIZE ADD AND DUP3 ADD PUSH1 0x40 MSTORE RETURNDATASIZE DUP3 MSTORE RETURNDATASIZE PUSH1 0x0 PUSH1 0x20 DUP5 ADD RETURNDATACOPY PUSH3 0xF7B JUMP JUMPDEST PUSH1 0x60 SWAP2 POP JUMPDEST POP POP SWAP1 POP DUP1 PUSH3 0xFC2 JUMPI PUSH1 0x40 MLOAD PUSH32 0x8C379A000000000000000000000000000000000000000000000000000000000 DUP2 MSTORE PUSH1 0x4 ADD PUSH3 0xFB9 SWAP1 PUSH3 0x26F4 JUMP JUMPDEST PUSH1 0x40 MLOAD DUP1 SWAP2 SUB SWAP1 REVERT JUMPDEST PUSH1 0x0 DUP3 PUSH1 0x0 ADD DUP2 SWAP1 SSTORE POP PUSH1 0x0 DUP3 PUSH1 0x1 ADD DUP2 SWAP1 SSTORE POP POP POP POP DUP1 DUP1 PUSH3 0xFE6 SWAP1 PUSH3 0x2716 JUMP JUMPDEST SWAP2 POP POP PUSH3 0xE77 JUMP JUMPDEST POP PUSH3 0x12D9 JUMP JUMPDEST PUSH1 0x0 PUSH1 0x2 PUSH1 0x1 ADD SLOAD EQ PUSH3 0x11E4 JUMPI PUSH1 0x0 JUMPDEST PUSH1 0xD SLOAD DUP2 LT ISZERO PUSH3 0x11E2 JUMPI PUSH1 0x0 PUSH1 0xC DUP3 DUP2 SLOAD DUP2 LT PUSH3 0x102B JUMPI PUSH3 0x102A PUSH3 0x2675 JUMP JUMPDEST JUMPDEST SWAP1 PUSH1 0x0 MSTORE PUSH1 0x20 PUSH1 0x0 KECCAK256 ADD PUSH1 0x0 SWAP1 SLOAD SWAP1 PUSH2 0x100 EXP SWAP1 DIV PUSH20 0xFFFFFFFFFFFFFFFFFFFFFFFFFFFFFFFFFFFFFFFF AND SWAP1 POP PUSH1 0x0 PUSH1 0xB PUSH1 0x0 DUP4 PUSH20 0xFFFFFFFFFFFFFFFFFFFFFFFFFFFFFFFFFFFFFFFF AND PUSH20 0xFFFFFFFFFFFFFFFFFFFFFFFFFFFFFFFFFFFFFFFF AND DUP2 MSTORE PUSH1 0x20 ADD SWAP1 DUP2 MSTORE PUSH1 0x20 ADD PUSH1 0x0 KECCAK256 SWAP1 POP PUSH1 0x0 PUSH2 0x2710 DUP3 PUSH1 0x1 ADD SLOAD PUSH1 0x2 PUSH1 0x1 ADD SLOAD DUP8 PUSH3 0x10B8 SWAP2 SWAP1 PUSH3 0x1F34 JUMP JUMPDEST PUSH3 0x10C4 SWAP2 SWAP1 PUSH3 0x1F34 JUMP JUMPDEST PUSH3 0x10D0 SWAP2 SWAP1 PUSH3 0x25A5 JUMP JUMPDEST SWAP1 POP PUSH1 0x0 DUP4 PUSH20 0xFFFFFFFFFFFFFFFFFFFFFFFFFFFFFFFFFFFFFFFF AND DUP3 PUSH1 0x40 MLOAD PUSH3 0x10FA SWAP1 PUSH3 0x1B92 JUMP JUMPDEST PUSH1 0x0 PUSH1 0x40 MLOAD DUP1 DUP4 SUB DUP2 DUP6 DUP8 GAS CALL SWAP3 POP POP POP RETURNDATASIZE DUP1 PUSH1 0x0 DUP2 EQ PUSH3 0x1139 JUMPI PUSH1 0x40 MLOAD SWAP2 POP PUSH1 0x1F NOT PUSH1 0x3F RETURNDATASIZE ADD AND DUP3 ADD PUSH1 0x40 MSTORE RETURNDATASIZE DUP3 MSTORE RETURNDATASIZE PUSH1 0x0 PUSH1 0x20 DUP5 ADD RETURNDATACOPY PUSH3 0x113E JUMP JUMPDEST PUSH1 0x60 SWAP2 POP JUMPDEST POP POP SWAP1 POP DUP1 PUSH3 0x1185 JUMPI PUSH1 0x40 MLOAD PUSH32 0x8C379A000000000000000000000000000000000000000000000000000000000 DUP2 MSTORE PUSH1 0x4 ADD PUSH3 0x117C SWAP1 PUSH3 0x27B3 JUMP JUMPDEST PUSH1 0x40 MLOAD DUP1 SWAP2 SUB SWAP1 REVERT JUMPDEST PUSH1 0x2 PUSH1 0x8 ADD PUSH1 0x1 SWAP1 SLOAD SWAP1 PUSH2 0x100 EXP SWAP1 DIV PUSH1 0xFF AND PUSH3 0x11B4 JUMPI PUSH3 0x11B3 DUP5 PUSH1 0x2 PUSH1 0x6 ADD SLOAD DUP6 PUSH1 0x0 ADD SLOAD PUSH3 0x13D4 JUMP JUMPDEST JUMPDEST PUSH1 0x0 DUP4 PUSH1 0x1 ADD DUP2 SWAP1 SSTORE POP PUSH1 0x0 DUP4 PUSH1 0x0 ADD DUP2 SWAP1 SSTORE POP POP POP POP POP DUP1 DUP1 PUSH3 0x11D9 SWAP1 PUSH3 0x2716 JUMP JUMPDEST SWAP2 POP POP PUSH3 0x1007 JUMP JUMPDEST POP JUMPDEST PUSH1 0x1 PUSH1 0x2 PUSH1 0x8 ADD PUSH1 0x1 PUSH2 0x100 EXP DUP2 SLOAD DUP2 PUSH1 0xFF MUL NOT AND SWAP1 DUP4 ISZERO ISZERO MUL OR SWAP1 SSTORE POP PUSH1 0x0 PUSH1 0x1 PUSH1 0x0 SWAP1 SLOAD SWAP1 PUSH2 0x100 EXP SWAP1 DIV PUSH20 0xFFFFFFFFFFFFFFFFFFFFFFFFFFFFFFFFFFFFFFFF AND PUSH20 0xFFFFFFFFFFFFFFFFFFFFFFFFFFFFFFFFFFFFFFFF AND SELFBALANCE PUSH1 0x40 MLOAD PUSH3 0x124C SWAP1 PUSH3 0x1B92 JUMP JUMPDEST PUSH1 0x0 PUSH1 0x40 MLOAD DUP1 DUP4 SUB DUP2 DUP6 DUP8 GAS CALL SWAP3 POP POP POP RETURNDATASIZE DUP1 PUSH1 0x0 DUP2 EQ PUSH3 0x128B JUMPI PUSH1 0x40 MLOAD SWAP2 POP PUSH1 0x1F NOT PUSH1 0x3F RETURNDATASIZE ADD AND DUP3 ADD PUSH1 0x40 MSTORE RETURNDATASIZE DUP3 MSTORE RETURNDATASIZE PUSH1 0x0 PUSH1 0x20 DUP5 ADD RETURNDATACOPY PUSH3 0x1290 JUMP JUMPDEST PUSH1 0x60 SWAP2 POP JUMPDEST POP POP SWAP1 POP DUP1 PUSH3 0x12D7 JUMPI PUSH1 0x40 MLOAD PUSH32 0x8C379A000000000000000000000000000000000000000000000000000000000 DUP2 MSTORE PUSH1 0x4 ADD PUSH3 0x12CE SWAP1 PUSH3 0x2825 JUMP JUMPDEST PUSH1 0x40 MLOAD DUP1 SWAP2 SUB SWAP1 REVERT JUMPDEST POP JUMPDEST POP JUMP JUMPDEST PUSH1 0x1 PUSH1 0x0 SWAP1 SLOAD SWAP1 PUSH2 0x100 EXP SWAP1 DIV PUSH20 0xFFFFFFFFFFFFFFFFFFFFFFFFFFFFFFFFFFFFFFFF AND DUP2 JUMP JUMPDEST PUSH1 0xF SLOAD DUP2 JUMP JUMPDEST PUSH1 0x0 PUSH1 0xB PUSH1 0x0 DUP4 PUSH20 0xFFFFFFFFFFFFFFFFFFFFFFFFFFFFFFFFFFFFFFFF AND PUSH20 0xFFFFFFFFFFFFFFFFFFFFFFFFFFFFFFFFFFFFFFFF AND DUP2 MSTORE PUSH1 0x20 ADD SWAP1 DUP2 MSTORE PUSH1 0x20 ADD PUSH1 0x0 KECCAK256 PUSH1 0x0 ADD SLOAD SUB PUSH3 0x13D1 JUMPI PUSH1 0xC DUP2 SWAP1 DUP1 PUSH1 0x1 DUP2 SLOAD ADD DUP1 DUP3 SSTORE DUP1 SWAP2 POP POP PUSH1 0x1 SWAP1 SUB SWAP1 PUSH1 0x0 MSTORE PUSH1 0x20 PUSH1 0x0 KECCAK256 ADD PUSH1 0x0 SWAP1 SWAP2 SWAP1 SWAP2 SWAP1 SWAP2 PUSH2 0x100 EXP DUP2 SLOAD DUP2 PUSH20 0xFFFFFFFFFFFFFFFFFFFFFFFFFFFFFFFFFFFFFFFF MUL NOT AND SWAP1 DUP4 PUSH20 0xFFFFFFFFFFFFFFFFFFFFFFFFFFFFFFFFFFFFFFFF AND MUL OR SWAP1 SSTORE POP PUSH1 0xD PUSH1 0x0 DUP2 SLOAD DUP1 SWAP3 SWAP2 SWAP1 PUSH3 0x13CB SWAP1 PUSH3 0x2716 JUMP JUMPDEST SWAP2 SWAP1 POP SSTORE POP JUMPDEST POP JUMP JUMPDEST PUSH1 0x0 DUP1 SLOAD SWAP1 PUSH2 0x100 EXP SWAP1 DIV PUSH20 0xFFFFFFFFFFFFFFFFFFFFFFFFFFFFFFFFFFFFFFFF AND PUSH20 0xFFFFFFFFFFFFFFFFFFFFFFFFFFFFFFFFFFFFFFFF AND PUSH4 0xBB7FDE71 DUP5 DUP5 DUP5 PUSH1 0x40 MLOAD DUP5 PUSH4 0xFFFFFFFF AND PUSH1 0xE0 SHL DUP2 MSTORE PUSH1 0x4 ADD PUSH3 0x1433 SWAP4 SWAP3 SWAP2 SWAP1 PUSH3 0x286E JUMP JUMPDEST PUSH1 0x0 PUSH1 0x40 MLOAD DUP1 DUP4 SUB DUP2 PUSH1 0x0 DUP8 DUP1 EXTCODESIZE ISZERO DUP1 ISZERO PUSH3 0x144E JUMPI PUSH1 0x0 DUP1 REVERT JUMPDEST POP GAS CALL ISZERO DUP1 ISZERO PUSH3 0x1463 JUMPI RETURNDATASIZE PUSH1 0x0 DUP1 RETURNDATACOPY RETURNDATASIZE PUSH1 0x0 REVERT JUMPDEST POP POP POP POP POP POP POP JUMP JUMPDEST PUSH2 0x2F2F DUP1 PUSH3 0x28C1 DUP4 CODECOPY ADD SWAP1 JUMP JUMPDEST PUSH1 0x0 PUSH1 0x40 MLOAD SWAP1 POP SWAP1 JUMP JUMPDEST PUSH1 0x0 DUP1 REVERT JUMPDEST PUSH1 0x0 DUP1 REVERT JUMPDEST PUSH1 0x0 PUSH20 0xFFFFFFFFFFFFFFFFFFFFFFFFFFFFFFFFFFFFFFFF DUP3 AND SWAP1 POP SWAP2 SWAP1 POP JUMP JUMPDEST PUSH1 0x0 PUSH3 0x14BB DUP3 PUSH3 0x148E JUMP JUMPDEST SWAP1 POP SWAP2 SWAP1 POP JUMP JUMPDEST PUSH3 0x14CD DUP2 PUSH3 0x14AE JUMP JUMPDEST DUP2 EQ PUSH3 0x14D9 JUMPI PUSH1 0x0 DUP1 REVERT JUMPDEST POP JUMP JUMPDEST PUSH1 0x0 DUP2 CALLDATALOAD SWAP1 POP PUSH3 0x14ED DUP2 PUSH3 0x14C2 JUMP JUMPDEST SWAP3 SWAP2 POP POP JUMP JUMPDEST PUSH1 0x0 PUSH1 0x20 DUP3 DUP5 SUB SLT ISZERO PUSH3 0x150C JUMPI PUSH3 0x150B PUSH3 0x1484 JUMP JUMPDEST JUMPDEST PUSH1 0x0 PUSH3 0x151C DUP5 DUP3 DUP6 ADD PUSH3 0x14DC JUMP JUMPDEST SWAP2 POP POP SWAP3 SWAP2 POP POP JUMP JUMPDEST PUSH1 0x0 DUP2 SWAP1 POP SWAP2 SWAP1 POP JUMP JUMPDEST PUSH3 0x153A DUP2 PUSH3 0x1525 JUMP JUMPDEST DUP3 MSTORE POP POP JUMP JUMPDEST PUSH1 0x0 PUSH1 0x40 DUP3 ADD SWAP1 POP PUSH3 0x1557 PUSH1 0x0 DUP4 ADD DUP6 PUSH3 0x152F JUMP JUMPDEST PUSH3 0x1566 PUSH1 0x20 DUP4 ADD DUP5 PUSH3 0x152F JUMP JUMPDEST SWAP4 SWAP3 POP POP POP JUMP JUMPDEST PUSH1 0x0 PUSH1 0x20 DUP3 ADD SWAP1 POP PUSH3 0x1584 PUSH1 0x0 DUP4 ADD DUP5 PUSH3 0x152F JUMP JUMPDEST SWAP3 SWAP2 POP POP JUMP JUMPDEST PUSH1 0x0 DUP2 MLOAD SWAP1 POP SWAP2 SWAP1 POP JUMP JUMPDEST PUSH1 0x0 DUP3 DUP3 MSTORE PUSH1 0x20 DUP3 ADD SWAP1 POP SWAP3 SWAP2 POP POP JUMP JUMPDEST PUSH1 0x0 JUMPDEST DUP4 DUP2 LT ISZERO PUSH3 0x15C6 JUMPI DUP1 DUP3 ADD MLOAD DUP2 DUP5 ADD MSTORE PUSH1 0x20 DUP2 ADD SWAP1 POP PUSH3 0x15A9 JUMP JUMPDEST PUSH1 0x0 DUP5 DUP5 ADD MSTORE POP POP POP POP JUMP JUMPDEST PUSH1 0x0 PUSH1 0x1F NOT PUSH1 0x1F DUP4 ADD AND SWAP1 POP SWAP2 SWAP1 POP JUMP JUMPDEST PUSH1 0x0 PUSH3 0x15F0 DUP3 PUSH3 0x158A JUMP JUMPDEST PUSH3 0x15FC DUP2 DUP6 PUSH3 0x1595 JUMP JUMPDEST SWAP4 POP PUSH3 0x160E DUP2 DUP6 PUSH1 0x20 DUP7 ADD PUSH3 0x15A6 JUMP JUMPDEST PUSH3 0x1619 DUP2 PUSH3 0x15D2 JUMP JUMPDEST DUP5 ADD SWAP2 POP POP SWAP3 SWAP2 POP POP JUMP JUMPDEST PUSH1 0x0 DUP2 ISZERO ISZERO SWAP1 POP SWAP2 SWAP1 POP JUMP JUMPDEST PUSH3 0x163B DUP2 PUSH3 0x1624 JUMP JUMPDEST DUP3 MSTORE POP POP JUMP JUMPDEST PUSH1 0x0 PUSH2 0x140 DUP3 ADD SWAP1 POP PUSH3 0x1659 PUSH1 0x0 DUP4 ADD DUP14 PUSH3 0x152F JUMP JUMPDEST PUSH3 0x1668 PUSH1 0x20 DUP4 ADD DUP13 PUSH3 0x152F JUMP JUMPDEST DUP2 DUP2 SUB PUSH1 0x40 DUP4 ADD MSTORE PUSH3 0x167C DUP2 DUP12 PUSH3 0x15E3 JUMP JUMPDEST SWAP1 POP PUSH3 0x168D PUSH1 0x60 DUP4 ADD DUP11 PUSH3 0x152F JUMP JUMPDEST PUSH3 0x169C PUSH1 0x80 DUP4 ADD DUP10 PUSH3 0x152F JUMP JUMPDEST PUSH3 0x16AB PUSH1 0xA0 DUP4 ADD DUP9 PUSH3 0x152F JUMP JUMPDEST PUSH3 0x16BA PUSH1 0xC0 DUP4 ADD DUP8 PUSH3 0x152F JUMP JUMPDEST DUP2 DUP2 SUB PUSH1 0xE0 DUP4 ADD MSTORE PUSH3 0x16CE DUP2 DUP7 PUSH3 0x15E3 JUMP JUMPDEST SWAP1 POP PUSH3 0x16E0 PUSH2 0x100 DUP4 ADD DUP6 PUSH3 0x1630 JUMP JUMPDEST PUSH3 0x16F0 PUSH2 0x120 DUP4 ADD DUP5 PUSH3 0x1630 JUMP JUMPDEST SWAP12 SWAP11 POP POP POP POP POP POP POP POP POP POP POP JUMP JUMPDEST PUSH3 0x170A DUP2 PUSH3 0x1525 JUMP JUMPDEST DUP2 EQ PUSH3 0x1716 JUMPI PUSH1 0x0 DUP1 REVERT JUMPDEST POP JUMP JUMPDEST PUSH1 0x0 DUP2 CALLDATALOAD SWAP1 POP PUSH3 0x172A DUP2 PUSH3 0x16FF JUMP JUMPDEST SWAP3 SWAP2 POP POP JUMP JUMPDEST PUSH1 0x0 DUP1 REVERT JUMPDEST PUSH1 0x0 DUP1 REVERT JUMPDEST PUSH32 0x4E487B7100000000000000000000000000000000000000000000000000000000 PUSH1 0x0 MSTORE PUSH1 0x41 PUSH1 0x4 MSTORE PUSH1 0x24 PUSH1 0x0 REVERT JUMPDEST PUSH3 0x1774 DUP3 PUSH3 0x15D2 JUMP JUMPDEST DUP2 ADD DUP2 DUP2 LT PUSH8 0xFFFFFFFFFFFFFFFF DUP3 GT OR ISZERO PUSH3 0x1796 JUMPI PUSH3 0x1795 PUSH3 0x173A JUMP JUMPDEST JUMPDEST DUP1 PUSH1 0x40 MSTORE POP POP POP JUMP JUMPDEST PUSH1 0x0 PUSH3 0x17AB PUSH3 0x147A JUMP JUMPDEST SWAP1 POP PUSH3 0x17B9 DUP3 DUP3 PUSH3 0x1769 JUMP JUMPDEST SWAP2 SWAP1 POP JUMP JUMPDEST PUSH1 0x0 PUSH8 0xFFFFFFFFFFFFFFFF DUP3 GT ISZERO PUSH3 0x17DC JUMPI PUSH3 0x17DB PUSH3 0x173A JUMP JUMPDEST JUMPDEST PUSH3 0x17E7 DUP3 PUSH3 0x15D2 JUMP JUMPDEST SWAP1 POP PUSH1 0x20 DUP2 ADD SWAP1 POP SWAP2 SWAP1 POP JUMP JUMPDEST DUP3 DUP2 DUP4 CALLDATACOPY PUSH1 0x0 DUP4 DUP4 ADD MSTORE POP POP POP JUMP JUMPDEST PUSH1 0x0 PUSH3 0x181A PUSH3 0x1814 DUP5 PUSH3 0x17BE JUMP JUMPDEST PUSH3 0x179F JUMP JUMPDEST SWAP1 POP DUP3 DUP2 MSTORE PUSH1 0x20 DUP2 ADD DUP5 DUP5 DUP5 ADD GT ISZERO PUSH3 0x1839 JUMPI PUSH3 0x1838 PUSH3 0x1735 JUMP JUMPDEST JUMPDEST PUSH3 0x1846 DUP5 DUP3 DUP6 PUSH3 0x17F4 JUMP JUMPDEST POP SWAP4 SWAP3 POP POP POP JUMP JUMPDEST PUSH1 0x0 DUP3 PUSH1 0x1F DUP4 ADD SLT PUSH3 0x1866 JUMPI PUSH3 0x1865 PUSH3 0x1730 JUMP JUMPDEST JUMPDEST DUP2 CALLDATALOAD PUSH3 0x1878 DUP5 DUP3 PUSH1 0x20 DUP7 ADD PUSH3 0x1803 JUMP JUMPDEST SWAP2 POP POP SWAP3 SWAP2 POP POP JUMP JUMPDEST PUSH1 0x0 DUP1 PUSH1 0x0 DUP1 PUSH1 0x0 DUP1 PUSH1 0xC0 DUP8 DUP10 SUB SLT ISZERO PUSH3 0x18A1 JUMPI PUSH3 0x18A0 PUSH3 0x1484 JUMP JUMPDEST JUMPDEST PUSH1 0x0 PUSH3 0x18B1 DUP10 DUP3 DUP11 ADD PUSH3 0x1719 JUMP JUMPDEST SWAP7 POP POP PUSH1 0x20 PUSH3 0x18C4 DUP10 DUP3 DUP11 ADD PUSH3 0x1719 JUMP JUMPDEST SWAP6 POP POP PUSH1 0x40 DUP8 ADD CALLDATALOAD PUSH8 0xFFFFFFFFFFFFFFFF DUP2 GT ISZERO PUSH3 0x18E8 JUMPI PUSH3 0x18E7 PUSH3 0x1489 JUMP JUMPDEST JUMPDEST PUSH3 0x18F6 DUP10 DUP3 DUP11 ADD PUSH3 0x184E JUMP JUMPDEST SWAP5 POP POP PUSH1 0x60 PUSH3 0x1909 DUP10 DUP3 DUP11 ADD PUSH3 0x1719 JUMP JUMPDEST SWAP4 POP POP PUSH1 0x80 PUSH3 0x191C DUP10 DUP3 DUP11 ADD PUSH3 0x1719 JUMP JUMPDEST SWAP3 POP POP PUSH1 0xA0 DUP8 ADD CALLDATALOAD PUSH8 0xFFFFFFFFFFFFFFFF DUP2 GT ISZERO PUSH3 0x1940 JUMPI PUSH3 0x193F PUSH3 0x1489 JUMP JUMPDEST JUMPDEST PUSH3 0x194E DUP10 DUP3 DUP11 ADD PUSH3 0x184E JUMP JUMPDEST SWAP2 POP POP SWAP3 SWAP6 POP SWAP3 SWAP6 POP SWAP3 SWAP6 JUMP JUMPDEST PUSH1 0x0 PUSH1 0x20 DUP3 DUP5 SUB SLT ISZERO PUSH3 0x1974 JUMPI PUSH3 0x1973 PUSH3 0x1484 JUMP JUMPDEST JUMPDEST PUSH1 0x0 PUSH3 0x1984 DUP5 DUP3 DUP6 ADD PUSH3 0x1719 JUMP JUMPDEST SWAP2 POP POP SWAP3 SWAP2 POP POP JUMP JUMPDEST PUSH3 0x1998 DUP2 PUSH3 0x14AE JUMP JUMPDEST DUP3 MSTORE POP POP JUMP JUMPDEST PUSH1 0x0 PUSH1 0x20 DUP3 ADD SWAP1 POP PUSH3 0x19B5 PUSH1 0x0 DUP4 ADD DUP5 PUSH3 0x198D JUMP JUMPDEST SWAP3 SWAP2 POP POP JUMP JUMPDEST PUSH32 0x4F6E6C79207468652061646D696E2063616E20706572666F726D207468697320 PUSH1 0x0 DUP3 ADD MSTORE PUSH32 0x616374696F6E2E00000000000000000000000000000000000000000000000000 PUSH1 0x20 DUP3 ADD MSTORE POP JUMP JUMPDEST PUSH1 0x0 PUSH3 0x1A19 PUSH1 0x27 DUP4 PUSH3 0x1595 JUMP JUMPDEST SWAP2 POP PUSH3 0x1A26 DUP3 PUSH3 0x19BB JUMP JUMPDEST PUSH1 0x40 DUP3 ADD SWAP1 POP SWAP2 SWAP1 POP JUMP JUMPDEST PUSH1 0x0 PUSH1 0x20 DUP3 ADD SWAP1 POP DUP2 DUP2 SUB PUSH1 0x0 DUP4 ADD MSTORE PUSH3 0x1A4C DUP2 PUSH3 0x1A0A JUMP JUMPDEST SWAP1 POP SWAP2 SWAP1 POP JUMP JUMPDEST PUSH32 0x46756E64696E6720676F616C20686173206E6F74206265656E20726561636865 PUSH1 0x0 DUP3 ADD MSTORE PUSH32 0x64207965742E0000000000000000000000000000000000000000000000000000 PUSH1 0x20 DUP3 ADD MSTORE POP JUMP JUMPDEST PUSH1 0x0 PUSH3 0x1AB1 PUSH1 0x26 DUP4 PUSH3 0x1595 JUMP JUMPDEST SWAP2 POP PUSH3 0x1ABE DUP3 PUSH3 0x1A53 JUMP JUMPDEST PUSH1 0x40 DUP3 ADD SWAP1 POP SWAP2 SWAP1 POP JUMP JUMPDEST PUSH1 0x0 PUSH1 0x20 DUP3 ADD SWAP1 POP DUP2 DUP2 SUB PUSH1 0x0 DUP4 ADD MSTORE PUSH3 0x1AE4 DUP2 PUSH3 0x1AA2 JUMP JUMPDEST SWAP1 POP SWAP2 SWAP1 POP JUMP JUMPDEST PUSH32 0x436F6E74726163742062616C616E6365206973207A65726F2E00000000000000 PUSH1 0x0 DUP3 ADD MSTORE POP JUMP JUMPDEST PUSH1 0x0 PUSH3 0x1B23 PUSH1 0x19 DUP4 PUSH3 0x1595 JUMP JUMPDEST SWAP2 POP PUSH3 0x1B30 DUP3 PUSH3 0x1AEB JUMP JUMPDEST PUSH1 0x20 DUP3 ADD SWAP1 POP SWAP2 SWAP1 POP JUMP JUMPDEST PUSH1 0x0 PUSH1 0x20 DUP3 ADD SWAP1 POP DUP2 DUP2 SUB PUSH1 0x0 DUP4 ADD MSTORE PUSH3 0x1B56 DUP2 PUSH3 0x1B14 JUMP JUMPDEST SWAP1 POP SWAP2 SWAP1 POP JUMP JUMPDEST PUSH1 0x0 DUP2 SWAP1 POP SWAP3 SWAP2 POP POP JUMP JUMPDEST POP JUMP JUMPDEST PUSH1 0x0 PUSH3 0x1B7A PUSH1 0x0 DUP4 PUSH3 0x1B5D JUMP JUMPDEST SWAP2 POP PUSH3 0x1B87 DUP3 PUSH3 0x1B68 JUMP JUMPDEST PUSH1 0x0 DUP3 ADD SWAP1 POP SWAP2 SWAP1 POP JUMP JUMPDEST PUSH1 0x0 PUSH3 0x1B9F DUP3 PUSH3 0x1B6B JUMP JUMPDEST SWAP2 POP DUP2 SWAP1 POP SWAP2 SWAP1 POP JUMP JUMPDEST PUSH32 0x4661696C656420746F2073656E6420746F74616C2066756E64656420616D6F75 PUSH1 0x0 DUP3 ADD MSTORE PUSH32 0x6E742E0000000000000000000000000000000000000000000000000000000000 PUSH1 0x20 DUP3 ADD MSTORE POP JUMP JUMPDEST PUSH1 0x0 PUSH3 0x1C07 PUSH1 0x23 DUP4 PUSH3 0x1595 JUMP JUMPDEST SWAP2 POP PUSH3 0x1C14 DUP3 PUSH3 0x1BA9 JUMP JUMPDEST PUSH1 0x40 DUP3 ADD SWAP1 POP SWAP2 SWAP1 POP JUMP JUMPDEST PUSH1 0x0 PUSH1 0x20 DUP3 ADD SWAP1 POP DUP2 DUP2 SUB PUSH1 0x0 DUP4 ADD MSTORE PUSH3 0x1C3A DUP2 PUSH3 0x1BF8 JUMP JUMPDEST SWAP1 POP SWAP2 SWAP1 POP JUMP JUMPDEST PUSH32 0x4E487B7100000000000000000000000000000000000000000000000000000000 PUSH1 0x0 MSTORE PUSH1 0x22 PUSH1 0x4 MSTORE PUSH1 0x24 PUSH1 0x0 REVERT JUMPDEST PUSH1 0x0 PUSH1 0x2 DUP3 DIV SWAP1 POP PUSH1 0x1 DUP3 AND DUP1 PUSH3 0x1C89 JUMPI PUSH1 0x7F DUP3 AND SWAP2 POP JUMPDEST PUSH1 0x20 DUP3 LT DUP2 SUB PUSH3 0x1C9F JUMPI PUSH3 0x1C9E PUSH3 0x1C41 JUMP JUMPDEST JUMPDEST POP SWAP2 SWAP1 POP JUMP JUMPDEST PUSH32 0x46756E64696E6720676F616C206D757374206265206772656174657220746861 PUSH1 0x0 DUP3 ADD MSTORE PUSH32 0x6E207A65726F2E00000000000000000000000000000000000000000000000000 PUSH1 0x20 DUP3 ADD MSTORE POP JUMP JUMPDEST PUSH1 0x0 PUSH3 0x1D03 PUSH1 0x27 DUP4 PUSH3 0x1595 JUMP JUMPDEST SWAP2 POP PUSH3 0x1D10 DUP3 PUSH3 0x1CA5 JUMP JUMPDEST PUSH1 0x40 DUP3 ADD SWAP1 POP SWAP2 SWAP1 POP JUMP JUMPDEST PUSH1 0x0 PUSH1 0x20 DUP3 ADD SWAP1 POP DUP2 DUP2 SUB PUSH1 0x0 DUP4 ADD MSTORE PUSH3 0x1D36 DUP2 PUSH3 0x1CF4 JUMP JUMPDEST SWAP1 POP SWAP2 SWAP1 POP JUMP JUMPDEST PUSH32 0x5368617265642072657475726E2070657263656E74616765206D757374206265 PUSH1 0x0 DUP3 ADD MSTORE PUSH32 0x206265747765656E203120616E64203130302E00000000000000000000000000 PUSH1 0x20 DUP3 ADD MSTORE POP JUMP JUMPDEST PUSH1 0x0 PUSH3 0x1D9B PUSH1 0x33 DUP4 PUSH3 0x1595 JUMP JUMPDEST SWAP2 POP PUSH3 0x1DA8 DUP3 PUSH3 0x1D3D JUMP JUMPDEST PUSH1 0x40 DUP3 ADD SWAP1 POP SWAP2 SWAP1 POP JUMP JUMPDEST PUSH1 0x0 PUSH1 0x20 DUP3 ADD SWAP1 POP DUP2 DUP2 SUB PUSH1 0x0 DUP4 ADD MSTORE PUSH3 0x1DCE DUP2 PUSH3 0x1D8C JUMP JUMPDEST SWAP1 POP SWAP2 SWAP1 POP JUMP JUMPDEST PUSH32 0x46756E64696E6720706572696F64206D75737420626520677265617465722074 PUSH1 0x0 DUP3 ADD MSTORE PUSH32 0x68616E207A65726F2E0000000000000000000000000000000000000000000000 PUSH1 0x20 DUP3 ADD MSTORE POP JUMP JUMPDEST PUSH1 0x0 PUSH3 0x1E33 PUSH1 0x29 DUP4 PUSH3 0x1595 JUMP JUMPDEST SWAP2 POP PUSH3 0x1E40 DUP3 PUSH3 0x1DD5 JUMP JUMPDEST PUSH1 0x40 DUP3 ADD SWAP1 POP SWAP2 SWAP1 POP JUMP JUMPDEST PUSH1 0x0 PUSH1 0x20 DUP3 ADD SWAP1 POP DUP2 DUP2 SUB PUSH1 0x0 DUP4 ADD MSTORE PUSH3 0x1E66 DUP2 PUSH3 0x1E24 JUMP JUMPDEST SWAP1 POP SWAP2 SWAP1 POP JUMP JUMPDEST PUSH32 0x43616D706169676E206475726174696F6E206D75737420626520677265617465 PUSH1 0x0 DUP3 ADD MSTORE PUSH32 0x72207468616E207468652066756E64696E6720706572696F642E000000000000 PUSH1 0x20 DUP3 ADD MSTORE POP JUMP JUMPDEST PUSH1 0x0 PUSH3 0x1ECB PUSH1 0x3A DUP4 PUSH3 0x1595 JUMP JUMPDEST SWAP2 POP PUSH3 0x1ED8 DUP3 PUSH3 0x1E6D JUMP JUMPDEST PUSH1 0x40 DUP3 ADD SWAP1 POP SWAP2 SWAP1 POP JUMP JUMPDEST PUSH1 0x0 PUSH1 0x20 DUP3 ADD SWAP1 POP DUP2 DUP2 SUB PUSH1 0x0 DUP4 ADD MSTORE PUSH3 0x1EFE DUP2 PUSH3 0x1EBC JUMP JUMPDEST SWAP1 POP SWAP2 SWAP1 POP JUMP JUMPDEST PUSH32 0x4E487B7100000000000000000000000000000000000000000000000000000000 PUSH1 0x0 MSTORE PUSH1 0x11 PUSH1 0x4 MSTORE PUSH1 0x24 PUSH1 0x0 REVERT JUMPDEST PUSH1 0x0 PUSH3 0x1F41 DUP3 PUSH3 0x1525 JUMP JUMPDEST SWAP2 POP PUSH3 0x1F4E DUP4 PUSH3 0x1525 JUMP JUMPDEST SWAP3 POP DUP3 DUP3 MUL PUSH3 0x1F5E DUP2 PUSH3 0x1525 JUMP JUMPDEST SWAP2 POP DUP3 DUP3 DIV DUP5 EQ DUP4 ISZERO OR PUSH3 0x1F78 JUMPI PUSH3 0x1F77 PUSH3 0x1F05 JUMP JUMPDEST JUMPDEST POP SWAP3 SWAP2 POP POP JUMP JUMPDEST PUSH1 0x0 PUSH3 0x1F8C DUP3 PUSH3 0x1525 JUMP JUMPDEST SWAP2 POP PUSH3 0x1F99 DUP4 PUSH3 0x1525 JUMP JUMPDEST SWAP3 POP DUP3 DUP3 ADD SWAP1 POP DUP1 DUP3 GT ISZERO PUSH3 0x1FB4 JUMPI PUSH3 0x1FB3 PUSH3 0x1F05 JUMP JUMPDEST JUMPDEST SWAP3 SWAP2 POP POP JUMP JUMPDEST PUSH1 0x0 DUP2 SWAP1 POP DUP2 PUSH1 0x0 MSTORE PUSH1 0x20 PUSH1 0x0 KECCAK256 SWAP1 POP SWAP2 SWAP1 POP JUMP JUMPDEST PUSH1 0x0 PUSH1 0x20 PUSH1 0x1F DUP4 ADD DIV SWAP1 POP SWAP2 SWAP1 POP JUMP JUMPDEST PUSH1 0x0 DUP3 DUP3 SHL SWAP1 POP SWAP3 SWAP2 POP POP JUMP JUMPDEST PUSH1 0x0 PUSH1 0x8 DUP4 MUL PUSH3 0x201E PUSH32 0xFFFFFFFFFFFFFFFFFFFFFFFFFFFFFFFFFFFFFFFFFFFFFFFFFFFFFFFFFFFFFFFF DUP3 PUSH3 0x1FDF JUMP JUMPDEST PUSH3 0x202A DUP7 DUP4 PUSH3 0x1FDF JUMP JUMPDEST SWAP6 POP DUP1 NOT DUP5 AND SWAP4 POP DUP1 DUP7 AND DUP5 OR SWAP3 POP POP POP SWAP4 SWAP3 POP POP POP JUMP JUMPDEST PUSH1 0x0 DUP2 SWAP1 POP SWAP2 SWAP1 POP JUMP JUMPDEST PUSH1 0x0 PUSH3 0x206D PUSH3 0x2067 PUSH3 0x2061 DUP5 PUSH3 0x1525 JUMP JUMPDEST PUSH3 0x2042 JUMP JUMPDEST PUSH3 0x1525 JUMP JUMPDEST SWAP1 POP SWAP2 SWAP1 POP JUMP JUMPDEST PUSH1 0x0 DUP2 SWAP1 POP SWAP2 SWAP1 POP JUMP JUMPDEST PUSH3 0x2089 DUP4 PUSH3 0x204C JUMP JUMPDEST PUSH3 0x20A1 PUSH3 0x2098 DUP3 PUSH3 0x2074 JUMP JUMPDEST DUP5 DUP5 SLOAD PUSH3 0x1FEC JUMP JUMPDEST DUP3 SSTORE POP POP POP POP JUMP JUMPDEST PUSH1 0x0 SWAP1 JUMP JUMPDEST PUSH3 0x20B8 PUSH3 0x20A9 JUMP JUMPDEST PUSH3 0x20C5 DUP2 DUP5 DUP5 PUSH3 0x207E JUMP JUMPDEST POP POP POP JUMP JUMPDEST JUMPDEST DUP2 DUP2 LT ISZERO PUSH3 0x20ED JUMPI PUSH3 0x20E1 PUSH1 0x0 DUP3 PUSH3 0x20AE JUMP JUMPDEST PUSH1 0x1 DUP2 ADD SWAP1 POP PUSH3 0x20CB JUMP JUMPDEST POP POP JUMP JUMPDEST PUSH1 0x1F DUP3 GT ISZERO PUSH3 0x213C JUMPI PUSH3 0x2106 DUP2 PUSH3 0x1FBA JUMP JUMPDEST PUSH3 0x2111 DUP5 PUSH3 0x1FCF JUMP JUMPDEST DUP2 ADD PUSH1 0x20 DUP6 LT ISZERO PUSH3 0x2121 JUMPI DUP2 SWAP1 POP JUMPDEST PUSH3 0x2139 PUSH3 0x2130 DUP6 PUSH3 0x1FCF JUMP JUMPDEST DUP4 ADD DUP3 PUSH3 0x20CA JUMP JUMPDEST POP POP JUMPDEST POP POP POP JUMP JUMPDEST PUSH1 0x0 DUP3 DUP3 SHR SWAP1 POP SWAP3 SWAP2 POP POP JUMP JUMPDEST PUSH1 0x0 PUSH3 0x2161 PUSH1 0x0 NOT DUP5 PUSH1 0x8 MUL PUSH3 0x2141 JUMP JUMPDEST NOT DUP1 DUP4 AND SWAP2 POP POP SWAP3 SWAP2 POP POP JUMP JUMPDEST PUSH1 0x0 PUSH3 0x217C DUP4 DUP4 PUSH3 0x214E JUMP JUMPDEST SWAP2 POP DUP3 PUSH1 0x2 MUL DUP3 OR SWAP1 POP SWAP3 SWAP2 POP POP JUMP JUMPDEST PUSH3 0x2197 DUP3 PUSH3 0x158A JUMP JUMPDEST PUSH8 0xFFFFFFFFFFFFFFFF DUP2 GT ISZERO PUSH3 0x21B3 JUMPI PUSH3 0x21B2 PUSH3 0x173A JUMP JUMPDEST JUMPDEST PUSH3 0x21BF DUP3 SLOAD PUSH3 0x1C70 JUMP JUMPDEST PUSH3 0x21CC DUP3 DUP3 DUP6 PUSH3 0x20F1 JUMP JUMPDEST PUSH1 0x0 PUSH1 0x20 SWAP1 POP PUSH1 0x1F DUP4 GT PUSH1 0x1 DUP2 EQ PUSH3 0x2204 JUMPI PUSH1 0x0 DUP5 ISZERO PUSH3 0x21EF JUMPI DUP3 DUP8 ADD MLOAD SWAP1 POP JUMPDEST PUSH3 0x21FB DUP6 DUP3 PUSH3 0x216E JUMP JUMPDEST DUP7 SSTORE POP PUSH3 0x226B JUMP JUMPDEST PUSH1 0x1F NOT DUP5 AND PUSH3 0x2214 DUP7 PUSH3 0x1FBA JUMP JUMPDEST PUSH1 0x0 JUMPDEST DUP3 DUP2 LT ISZERO PUSH3 0x223E JUMPI DUP5 DUP10 ADD MLOAD DUP3 SSTORE PUSH1 0x1 DUP3 ADD SWAP2 POP PUSH1 0x20 DUP6 ADD SWAP5 POP PUSH1 0x20 DUP2 ADD SWAP1 POP PUSH3 0x2217 JUMP JUMPDEST DUP7 DUP4 LT ISZERO PUSH3 0x225E JUMPI DUP5 DUP10 ADD MLOAD PUSH3 0x225A PUSH1 0x1F DUP10 AND DUP3 PUSH3 0x214E JUMP JUMPDEST DUP4 SSTORE POP JUMPDEST PUSH1 0x1 PUSH1 0x2 DUP9 MUL ADD DUP9 SSTORE POP POP POP JUMPDEST POP POP POP POP POP POP JUMP JUMPDEST PUSH1 0x0 DUP2 SLOAD PUSH3 0x2282 DUP2 PUSH3 0x1C70 JUMP JUMPDEST PUSH3 0x228E DUP2 DUP7 PUSH3 0x1595 JUMP JUMPDEST SWAP5 POP PUSH1 0x1 DUP3 AND PUSH1 0x0 DUP2 EQ PUSH3 0x22AC JUMPI PUSH1 0x1 DUP2 EQ PUSH3 0x22C3 JUMPI PUSH3 0x22FA JUMP JUMPDEST PUSH1 0xFF NOT DUP4 AND DUP7 MSTORE DUP2 ISZERO ISZERO PUSH1 0x20 MUL DUP7 ADD SWAP4 POP PUSH3 0x22FA JUMP JUMPDEST PUSH3 0x22CE DUP6 PUSH3 0x1FBA JUMP JUMPDEST PUSH1 0x0 JUMPDEST DUP4 DUP2 LT ISZERO PUSH3 0x22F2 JUMPI DUP2 SLOAD DUP2 DUP10 ADD MSTORE PUSH1 0x1 DUP3 ADD SWAP2 POP PUSH1 0x20 DUP2 ADD SWAP1 POP PUSH3 0x22D1 JUMP JUMPDEST DUP1 DUP9 ADD SWAP6 POP POP POP JUMPDEST POP POP POP SWAP3 SWAP2 POP POP JUMP JUMPDEST PUSH1 0x0 PUSH1 0x20 DUP3 ADD SWAP1 POP DUP2 DUP2 SUB PUSH1 0x0 DUP4 ADD MSTORE PUSH3 0x231F DUP2 DUP5 PUSH3 0x2273 JUMP JUMPDEST SWAP1 POP SWAP3 SWAP2 POP POP JUMP JUMPDEST PUSH32 0x46756E64696E6720616D6F756E74206D75737420626520677265617465722074 PUSH1 0x0 DUP3 ADD MSTORE PUSH32 0x68616E207A65726F2E0000000000000000000000000000000000000000000000 PUSH1 0x20 DUP3 ADD MSTORE POP JUMP JUMPDEST PUSH1 0x0 PUSH3 0x2385 PUSH1 0x29 DUP4 PUSH3 0x1595 JUMP JUMPDEST SWAP2 POP PUSH3 0x2392 DUP3 PUSH3 0x2327 JUMP JUMPDEST PUSH1 0x40 DUP3 ADD SWAP1 POP SWAP2 SWAP1 POP JUMP JUMPDEST PUSH1 0x0 PUSH1 0x20 DUP3 ADD SWAP1 POP DUP2 DUP2 SUB PUSH1 0x0 DUP4 ADD MSTORE PUSH3 0x23B8 DUP2 PUSH3 0x2376 JUMP JUMPDEST SWAP1 POP SWAP2 SWAP1 POP JUMP JUMPDEST PUSH32 0x46756E64696E6720706572696F642068617320656E6465642E00000000000000 PUSH1 0x0 DUP3 ADD MSTORE POP JUMP JUMPDEST PUSH1 0x0 PUSH3 0x23F7 PUSH1 0x19 DUP4 PUSH3 0x1595 JUMP JUMPDEST SWAP2 POP PUSH3 0x2404 DUP3 PUSH3 0x23BF JUMP JUMPDEST PUSH1 0x20 DUP3 ADD SWAP1 POP SWAP2 SWAP1 POP JUMP JUMPDEST PUSH1 0x0 PUSH1 0x20 DUP3 ADD SWAP1 POP DUP2 DUP2 SUB PUSH1 0x0 DUP4 ADD MSTORE PUSH3 0x242A DUP2 PUSH3 0x23E8 JUMP JUMPDEST SWAP1 POP SWAP2 SWAP1 POP JUMP JUMPDEST PUSH32 0x43616D706169676E20646973747269627574696F6E206973206C6F636B65642E PUSH1 0x0 DUP3 ADD MSTORE PUSH32 0x2043616E6E6F7420616363657074206E65772066756E64732E00000000000000 PUSH1 0x20 DUP3 ADD MSTORE POP JUMP JUMPDEST PUSH1 0x0 PUSH3 0x248F PUSH1 0x39 DUP4 PUSH3 0x1595 JUMP JUMPDEST SWAP2 POP PUSH3 0x249C DUP3 PUSH3 0x2431 JUMP JUMPDEST PUSH1 0x40 DUP3 ADD SWAP1 POP SWAP2 SWAP1 POP JUMP JUMPDEST PUSH1 0x0 PUSH1 0x20 DUP3 ADD SWAP1 POP DUP2 DUP2 SUB PUSH1 0x0 DUP4 ADD MSTORE PUSH3 0x24C2 DUP2 PUSH3 0x2480 JUMP JUMPDEST SWAP1 POP SWAP2 SWAP1 POP JUMP JUMPDEST PUSH1 0x0 PUSH3 0x24D6 DUP3 PUSH3 0x1525 JUMP JUMPDEST SWAP2 POP PUSH3 0x24E3 DUP4 PUSH3 0x1525 JUMP JUMPDEST SWAP3 POP DUP3 DUP3 SUB SWAP1 POP DUP2 DUP2 GT ISZERO PUSH3 0x24FE JUMPI PUSH3 0x24FD PUSH3 0x1F05 JUMP JUMPDEST JUMPDEST SWAP3 SWAP2 POP POP JUMP JUMPDEST PUSH32 0x4661696C656420746F2073656E6420657863656564696E6720616D6F756E742E PUSH1 0x0 DUP3 ADD MSTORE POP JUMP JUMPDEST PUSH1 0x0 PUSH3 0x253C PUSH1 0x20 DUP4 PUSH3 0x1595 JUMP JUMPDEST SWAP2 POP PUSH3 0x2549 DUP3 PUSH3 0x2504 JUMP JUMPDEST PUSH1 0x20 DUP3 ADD SWAP1 POP SWAP2 SWAP1 POP JUMP JUMPDEST PUSH1 0x0 PUSH1 0x20 DUP3 ADD SWAP1 POP DUP2 DUP2 SUB PUSH1 0x0 DUP4 ADD MSTORE PUSH3 0x256F DUP2 PUSH3 0x252D JUMP JUMPDEST SWAP1 POP SWAP2 SWAP1 POP JUMP JUMPDEST PUSH32 0x4E487B7100000000000000000000000000000000000000000000000000000000 PUSH1 0x0 MSTORE PUSH1 0x12 PUSH1 0x4 MSTORE PUSH1 0x24 PUSH1 0x0 REVERT JUMPDEST PUSH1 0x0 PUSH3 0x25B2 DUP3 PUSH3 0x1525 JUMP JUMPDEST SWAP2 POP PUSH3 0x25BF DUP4 PUSH3 0x1525 JUMP JUMPDEST SWAP3 POP DUP3 PUSH3 0x25D2 JUMPI PUSH3 0x25D1 PUSH3 0x2576 JUMP JUMPDEST JUMPDEST DUP3 DUP3 DIV SWAP1 POP SWAP3 SWAP2 POP POP JUMP JUMPDEST PUSH32 0x446973747269627574696F6E206973206E6F742079657420617661696C61626C PUSH1 0x0 DUP3 ADD MSTORE PUSH32 0x652E000000000000000000000000000000000000000000000000000000000000 PUSH1 0x20 DUP3 ADD MSTORE POP JUMP JUMPDEST PUSH1 0x0 PUSH3 0x263B PUSH1 0x22 DUP4 PUSH3 0x1595 JUMP JUMPDEST SWAP2 POP PUSH3 0x2648 DUP3 PUSH3 0x25DD JUMP JUMPDEST PUSH1 0x40 DUP3 ADD SWAP1 POP SWAP2 SWAP1 POP JUMP JUMPDEST PUSH1 0x0 PUSH1 0x20 DUP3 ADD SWAP1 POP DUP2 DUP2 SUB PUSH1 0x0 DUP4 ADD MSTORE PUSH3 0x266E DUP2 PUSH3 0x262C JUMP JUMPDEST SWAP1 POP SWAP2 SWAP1 POP JUMP JUMPDEST PUSH32 0x4E487B7100000000000000000000000000000000000000000000000000000000 PUSH1 0x0 MSTORE PUSH1 0x32 PUSH1 0x4 MSTORE PUSH1 0x24 PUSH1 0x0 REVERT JUMPDEST PUSH32 0x4661696C656420746F2073656E6420646F6E6174656420616D6F756E742E0000 PUSH1 0x0 DUP3 ADD MSTORE POP JUMP JUMPDEST PUSH1 0x0 PUSH3 0x26DC PUSH1 0x1E DUP4 PUSH3 0x1595 JUMP JUMPDEST SWAP2 POP PUSH3 0x26E9 DUP3 PUSH3 0x26A4 JUMP JUMPDEST PUSH1 0x20 DUP3 ADD SWAP1 POP SWAP2 SWAP1 POP JUMP JUMPDEST PUSH1 0x0 PUSH1 0x20 DUP3 ADD SWAP1 POP DUP2 DUP2 SUB PUSH1 0x0 DUP4 ADD MSTORE PUSH3 0x270F DUP2 PUSH3 0x26CD JUMP JUMPDEST SWAP1 POP SWAP2 SWAP1 POP JUMP JUMPDEST PUSH1 0x0 PUSH3 0x2723 DUP3 PUSH3 0x1525 JUMP JUMPDEST SWAP2 POP PUSH32 0xFFFFFFFFFFFFFFFFFFFFFFFFFFFFFFFFFFFFFFFFFFFFFFFFFFFFFFFFFFFFFFFF DUP3 SUB PUSH3 0x2758 JUMPI PUSH3 0x2757 PUSH3 0x1F05 JUMP JUMPDEST JUMPDEST PUSH1 0x1 DUP3 ADD SWAP1 POP SWAP2 SWAP1 POP JUMP JUMPDEST PUSH32 0x4661696C656420746F2073656E642066756E6465722073686172652E00000000 PUSH1 0x0 DUP3 ADD MSTORE POP JUMP JUMPDEST PUSH1 0x0 PUSH3 0x279B PUSH1 0x1C DUP4 PUSH3 0x1595 JUMP JUMPDEST SWAP2 POP PUSH3 0x27A8 DUP3 PUSH3 0x2763 JUMP JUMPDEST PUSH1 0x20 DUP3 ADD SWAP1 POP SWAP2 SWAP1 POP JUMP JUMPDEST PUSH1 0x0 PUSH1 0x20 DUP3 ADD SWAP1 POP DUP2 DUP2 SUB PUSH1 0x0 DUP4 ADD MSTORE PUSH3 0x27CE DUP2 PUSH3 0x278C JUMP JUMPDEST SWAP1 POP SWAP2 SWAP1 POP JUMP JUMPDEST PUSH32 0x4661696C656420746F2073656E642061646D696E2073686172652E0000000000 PUSH1 0x0 DUP3 ADD MSTORE POP JUMP JUMPDEST PUSH1 0x0 PUSH3 0x280D PUSH1 0x1B DUP4 PUSH3 0x1595 JUMP JUMPDEST SWAP2 POP PUSH3 0x281A DUP3 PUSH3 0x27D5 JUMP JUMPDEST PUSH1 0x20 DUP3 ADD SWAP1 POP SWAP2 SWAP1 POP JUMP JUMPDEST PUSH1 0x0 PUSH1 0x20 DUP3 ADD SWAP1 POP DUP2 DUP2 SUB PUSH1 0x0 DUP4 ADD MSTORE PUSH3 0x2840 DUP2 PUSH3 0x27FE JUMP JUMPDEST SWAP1 POP SWAP2 SWAP1 POP JUMP JUMPDEST PUSH1 0x0 PUSH3 0x2856 PUSH1 0x0 DUP4 PUSH3 0x1595 JUMP JUMPDEST SWAP2 POP PUSH3 0x2863 DUP3 PUSH3 0x1B68 JUMP JUMPDEST PUSH1 0x0 DUP3 ADD SWAP1 POP SWAP2 SWAP1 POP JUMP JUMPDEST PUSH1 0x0 PUSH1 0x80 DUP3 ADD SWAP1 POP PUSH3 0x2885 PUSH1 0x0 DUP4 ADD DUP7 PUSH3 0x198D JUMP JUMPDEST PUSH3 0x2894 PUSH1 0x20 DUP4 ADD DUP6 PUSH3 0x152F JUMP JUMPDEST PUSH3 0x28A3 PUSH1 0x40 DUP4 ADD DUP5 PUSH3 0x152F JUMP JUMPDEST DUP2 DUP2 SUB PUSH1 0x60 DUP4 ADD MSTORE PUSH3 0x28B6 DUP2 PUSH3 0x2847 JUMP JUMPDEST SWAP1 POP SWAP5 SWAP4 POP POP POP POP JUMP INVALID PUSH1 0x80 PUSH1 0x40 MSTORE CALLVALUE DUP1 ISZERO PUSH3 0x11 JUMPI PUSH1 0x0 DUP1 REVERT JUMPDEST POP PUSH1 0x40 MLOAD PUSH3 0x2F2F CODESIZE SUB DUP1 PUSH3 0x2F2F DUP4 CODECOPY DUP2 DUP2 ADD PUSH1 0x40 MSTORE DUP2 ADD SWAP1 PUSH3 0x37 SWAP2 SWAP1 PUSH3 0x1F9 JUMP JUMPDEST DUP1 PUSH3 0x49 DUP2 PUSH3 0x51 PUSH1 0x20 SHL PUSH1 0x20 SHR JUMP JUMPDEST POP POP PUSH3 0x57C JUMP JUMPDEST DUP1 PUSH1 0x2 SWAP1 DUP2 PUSH3 0x62 SWAP2 SWAP1 PUSH3 0x495 JUMP JUMPDEST POP POP JUMP JUMPDEST PUSH1 0x0 PUSH1 0x40 MLOAD SWAP1 POP SWAP1 JUMP JUMPDEST PUSH1 0x0 DUP1 REVERT JUMPDEST PUSH1 0x0 DUP1 REVERT JUMPDEST PUSH1 0x0 DUP1 REVERT JUMPDEST PUSH1 0x0 DUP1 REVERT JUMPDEST PUSH1 0x0 PUSH1 0x1F NOT PUSH1 0x1F DUP4 ADD AND SWAP1 POP SWAP2 SWAP1 POP JUMP JUMPDEST PUSH32 0x4E487B7100000000000000000000000000000000000000000000000000000000 PUSH1 0x0 MSTORE PUSH1 0x41 PUSH1 0x4 MSTORE PUSH1 0x24 PUSH1 0x0 REVERT JUMPDEST PUSH3 0xCF DUP3 PUSH3 0x84 JUMP JUMPDEST DUP2 ADD DUP2 DUP2 LT PUSH8 0xFFFFFFFFFFFFFFFF DUP3 GT OR ISZERO PUSH3 0xF1 JUMPI PUSH3 0xF0 PUSH3 0x95 JUMP JUMPDEST JUMPDEST DUP1 PUSH1 0x40 MSTORE POP POP POP JUMP JUMPDEST PUSH1 0x0 PUSH3 0x106 PUSH3 0x66 JUMP JUMPDEST SWAP1 POP PUSH3 0x114 DUP3 DUP3 PUSH3 0xC4 JUMP JUMPDEST SWAP2 SWAP1 POP JUMP JUMPDEST PUSH1 0x0 PUSH8 0xFFFFFFFFFFFFFFFF DUP3 GT ISZERO PUSH3 0x137 JUMPI PUSH3 0x136 PUSH3 0x95 JUMP JUMPDEST JUMPDEST PUSH3 0x142 DUP3 PUSH3 0x84 JUMP JUMPDEST SWAP1 POP PUSH1 0x20 DUP2 ADD SWAP1 POP SWAP2 SWAP1 POP JUMP JUMPDEST PUSH1 0x0 JUMPDEST DUP4 DUP2 LT ISZERO PUSH3 0x16F JUMPI DUP1 DUP3 ADD MLOAD DUP2 DUP5 ADD MSTORE PUSH1 0x20 DUP2 ADD SWAP1 POP PUSH3 0x152 JUMP JUMPDEST PUSH1 0x0 DUP5 DUP5 ADD MSTORE POP POP POP POP JUMP JUMPDEST PUSH1 0x0 PUSH3 0x192 PUSH3 0x18C DUP5 PUSH3 0x119 JUMP JUMPDEST PUSH3 0xFA JUMP JUMPDEST SWAP1 POP DUP3 DUP2 MSTORE PUSH1 0x20 DUP2 ADD DUP5 DUP5 DUP5 ADD GT ISZERO PUSH3 0x1B1 JUMPI PUSH3 0x1B0 PUSH3 0x7F JUMP JUMPDEST JUMPDEST PUSH3 0x1BE DUP5 DUP3 DUP6 PUSH3 0x14F JUMP JUMPDEST POP SWAP4 SWAP3 POP POP POP JUMP JUMPDEST PUSH1 0x0 DUP3 PUSH1 0x1F DUP4 ADD SLT PUSH3 0x1DE JUMPI PUSH3 0x1DD PUSH3 0x7A JUMP JUMPDEST JUMPDEST DUP2 MLOAD PUSH3 0x1F0 DUP5 DUP3 PUSH1 0x20 DUP7 ADD PUSH3 0x17B JUMP JUMPDEST SWAP2 POP POP SWAP3 SWAP2 POP POP JUMP JUMPDEST PUSH1 0x0 PUSH1 0x20 DUP3 DUP5 SUB SLT ISZERO PUSH3 0x212 JUMPI PUSH3 0x211 PUSH3 0x70 JUMP JUMPDEST JUMPDEST PUSH1 0x0 DUP3 ADD MLOAD PUSH8 0xFFFFFFFFFFFFFFFF DUP2 GT ISZERO PUSH3 0x233 JUMPI PUSH3 0x232 PUSH3 0x75 JUMP JUMPDEST JUMPDEST PUSH3 0x241 DUP5 DUP3 DUP6 ADD PUSH3 0x1C6 JUMP JUMPDEST SWAP2 POP POP SWAP3 SWAP2 POP POP JUMP JUMPDEST PUSH1 0x0 DUP2 MLOAD SWAP1 POP SWAP2 SWAP1 POP JUMP JUMPDEST PUSH32 0x4E487B7100000000000000000000000000000000000000000000000000000000 PUSH1 0x0 MSTORE PUSH1 0x22 PUSH1 0x4 MSTORE PUSH1 0x24 PUSH1 0x0 REVERT JUMPDEST PUSH1 0x0 PUSH1 0x2 DUP3 DIV SWAP1 POP PUSH1 0x1 DUP3 AND DUP1 PUSH3 0x29D JUMPI PUSH1 0x7F DUP3 AND SWAP2 POP JUMPDEST PUSH1 0x20 DUP3 LT DUP2 SUB PUSH3 0x2B3 JUMPI PUSH3 0x2B2 PUSH3 0x255 JUMP JUMPDEST JUMPDEST POP SWAP2 SWAP1 POP JUMP JUMPDEST PUSH1 0x0 DUP2 SWAP1 POP DUP2 PUSH1 0x0 MSTORE PUSH1 0x20 PUSH1 0x0 KECCAK256 SWAP1 POP SWAP2 SWAP1 POP JUMP JUMPDEST PUSH1 0x0 PUSH1 0x20 PUSH1 0x1F DUP4 ADD DIV SWAP1 POP SWAP2 SWAP1 POP JUMP JUMPDEST PUSH1 0x0 DUP3 DUP3 SHL SWAP1 POP SWAP3 SWAP2 POP POP JUMP JUMPDEST PUSH1 0x0 PUSH1 0x8 DUP4 MUL PUSH3 0x31D PUSH32 0xFFFFFFFFFFFFFFFFFFFFFFFFFFFFFFFFFFFFFFFFFFFFFFFFFFFFFFFFFFFFFFFF DUP3 PUSH3 0x2DE JUMP JUMPDEST PUSH3 0x329 DUP7 DUP4 PUSH3 0x2DE JUMP JUMPDEST SWAP6 POP DUP1 NOT DUP5 AND SWAP4 POP DUP1 DUP7 AND DUP5 OR SWAP3 POP POP POP SWAP4 SWAP3 POP POP POP JUMP JUMPDEST PUSH1 0x0 DUP2 SWAP1 POP SWAP2 SWAP1 POP JUMP JUMPDEST PUSH1 0x0 DUP2 SWAP1 POP SWAP2 SWAP1 POP JUMP JUMPDEST PUSH1 0x0 PUSH3 0x376 PUSH3 0x370 PUSH3 0x36A DUP5 PUSH3 0x341 JUMP JUMPDEST PUSH3 0x34B JUMP JUMPDEST PUSH3 0x341 JUMP JUMPDEST SWAP1 POP SWAP2 SWAP1 POP JUMP JUMPDEST PUSH1 0x0 DUP2 SWAP1 POP SWAP2 SWAP1 POP JUMP JUMPDEST PUSH3 0x392 DUP4 PUSH3 0x355 JUMP JUMPDEST PUSH3 0x3AA PUSH3 0x3A1 DUP3 PUSH3 0x37D JUMP JUMPDEST DUP5 DUP5 SLOAD PUSH3 0x2EB JUMP JUMPDEST DUP3 SSTORE POP POP POP POP JUMP JUMPDEST PUSH1 0x0 SWAP1 JUMP JUMPDEST PUSH3 0x3C1 PUSH3 0x3B2 JUMP JUMPDEST PUSH3 0x3CE DUP2 DUP5 DUP5 PUSH3 0x387 JUMP JUMPDEST POP POP POP JUMP JUMPDEST JUMPDEST DUP2 DUP2 LT ISZERO PUSH3 0x3F6 JUMPI PUSH3 0x3EA PUSH1 0x0 DUP3 PUSH3 0x3B7 JUMP JUMPDEST PUSH1 0x1 DUP2 ADD SWAP1 POP PUSH3 0x3D4 JUMP JUMPDEST POP POP JUMP JUMPDEST PUSH1 0x1F DUP3 GT ISZERO PUSH3 0x445 JUMPI PUSH3 0x40F DUP2 PUSH3 0x2B9 JUMP JUMPDEST PUSH3 0x41A DUP5 PUSH3 0x2CE JUMP JUMPDEST DUP2 ADD PUSH1 0x20 DUP6 LT ISZERO PUSH3 0x42A JUMPI DUP2 SWAP1 POP JUMPDEST PUSH3 0x442 PUSH3 0x439 DUP6 PUSH3 0x2CE JUMP JUMPDEST DUP4 ADD DUP3 PUSH3 0x3D3 JUMP JUMPDEST POP POP JUMPDEST POP POP POP JUMP JUMPDEST PUSH1 0x0 DUP3 DUP3 SHR SWAP1 POP SWAP3 SWAP2 POP POP JUMP JUMPDEST PUSH1 0x0 PUSH3 0x46A PUSH1 0x0 NOT DUP5 PUSH1 0x8 MUL PUSH3 0x44A JUMP JUMPDEST NOT DUP1 DUP4 AND SWAP2 POP POP SWAP3 SWAP2 POP POP JUMP JUMPDEST PUSH1 0x0 PUSH3 0x485 DUP4 DUP4 PUSH3 0x457 JUMP JUMPDEST SWAP2 POP DUP3 PUSH1 0x2 MUL DUP3 OR SWAP1 POP SWAP3 SWAP2 POP POP JUMP JUMPDEST PUSH3 0x4A0 DUP3 PUSH3 0x24A JUMP JUMPDEST PUSH8 0xFFFFFFFFFFFFFFFF DUP2 GT ISZERO PUSH3 0x4BC JUMPI PUSH3 0x4BB PUSH3 0x95 JUMP JUMPDEST JUMPDEST PUSH3 0x4C8 DUP3 SLOAD PUSH3 0x284 JUMP JUMPDEST PUSH3 0x4D5 DUP3 DUP3 DUP6 PUSH3 0x3FA JUMP JUMPDEST PUSH1 0x0 PUSH1 0x20 SWAP1 POP PUSH1 0x1F DUP4 GT PUSH1 0x1 DUP2 EQ PUSH3 0x50D JUMPI PUSH1 0x0 DUP5 ISZERO PUSH3 0x4F8 JUMPI DUP3 DUP8 ADD MLOAD SWAP1 POP JUMPDEST PUSH3 0x504 DUP6 DUP3 PUSH3 0x477 JUMP JUMPDEST DUP7 SSTORE POP PUSH3 0x574 JUMP JUMPDEST PUSH1 0x1F NOT DUP5 AND PUSH3 0x51D DUP7 PUSH3 0x2B9 JUMP JUMPDEST PUSH1 0x0 JUMPDEST DUP3 DUP2 LT ISZERO PUSH3 0x547 JUMPI DUP5 DUP10 ADD MLOAD DUP3 SSTORE PUSH1 0x1 DUP3 ADD SWAP2 POP PUSH1 0x20 DUP6 ADD SWAP5 POP PUSH1 0x20 DUP2 ADD SWAP1 POP PUSH3 0x520 JUMP JUMPDEST DUP7 DUP4 LT ISZERO PUSH3 0x567 JUMPI DUP5 DUP10 ADD MLOAD PUSH3 0x563 PUSH1 0x1F DUP10 AND DUP3 PUSH3 0x457 JUMP JUMPDEST DUP4 SSTORE POP JUMPDEST PUSH1 0x1 PUSH1 0x2 DUP9 MUL ADD DUP9 SSTORE POP POP POP JUMPDEST POP POP POP POP POP POP JUMP JUMPDEST PUSH2 0x29A3 DUP1 PUSH3 0x58C PUSH1 0x0 CODECOPY PUSH1 0x0 RETURN INVALID PUSH1 0x80 PUSH1 0x40 MSTORE CALLVALUE DUP1 ISZERO PUSH2 0x10 JUMPI PUSH1 0x0 DUP1 REVERT JUMPDEST POP PUSH1 0x4 CALLDATASIZE LT PUSH2 0x9D JUMPI PUSH1 0x0 CALLDATALOAD PUSH1 0xE0 SHR DUP1 PUSH4 0x4E1273F4 GT PUSH2 0x66 JUMPI DUP1 PUSH4 0x4E1273F4 EQ PUSH2 0x17E JUMPI DUP1 PUSH4 0xA22CB465 EQ PUSH2 0x1AE JUMPI DUP1 PUSH4 0xBB7FDE71 EQ PUSH2 0x1CA JUMPI DUP1 PUSH4 0xE985E9C5 EQ PUSH2 0x1E6 JUMPI DUP1 PUSH4 0xF242432A EQ PUSH2 0x216 JUMPI PUSH2 0x9D JUMP JUMPDEST DUP1 PUSH3 0xFDD58E EQ PUSH2 0xA2 JUMPI DUP1 PUSH4 0x1FFC9A7 EQ PUSH2 0xD2 JUMPI DUP1 PUSH4 0xE89341C EQ PUSH2 0x102 JUMPI DUP1 PUSH4 0x1A2E9824 EQ PUSH2 0x132 JUMPI DUP1 PUSH4 0x2EB2C2D6 EQ PUSH2 0x162 JUMPI JUMPDEST PUSH1 0x0 DUP1 REVERT JUMPDEST PUSH2 0xBC PUSH1 0x4 DUP1 CALLDATASIZE SUB DUP2 ADD SWAP1 PUSH2 0xB7 SWAP2 SWAP1 PUSH2 0x16A6 JUMP JUMPDEST PUSH2 0x232 JUMP JUMPDEST PUSH1 0x40 MLOAD PUSH2 0xC9 SWAP2 SWAP1 PUSH2 0x16F5 JUMP JUMPDEST PUSH1 0x40 MLOAD DUP1 SWAP2 SUB SWAP1 RETURN JUMPDEST PUSH2 0xEC PUSH1 0x4 DUP1 CALLDATASIZE SUB DUP2 ADD SWAP1 PUSH2 0xE7 SWAP2 SWAP1 PUSH2 0x1768 JUMP JUMPDEST PUSH2 0x2FA JUMP JUMPDEST PUSH1 0x40 MLOAD PUSH2 0xF9 SWAP2 SWAP1 PUSH2 0x17B0 JUMP JUMPDEST PUSH1 0x40 MLOAD DUP1 SWAP2 SUB SWAP1 RETURN JUMPDEST PUSH2 0x11C PUSH1 0x4 DUP1 CALLDATASIZE SUB DUP2 ADD SWAP1 PUSH2 0x117 SWAP2 SWAP1 PUSH2 0x17CB JUMP JUMPDEST PUSH2 0x3DC JUMP JUMPDEST PUSH1 0x40 MLOAD PUSH2 0x129 SWAP2 SWAP1 PUSH2 0x1888 JUMP JUMPDEST PUSH1 0x40 MLOAD DUP1 SWAP2 SUB SWAP1 RETURN JUMPDEST PUSH2 0x14C PUSH1 0x4 DUP1 CALLDATASIZE SUB DUP2 ADD SWAP1 PUSH2 0x147 SWAP2 SWAP1 PUSH2 0x16A6 JUMP JUMPDEST PUSH2 0x470 JUMP JUMPDEST PUSH1 0x40 MLOAD PUSH2 0x159 SWAP2 SWAP1 PUSH2 0x16F5 JUMP JUMPDEST PUSH1 0x40 MLOAD DUP1 SWAP2 SUB SWAP1 RETURN JUMPDEST PUSH2 0x17C PUSH1 0x4 DUP1 CALLDATASIZE SUB DUP2 ADD SWAP1 PUSH2 0x177 SWAP2 SWAP1 PUSH2 0x1AA7 JUMP JUMPDEST PUSH2 0x4CB JUMP JUMPDEST STOP JUMPDEST PUSH2 0x198 PUSH1 0x4 DUP1 CALLDATASIZE SUB DUP2 ADD SWAP1 PUSH2 0x193 SWAP2 SWAP1 PUSH2 0x1C39 JUMP JUMPDEST PUSH2 0x56C JUMP JUMPDEST PUSH1 0x40 MLOAD PUSH2 0x1A5 SWAP2 SWAP1 PUSH2 0x1D6F JUMP JUMPDEST PUSH1 0x40 MLOAD DUP1 SWAP2 SUB SWAP1 RETURN JUMPDEST PUSH2 0x1C8 PUSH1 0x4 DUP1 CALLDATASIZE SUB DUP2 ADD SWAP1 PUSH2 0x1C3 SWAP2 SWAP1 PUSH2 0x1DBD JUMP JUMPDEST PUSH2 0x685 JUMP JUMPDEST STOP JUMPDEST PUSH2 0x1E4 PUSH1 0x4 DUP1 CALLDATASIZE SUB DUP2 ADD SWAP1 PUSH2 0x1DF SWAP2 SWAP1 PUSH2 0x1E9E JUMP JUMPDEST PUSH2 0x69B JUMP JUMPDEST STOP JUMPDEST PUSH2 0x200 PUSH1 0x4 DUP1 CALLDATASIZE SUB DUP2 ADD SWAP1 PUSH2 0x1FB SWAP2 SWAP1 PUSH2 0x1F21 JUMP JUMPDEST PUSH2 0x724 JUMP JUMPDEST PUSH1 0x40 MLOAD PUSH2 0x20D SWAP2 SWAP1 PUSH2 0x17B0 JUMP JUMPDEST PUSH1 0x40 MLOAD DUP1 SWAP2 SUB SWAP1 RETURN JUMPDEST PUSH2 0x230 PUSH1 0x4 DUP1 CALLDATASIZE SUB DUP2 ADD SWAP1 PUSH2 0x22B SWAP2 SWAP1 PUSH2 0x1F61 JUMP JUMPDEST PUSH2 0x7B8 JUMP JUMPDEST STOP JUMPDEST PUSH1 0x0 DUP1 PUSH20 0xFFFFFFFFFFFFFFFFFFFFFFFFFFFFFFFFFFFFFFFF AND DUP4 PUSH20 0xFFFFFFFFFFFFFFFFFFFFFFFFFFFFFFFFFFFFFFFF AND SUB PUSH2 0x2A2 JUMPI PUSH1 0x40 MLOAD PUSH32 0x8C379A000000000000000000000000000000000000000000000000000000000 DUP2 MSTORE PUSH1 0x4 ADD PUSH2 0x299 SWAP1 PUSH2 0x206A JUMP JUMPDEST PUSH1 0x40 MLOAD DUP1 SWAP2 SUB SWAP1 REVERT JUMPDEST PUSH1 0x0 DUP1 DUP4 DUP2 MSTORE PUSH1 0x20 ADD SWAP1 DUP2 MSTORE PUSH1 0x20 ADD PUSH1 0x0 KECCAK256 PUSH1 0x0 DUP5 PUSH20 0xFFFFFFFFFFFFFFFFFFFFFFFFFFFFFFFFFFFFFFFF AND PUSH20 0xFFFFFFFFFFFFFFFFFFFFFFFFFFFFFFFFFFFFFFFF AND DUP2 MSTORE PUSH1 0x20 ADD SWAP1 DUP2 MSTORE PUSH1 0x20 ADD PUSH1 0x0 KECCAK256 SLOAD SWAP1 POP SWAP3 SWAP2 POP POP JUMP JUMPDEST PUSH1 0x0 PUSH32 0xD9B67A2600000000000000000000000000000000000000000000000000000000 PUSH28 0xFFFFFFFFFFFFFFFFFFFFFFFFFFFFFFFFFFFFFFFFFFFFFFFFFFFFFFFF NOT AND DUP3 PUSH28 0xFFFFFFFFFFFFFFFFFFFFFFFFFFFFFFFFFFFFFFFFFFFFFFFFFFFFFFFF NOT AND EQ DUP1 PUSH2 0x3C5 JUMPI POP PUSH32 0xE89341C00000000000000000000000000000000000000000000000000000000 PUSH28 0xFFFFFFFFFFFFFFFFFFFFFFFFFFFFFFFFFFFFFFFFFFFFFFFFFFFFFFFF NOT AND DUP3 PUSH28 0xFFFFFFFFFFFFFFFFFFFFFFFFFFFFFFFFFFFFFFFFFFFFFFFFFFFFFFFF NOT AND EQ JUMPDEST DUP1 PUSH2 0x3D5 JUMPI POP PUSH2 0x3D4 DUP3 PUSH2 0x859 JUMP JUMPDEST JUMPDEST SWAP1 POP SWAP2 SWAP1 POP JUMP JUMPDEST PUSH1 0x60 PUSH1 0x2 DUP1 SLOAD PUSH2 0x3EB SWAP1 PUSH2 0x20B9 JUMP JUMPDEST DUP1 PUSH1 0x1F ADD PUSH1 0x20 DUP1 SWAP2 DIV MUL PUSH1 0x20 ADD PUSH1 0x40 MLOAD SWAP1 DUP2 ADD PUSH1 0x40 MSTORE DUP1 SWAP3 SWAP2 SWAP1 DUP2 DUP2 MSTORE PUSH1 0x20 ADD DUP3 DUP1 SLOAD PUSH2 0x417 SWAP1 PUSH2 0x20B9 JUMP JUMPDEST DUP1 ISZERO PUSH2 0x464 JUMPI DUP1 PUSH1 0x1F LT PUSH2 0x439 JUMPI PUSH2 0x100 DUP1 DUP4 SLOAD DIV MUL DUP4 MSTORE SWAP2 PUSH1 0x20 ADD SWAP2 PUSH2 0x464 JUMP JUMPDEST DUP3 ADD SWAP2 SWAP1 PUSH1 0x0 MSTORE PUSH1 0x20 PUSH1 0x0 KECCAK256 SWAP1 JUMPDEST DUP2 SLOAD DUP2 MSTORE SWAP1 PUSH1 0x1 ADD SWAP1 PUSH1 0x20 ADD DUP1 DUP4 GT PUSH2 0x447 JUMPI DUP3 SWAP1 SUB PUSH1 0x1F AND DUP3 ADD SWAP2 JUMPDEST POP POP POP POP POP SWAP1 POP SWAP2 SWAP1 POP JUMP JUMPDEST PUSH1 0x0 PUSH1 0x3 PUSH1 0x0 DUP4 DUP2 MSTORE PUSH1 0x20 ADD SWAP1 DUP2 MSTORE PUSH1 0x20 ADD PUSH1 0x0 KECCAK256 PUSH1 0x0 DUP5 PUSH20 0xFFFFFFFFFFFFFFFFFFFFFFFFFFFFFFFFFFFFFFFF AND PUSH20 0xFFFFFFFFFFFFFFFFFFFFFFFFFFFFFFFFFFFFFFFF AND DUP2 MSTORE PUSH1 0x20 ADD SWAP1 DUP2 MSTORE PUSH1 0x20 ADD PUSH1 0x0 KECCAK256 SLOAD SWAP1 POP SWAP3 SWAP2 POP POP JUMP JUMPDEST PUSH2 0x4D3 PUSH2 0x8C3 JUMP JUMPDEST PUSH20 0xFFFFFFFFFFFFFFFFFFFFFFFFFFFFFFFFFFFFFFFF AND DUP6 PUSH20 0xFFFFFFFFFFFFFFFFFFFFFFFFFFFFFFFFFFFFFFFF AND EQ DUP1 PUSH2 0x519 JUMPI POP PUSH2 0x518 DUP6 PUSH2 0x513 PUSH2 0x8C3 JUMP JUMPDEST PUSH2 0x724 JUMP JUMPDEST JUMPDEST PUSH2 0x558 JUMPI PUSH1 0x40 MLOAD PUSH32 0x8C379A000000000000000000000000000000000000000000000000000000000 DUP2 MSTORE PUSH1 0x4 ADD PUSH2 0x54F SWAP1 PUSH2 0x215C JUMP JUMPDEST PUSH1 0x40 MLOAD DUP1 SWAP2 SUB SWAP1 REVERT JUMPDEST PUSH2 0x565 DUP6 DUP6 DUP6 DUP6 DUP6 PUSH2 0x8CB JUMP JUMPDEST POP POP POP POP POP JUMP JUMPDEST PUSH1 0x60 DUP2 MLOAD DUP4 MLOAD EQ PUSH2 0x5B2 JUMPI PUSH1 0x40 MLOAD PUSH32 0x8C379A000000000000000000000000000000000000000000000000000000000 DUP2 MSTORE PUSH1 0x4 ADD PUSH2 0x5A9 SWAP1 PUSH2 0x21EE JUMP JUMPDEST PUSH1 0x40 MLOAD DUP1 SWAP2 SUB SWAP1 REVERT JUMPDEST PUSH1 0x0 DUP4 MLOAD PUSH8 0xFFFFFFFFFFFFFFFF DUP2 GT ISZERO PUSH2 0x5CF JUMPI PUSH2 0x5CE PUSH2 0x18AF JUMP JUMPDEST JUMPDEST PUSH1 0x40 MLOAD SWAP1 DUP1 DUP3 MSTORE DUP1 PUSH1 0x20 MUL PUSH1 0x20 ADD DUP3 ADD PUSH1 0x40 MSTORE DUP1 ISZERO PUSH2 0x5FD JUMPI DUP2 PUSH1 0x20 ADD PUSH1 0x20 DUP3 MUL DUP1 CALLDATASIZE DUP4 CALLDATACOPY DUP1 DUP3 ADD SWAP2 POP POP SWAP1 POP JUMPDEST POP SWAP1 POP PUSH1 0x0 JUMPDEST DUP5 MLOAD DUP2 LT ISZERO PUSH2 0x67A JUMPI PUSH2 0x64A DUP6 DUP3 DUP2 MLOAD DUP2 LT PUSH2 0x622 JUMPI PUSH2 0x621 PUSH2 0x220E JUMP JUMPDEST JUMPDEST PUSH1 0x20 MUL PUSH1 0x20 ADD ADD MLOAD DUP6 DUP4 DUP2 MLOAD DUP2 LT PUSH2 0x63D JUMPI PUSH2 0x63C PUSH2 0x220E JUMP JUMPDEST JUMPDEST PUSH1 0x20 MUL PUSH1 0x20 ADD ADD MLOAD PUSH2 0x232 JUMP JUMPDEST DUP3 DUP3 DUP2 MLOAD DUP2 LT PUSH2 0x65D JUMPI PUSH2 0x65C PUSH2 0x220E JUMP JUMPDEST JUMPDEST PUSH1 0x20 MUL PUSH1 0x20 ADD ADD DUP2 DUP2 MSTORE POP POP DUP1 PUSH2 0x673 SWAP1 PUSH2 0x226C JUMP JUMPDEST SWAP1 POP PUSH2 0x603 JUMP JUMPDEST POP DUP1 SWAP2 POP POP SWAP3 SWAP2 POP POP JUMP JUMPDEST PUSH2 0x697 PUSH2 0x690 PUSH2 0x8C3 JUMP JUMPDEST DUP4 DUP4 PUSH2 0xBEC JUMP JUMPDEST POP POP JUMP JUMPDEST PUSH2 0x6B7 DUP5 DUP5 PUSH1 0x1 PUSH1 0x40 MLOAD DUP1 PUSH1 0x20 ADD PUSH1 0x40 MSTORE DUP1 PUSH1 0x0 DUP2 MSTORE POP PUSH2 0xD58 JUMP JUMPDEST DUP2 PUSH1 0x3 PUSH1 0x0 DUP6 DUP2 MSTORE PUSH1 0x20 ADD SWAP1 DUP2 MSTORE PUSH1 0x20 ADD PUSH1 0x0 KECCAK256 PUSH1 0x0 DUP7 PUSH20 0xFFFFFFFFFFFFFFFFFFFFFFFFFFFFFFFFFFFFFFFF AND PUSH20 0xFFFFFFFFFFFFFFFFFFFFFFFFFFFFFFFFFFFFFFFF AND DUP2 MSTORE PUSH1 0x20 ADD SWAP1 DUP2 MSTORE PUSH1 0x20 ADD PUSH1 0x0 KECCAK256 PUSH1 0x0 DUP3 DUP3 SLOAD PUSH2 0x717 SWAP2 SWAP1 PUSH2 0x22B4 JUMP JUMPDEST SWAP3 POP POP DUP2 SWAP1 SSTORE POP POP POP POP POP JUMP JUMPDEST PUSH1 0x0 PUSH1 0x1 PUSH1 0x0 DUP5 PUSH20 0xFFFFFFFFFFFFFFFFFFFFFFFFFFFFFFFFFFFFFFFF AND PUSH20 0xFFFFFFFFFFFFFFFFFFFFFFFFFFFFFFFFFFFFFFFF AND DUP2 MSTORE PUSH1 0x20 ADD SWAP1 DUP2 MSTORE PUSH1 0x20 ADD PUSH1 0x0 KECCAK256 PUSH1 0x0 DUP4 PUSH20 0xFFFFFFFFFFFFFFFFFFFFFFFFFFFFFFFFFFFFFFFF AND PUSH20 0xFFFFFFFFFFFFFFFFFFFFFFFFFFFFFFFFFFFFFFFF AND DUP2 MSTORE PUSH1 0x20 ADD SWAP1 DUP2 MSTORE PUSH1 0x20 ADD PUSH1 0x0 KECCAK256 PUSH1 0x0 SWAP1 SLOAD SWAP1 PUSH2 0x100 EXP SWAP1 DIV PUSH1 0xFF AND SWAP1 POP SWAP3 SWAP2 POP POP JUMP JUMPDEST PUSH2 0x7C0 PUSH2 0x8C3 JUMP JUMPDEST PUSH20 0xFFFFFFFFFFFFFFFFFFFFFFFFFFFFFFFFFFFFFFFF AND DUP6 PUSH20 0xFFFFFFFFFFFFFFFFFFFFFFFFFFFFFFFFFFFFFFFF AND EQ DUP1 PUSH2 0x806 JUMPI POP PUSH2 0x805 DUP6 PUSH2 0x800 PUSH2 0x8C3 JUMP JUMPDEST PUSH2 0x724 JUMP JUMPDEST JUMPDEST PUSH2 0x845 JUMPI PUSH1 0x40 MLOAD PUSH32 0x8C379A000000000000000000000000000000000000000000000000000000000 DUP2 MSTORE PUSH1 0x4 ADD PUSH2 0x83C SWAP1 PUSH2 0x215C JUMP JUMPDEST PUSH1 0x40 MLOAD DUP1 SWAP2 SUB SWAP1 REVERT JUMPDEST PUSH2 0x852 DUP6 DUP6 DUP6 DUP6 DUP6 PUSH2 0xF08 JUMP JUMPDEST POP POP POP POP POP JUMP JUMPDEST PUSH1 0x0 PUSH32 0x1FFC9A700000000000000000000000000000000000000000000000000000000 PUSH28 0xFFFFFFFFFFFFFFFFFFFFFFFFFFFFFFFFFFFFFFFFFFFFFFFFFFFFFFFF NOT AND DUP3 PUSH28 0xFFFFFFFFFFFFFFFFFFFFFFFFFFFFFFFFFFFFFFFFFFFFFFFFFFFFFFFF NOT AND EQ SWAP1 POP SWAP2 SWAP1 POP JUMP JUMPDEST PUSH1 0x0 CALLER SWAP1 POP SWAP1 JUMP JUMPDEST DUP2 MLOAD DUP4 MLOAD EQ PUSH2 0x90F JUMPI PUSH1 0x40 MLOAD PUSH32 0x8C379A000000000000000000000000000000000000000000000000000000000 DUP2 MSTORE PUSH1 0x4 ADD PUSH2 0x906 SWAP1 PUSH2 0x235A JUMP JUMPDEST PUSH1 0x40 MLOAD DUP1 SWAP2 SUB SWAP1 REVERT JUMPDEST PUSH1 0x0 PUSH20 0xFFFFFFFFFFFFFFFFFFFFFFFFFFFFFFFFFFFFFFFF AND DUP5 PUSH20 0xFFFFFFFFFFFFFFFFFFFFFFFFFFFFFFFFFFFFFFFF AND SUB PUSH2 0x97E JUMPI PUSH1 0x40 MLOAD PUSH32 0x8C379A000000000000000000000000000000000000000000000000000000000 DUP2 MSTORE PUSH1 0x4 ADD PUSH2 0x975 SWAP1 PUSH2 0x23EC JUMP JUMPDEST PUSH1 0x40 MLOAD DUP1 SWAP2 SUB SWAP1 REVERT JUMPDEST PUSH1 0x0 PUSH2 0x988 PUSH2 0x8C3 JUMP JUMPDEST SWAP1 POP PUSH2 0x998 DUP2 DUP8 DUP8 DUP8 DUP8 DUP8 PUSH2 0x11A3 JUMP JUMPDEST PUSH1 0x0 JUMPDEST DUP5 MLOAD DUP2 LT ISZERO PUSH2 0xB49 JUMPI PUSH1 0x0 DUP6 DUP3 DUP2 MLOAD DUP2 LT PUSH2 0x9B9 JUMPI PUSH2 0x9B8 PUSH2 0x220E JUMP JUMPDEST JUMPDEST PUSH1 0x20 MUL PUSH1 0x20 ADD ADD MLOAD SWAP1 POP PUSH1 0x0 DUP6 DUP4 DUP2 MLOAD DUP2 LT PUSH2 0x9D8 JUMPI PUSH2 0x9D7 PUSH2 0x220E JUMP JUMPDEST JUMPDEST PUSH1 0x20 MUL PUSH1 0x20 ADD ADD MLOAD SWAP1 POP PUSH1 0x0 DUP1 PUSH1 0x0 DUP5 DUP2 MSTORE PUSH1 0x20 ADD SWAP1 DUP2 MSTORE PUSH1 0x20 ADD PUSH1 0x0 KECCAK256 PUSH1 0x0 DUP12 PUSH20 0xFFFFFFFFFFFFFFFFFFFFFFFFFFFFFFFFFFFFFFFF AND PUSH20 0xFFFFFFFFFFFFFFFFFFFFFFFFFFFFFFFFFFFFFFFF AND DUP2 MSTORE PUSH1 0x20 ADD SWAP1 DUP2 MSTORE PUSH1 0x20 ADD PUSH1 0x0 KECCAK256 SLOAD SWAP1 POP DUP2 DUP2 LT ISZERO PUSH2 0xA79 JUMPI PUSH1 0x40 MLOAD PUSH32 0x8C379A000000000000000000000000000000000000000000000000000000000 DUP2 MSTORE PUSH1 0x4 ADD PUSH2 0xA70 SWAP1 PUSH2 0x247E JUMP JUMPDEST PUSH1 0x40 MLOAD DUP1 SWAP2 SUB SWAP1 REVERT JUMPDEST DUP2 DUP2 SUB PUSH1 0x0 DUP1 DUP6 DUP2 MSTORE PUSH1 0x20 ADD SWAP1 DUP2 MSTORE PUSH1 0x20 ADD PUSH1 0x0 KECCAK256 PUSH1 0x0 DUP13 PUSH20 0xFFFFFFFFFFFFFFFFFFFFFFFFFFFFFFFFFFFFFFFF AND PUSH20 0xFFFFFFFFFFFFFFFFFFFFFFFFFFFFFFFFFFFFFFFF AND DUP2 MSTORE PUSH1 0x20 ADD SWAP1 DUP2 MSTORE PUSH1 0x20 ADD PUSH1 0x0 KECCAK256 DUP2 SWAP1 SSTORE POP DUP2 PUSH1 0x0 DUP1 DUP6 DUP2 MSTORE PUSH1 0x20 ADD SWAP1 DUP2 MSTORE PUSH1 0x20 ADD PUSH1 0x0 KECCAK256 PUSH1 0x0 DUP12 PUSH20 0xFFFFFFFFFFFFFFFFFFFFFFFFFFFFFFFFFFFFFFFF AND PUSH20 0xFFFFFFFFFFFFFFFFFFFFFFFFFFFFFFFFFFFFFFFF AND DUP2 MSTORE PUSH1 0x20 ADD SWAP1 DUP2 MSTORE PUSH1 0x20 ADD PUSH1 0x0 KECCAK256 PUSH1 0x0 DUP3 DUP3 SLOAD PUSH2 0xB2E SWAP2 SWAP1 PUSH2 0x22B4 JUMP JUMPDEST SWAP3 POP POP DUP2 SWAP1 SSTORE POP POP POP POP DUP1 PUSH2 0xB42 SWAP1 PUSH2 0x226C JUMP JUMPDEST SWAP1 POP PUSH2 0x99B JUMP JUMPDEST POP DUP5 PUSH20 0xFFFFFFFFFFFFFFFFFFFFFFFFFFFFFFFFFFFFFFFF AND DUP7 PUSH20 0xFFFFFFFFFFFFFFFFFFFFFFFFFFFFFFFFFFFFFFFF AND DUP3 PUSH20 0xFFFFFFFFFFFFFFFFFFFFFFFFFFFFFFFFFFFFFFFF AND PUSH32 0x4A39DC06D4C0DBC64B70AF90FD698A233A518AA5D07E595D983B8C0526C8F7FB DUP8 DUP8 PUSH1 0x40 MLOAD PUSH2 0xBC0 SWAP3 SWAP2 SWAP1 PUSH2 0x249E JUMP JUMPDEST PUSH1 0x40 MLOAD DUP1 SWAP2 SUB SWAP1 LOG4 PUSH2 0xBD6 DUP2 DUP8 DUP8 DUP8 DUP8 DUP8 PUSH2 0x11AB JUMP JUMPDEST PUSH2 0xBE4 DUP2 DUP8 DUP8 DUP8 DUP8 DUP8 PUSH2 0x11B3 JUMP JUMPDEST POP POP POP POP POP POP JUMP JUMPDEST DUP2 PUSH20 0xFFFFFFFFFFFFFFFFFFFFFFFFFFFFFFFFFFFFFFFF AND DUP4 PUSH20 0xFFFFFFFFFFFFFFFFFFFFFFFFFFFFFFFFFFFFFFFF AND SUB PUSH2 0xC5A JUMPI PUSH1 0x40 MLOAD PUSH32 0x8C379A000000000000000000000000000000000000000000000000000000000 DUP2 MSTORE PUSH1 0x4 ADD PUSH2 0xC51 SWAP1 PUSH2 0x2547 JUMP JUMPDEST PUSH1 0x40 MLOAD DUP1 SWAP2 SUB SWAP1 REVERT JUMPDEST DUP1 PUSH1 0x1 PUSH1 0x0 DUP6 PUSH20 0xFFFFFFFFFFFFFFFFFFFFFFFFFFFFFFFFFFFFFFFF AND PUSH20 0xFFFFFFFFFFFFFFFFFFFFFFFFFFFFFFFFFFFFFFFF AND DUP2 MSTORE PUSH1 0x20 ADD SWAP1 DUP2 MSTORE PUSH1 0x20 ADD PUSH1 0x0 KECCAK256 PUSH1 0x0 DUP5 PUSH20 0xFFFFFFFFFFFFFFFFFFFFFFFFFFFFFFFFFFFFFFFF AND PUSH20 0xFFFFFFFFFFFFFFFFFFFFFFFFFFFFFFFFFFFFFFFF AND DUP2 MSTORE PUSH1 0x20 ADD SWAP1 DUP2 MSTORE PUSH1 0x20 ADD PUSH1 0x0 KECCAK256 PUSH1 0x0 PUSH2 0x100 EXP DUP2 SLOAD DUP2 PUSH1 0xFF MUL NOT AND SWAP1 DUP4 ISZERO ISZERO MUL OR SWAP1 SSTORE POP DUP2 PUSH20 0xFFFFFFFFFFFFFFFFFFFFFFFFFFFFFFFFFFFFFFFF AND DUP4 PUSH20 0xFFFFFFFFFFFFFFFFFFFFFFFFFFFFFFFFFFFFFFFF AND PUSH32 0x17307EAB39AB6107E8899845AD3D59BD9653F200F220920489CA2B5937696C31 DUP4 PUSH1 0x40 MLOAD PUSH2 0xD4B SWAP2 SWAP1 PUSH2 0x17B0 JUMP JUMPDEST PUSH1 0x40 MLOAD DUP1 SWAP2 SUB SWAP1 LOG3 POP POP POP JUMP JUMPDEST PUSH1 0x0 PUSH20 0xFFFFFFFFFFFFFFFFFFFFFFFFFFFFFFFFFFFFFFFF AND DUP5 PUSH20 0xFFFFFFFFFFFFFFFFFFFFFFFFFFFFFFFFFFFFFFFF AND SUB PUSH2 0xDC7 JUMPI PUSH1 0x40 MLOAD PUSH32 0x8C379A000000000000000000000000000000000000000000000000000000000 DUP2 MSTORE PUSH1 0x4 ADD PUSH2 0xDBE SWAP1 PUSH2 0x25D9 JUMP JUMPDEST PUSH1 0x40 MLOAD DUP1 SWAP2 SUB SWAP1 REVERT JUMPDEST PUSH1 0x0 PUSH2 0xDD1 PUSH2 0x8C3 JUMP JUMPDEST SWAP1 POP PUSH1 0x0 PUSH2 0xDDE DUP6 PUSH2 0x138A JUMP JUMPDEST SWAP1 POP PUSH1 0x0 PUSH2 0xDEB DUP6 PUSH2 0x138A JUMP JUMPDEST SWAP1 POP PUSH2 0xDFC DUP4 PUSH1 0x0 DUP10 DUP6 DUP6 DUP10 PUSH2 0x11A3 JUMP JUMPDEST DUP5 PUSH1 0x0 DUP1 DUP9 DUP2 MSTORE PUSH1 0x20 ADD SWAP1 DUP2 MSTORE PUSH1 0x20 ADD PUSH1 0x0 KECCAK256 PUSH1 0x0 DUP10 PUSH20 0xFFFFFFFFFFFFFFFFFFFFFFFFFFFFFFFFFFFFFFFF AND PUSH20 0xFFFFFFFFFFFFFFFFFFFFFFFFFFFFFFFFFFFFFFFF AND DUP2 MSTORE PUSH1 0x20 ADD SWAP1 DUP2 MSTORE PUSH1 0x20 ADD PUSH1 0x0 KECCAK256 PUSH1 0x0 DUP3 DUP3 SLOAD PUSH2 0xE5B SWAP2 SWAP1 PUSH2 0x22B4 JUMP JUMPDEST SWAP3 POP POP DUP2 SWAP1 SSTORE POP DUP7 PUSH20 0xFFFFFFFFFFFFFFFFFFFFFFFFFFFFFFFFFFFFFFFF AND PUSH1 0x0 PUSH20 0xFFFFFFFFFFFFFFFFFFFFFFFFFFFFFFFFFFFFFFFF AND DUP5 PUSH20 0xFFFFFFFFFFFFFFFFFFFFFFFFFFFFFFFFFFFFFFFF AND PUSH32 0xC3D58168C5AE7397731D063D5BBF3D657854427343F4C083240F7AACAA2D0F62 DUP10 DUP10 PUSH1 0x40 MLOAD PUSH2 0xED9 SWAP3 SWAP2 SWAP1 PUSH2 0x25F9 JUMP JUMPDEST PUSH1 0x40 MLOAD DUP1 SWAP2 SUB SWAP1 LOG4 PUSH2 0xEF0 DUP4 PUSH1 0x0 DUP10 DUP6 DUP6 DUP10 PUSH2 0x11AB JUMP JUMPDEST PUSH2 0xEFF DUP4 PUSH1 0x0 DUP10 DUP10 DUP10 DUP10 PUSH2 0x1404 JUMP JUMPDEST POP POP POP POP POP POP POP JUMP JUMPDEST PUSH1 0x0 PUSH20 0xFFFFFFFFFFFFFFFFFFFFFFFFFFFFFFFFFFFFFFFF AND DUP5 PUSH20 0xFFFFFFFFFFFFFFFFFFFFFFFFFFFFFFFFFFFFFFFF AND SUB PUSH2 0xF77 JUMPI PUSH1 0x40 MLOAD PUSH32 0x8C379A000000000000000000000000000000000000000000000000000000000 DUP2 MSTORE PUSH1 0x4 ADD PUSH2 0xF6E SWAP1 PUSH2 0x23EC JUMP JUMPDEST PUSH1 0x40 MLOAD DUP1 SWAP2 SUB SWAP1 REVERT JUMPDEST PUSH1 0x0 PUSH2 0xF81 PUSH2 0x8C3 JUMP JUMPDEST SWAP1 POP PUSH1 0x0 PUSH2 0xF8E DUP6 PUSH2 0x138A JUMP JUMPDEST SWAP1 POP PUSH1 0x0 PUSH2 0xF9B DUP6 PUSH2 0x138A JUMP JUMPDEST SWAP1 POP PUSH2 0xFAB DUP4 DUP10 DUP10 DUP6 DUP6 DUP10 PUSH2 0x11A3 JUMP JUMPDEST PUSH1 0x0 DUP1 PUSH1 0x0 DUP9 DUP2 MSTORE PUSH1 0x20 ADD SWAP1 DUP2 MSTORE PUSH1 0x20 ADD PUSH1 0x0 KECCAK256 PUSH1 0x0 DUP11 PUSH20 0xFFFFFFFFFFFFFFFFFFFFFFFFFFFFFFFFFFFFFFFF AND PUSH20 0xFFFFFFFFFFFFFFFFFFFFFFFFFFFFFFFFFFFFFFFF AND DUP2 MSTORE PUSH1 0x20 ADD SWAP1 DUP2 MSTORE PUSH1 0x20 ADD PUSH1 0x0 KECCAK256 SLOAD SWAP1 POP DUP6 DUP2 LT ISZERO PUSH2 0x1042 JUMPI PUSH1 0x40 MLOAD PUSH32 0x8C379A000000000000000000000000000000000000000000000000000000000 DUP2 MSTORE PUSH1 0x4 ADD PUSH2 0x1039 SWAP1 PUSH2 0x247E JUMP JUMPDEST PUSH1 0x40 MLOAD DUP1 SWAP2 SUB SWAP1 REVERT JUMPDEST DUP6 DUP2 SUB PUSH1 0x0 DUP1 DUP10 DUP2 MSTORE PUSH1 0x20 ADD SWAP1 DUP2 MSTORE PUSH1 0x20 ADD PUSH1 0x0 KECCAK256 PUSH1 0x0 DUP12 PUSH20 0xFFFFFFFFFFFFFFFFFFFFFFFFFFFFFFFFFFFFFFFF AND PUSH20 0xFFFFFFFFFFFFFFFFFFFFFFFFFFFFFFFFFFFFFFFF AND DUP2 MSTORE PUSH1 0x20 ADD SWAP1 DUP2 MSTORE PUSH1 0x20 ADD PUSH1 0x0 KECCAK256 DUP2 SWAP1 SSTORE POP DUP6 PUSH1 0x0 DUP1 DUP10 DUP2 MSTORE PUSH1 0x20 ADD SWAP1 DUP2 MSTORE PUSH1 0x20 ADD PUSH1 0x0 KECCAK256 PUSH1 0x0 DUP11 PUSH20 0xFFFFFFFFFFFFFFFFFFFFFFFFFFFFFFFFFFFFFFFF AND PUSH20 0xFFFFFFFFFFFFFFFFFFFFFFFFFFFFFFFFFFFFFFFF AND DUP2 MSTORE PUSH1 0x20 ADD SWAP1 DUP2 MSTORE PUSH1 0x20 ADD PUSH1 0x0 KECCAK256 PUSH1 0x0 DUP3 DUP3 SLOAD PUSH2 0x10F7 SWAP2 SWAP1 PUSH2 0x22B4 JUMP JUMPDEST SWAP3 POP POP DUP2 SWAP1 SSTORE POP DUP8 PUSH20 0xFFFFFFFFFFFFFFFFFFFFFFFFFFFFFFFFFFFFFFFF AND DUP10 PUSH20 0xFFFFFFFFFFFFFFFFFFFFFFFFFFFFFFFFFFFFFFFF AND DUP6 PUSH20 0xFFFFFFFFFFFFFFFFFFFFFFFFFFFFFFFFFFFFFFFF AND PUSH32 0xC3D58168C5AE7397731D063D5BBF3D657854427343F4C083240F7AACAA2D0F62 DUP11 DUP11 PUSH1 0x40 MLOAD PUSH2 0x1174 SWAP3 SWAP2 SWAP1 PUSH2 0x25F9 JUMP JUMPDEST PUSH1 0x40 MLOAD DUP1 SWAP2 SUB SWAP1 LOG4 PUSH2 0x118A DUP5 DUP11 DUP11 DUP7 DUP7 DUP11 PUSH2 0x11AB JUMP JUMPDEST PUSH2 0x1198 DUP5 DUP11 DUP11 DUP11 DUP11 DUP11 PUSH2 0x1404 JUMP JUMPDEST POP POP POP POP POP POP POP POP POP JUMP JUMPDEST POP POP POP POP POP POP JUMP JUMPDEST POP POP POP POP POP POP JUMP JUMPDEST PUSH2 0x11D2 DUP5 PUSH20 0xFFFFFFFFFFFFFFFFFFFFFFFFFFFFFFFFFFFFFFFF AND PUSH2 0x15DB JUMP JUMPDEST ISZERO PUSH2 0x1382 JUMPI DUP4 PUSH20 0xFFFFFFFFFFFFFFFFFFFFFFFFFFFFFFFFFFFFFFFF AND PUSH4 0xBC197C81 DUP8 DUP8 DUP7 DUP7 DUP7 PUSH1 0x40 MLOAD DUP7 PUSH4 0xFFFFFFFF AND PUSH1 0xE0 SHL DUP2 MSTORE PUSH1 0x4 ADD PUSH2 0x1218 SWAP6 SWAP5 SWAP4 SWAP3 SWAP2 SWAP1 PUSH2 0x2686 JUMP JUMPDEST PUSH1 0x20 PUSH1 0x40 MLOAD DUP1 DUP4 SUB DUP2 PUSH1 0x0 DUP8 GAS CALL SWAP3 POP POP POP DUP1 ISZERO PUSH2 0x1254 JUMPI POP PUSH1 0x40 MLOAD RETURNDATASIZE PUSH1 0x1F NOT PUSH1 0x1F DUP3 ADD AND DUP3 ADD DUP1 PUSH1 0x40 MSTORE POP DUP2 ADD SWAP1 PUSH2 0x1251 SWAP2 SWAP1 PUSH2 0x2703 JUMP JUMPDEST PUSH1 0x1 JUMPDEST PUSH2 0x12F9 JUMPI PUSH2 0x1260 PUSH2 0x273D JUMP JUMPDEST DUP1 PUSH4 0x8C379A0 SUB PUSH2 0x12BC JUMPI POP PUSH2 0x1274 PUSH2 0x275F JUMP JUMPDEST DUP1 PUSH2 0x127F JUMPI POP PUSH2 0x12BE JUMP JUMPDEST DUP1 PUSH1 0x40 MLOAD PUSH32 0x8C379A000000000000000000000000000000000000000000000000000000000 DUP2 MSTORE PUSH1 0x4 ADD PUSH2 0x12B3 SWAP2 SWAP1 PUSH2 0x1888 JUMP JUMPDEST PUSH1 0x40 MLOAD DUP1 SWAP2 SUB SWAP1 REVERT JUMPDEST POP JUMPDEST PUSH1 0x40 MLOAD PUSH32 0x8C379A000000000000000000000000000000000000000000000000000000000 DUP2 MSTORE PUSH1 0x4 ADD PUSH2 0x12F0 SWAP1 PUSH2 0x2861 JUMP JUMPDEST PUSH1 0x40 MLOAD DUP1 SWAP2 SUB SWAP1 REVERT JUMPDEST PUSH4 0xBC197C81 PUSH1 0xE0 SHL PUSH28 0xFFFFFFFFFFFFFFFFFFFFFFFFFFFFFFFFFFFFFFFFFFFFFFFFFFFFFFFF NOT AND DUP2 PUSH28 0xFFFFFFFFFFFFFFFFFFFFFFFFFFFFFFFFFFFFFFFFFFFFFFFFFFFFFFFF NOT AND EQ PUSH2 0x1380 JUMPI PUSH1 0x40 MLOAD PUSH32 0x8C379A000000000000000000000000000000000000000000000000000000000 DUP2 MSTORE PUSH1 0x4 ADD PUSH2 0x1377 SWAP1 PUSH2 0x28F3 JUMP JUMPDEST PUSH1 0x40 MLOAD DUP1 SWAP2 SUB SWAP1 REVERT JUMPDEST POP JUMPDEST POP POP POP POP POP POP JUMP JUMPDEST PUSH1 0x60 PUSH1 0x0 PUSH1 0x1 PUSH8 0xFFFFFFFFFFFFFFFF DUP2 GT ISZERO PUSH2 0x13A9 JUMPI PUSH2 0x13A8 PUSH2 0x18AF JUMP JUMPDEST JUMPDEST PUSH1 0x40 MLOAD SWAP1 DUP1 DUP3 MSTORE DUP1 PUSH1 0x20 MUL PUSH1 0x20 ADD DUP3 ADD PUSH1 0x40 MSTORE DUP1 ISZERO PUSH2 0x13D7 JUMPI DUP2 PUSH1 0x20 ADD PUSH1 0x20 DUP3 MUL DUP1 CALLDATASIZE DUP4 CALLDATACOPY DUP1 DUP3 ADD SWAP2 POP POP SWAP1 POP JUMPDEST POP SWAP1 POP DUP3 DUP2 PUSH1 0x0 DUP2 MLOAD DUP2 LT PUSH2 0x13EF JUMPI PUSH2 0x13EE PUSH2 0x220E JUMP JUMPDEST JUMPDEST PUSH1 0x20 MUL PUSH1 0x20 ADD ADD DUP2 DUP2 MSTORE POP POP DUP1 SWAP2 POP POP SWAP2 SWAP1 POP JUMP JUMPDEST PUSH2 0x1423 DUP5 PUSH20 0xFFFFFFFFFFFFFFFFFFFFFFFFFFFFFFFFFFFFFFFF AND PUSH2 0x15DB JUMP JUMPDEST ISZERO PUSH2 0x15D3 JUMPI DUP4 PUSH20 0xFFFFFFFFFFFFFFFFFFFFFFFFFFFFFFFFFFFFFFFF AND PUSH4 0xF23A6E61 DUP8 DUP8 DUP7 DUP7 DUP7 PUSH1 0x40 MLOAD DUP7 PUSH4 0xFFFFFFFF AND PUSH1 0xE0 SHL DUP2 MSTORE PUSH1 0x4 ADD PUSH2 0x1469 SWAP6 SWAP5 SWAP4 SWAP3 SWAP2 SWAP1 PUSH2 0x2913 JUMP JUMPDEST PUSH1 0x20 PUSH1 0x40 MLOAD DUP1 DUP4 SUB DUP2 PUSH1 0x0 DUP8 GAS CALL SWAP3 POP POP POP DUP1 ISZERO PUSH2 0x14A5 JUMPI POP PUSH1 0x40 MLOAD RETURNDATASIZE PUSH1 0x1F NOT PUSH1 0x1F DUP3 ADD AND DUP3 ADD DUP1 PUSH1 0x40 MSTORE POP DUP2 ADD SWAP1 PUSH2 0x14A2 SWAP2 SWAP1 PUSH2 0x2703 JUMP JUMPDEST PUSH1 0x1 JUMPDEST PUSH2 0x154A JUMPI PUSH2 0x14B1 PUSH2 0x273D JUMP JUMPDEST DUP1 PUSH4 0x8C379A0 SUB PUSH2 0x150D JUMPI POP PUSH2 0x14C5 PUSH2 0x275F JUMP JUMPDEST DUP1 PUSH2 0x14D0 JUMPI POP PUSH2 0x150F JUMP JUMPDEST DUP1 PUSH1 0x40 MLOAD PUSH32 0x8C379A000000000000000000000000000000000000000000000000000000000 DUP2 MSTORE PUSH1 0x4 ADD PUSH2 0x1504 SWAP2 SWAP1 PUSH2 0x1888 JUMP JUMPDEST PUSH1 0x40 MLOAD DUP1 SWAP2 SUB SWAP1 REVERT JUMPDEST POP JUMPDEST PUSH1 0x40 MLOAD PUSH32 0x8C379A000000000000000000000000000000000000000000000000000000000 DUP2 MSTORE PUSH1 0x4 ADD PUSH2 0x1541 SWAP1 PUSH2 0x2861 JUMP JUMPDEST PUSH1 0x40 MLOAD DUP1 SWAP2 SUB SWAP1 REVERT JUMPDEST PUSH4 0xF23A6E61 PUSH1 0xE0 SHL PUSH28 0xFFFFFFFFFFFFFFFFFFFFFFFFFFFFFFFFFFFFFFFFFFFFFFFFFFFFFFFF NOT AND DUP2 PUSH28 0xFFFFFFFFFFFFFFFFFFFFFFFFFFFFFFFFFFFFFFFFFFFFFFFFFFFFFFFF NOT AND EQ PUSH2 0x15D1 JUMPI PUSH1 0x40 MLOAD PUSH32 0x8C379A000000000000000000000000000000000000000000000000000000000 DUP2 MSTORE PUSH1 0x4 ADD PUSH2 0x15C8 SWAP1 PUSH2 0x28F3 JUMP JUMPDEST PUSH1 0x40 MLOAD DUP1 SWAP2 SUB SWAP1 REVERT JUMPDEST POP JUMPDEST POP POP POP POP POP POP JUMP JUMPDEST PUSH1 0x0 DUP1 DUP3 PUSH20 0xFFFFFFFFFFFFFFFFFFFFFFFFFFFFFFFFFFFFFFFF AND EXTCODESIZE GT SWAP1 POP SWAP2 SWAP1 POP JUMP JUMPDEST PUSH1 0x0 PUSH1 0x40 MLOAD SWAP1 POP SWAP1 JUMP JUMPDEST PUSH1 0x0 DUP1 REVERT JUMPDEST PUSH1 0x0 DUP1 REVERT JUMPDEST PUSH1 0x0 PUSH20 0xFFFFFFFFFFFFFFFFFFFFFFFFFFFFFFFFFFFFFFFF DUP3 AND SWAP1 POP SWAP2 SWAP1 POP JUMP JUMPDEST PUSH1 0x0 PUSH2 0x163D DUP3 PUSH2 0x1612 JUMP JUMPDEST SWAP1 POP SWAP2 SWAP1 POP JUMP JUMPDEST PUSH2 0x164D DUP2 PUSH2 0x1632 JUMP JUMPDEST DUP2 EQ PUSH2 0x1658 JUMPI PUSH1 0x0 DUP1 REVERT JUMPDEST POP JUMP JUMPDEST PUSH1 0x0 DUP2 CALLDATALOAD SWAP1 POP PUSH2 0x166A DUP2 PUSH2 0x1644 JUMP JUMPDEST SWAP3 SWAP2 POP POP JUMP JUMPDEST PUSH1 0x0 DUP2 SWAP1 POP SWAP2 SWAP1 POP JUMP JUMPDEST PUSH2 0x1683 DUP2 PUSH2 0x1670 JUMP JUMPDEST DUP2 EQ PUSH2 0x168E JUMPI PUSH1 0x0 DUP1 REVERT JUMPDEST POP JUMP JUMPDEST PUSH1 0x0 DUP2 CALLDATALOAD SWAP1 POP PUSH2 0x16A0 DUP2 PUSH2 0x167A JUMP JUMPDEST SWAP3 SWAP2 POP POP JUMP JUMPDEST PUSH1 0x0 DUP1 PUSH1 0x40 DUP4 DUP6 SUB SLT ISZERO PUSH2 0x16BD JUMPI PUSH2 0x16BC PUSH2 0x1608 JUMP JUMPDEST JUMPDEST PUSH1 0x0 PUSH2 0x16CB DUP6 DUP3 DUP7 ADD PUSH2 0x165B JUMP JUMPDEST SWAP3 POP POP PUSH1 0x20 PUSH2 0x16DC DUP6 DUP3 DUP7 ADD PUSH2 0x1691 JUMP JUMPDEST SWAP2 POP POP SWAP3 POP SWAP3 SWAP1 POP JUMP JUMPDEST PUSH2 0x16EF DUP2 PUSH2 0x1670 JUMP JUMPDEST DUP3 MSTORE POP POP JUMP JUMPDEST PUSH1 0x0 PUSH1 0x20 DUP3 ADD SWAP1 POP PUSH2 0x170A PUSH1 0x0 DUP4 ADD DUP5 PUSH2 0x16E6 JUMP JUMPDEST SWAP3 SWAP2 POP POP JUMP JUMPDEST PUSH1 0x0 PUSH32 0xFFFFFFFF00000000000000000000000000000000000000000000000000000000 DUP3 AND SWAP1 POP SWAP2 SWAP1 POP JUMP JUMPDEST PUSH2 0x1745 DUP2 PUSH2 0x1710 JUMP JUMPDEST DUP2 EQ PUSH2 0x1750 JUMPI PUSH1 0x0 DUP1 REVERT JUMPDEST POP JUMP JUMPDEST PUSH1 0x0 DUP2 CALLDATALOAD SWAP1 POP PUSH2 0x1762 DUP2 PUSH2 0x173C JUMP JUMPDEST SWAP3 SWAP2 POP POP JUMP JUMPDEST PUSH1 0x0 PUSH1 0x20 DUP3 DUP5 SUB SLT ISZERO PUSH2 0x177E JUMPI PUSH2 0x177D PUSH2 0x1608 JUMP JUMPDEST JUMPDEST PUSH1 0x0 PUSH2 0x178C DUP5 DUP3 DUP6 ADD PUSH2 0x1753 JUMP JUMPDEST SWAP2 POP POP SWAP3 SWAP2 POP POP JUMP JUMPDEST PUSH1 0x0 DUP2 ISZERO ISZERO SWAP1 POP SWAP2 SWAP1 POP JUMP JUMPDEST PUSH2 0x17AA DUP2 PUSH2 0x1795 JUMP JUMPDEST DUP3 MSTORE POP POP JUMP JUMPDEST PUSH1 0x0 PUSH1 0x20 DUP3 ADD SWAP1 POP PUSH2 0x17C5 PUSH1 0x0 DUP4 ADD DUP5 PUSH2 0x17A1 JUMP JUMPDEST SWAP3 SWAP2 POP POP JUMP JUMPDEST PUSH1 0x0 PUSH1 0x20 DUP3 DUP5 SUB SLT ISZERO PUSH2 0x17E1 JUMPI PUSH2 0x17E0 PUSH2 0x1608 JUMP JUMPDEST JUMPDEST PUSH1 0x0 PUSH2 0x17EF DUP5 DUP3 DUP6 ADD PUSH2 0x1691 JUMP JUMPDEST SWAP2 POP POP SWAP3 SWAP2 POP POP JUMP JUMPDEST PUSH1 0x0 DUP2 MLOAD SWAP1 POP SWAP2 SWAP1 POP JUMP JUMPDEST PUSH1 0x0 DUP3 DUP3 MSTORE PUSH1 0x20 DUP3 ADD SWAP1 POP SWAP3 SWAP2 POP POP JUMP JUMPDEST PUSH1 0x0 JUMPDEST DUP4 DUP2 LT ISZERO PUSH2 0x1832 JUMPI DUP1 DUP3 ADD MLOAD DUP2 DUP5 ADD MSTORE PUSH1 0x20 DUP2 ADD SWAP1 POP PUSH2 0x1817 JUMP JUMPDEST PUSH1 0x0 DUP5 DUP5 ADD MSTORE POP POP POP POP JUMP JUMPDEST PUSH1 0x0 PUSH1 0x1F NOT PUSH1 0x1F DUP4 ADD AND SWAP1 POP SWAP2 SWAP1 POP JUMP JUMPDEST PUSH1 0x0 PUSH2 0x185A DUP3 PUSH2 0x17F8 JUMP JUMPDEST PUSH2 0x1864 DUP2 DUP6 PUSH2 0x1803 JUMP JUMPDEST SWAP4 POP PUSH2 0x1874 DUP2 DUP6 PUSH1 0x20 DUP7 ADD PUSH2 0x1814 JUMP JUMPDEST PUSH2 0x187D DUP2 PUSH2 0x183E JUMP JUMPDEST DUP5 ADD SWAP2 POP POP SWAP3 SWAP2 POP POP JUMP JUMPDEST PUSH1 0x0 PUSH1 0x20 DUP3 ADD SWAP1 POP DUP2 DUP2 SUB PUSH1 0x0 DUP4 ADD MSTORE PUSH2 0x18A2 DUP2 DUP5 PUSH2 0x184F JUMP JUMPDEST SWAP1 POP SWAP3 SWAP2 POP POP JUMP JUMPDEST PUSH1 0x0 DUP1 REVERT JUMPDEST PUSH32 0x4E487B7100000000000000000000000000000000000000000000000000000000 PUSH1 0x0 MSTORE PUSH1 0x41 PUSH1 0x4 MSTORE PUSH1 0x24 PUSH1 0x0 REVERT JUMPDEST PUSH2 0x18E7 DUP3 PUSH2 0x183E JUMP JUMPDEST DUP2 ADD DUP2 DUP2 LT PUSH8 0xFFFFFFFFFFFFFFFF DUP3 GT OR ISZERO PUSH2 0x1906 JUMPI PUSH2 0x1905 PUSH2 0x18AF JUMP JUMPDEST JUMPDEST DUP1 PUSH1 0x40 MSTORE POP POP POP JUMP JUMPDEST PUSH1 0x0 PUSH2 0x1919 PUSH2 0x15FE JUMP JUMPDEST SWAP1 POP PUSH2 0x1925 DUP3 DUP3 PUSH2 0x18DE JUMP JUMPDEST SWAP2 SWAP1 POP JUMP JUMPDEST PUSH1 0x0 PUSH8 0xFFFFFFFFFFFFFFFF DUP3 GT ISZERO PUSH2 0x1945 JUMPI PUSH2 0x1944 PUSH2 0x18AF JUMP JUMPDEST JUMPDEST PUSH1 0x20 DUP3 MUL SWAP1 POP PUSH1 0x20 DUP2 ADD SWAP1 POP SWAP2 SWAP1 POP JUMP JUMPDEST PUSH1 0x0 DUP1 REVERT JUMPDEST PUSH1 0x0 PUSH2 0x196E PUSH2 0x1969 DUP5 PUSH2 0x192A JUMP JUMPDEST PUSH2 0x190F JUMP JUMPDEST SWAP1 POP DUP1 DUP4 DUP3 MSTORE PUSH1 0x20 DUP3 ADD SWAP1 POP PUSH1 0x20 DUP5 MUL DUP4 ADD DUP6 DUP2 GT ISZERO PUSH2 0x1991 JUMPI PUSH2 0x1990 PUSH2 0x1956 JUMP JUMPDEST JUMPDEST DUP4 JUMPDEST DUP2 DUP2 LT ISZERO PUSH2 0x19BA JUMPI DUP1 PUSH2 0x19A6 DUP9 DUP3 PUSH2 0x1691 JUMP JUMPDEST DUP5 MSTORE PUSH1 0x20 DUP5 ADD SWAP4 POP POP PUSH1 0x20 DUP2 ADD SWAP1 POP PUSH2 0x1993 JUMP JUMPDEST POP POP POP SWAP4 SWAP3 POP POP POP JUMP JUMPDEST PUSH1 0x0 DUP3 PUSH1 0x1F DUP4 ADD SLT PUSH2 0x19D9 JUMPI PUSH2 0x19D8 PUSH2 0x18AA JUMP JUMPDEST JUMPDEST DUP2 CALLDATALOAD PUSH2 0x19E9 DUP5 DUP3 PUSH1 0x20 DUP7 ADD PUSH2 0x195B JUMP JUMPDEST SWAP2 POP POP SWAP3 SWAP2 POP POP JUMP JUMPDEST PUSH1 0x0 DUP1 REVERT JUMPDEST PUSH1 0x0 PUSH8 0xFFFFFFFFFFFFFFFF DUP3 GT ISZERO PUSH2 0x1A12 JUMPI PUSH2 0x1A11 PUSH2 0x18AF JUMP JUMPDEST JUMPDEST PUSH2 0x1A1B DUP3 PUSH2 0x183E JUMP JUMPDEST SWAP1 POP PUSH1 0x20 DUP2 ADD SWAP1 POP SWAP2 SWAP1 POP JUMP JUMPDEST DUP3 DUP2 DUP4 CALLDATACOPY PUSH1 0x0 DUP4 DUP4 ADD MSTORE POP POP POP JUMP JUMPDEST PUSH1 0x0 PUSH2 0x1A4A PUSH2 0x1A45 DUP5 PUSH2 0x19F7 JUMP JUMPDEST PUSH2 0x190F JUMP JUMPDEST SWAP1 POP DUP3 DUP2 MSTORE PUSH1 0x20 DUP2 ADD DUP5 DUP5 DUP5 ADD GT ISZERO PUSH2 0x1A66 JUMPI PUSH2 0x1A65 PUSH2 0x19F2 JUMP JUMPDEST JUMPDEST PUSH2 0x1A71 DUP5 DUP3 DUP6 PUSH2 0x1A28 JUMP JUMPDEST POP SWAP4 SWAP3 POP POP POP JUMP JUMPDEST PUSH1 0x0 DUP3 PUSH1 0x1F DUP4 ADD SLT PUSH2 0x1A8E JUMPI PUSH2 0x1A8D PUSH2 0x18AA JUMP JUMPDEST JUMPDEST DUP2 CALLDATALOAD PUSH2 0x1A9E DUP5 DUP3 PUSH1 0x20 DUP7 ADD PUSH2 0x1A37 JUMP JUMPDEST SWAP2 POP POP SWAP3 SWAP2 POP POP JUMP JUMPDEST PUSH1 0x0 DUP1 PUSH1 0x0 DUP1 PUSH1 0x0 PUSH1 0xA0 DUP7 DUP9 SUB SLT ISZERO PUSH2 0x1AC3 JUMPI PUSH2 0x1AC2 PUSH2 0x1608 JUMP JUMPDEST JUMPDEST PUSH1 0x0 PUSH2 0x1AD1 DUP9 DUP3 DUP10 ADD PUSH2 0x165B JUMP JUMPDEST SWAP6 POP POP PUSH1 0x20 PUSH2 0x1AE2 DUP9 DUP3 DUP10 ADD PUSH2 0x165B JUMP JUMPDEST SWAP5 POP POP PUSH1 0x40 DUP7 ADD CALLDATALOAD PUSH8 0xFFFFFFFFFFFFFFFF DUP2 GT ISZERO PUSH2 0x1B03 JUMPI PUSH2 0x1B02 PUSH2 0x160D JUMP JUMPDEST JUMPDEST PUSH2 0x1B0F DUP9 DUP3 DUP10 ADD PUSH2 0x19C4 JUMP JUMPDEST SWAP4 POP POP PUSH1 0x60 DUP7 ADD CALLDATALOAD PUSH8 0xFFFFFFFFFFFFFFFF DUP2 GT ISZERO PUSH2 0x1B30 JUMPI PUSH2 0x1B2F PUSH2 0x160D JUMP JUMPDEST JUMPDEST PUSH2 0x1B3C DUP9 DUP3 DUP10 ADD PUSH2 0x19C4 JUMP JUMPDEST SWAP3 POP POP PUSH1 0x80 DUP7 ADD CALLDATALOAD PUSH8 0xFFFFFFFFFFFFFFFF DUP2 GT ISZERO PUSH2 0x1B5D JUMPI PUSH2 0x1B5C PUSH2 0x160D JUMP JUMPDEST JUMPDEST PUSH2 0x1B69 DUP9 DUP3 DUP10 ADD PUSH2 0x1A79 JUMP JUMPDEST SWAP2 POP POP SWAP3 SWAP6 POP SWAP3 SWAP6 SWAP1 SWAP4 POP JUMP JUMPDEST PUSH1 0x0 PUSH8 0xFFFFFFFFFFFFFFFF DUP3 GT ISZERO PUSH2 0x1B91 JUMPI PUSH2 0x1B90 PUSH2 0x18AF JUMP JUMPDEST JUMPDEST PUSH1 0x20 DUP3 MUL SWAP1 POP PUSH1 0x20 DUP2 ADD SWAP1 POP SWAP2 SWAP1 POP JUMP JUMPDEST PUSH1 0x0 PUSH2 0x1BB5 PUSH2 0x1BB0 DUP5 PUSH2 0x1B76 JUMP JUMPDEST PUSH2 0x190F JUMP JUMPDEST SWAP1 POP DUP1 DUP4 DUP3 MSTORE PUSH1 0x20 DUP3 ADD SWAP1 POP PUSH1 0x20 DUP5 MUL DUP4 ADD DUP6 DUP2 GT ISZERO PUSH2 0x1BD8 JUMPI PUSH2 0x1BD7 PUSH2 0x1956 JUMP JUMPDEST JUMPDEST DUP4 JUMPDEST DUP2 DUP2 LT ISZERO PUSH2 0x1C01 JUMPI DUP1 PUSH2 0x1BED DUP9 DUP3 PUSH2 0x165B JUMP JUMPDEST DUP5 MSTORE PUSH1 0x20 DUP5 ADD SWAP4 POP POP PUSH1 0x20 DUP2 ADD SWAP1 POP PUSH2 0x1BDA JUMP JUMPDEST POP POP POP SWAP4 SWAP3 POP POP POP JUMP JUMPDEST PUSH1 0x0 DUP3 PUSH1 0x1F DUP4 ADD SLT PUSH2 0x1C20 JUMPI PUSH2 0x1C1F PUSH2 0x18AA JUMP JUMPDEST JUMPDEST DUP2 CALLDATALOAD PUSH2 0x1C30 DUP5 DUP3 PUSH1 0x20 DUP7 ADD PUSH2 0x1BA2 JUMP JUMPDEST SWAP2 POP POP SWAP3 SWAP2 POP POP JUMP JUMPDEST PUSH1 0x0 DUP1 PUSH1 0x40 DUP4 DUP6 SUB SLT ISZERO PUSH2 0x1C50 JUMPI PUSH2 0x1C4F PUSH2 0x1608 JUMP JUMPDEST JUMPDEST PUSH1 0x0 DUP4 ADD CALLDATALOAD PUSH8 0xFFFFFFFFFFFFFFFF DUP2 GT ISZERO PUSH2 0x1C6E JUMPI PUSH2 0x1C6D PUSH2 0x160D JUMP JUMPDEST JUMPDEST PUSH2 0x1C7A DUP6 DUP3 DUP7 ADD PUSH2 0x1C0B JUMP JUMPDEST SWAP3 POP POP PUSH1 0x20 DUP4 ADD CALLDATALOAD PUSH8 0xFFFFFFFFFFFFFFFF DUP2 GT ISZERO PUSH2 0x1C9B JUMPI PUSH2 0x1C9A PUSH2 0x160D JUMP JUMPDEST JUMPDEST PUSH2 0x1CA7 DUP6 DUP3 DUP7 ADD PUSH2 0x19C4 JUMP JUMPDEST SWAP2 POP POP SWAP3 POP SWAP3 SWAP1 POP JUMP JUMPDEST PUSH1 0x0 DUP2 MLOAD SWAP1 POP SWAP2 SWAP1 POP JUMP JUMPDEST PUSH1 0x0 DUP3 DUP3 MSTORE PUSH1 0x20 DUP3 ADD SWAP1 POP SWAP3 SWAP2 POP POP JUMP JUMPDEST PUSH1 0x0 DUP2 SWAP1 POP PUSH1 0x20 DUP3 ADD SWAP1 POP SWAP2 SWAP1 POP JUMP JUMPDEST PUSH2 0x1CE6 DUP2 PUSH2 0x1670 JUMP JUMPDEST DUP3 MSTORE POP POP JUMP JUMPDEST PUSH1 0x0 PUSH2 0x1CF8 DUP4 DUP4 PUSH2 0x1CDD JUMP JUMPDEST PUSH1 0x20 DUP4 ADD SWAP1 POP SWAP3 SWAP2 POP POP JUMP JUMPDEST PUSH1 0x0 PUSH1 0x20 DUP3 ADD SWAP1 POP SWAP2 SWAP1 POP JUMP JUMPDEST PUSH1 0x0 PUSH2 0x1D1C DUP3 PUSH2 0x1CB1 JUMP JUMPDEST PUSH2 0x1D26 DUP2 DUP6 PUSH2 0x1CBC JUMP JUMPDEST SWAP4 POP PUSH2 0x1D31 DUP4 PUSH2 0x1CCD JUMP JUMPDEST DUP1 PUSH1 0x0 JUMPDEST DUP4 DUP2 LT ISZERO PUSH2 0x1D62 JUMPI DUP2 MLOAD PUSH2 0x1D49 DUP9 DUP3 PUSH2 0x1CEC JUMP JUMPDEST SWAP8 POP PUSH2 0x1D54 DUP4 PUSH2 0x1D04 JUMP JUMPDEST SWAP3 POP POP PUSH1 0x1 DUP2 ADD SWAP1 POP PUSH2 0x1D35 JUMP JUMPDEST POP DUP6 SWAP4 POP POP POP POP SWAP3 SWAP2 POP POP JUMP JUMPDEST PUSH1 0x0 PUSH1 0x20 DUP3 ADD SWAP1 POP DUP2 DUP2 SUB PUSH1 0x0 DUP4 ADD MSTORE PUSH2 0x1D89 DUP2 DUP5 PUSH2 0x1D11 JUMP JUMPDEST SWAP1 POP SWAP3 SWAP2 POP POP JUMP JUMPDEST PUSH2 0x1D9A DUP2 PUSH2 0x1795 JUMP JUMPDEST DUP2 EQ PUSH2 0x1DA5 JUMPI PUSH1 0x0 DUP1 REVERT JUMPDEST POP JUMP JUMPDEST PUSH1 0x0 DUP2 CALLDATALOAD SWAP1 POP PUSH2 0x1DB7 DUP2 PUSH2 0x1D91 JUMP JUMPDEST SWAP3 SWAP2 POP POP JUMP JUMPDEST PUSH1 0x0 DUP1 PUSH1 0x40 DUP4 DUP6 SUB SLT ISZERO PUSH2 0x1DD4 JUMPI PUSH2 0x1DD3 PUSH2 0x1608 JUMP JUMPDEST JUMPDEST PUSH1 0x0 PUSH2 0x1DE2 DUP6 DUP3 DUP7 ADD PUSH2 0x165B JUMP JUMPDEST SWAP3 POP POP PUSH1 0x20 PUSH2 0x1DF3 DUP6 DUP3 DUP7 ADD PUSH2 0x1DA8 JUMP JUMPDEST SWAP2 POP POP SWAP3 POP SWAP3 SWAP1 POP JUMP JUMPDEST PUSH1 0x0 PUSH8 0xFFFFFFFFFFFFFFFF DUP3 GT ISZERO PUSH2 0x1E18 JUMPI PUSH2 0x1E17 PUSH2 0x18AF JUMP JUMPDEST JUMPDEST PUSH2 0x1E21 DUP3 PUSH2 0x183E JUMP JUMPDEST SWAP1 POP PUSH1 0x20 DUP2 ADD SWAP1 POP SWAP2 SWAP1 POP JUMP JUMPDEST PUSH1 0x0 PUSH2 0x1E41 PUSH2 0x1E3C DUP5 PUSH2 0x1DFD JUMP JUMPDEST PUSH2 0x190F JUMP JUMPDEST SWAP1 POP DUP3 DUP2 MSTORE PUSH1 0x20 DUP2 ADD DUP5 DUP5 DUP5 ADD GT ISZERO PUSH2 0x1E5D JUMPI PUSH2 0x1E5C PUSH2 0x19F2 JUMP JUMPDEST JUMPDEST PUSH2 0x1E68 DUP5 DUP3 DUP6 PUSH2 0x1A28 JUMP JUMPDEST POP SWAP4 SWAP3 POP POP POP JUMP JUMPDEST PUSH1 0x0 DUP3 PUSH1 0x1F DUP4 ADD SLT PUSH2 0x1E85 JUMPI PUSH2 0x1E84 PUSH2 0x18AA JUMP JUMPDEST JUMPDEST DUP2 CALLDATALOAD PUSH2 0x1E95 DUP5 DUP3 PUSH1 0x20 DUP7 ADD PUSH2 0x1E2E JUMP JUMPDEST SWAP2 POP POP SWAP3 SWAP2 POP POP JUMP JUMPDEST PUSH1 0x0 DUP1 PUSH1 0x0 DUP1 PUSH1 0x80 DUP6 DUP8 SUB SLT ISZERO PUSH2 0x1EB8 JUMPI PUSH2 0x1EB7 PUSH2 0x1608 JUMP JUMPDEST JUMPDEST PUSH1 0x0 PUSH2 0x1EC6 DUP8 DUP3 DUP9 ADD PUSH2 0x165B JUMP JUMPDEST SWAP5 POP POP PUSH1 0x20 PUSH2 0x1ED7 DUP8 DUP3 DUP9 ADD PUSH2 0x1691 JUMP JUMPDEST SWAP4 POP POP PUSH1 0x40 PUSH2 0x1EE8 DUP8 DUP3 DUP9 ADD PUSH2 0x1691 JUMP JUMPDEST SWAP3 POP POP PUSH1 0x60 DUP6 ADD CALLDATALOAD PUSH8 0xFFFFFFFFFFFFFFFF DUP2 GT ISZERO PUSH2 0x1F09 JUMPI PUSH2 0x1F08 PUSH2 0x160D JUMP JUMPDEST JUMPDEST PUSH2 0x1F15 DUP8 DUP3 DUP9 ADD PUSH2 0x1E70 JUMP JUMPDEST SWAP2 POP POP SWAP3 SWAP6 SWAP2 SWAP5 POP SWAP3 POP JUMP JUMPDEST PUSH1 0x0 DUP1 PUSH1 0x40 DUP4 DUP6 SUB SLT ISZERO PUSH2 0x1F38 JUMPI PUSH2 0x1F37 PUSH2 0x1608 JUMP JUMPDEST JUMPDEST PUSH1 0x0 PUSH2 0x1F46 DUP6 DUP3 DUP7 ADD PUSH2 0x165B JUMP JUMPDEST SWAP3 POP POP PUSH1 0x20 PUSH2 0x1F57 DUP6 DUP3 DUP7 ADD PUSH2 0x165B JUMP JUMPDEST SWAP2 POP POP SWAP3 POP SWAP3 SWAP1 POP JUMP JUMPDEST PUSH1 0x0 DUP1 PUSH1 0x0 DUP1 PUSH1 0x0 PUSH1 0xA0 DUP7 DUP9 SUB SLT ISZERO PUSH2 0x1F7D JUMPI PUSH2 0x1F7C PUSH2 0x1608 JUMP JUMPDEST JUMPDEST PUSH1 0x0 PUSH2 0x1F8B DUP9 DUP3 DUP10 ADD PUSH2 0x165B JUMP JUMPDEST SWAP6 POP POP PUSH1 0x20 PUSH2 0x1F9C DUP9 DUP3 DUP10 ADD PUSH2 0x165B JUMP JUMPDEST SWAP5 POP POP PUSH1 0x40 PUSH2 0x1FAD DUP9 DUP3 DUP10 ADD PUSH2 0x1691 JUMP JUMPDEST SWAP4 POP POP PUSH1 0x60 PUSH2 0x1FBE DUP9 DUP3 DUP10 ADD PUSH2 0x1691 JUMP JUMPDEST SWAP3 POP POP PUSH1 0x80 DUP7 ADD CALLDATALOAD PUSH8 0xFFFFFFFFFFFFFFFF DUP2 GT ISZERO PUSH2 0x1FDF JUMPI PUSH2 0x1FDE PUSH2 0x160D JUMP JUMPDEST JUMPDEST PUSH2 0x1FEB DUP9 DUP3 DUP10 ADD PUSH2 0x1A79 JUMP JUMPDEST SWAP2 POP POP SWAP3 SWAP6 POP SWAP3 SWAP6 SWAP1 SWAP4 POP JUMP JUMPDEST PUSH32 0x455243313135353A2061646472657373207A65726F206973206E6F7420612076 PUSH1 0x0 DUP3 ADD MSTORE PUSH32 0x616C6964206F776E657200000000000000000000000000000000000000000000 PUSH1 0x20 DUP3 ADD MSTORE POP JUMP JUMPDEST PUSH1 0x0 PUSH2 0x2054 PUSH1 0x2A DUP4 PUSH2 0x1803 JUMP JUMPDEST SWAP2 POP PUSH2 0x205F DUP3 PUSH2 0x1FF8 JUMP JUMPDEST PUSH1 0x40 DUP3 ADD SWAP1 POP SWAP2 SWAP1 POP JUMP JUMPDEST PUSH1 0x0 PUSH1 0x20 DUP3 ADD SWAP1 POP DUP2 DUP2 SUB PUSH1 0x0 DUP4 ADD MSTORE PUSH2 0x2083 DUP2 PUSH2 0x2047 JUMP JUMPDEST SWAP1 POP SWAP2 SWAP1 POP JUMP JUMPDEST PUSH32 0x4E487B7100000000000000000000000000000000000000000000000000000000 PUSH1 0x0 MSTORE PUSH1 0x22 PUSH1 0x4 MSTORE PUSH1 0x24 PUSH1 0x0 REVERT JUMPDEST PUSH1 0x0 PUSH1 0x2 DUP3 DIV SWAP1 POP PUSH1 0x1 DUP3 AND DUP1 PUSH2 0x20D1 JUMPI PUSH1 0x7F DUP3 AND SWAP2 POP JUMPDEST PUSH1 0x20 DUP3 LT DUP2 SUB PUSH2 0x20E4 JUMPI PUSH2 0x20E3 PUSH2 0x208A JUMP JUMPDEST JUMPDEST POP SWAP2 SWAP1 POP JUMP JUMPDEST PUSH32 0x455243313135353A2063616C6C6572206973206E6F7420746F6B656E206F776E PUSH1 0x0 DUP3 ADD MSTORE PUSH32 0x6572206F7220617070726F766564000000000000000000000000000000000000 PUSH1 0x20 DUP3 ADD MSTORE POP JUMP JUMPDEST PUSH1 0x0 PUSH2 0x2146 PUSH1 0x2E DUP4 PUSH2 0x1803 JUMP JUMPDEST SWAP2 POP PUSH2 0x2151 DUP3 PUSH2 0x20EA JUMP JUMPDEST PUSH1 0x40 DUP3 ADD SWAP1 POP SWAP2 SWAP1 POP JUMP JUMPDEST PUSH1 0x0 PUSH1 0x20 DUP3 ADD SWAP1 POP DUP2 DUP2 SUB PUSH1 0x0 DUP4 ADD MSTORE PUSH2 0x2175 DUP2 PUSH2 0x2139 JUMP JUMPDEST SWAP1 POP SWAP2 SWAP1 POP JUMP JUMPDEST PUSH32 0x455243313135353A206163636F756E747320616E6420696473206C656E677468 PUSH1 0x0 DUP3 ADD MSTORE PUSH32 0x206D69736D617463680000000000000000000000000000000000000000000000 PUSH1 0x20 DUP3 ADD MSTORE POP JUMP JUMPDEST PUSH1 0x0 PUSH2 0x21D8 PUSH1 0x29 DUP4 PUSH2 0x1803 JUMP JUMPDEST SWAP2 POP PUSH2 0x21E3 DUP3 PUSH2 0x217C JUMP JUMPDEST PUSH1 0x40 DUP3 ADD SWAP1 POP SWAP2 SWAP1 POP JUMP JUMPDEST PUSH1 0x0 PUSH1 0x20 DUP3 ADD SWAP1 POP DUP2 DUP2 SUB PUSH1 0x0 DUP4 ADD MSTORE PUSH2 0x2207 DUP2 PUSH2 0x21CB JUMP JUMPDEST SWAP1 POP SWAP2 SWAP1 POP JUMP JUMPDEST PUSH32 0x4E487B7100000000000000000000000000000000000000000000000000000000 PUSH1 0x0 MSTORE PUSH1 0x32 PUSH1 0x4 MSTORE PUSH1 0x24 PUSH1 0x0 REVERT JUMPDEST PUSH32 0x4E487B7100000000000000000000000000000000000000000000000000000000 PUSH1 0x0 MSTORE PUSH1 0x11 PUSH1 0x4 MSTORE PUSH1 0x24 PUSH1 0x0 REVERT JUMPDEST PUSH1 0x0 PUSH2 0x2277 DUP3 PUSH2 0x1670 JUMP JUMPDEST SWAP2 POP PUSH32 0xFFFFFFFFFFFFFFFFFFFFFFFFFFFFFFFFFFFFFFFFFFFFFFFFFFFFFFFFFFFFFFFF DUP3 SUB PUSH2 0x22A9 JUMPI PUSH2 0x22A8 PUSH2 0x223D JUMP JUMPDEST JUMPDEST PUSH1 0x1 DUP3 ADD SWAP1 POP SWAP2 SWAP1 POP JUMP JUMPDEST PUSH1 0x0 PUSH2 0x22BF DUP3 PUSH2 0x1670 JUMP JUMPDEST SWAP2 POP PUSH2 0x22CA DUP4 PUSH2 0x1670 JUMP JUMPDEST SWAP3 POP DUP3 DUP3 ADD SWAP1 POP DUP1 DUP3 GT ISZERO PUSH2 0x22E2 JUMPI PUSH2 0x22E1 PUSH2 0x223D JUMP JUMPDEST JUMPDEST SWAP3 SWAP2 POP POP JUMP JUMPDEST PUSH32 0x455243313135353A2069647320616E6420616D6F756E7473206C656E67746820 PUSH1 0x0 DUP3 ADD MSTORE PUSH32 0x6D69736D61746368000000000000000000000000000000000000000000000000 PUSH1 0x20 DUP3 ADD MSTORE POP JUMP JUMPDEST PUSH1 0x0 PUSH2 0x2344 PUSH1 0x28 DUP4 PUSH2 0x1803 JUMP JUMPDEST SWAP2 POP PUSH2 0x234F DUP3 PUSH2 0x22E8 JUMP JUMPDEST PUSH1 0x40 DUP3 ADD SWAP1 POP SWAP2 SWAP1 POP JUMP JUMPDEST PUSH1 0x0 PUSH1 0x20 DUP3 ADD SWAP1 POP DUP2 DUP2 SUB PUSH1 0x0 DUP4 ADD MSTORE PUSH2 0x2373 DUP2 PUSH2 0x2337 JUMP JUMPDEST SWAP1 POP SWAP2 SWAP1 POP JUMP JUMPDEST PUSH32 0x455243313135353A207472616E7366657220746F20746865207A65726F206164 PUSH1 0x0 DUP3 ADD MSTORE PUSH32 0x6472657373000000000000000000000000000000000000000000000000000000 PUSH1 0x20 DUP3 ADD MSTORE POP JUMP JUMPDEST PUSH1 0x0 PUSH2 0x23D6 PUSH1 0x25 DUP4 PUSH2 0x1803 JUMP JUMPDEST SWAP2 POP PUSH2 0x23E1 DUP3 PUSH2 0x237A JUMP JUMPDEST PUSH1 0x40 DUP3 ADD SWAP1 POP SWAP2 SWAP1 POP JUMP JUMPDEST PUSH1 0x0 PUSH1 0x20 DUP3 ADD SWAP1 POP DUP2 DUP2 SUB PUSH1 0x0 DUP4 ADD MSTORE PUSH2 0x2405 DUP2 PUSH2 0x23C9 JUMP JUMPDEST SWAP1 POP SWAP2 SWAP1 POP JUMP JUMPDEST PUSH32 0x455243313135353A20696E73756666696369656E742062616C616E636520666F PUSH1 0x0 DUP3 ADD MSTORE PUSH32 0x72207472616E7366657200000000000000000000000000000000000000000000 PUSH1 0x20 DUP3 ADD MSTORE POP JUMP JUMPDEST PUSH1 0x0 PUSH2 0x2468 PUSH1 0x2A DUP4 PUSH2 0x1803 JUMP JUMPDEST SWAP2 POP PUSH2 0x2473 DUP3 PUSH2 0x240C JUMP JUMPDEST PUSH1 0x40 DUP3 ADD SWAP1 POP SWAP2 SWAP1 POP JUMP JUMPDEST PUSH1 0x0 PUSH1 0x20 DUP3 ADD SWAP1 POP DUP2 DUP2 SUB PUSH1 0x0 DUP4 ADD MSTORE PUSH2 0x2497 DUP2 PUSH2 0x245B JUMP JUMPDEST SWAP1 POP SWAP2 SWAP1 POP JUMP JUMPDEST PUSH1 0x0 PUSH1 0x40 DUP3 ADD SWAP1 POP DUP2 DUP2 SUB PUSH1 0x0 DUP4 ADD MSTORE PUSH2 0x24B8 DUP2 DUP6 PUSH2 0x1D11 JUMP JUMPDEST SWAP1 POP DUP2 DUP2 SUB PUSH1 0x20 DUP4 ADD MSTORE PUSH2 0x24CC DUP2 DUP5 PUSH2 0x1D11 JUMP JUMPDEST SWAP1 POP SWAP4 SWAP3 POP POP POP JUMP JUMPDEST PUSH32 0x455243313135353A2073657474696E6720617070726F76616C20737461747573 PUSH1 0x0 DUP3 ADD MSTORE PUSH32 0x20666F722073656C660000000000000000000000000000000000000000000000 PUSH1 0x20 DUP3 ADD MSTORE POP JUMP JUMPDEST PUSH1 0x0 PUSH2 0x2531 PUSH1 0x29 DUP4 PUSH2 0x1803 JUMP JUMPDEST SWAP2 POP PUSH2 0x253C DUP3 PUSH2 0x24D5 JUMP JUMPDEST PUSH1 0x40 DUP3 ADD SWAP1 POP SWAP2 SWAP1 POP JUMP JUMPDEST PUSH1 0x0 PUSH1 0x20 DUP3 ADD SWAP1 POP DUP2 DUP2 SUB PUSH1 0x0 DUP4 ADD MSTORE PUSH2 0x2560 DUP2 PUSH2 0x2524 JUMP JUMPDEST SWAP1 POP SWAP2 SWAP1 POP JUMP JUMPDEST PUSH32 0x455243313135353A206D696E7420746F20746865207A65726F20616464726573 PUSH1 0x0 DUP3 ADD MSTORE PUSH32 0x7300000000000000000000000000000000000000000000000000000000000000 PUSH1 0x20 DUP3 ADD MSTORE POP JUMP JUMPDEST PUSH1 0x0 PUSH2 0x25C3 PUSH1 0x21 DUP4 PUSH2 0x1803 JUMP JUMPDEST SWAP2 POP PUSH2 0x25CE DUP3 PUSH2 0x2567 JUMP JUMPDEST PUSH1 0x40 DUP3 ADD SWAP1 POP SWAP2 SWAP1 POP JUMP JUMPDEST PUSH1 0x0 PUSH1 0x20 DUP3 ADD SWAP1 POP DUP2 DUP2 SUB PUSH1 0x0 DUP4 ADD MSTORE PUSH2 0x25F2 DUP2 PUSH2 0x25B6 JUMP JUMPDEST SWAP1 POP SWAP2 SWAP1 POP JUMP JUMPDEST PUSH1 0x0 PUSH1 0x40 DUP3 ADD SWAP1 POP PUSH2 0x260E PUSH1 0x0 DUP4 ADD DUP6 PUSH2 0x16E6 JUMP JUMPDEST PUSH2 0x261B PUSH1 0x20 DUP4 ADD DUP5 PUSH2 0x16E6 JUMP JUMPDEST SWAP4 SWAP3 POP POP POP JUMP JUMPDEST PUSH2 0x262B DUP2 PUSH2 0x1632 JUMP JUMPDEST DUP3 MSTORE POP POP JUMP JUMPDEST PUSH1 0x0 DUP2 MLOAD SWAP1 POP SWAP2 SWAP1 POP JUMP JUMPDEST PUSH1 0x0 DUP3 DUP3 MSTORE PUSH1 0x20 DUP3 ADD SWAP1 POP SWAP3 SWAP2 POP POP JUMP JUMPDEST PUSH1 0x0 PUSH2 0x2658 DUP3 PUSH2 0x2631 JUMP JUMPDEST PUSH2 0x2662 DUP2 DUP6 PUSH2 0x263C JUMP JUMPDEST SWAP4 POP PUSH2 0x2672 DUP2 DUP6 PUSH1 0x20 DUP7 ADD PUSH2 0x1814 JUMP JUMPDEST PUSH2 0x267B DUP2 PUSH2 0x183E JUMP JUMPDEST DUP5 ADD SWAP2 POP POP SWAP3 SWAP2 POP POP JUMP JUMPDEST PUSH1 0x0 PUSH1 0xA0 DUP3 ADD SWAP1 POP PUSH2 0x269B PUSH1 0x0 DUP4 ADD DUP9 PUSH2 0x2622 JUMP JUMPDEST PUSH2 0x26A8 PUSH1 0x20 DUP4 ADD DUP8 PUSH2 0x2622 JUMP JUMPDEST DUP2 DUP2 SUB PUSH1 0x40 DUP4 ADD MSTORE PUSH2 0x26BA DUP2 DUP7 PUSH2 0x1D11 JUMP JUMPDEST SWAP1 POP DUP2 DUP2 SUB PUSH1 0x60 DUP4 ADD MSTORE PUSH2 0x26CE DUP2 DUP6 PUSH2 0x1D11 JUMP JUMPDEST SWAP1 POP DUP2 DUP2 SUB PUSH1 0x80 DUP4 ADD MSTORE PUSH2 0x26E2 DUP2 DUP5 PUSH2 0x264D JUMP JUMPDEST SWAP1 POP SWAP7 SWAP6 POP POP POP POP POP POP JUMP JUMPDEST PUSH1 0x0 DUP2 MLOAD SWAP1 POP PUSH2 0x26FD DUP2 PUSH2 0x173C JUMP JUMPDEST SWAP3 SWAP2 POP POP JUMP JUMPDEST PUSH1 0x0 PUSH1 0x20 DUP3 DUP5 SUB SLT ISZERO PUSH2 0x2719 JUMPI PUSH2 0x2718 PUSH2 0x1608 JUMP JUMPDEST JUMPDEST PUSH1 0x0 PUSH2 0x2727 DUP5 DUP3 DUP6 ADD PUSH2 0x26EE JUMP JUMPDEST SWAP2 POP POP SWAP3 SWAP2 POP POP JUMP JUMPDEST PUSH1 0x0 DUP2 PUSH1 0xE0 SHR SWAP1 POP SWAP2 SWAP1 POP JUMP JUMPDEST PUSH1 0x0 PUSH1 0x3 RETURNDATASIZE GT ISZERO PUSH2 0x275C JUMPI PUSH1 0x4 PUSH1 0x0 DUP1 RETURNDATACOPY PUSH2 0x2759 PUSH1 0x0 MLOAD PUSH2 0x2730 JUMP JUMPDEST SWAP1 POP JUMPDEST SWAP1 JUMP JUMPDEST PUSH1 0x0 PUSH1 0x44 RETURNDATASIZE LT PUSH2 0x27EC JUMPI PUSH2 0x2771 PUSH2 0x15FE JUMP JUMPDEST PUSH1 0x4 RETURNDATASIZE SUB PUSH1 0x4 DUP3 RETURNDATACOPY DUP1 MLOAD RETURNDATASIZE PUSH1 0x24 DUP3 ADD GT PUSH8 0xFFFFFFFFFFFFFFFF DUP3 GT OR ISZERO PUSH2 0x2799 JUMPI POP POP PUSH2 0x27EC JUMP JUMPDEST DUP1 DUP3 ADD DUP1 MLOAD PUSH8 0xFFFFFFFFFFFFFFFF DUP2 GT ISZERO PUSH2 0x27B7 JUMPI POP POP POP POP PUSH2 0x27EC JUMP JUMPDEST DUP1 PUSH1 0x20 DUP4 ADD ADD PUSH1 0x4 RETURNDATASIZE SUB DUP6 ADD DUP2 GT ISZERO PUSH2 0x27D4 JUMPI POP POP POP POP POP PUSH2 0x27EC JUMP JUMPDEST PUSH2 0x27E3 DUP3 PUSH1 0x20 ADD DUP6 ADD DUP7 PUSH2 0x18DE JUMP JUMPDEST DUP3 SWAP6 POP POP POP POP POP POP JUMPDEST SWAP1 JUMP JUMPDEST PUSH32 0x455243313135353A207472616E7366657220746F206E6F6E2D45524331313535 PUSH1 0x0 DUP3 ADD MSTORE PUSH32 0x526563656976657220696D706C656D656E746572000000000000000000000000 PUSH1 0x20 DUP3 ADD MSTORE POP JUMP JUMPDEST PUSH1 0x0 PUSH2 0x284B PUSH1 0x34 DUP4 PUSH2 0x1803 JUMP JUMPDEST SWAP2 POP PUSH2 0x2856 DUP3 PUSH2 0x27EF JUMP JUMPDEST PUSH1 0x40 DUP3 ADD SWAP1 POP SWAP2 SWAP1 POP JUMP JUMPDEST PUSH1 0x0 PUSH1 0x20 DUP3 ADD SWAP1 POP DUP2 DUP2 SUB PUSH1 0x0 DUP4 ADD MSTORE PUSH2 0x287A DUP2 PUSH2 0x283E JUMP JUMPDEST SWAP1 POP SWAP2 SWAP1 POP JUMP JUMPDEST PUSH32 0x455243313135353A204552433131353552656365697665722072656A65637465 PUSH1 0x0 DUP3 ADD MSTORE PUSH32 0x6420746F6B656E73000000000000000000000000000000000000000000000000 PUSH1 0x20 DUP3 ADD MSTORE POP JUMP JUMPDEST PUSH1 0x0 PUSH2 0x28DD PUSH1 0x28 DUP4 PUSH2 0x1803 JUMP JUMPDEST SWAP2 POP PUSH2 0x28E8 DUP3 PUSH2 0x2881 JUMP JUMPDEST PUSH1 0x40 DUP3 ADD SWAP1 POP SWAP2 SWAP1 POP JUMP JUMPDEST PUSH1 0x0 PUSH1 0x20 DUP3 ADD SWAP1 POP DUP2 DUP2 SUB PUSH1 0x0 DUP4 ADD MSTORE PUSH2 0x290C DUP2 PUSH2 0x28D0 JUMP JUMPDEST SWAP1 POP SWAP2 SWAP1 POP JUMP JUMPDEST PUSH1 0x0 PUSH1 0xA0 DUP3 ADD SWAP1 POP PUSH2 0x2928 PUSH1 0x0 DUP4 ADD DUP9 PUSH2 0x2622 JUMP JUMPDEST PUSH2 0x2935 PUSH1 0x20 DUP4 ADD DUP8 PUSH2 0x2622 JUMP JUMPDEST PUSH2 0x2942 PUSH1 0x40 DUP4 ADD DUP7 PUSH2 0x16E6 JUMP JUMPDEST PUSH2 0x294F PUSH1 0x60 DUP4 ADD DUP6 PUSH2 0x16E6 JUMP JUMPDEST DUP2 DUP2 SUB PUSH1 0x80 DUP4 ADD MSTORE PUSH2 0x2961 DUP2 DUP5 PUSH2 0x264D JUMP JUMPDEST SWAP1 POP SWAP7 SWAP6 POP POP POP POP POP POP JUMP INVALID LOG2 PUSH5 0x6970667358 0x22 SLT KECCAK256 CREATE2 0x27 SDIV 0x1E 0xC8 0xDE 0xB2 PUSH16 0x86E04BDC565C17AC4467C493F4DD00AB 0xB5 SWAP2 0xB5 0xC9 LOG3 EXP SWAP16 SMOD PUSH5 0x736F6C6343 STOP ADDMOD GT STOP CALLER LOG2 PUSH5 0x6970667358 0x22 SLT KECCAK256 0xA8 0xC2 0x5C 0xA6 PUSH11 0xA3BCD495A6A3F6727C115F SWAP2 0xB8 0xAB 0x49 PUSH29 0x113F0B3168DA6742321AB464736F6C6343000811003300000000000000 "},"methodIdentifiers":{"admin()":"f851a440","campaign()":"811e539c","campaignCounter()":"fca604d7","claim()":"4e71d92d","distribute()":"e4fc6b6d","fund()":"b60d4288","funders(address)":"031b3677","fundersCount()":"13a2e117","fundersIndex(uint256)":"d18f45e1","setupCampaign(uint256,uint256,string,uint256,uint256,string)":"a27924ab","totalFundedAmount()":"1439aef2"}}}}}