{"contracts/campaignsFactory.sol":{"CampaignFactory":{"abi":[{"inputs":[{"internalType":"address","name":"_erc1155Address","type":"address"}],"stateMutability":"nonpayable","type":"constructor"},{"inputs":[],"name":"Factory_GoalMustBeBiggerThanZero","type":"error"},{"inputs":[],"name":"Factory_PeriodError","type":"error"},{"inputs":[],"name":"Factory_SharedReturnSmaller100","type":"error"},{"inputs":[],"name":"campaignCounter","outputs":[{"internalType":"uint256","name":"","type":"uint256"}],"stateMutability":"view","type":"function"},{"inputs":[{"internalType":"uint256","name":"","type":"uint256"}],"name":"campaigns","outputs":[{"internalType":"address","name":"","type":"address"}],"stateMutability":"view","type":"function"},{"inputs":[],"name":"customERC1155","outputs":[{"internalType":"contract MyERC1155","name":"","type":"address"}],"stateMutability":"view","type":"function"},{"inputs":[],"name":"getNFTAddress","outputs":[{"internalType":"address","name":"","type":"address"}],"stateMutability":"view","type":"function"},{"inputs":[{"internalType":"uint256","name":"_fundingGoal","type":"uint256"},{"internalType":"uint256","name":"_sharedReturnPercentage","type":"uint256"},{"internalType":"string","name":"_campaignName","type":"string"},{"internalType":"uint256","name":"_fundingPeriodInSeconds","type":"uint256"},{"internalType":"uint256","name":"_campaignDurationInSeconds","type":"uint256"},{"internalType":"string","name":"_nftMetadataIPFSHash","type":"string"}],"name":"setupCampaign","outputs":[],"stateMutability":"nonpayable","type":"function"}],"evm":{"bytecode":{"linkReferences":{},"object":"608060405234801561001057600080fd5b50604051612f77380380612f77833981810160405281019061003291906100dc565b80600160006101000a81548173ffffffffffffffffffffffffffffffffffffffff021916908373ffffffffffffffffffffffffffffffffffffffff16021790555050610109565b600080fd5b600073ffffffffffffffffffffffffffffffffffffffff82169050919050565b60006100a98261007e565b9050919050565b6100b98161009e565b81146100c457600080fd5b50565b6000815190506100d6816100b0565b92915050565b6000602082840312156100f2576100f1610079565b5b6000610100848285016100c7565b91505092915050565b612e5f806101186000396000f3fe60806040523480156200001157600080fd5b50600436106200005e5760003560e01c8063141961bc146200006357806363f812cd1462000099578063a27924ab14620000bb578063b961847814620000db578063fca604d714620000fd575b600080fd5b6200008160048036038101906200007b9190620004d4565b6200011f565b6040516200009091906200054b565b60405180910390f35b620000a362000152565b604051620000b29190620005d3565b60405180910390f35b620000d96004803603810190620000d3919062000752565b62000178565b005b620000e562000447565b604051620000f491906200054b565b60405180910390f35b6200010762000471565b6040516200011691906200083d565b60405180910390f35b60026020528060005260406000206000915054906101000a900473ffffffffffffffffffffffffffffffffffffffff1681565b600160009054906101000a900473ffffffffffffffffffffffffffffffffffffffff1681565b60008611620001b3576040517f24d1f8ed00000000000000000000000000000000000000000000000000000000815260040160405180910390fd5b6064851115620001ef576040517f95a88b4600000000000000000000000000000000000000000000000000000000815260040160405180910390fd5b600083118015620001ff57508282115b62000236576040517f2a02773300000000000000000000000000000000000000000000000000000000815260040160405180910390fd5b858585858560016003546200024c919062000889565b8633600160009054906101000a900473ffffffffffffffffffffffffffffffffffffffff166040516200027f9062000477565b62000293999897969594939291906200094d565b604051809103906000f080158015620002b0573d6000803e3d6000fd5b506000806101000a81548173ffffffffffffffffffffffffffffffffffffffff021916908373ffffffffffffffffffffffffffffffffffffffff160217905550600160009054906101000a900473ffffffffffffffffffffffffffffffffffffffff1673ffffffffffffffffffffffffffffffffffffffff16637048027560008054906101000a900473ffffffffffffffffffffffffffffffffffffffff166040518263ffffffff1660e01b81526004016200036d91906200054b565b600060405180830381600087803b1580156200038857600080fd5b505af11580156200039d573d6000803e3d6000fd5b5050505060008054906101000a900473ffffffffffffffffffffffffffffffffffffffff16600260006001600354620003d7919062000889565b815260200190815260200160002060006101000a81548173ffffffffffffffffffffffffffffffffffffffff021916908373ffffffffffffffffffffffffffffffffffffffff16021790555060016003600082825462000438919062000889565b92505081905550505050505050565b6000600160009054906101000a900473ffffffffffffffffffffffffffffffffffffffff16905090565b60035481565b61242f80620009fb83390190565b6000604051905090565b600080fd5b600080fd5b6000819050919050565b620004ae8162000499565b8114620004ba57600080fd5b50565b600081359050620004ce81620004a3565b92915050565b600060208284031215620004ed57620004ec6200048f565b5b6000620004fd84828501620004bd565b91505092915050565b600073ffffffffffffffffffffffffffffffffffffffff82169050919050565b6000620005338262000506565b9050919050565b620005458162000526565b82525050565b60006020820190506200056260008301846200053a565b92915050565b6000819050919050565b6000620005936200058d620005878462000506565b62000568565b62000506565b9050919050565b6000620005a78262000572565b9050919050565b6000620005bb826200059a565b9050919050565b620005cd81620005ae565b82525050565b6000602082019050620005ea6000830184620005c2565b92915050565b600080fd5b600080fd5b6000601f19601f8301169050919050565b7f4e487b7100000000000000000000000000000000000000000000000000000000600052604160045260246000fd5b6200064582620005fa565b810181811067ffffffffffffffff821117156200066757620006666200060b565b5b80604052505050565b60006200067c62000485565b90506200068a82826200063a565b919050565b600067ffffffffffffffff821115620006ad57620006ac6200060b565b5b620006b882620005fa565b9050602081019050919050565b82818337600083830152505050565b6000620006eb620006e5846200068f565b62000670565b9050828152602081018484840111156200070a5762000709620005f5565b5b62000717848285620006c5565b509392505050565b600082601f830112620007375762000736620005f0565b5b813562000749848260208601620006d4565b91505092915050565b60008060008060008060c087890312156200077257620007716200048f565b5b60006200078289828a01620004bd565b96505060206200079589828a01620004bd565b955050604087013567ffffffffffffffff811115620007b957620007b862000494565b5b620007c789828a016200071f565b9450506060620007da89828a01620004bd565b9350506080620007ed89828a01620004bd565b92505060a087013567ffffffffffffffff81111562000811576200081062000494565b5b6200081f89828a016200071f565b9150509295509295509295565b620008378162000499565b82525050565b60006020820190506200085460008301846200082c565b92915050565b7f4e487b7100000000000000000000000000000000000000000000000000000000600052601160045260246000fd5b6000620008968262000499565b9150620008a38362000499565b9250828201905080821115620008be57620008bd6200085a565b5b92915050565b600081519050919050565b600082825260208201905092915050565b60005b8381101562000900578082015181840152602081019050620008e3565b60008484015250505050565b60006200091982620008c4565b620009258185620008cf565b935062000937818560208601620008e0565b6200094281620005fa565b840191505092915050565b60006101208201905062000965600083018c6200082c565b62000974602083018b6200082c565b818103604083015262000988818a6200090c565b90506200099960608301896200082c565b620009a860808301886200082c565b620009b760a08301876200082c565b81810360c0830152620009cb81866200090c565b9050620009dc60e08301856200053a565b620009ec6101008301846200053a565b9a995050505050505050505056fe60806040523480156200001157600080fd5b506040516200242f3803806200242f833981810160405281019062000037919062000413565b81600160006101000a81548173ffffffffffffffffffffffffffffffffffffffff021916908373ffffffffffffffffffffffffffffffffffffffff1602179055506040518061014001604052808a81526020018981526020018881526020014281526020018742620000aa91906200055f565b81526020018642620000bd91906200055f565b8152602001858152602001848152602001600015158152602001600015158152506002600082015181600001556020820151816001015560408201518160020190816200010b9190620007db565b50606082015181600301556080820151816004015560a0820151816005015560c0820151816006015560e08201518160070190816200014b9190620007db565b506101008201518160080160006101000a81548160ff0219169083151502179055506101208201518160080160016101000a81548160ff021916908315150217905550905050806000806101000a81548173ffffffffffffffffffffffffffffffffffffffff021916908373ffffffffffffffffffffffffffffffffffffffff160217905550505050505050505050620008c2565b6000604051905090565b600080fd5b600080fd5b6000819050919050565b6200020981620001f4565b81146200021557600080fd5b50565b6000815190506200022981620001fe565b92915050565b600080fd5b600080fd5b6000601f19601f8301169050919050565b7f4e487b7100000000000000000000000000000000000000000000000000000000600052604160045260246000fd5b620002848262000239565b810181811067ffffffffffffffff82111715620002a657620002a56200024a565b5b80604052505050565b6000620002bb620001e0565b9050620002c9828262000279565b919050565b600067ffffffffffffffff821115620002ec57620002eb6200024a565b5b620002f78262000239565b9050602081019050919050565b60005b838110156200032457808201518184015260208101905062000307565b60008484015250505050565b6000620003476200034184620002ce565b620002af565b90508281526020810184848401111562000366576200036562000234565b5b6200037384828562000304565b509392505050565b600082601f8301126200039357620003926200022f565b5b8151620003a584826020860162000330565b91505092915050565b600073ffffffffffffffffffffffffffffffffffffffff82169050919050565b6000620003db82620003ae565b9050919050565b620003ed81620003ce565b8114620003f957600080fd5b50565b6000815190506200040d81620003e2565b92915050565b60008060008060008060008060006101208a8c031215620004395762000438620001ea565b5b6000620004498c828d0162000218565b99505060206200045c8c828d0162000218565b98505060408a015167ffffffffffffffff81111562000480576200047f620001ef565b5b6200048e8c828d016200037b565b9750506060620004a18c828d0162000218565b9650506080620004b48c828d0162000218565b95505060a0620004c78c828d0162000218565b94505060c08a015167ffffffffffffffff811115620004eb57620004ea620001ef565b5b620004f98c828d016200037b565b93505060e06200050c8c828d01620003fc565b925050610100620005208c828d01620003fc565b9150509295985092959850929598565b7f4e487b7100000000000000000000000000000000000000000000000000000000600052601160045260246000fd5b60006200056c82620001f4565b91506200057983620001f4565b925082820190508082111562000594576200059362000530565b5b92915050565b600081519050919050565b7f4e487b7100000000000000000000000000000000000000000000000000000000600052602260045260246000fd5b60006002820490506001821680620005ed57607f821691505b602082108103620006035762000602620005a5565b5b50919050565b60008190508160005260206000209050919050565b60006020601f8301049050919050565b600082821b905092915050565b6000600883026200066d7fffffffffffffffffffffffffffffffffffffffffffffffffffffffffffffffff826200062e565b6200067986836200062e565b95508019841693508086168417925050509392505050565b6000819050919050565b6000620006bc620006b6620006b084620001f4565b62000691565b620001f4565b9050919050565b6000819050919050565b620006d8836200069b565b620006f0620006e782620006c3565b8484546200063b565b825550505050565b600090565b62000707620006f8565b62000714818484620006cd565b505050565b5b818110156200073c5762000730600082620006fd565b6001810190506200071a565b5050565b601f8211156200078b57620007558162000609565b62000760846200061e565b8101602085101562000770578190505b620007886200077f856200061e565b83018262000719565b50505b505050565b600082821c905092915050565b6000620007b06000198460080262000790565b1980831691505092915050565b6000620007cb83836200079d565b9150826002028217905092915050565b620007e6826200059a565b67ffffffffffffffff8111156200080257620008016200024a565b5b6200080e8254620005d4565b6200081b82828562000740565b600060209050601f8311600181146200085357600084156200083e578287015190505b6200084a8582620007bd565b865550620008ba565b601f198416620008638662000609565b60005b828110156200088d5784890151825560018201915060208501945060208101905062000866565b86831015620008ad5784890151620008a9601f8916826200079d565b8355505b6001600288020188555050505b505050505050565b611b5d80620008d26000396000f3fe6080604052600436106100955760003560e01c80639f8743f7116100595780639f8743f714610180578063b60d4288146101ab578063d18f45e1146101b5578063e4fc6b6d146101f2578063f851a440146102095761009c565b8063031b3677146100a157806313a2e117146100df5780631439aef21461010a5780634e71d92d14610135578063811e539c1461014c5761009c565b3661009c57005b600080fd5b3480156100ad57600080fd5b506100c860048036038101906100c391906110da565b610234565b6040516100d6929190611120565b60405180910390f35b3480156100eb57600080fd5b506100f4610258565b6040516101019190611149565b60405180910390f35b34801561011657600080fd5b5061011f61025e565b60405161012c9190611149565b60405180910390f35b34801561014157600080fd5b5061014a610264565b005b34801561015857600080fd5b50610161610417565b6040516101779a9998979695949392919061120f565b60405180910390f35b34801561018c57600080fd5b50610195610583565b6040516101a291906112b9565b60405180910390f35b6101b361069e565b005b3480156101c157600080fd5b506101dc60048036038101906101d79190611307565b6109e3565b6040516101e99190611343565b60405180910390f35b3480156101fe57600080fd5b50610207610a22565b005b34801561021557600080fd5b5061021e610ef4565b60405161022b9190611343565b60405180910390f35b600b6020528060005260406000206000915090508060000154908060010154905082565b600d5481565b600e5481565b600160009054906101000a900473ffffffffffffffffffffffffffffffffffffffff1673ffffffffffffffffffffffffffffffffffffffff163373ffffffffffffffffffffffffffffffffffffffff16146102f4576040517f08c379a00000000000000000000000000000000000000000000000000000000081526004016102eb906113d0565b60405180910390fd5b6000479050600260080160009054906101000a900460ff16801561031c575060026004015442115b80156103285750600081115b610367576040517f08c379a000000000000000000000000000000000000000000000000000000000815260040161035e9061143c565b60405180910390fd5b60003373ffffffffffffffffffffffffffffffffffffffff168260405161038d9061148d565b60006040518083038185875af1925050503d80600081146103ca576040519150601f19603f3d011682016040523d82523d6000602084013e6103cf565b606091505b5050905080610413576040517f08c379a000000000000000000000000000000000000000000000000000000000815260040161040a906114ee565b60405180910390fd5b5050565b60028060000154908060010154908060020180546104349061153d565b80601f01602080910402602001604051908101604052809291908181526020018280546104609061153d565b80156104ad5780601f10610482576101008083540402835291602001916104ad565b820191906000526020600020905b81548152906001019060200180831161049057829003601f168201915b5050505050908060030154908060040154908060050154908060060154908060070180546104da9061153d565b80601f01602080910402602001604051908101604052809291908181526020018280546105069061153d565b80156105535780601f1061052857610100808354040283529160200191610553565b820191906000526020600020905b81548152906001019060200180831161053657829003601f168201915b5050505050908060080160009054906101000a900460ff16908060080160019054906101000a900460ff1690508a565b60606002600401544210156105cf576040518060400160405280600781526020017f66756e64696e6700000000000000000000000000000000000000000000000000815250905061069b565b600260050154421015610619576040518060400160405280600881526020017f636c61696d696e67000000000000000000000000000000000000000000000000815250905061069b565b6002600501544210610662576040518060400160405280600c81526020017f646973747269627574696f6e0000000000000000000000000000000000000000815250905061069b565b6040518060400160405280600881526020017f7374617274696e6700000000000000000000000000000000000000000000000081525090505b90565b600034116106e1576040517f08c379a00000000000000000000000000000000000000000000000000000000081526004016106d8906115e0565b60405180910390fd5b60026003015442101580156106fb57506002600401544211155b61073a576040517f08c379a00000000000000000000000000000000000000000000000000000000081526004016107319061164c565b60405180910390fd5b600260080160009054906101000a900460ff161561078d576040517f08c379a0000000000000000000000000000000000000000000000000000000008152600401610784906116de565b60405180910390fd5b61079633610f1a565b6000600b60003373ffffffffffffffffffffffffffffffffffffffff1673ffffffffffffffffffffffffffffffffffffffff168152602001908152602001600020600001549050600034826107eb919061172d565b905034600e60008282546107ff919061172d565b92505081905550600260000154600e541115610902576000600260000154600e5461082a9190611761565b905080826108389190611761565b915080600e600082825461084c9190611761565b9250508190555060003373ffffffffffffffffffffffffffffffffffffffff16826040516108799061148d565b60006040518083038185875af1925050503d80600081146108b6576040519150601f19603f3d011682016040523d82523d6000602084013e6108bb565b606091505b50509050806108ff576040517f08c379a00000000000000000000000000000000000000000000000000000000081526004016108f6906117e1565b60405180910390fd5b50505b60006002600001546064836109179190611801565b6109219190611872565b905081600b60003373ffffffffffffffffffffffffffffffffffffffff1673ffffffffffffffffffffffffffffffffffffffff1681526020019081526020016000206000018190555080600b60003373ffffffffffffffffffffffffffffffffffffffff1673ffffffffffffffffffffffffffffffffffffffff16815260200190815260200160002060010181905550600260000154600e54106109de576001600260080160006101000a81548160ff0219169083151502179055505b505050565b600c81815481106109f357600080fd5b906000526020600020016000915054906101000a900473ffffffffffffffffffffffffffffffffffffffff1681565b600260080160009054906101000a900460ff16158015610a46575060026004015442115b80610a55575060026005015442115b610a94576040517f08c379a0000000000000000000000000000000000000000000000000000000008152600401610a8b90611915565b60405180910390fd5b6000479050600260080160009054906101000a900460ff16610c235760005b600d54811015610c1d576000600c8281548110610ad357610ad2611935565b5b9060005260206000200160009054906101000a900473ffffffffffffffffffffffffffffffffffffffff1690506000600b60008373ffffffffffffffffffffffffffffffffffffffff1673ffffffffffffffffffffffffffffffffffffffff168152602001908152602001600020905060008273ffffffffffffffffffffffffffffffffffffffff168260000154604051610b6d9061148d565b60006040518083038185875af1925050503d8060008114610baa576040519150601f19603f3d011682016040523d82523d6000602084013e610baf565b606091505b5050905080610bf3576040517f08c379a0000000000000000000000000000000000000000000000000000000008152600401610bea906119b0565b60405180910390fd5b60008260000181905550600082600101819055505050508080610c15906119d0565b915050610ab3565b50610ef1565b600060026001015414610e035760005b600d54811015610e01576000600c8281548110610c5357610c52611935565b5b9060005260206000200160009054906101000a900473ffffffffffffffffffffffffffffffffffffffff1690506000600b60008373ffffffffffffffffffffffffffffffffffffffff1673ffffffffffffffffffffffffffffffffffffffff16815260200190815260200160002090506000612710826001015460026001015487610cde9190611801565b610ce89190611801565b610cf29190611872565b90506000811115610dab5760008373ffffffffffffffffffffffffffffffffffffffff1682604051610d239061148d565b60006040518083038185875af1925050503d8060008114610d60576040519150601f19603f3d011682016040523d82523d6000602084013e610d65565b606091505b5050905080610da9576040517f08c379a0000000000000000000000000000000000000000000000000000000008152600401610da090611a64565b60405180910390fd5b505b600260080160019054906101000a900460ff16610dd757610dd6836002600601548460000154610fe3565b5b60008260010181905550600082600001819055505050508080610df9906119d0565b915050610c33565b505b6001600260080160016101000a81548160ff0219169083151502179055506000600160009054906101000a900473ffffffffffffffffffffffffffffffffffffffff1673ffffffffffffffffffffffffffffffffffffffff1647604051610e699061148d565b60006040518083038185875af1925050503d8060008114610ea6576040519150601f19603f3d011682016040523d82523d6000602084013e610eab565b606091505b5050905080610eef576040517f08c379a0000000000000000000000000000000000000000000000000000000008152600401610ee690611ad0565b60405180910390fd5b505b50565b600160009054906101000a900473ffffffffffffffffffffffffffffffffffffffff1681565b6000600b60008373ffffffffffffffffffffffffffffffffffffffff1673ffffffffffffffffffffffffffffffffffffffff1681526020019081526020016000206000015403610fe057600c819080600181540180825580915050600190039060005260206000200160009091909190916101000a81548173ffffffffffffffffffffffffffffffffffffffff021916908373ffffffffffffffffffffffffffffffffffffffff160217905550600d6000815480929190610fda906119d0565b91905055505b50565b60008054906101000a900473ffffffffffffffffffffffffffffffffffffffff1673ffffffffffffffffffffffffffffffffffffffff1663156e29f68484846040518463ffffffff1660e01b815260040161104093929190611af0565b600060405180830381600087803b15801561105a57600080fd5b505af115801561106e573d6000803e3d6000fd5b50505050505050565b600080fd5b600073ffffffffffffffffffffffffffffffffffffffff82169050919050565b60006110a78261107c565b9050919050565b6110b78161109c565b81146110c257600080fd5b50565b6000813590506110d4816110ae565b92915050565b6000602082840312156110f0576110ef611077565b5b60006110fe848285016110c5565b91505092915050565b6000819050919050565b61111a81611107565b82525050565b60006040820190506111356000830185611111565b6111426020830184611111565b9392505050565b600060208201905061115e6000830184611111565b92915050565b600081519050919050565b600082825260208201905092915050565b60005b8381101561119e578082015181840152602081019050611183565b60008484015250505050565b6000601f19601f8301169050919050565b60006111c682611164565b6111d0818561116f565b93506111e0818560208601611180565b6111e9816111aa565b840191505092915050565b60008115159050919050565b611209816111f4565b82525050565b600061014082019050611225600083018d611111565b611232602083018c611111565b8181036040830152611244818b6111bb565b9050611253606083018a611111565b6112606080830189611111565b61126d60a0830188611111565b61127a60c0830187611111565b81810360e083015261128c81866111bb565b905061129c610100830185611200565b6112aa610120830184611200565b9b9a5050505050505050505050565b600060208201905081810360008301526112d381846111bb565b905092915050565b6112e481611107565b81146112ef57600080fd5b50565b600081359050611301816112db565b92915050565b60006020828403121561131d5761131c611077565b5b600061132b848285016112f2565b91505092915050565b61133d8161109c565b82525050565b60006020820190506113586000830184611334565b92915050565b7f4f6e6c79207468652061646d696e2063616e20706572666f726d20746869732060008201527f616374696f6e2e00000000000000000000000000000000000000000000000000602082015250565b60006113ba60278361116f565b91506113c58261135e565b604082019050919050565b600060208201905081810360008301526113e9816113ad565b9050919050565b7f46756e64696e6720676f616c206e6f742072656163686564207965742e000000600082015250565b6000611426601d8361116f565b9150611431826113f0565b602082019050919050565b6000602082019050818103600083015261145581611419565b9050919050565b600081905092915050565b50565b600061147760008361145c565b915061148282611467565b600082019050919050565b60006114988261146a565b9150819050919050565b7f4661696c656420746f2073656e642062616c616e63652e000000000000000000600082015250565b60006114d860178361116f565b91506114e3826114a2565b602082019050919050565b60006020820190508181036000830152611507816114cb565b9050919050565b7f4e487b7100000000000000000000000000000000000000000000000000000000600052602260045260246000fd5b6000600282049050600182168061155557607f821691505b6020821081036115685761156761150e565b5b50919050565b7f46756e64696e6720616d6f756e74206d7573742062652067726561746572207460008201527f68616e207a65726f2e0000000000000000000000000000000000000000000000602082015250565b60006115ca60298361116f565b91506115d58261156e565b604082019050919050565b600060208201905081810360008301526115f9816115bd565b9050919050565b7f46756e64696e6720706572696f642068617320656e6465642e00000000000000600082015250565b600061163660198361116f565b915061164182611600565b602082019050919050565b6000602082019050818103600083015261166581611629565b9050919050565b7f43616d706169676e20646973747269627574696f6e206973206c6f636b65642e60008201527f2043616e6e6f7420616363657074206e65772066756e64732e00000000000000602082015250565b60006116c860398361116f565b91506116d38261166c565b604082019050919050565b600060208201905081810360008301526116f7816116bb565b9050919050565b7f4e487b7100000000000000000000000000000000000000000000000000000000600052601160045260246000fd5b600061173882611107565b915061174383611107565b925082820190508082111561175b5761175a6116fe565b5b92915050565b600061176c82611107565b915061177783611107565b925082820390508181111561178f5761178e6116fe565b5b92915050565b7f4661696c656420746f2073656e6420657863656564696e6720616d6f756e742e600082015250565b60006117cb60208361116f565b91506117d682611795565b602082019050919050565b600060208201905081810360008301526117fa816117be565b9050919050565b600061180c82611107565b915061181783611107565b925082820261182581611107565b9150828204841483151761183c5761183b6116fe565b5b5092915050565b7f4e487b7100000000000000000000000000000000000000000000000000000000600052601260045260246000fd5b600061187d82611107565b915061188883611107565b92508261189857611897611843565b5b828204905092915050565b7f446973747269627574696f6e206973206e6f742079657420617661696c61626c60008201527f652e000000000000000000000000000000000000000000000000000000000000602082015250565b60006118ff60228361116f565b915061190a826118a3565b604082019050919050565b6000602082019050818103600083015261192e816118f2565b9050919050565b7f4e487b7100000000000000000000000000000000000000000000000000000000600052603260045260246000fd5b7f4661696c656420746f2073656e6420646f6e6174656420616d6f756e742e0000600082015250565b600061199a601e8361116f565b91506119a582611964565b602082019050919050565b600060208201905081810360008301526119c98161198d565b9050919050565b60006119db82611107565b91507fffffffffffffffffffffffffffffffffffffffffffffffffffffffffffffffff8203611a0d57611a0c6116fe565b5b600182019050919050565b7f4661696c656420746f2073656e642066756e6465722073686172652e00000000600082015250565b6000611a4e601c8361116f565b9150611a5982611a18565b602082019050919050565b60006020820190508181036000830152611a7d81611a41565b9050919050565b7f4661696c656420746f2073656e642061646d696e2073686172652e0000000000600082015250565b6000611aba601b8361116f565b9150611ac582611a84565b602082019050919050565b60006020820190508181036000830152611ae981611aad565b9050919050565b6000606082019050611b056000830186611334565b611b126020830185611111565b611b1f6040830184611111565b94935050505056fea2646970667358221220083b1a6252902c19de32473b41f73ab492789385e5d03c3c2b706a79f92c495c64736f6c63430008110033a264697066735822122040e174c451fb185cbc432bcb32b2ca4ba454f0d8433152aa4124b12db16fc7a164736f6c63430008110033","opcodes":"PUSH1 0x80 PUSH1 0x40 MSTORE CALLVALUE DUP1 ISZERO PUSH2 0x10 JUMPI PUSH1 0x0 DUP1 REVERT JUMPDEST POP PUSH1 0x40 MLOAD PUSH2 0x2F77 CODESIZE SUB DUP1 PUSH2 0x2F77 DUP4 CODECOPY DUP2 DUP2 ADD PUSH1 0x40 MSTORE DUP2 ADD SWAP1 PUSH2 0x32 SWAP2 SWAP1 PUSH2 0xDC JUMP JUMPDEST DUP1 PUSH1 0x1 PUSH1 0x0 PUSH2 0x100 EXP DUP2 SLOAD DUP2 PUSH20 0xFFFFFFFFFFFFFFFFFFFFFFFFFFFFFFFFFFFFFFFF MUL NOT AND SWAP1 DUP4 PUSH20 0xFFFFFFFFFFFFFFFFFFFFFFFFFFFFFFFFFFFFFFFF AND MUL OR SWAP1 SSTORE POP POP PUSH2 0x109 JUMP JUMPDEST PUSH1 0x0 DUP1 REVERT JUMPDEST PUSH1 0x0 PUSH20 0xFFFFFFFFFFFFFFFFFFFFFFFFFFFFFFFFFFFFFFFF DUP3 AND SWAP1 POP SWAP2 SWAP1 POP JUMP JUMPDEST PUSH1 0x0 PUSH2 0xA9 DUP3 PUSH2 0x7E JUMP JUMPDEST SWAP1 POP SWAP2 SWAP1 POP JUMP JUMPDEST PUSH2 0xB9 DUP2 PUSH2 0x9E JUMP JUMPDEST DUP2 EQ PUSH2 0xC4 JUMPI PUSH1 0x0 DUP1 REVERT JUMPDEST POP JUMP JUMPDEST PUSH1 0x0 DUP2 MLOAD SWAP1 POP PUSH2 0xD6 DUP2 PUSH2 0xB0 JUMP JUMPDEST SWAP3 SWAP2 POP POP JUMP JUMPDEST PUSH1 0x0 PUSH1 0x20 DUP3 DUP5 SUB SLT ISZERO PUSH2 0xF2 JUMPI PUSH2 0xF1 PUSH2 0x79 JUMP JUMPDEST JUMPDEST PUSH1 0x0 PUSH2 0x100 DUP5 DUP3 DUP6 ADD PUSH2 0xC7 JUMP JUMPDEST SWAP2 POP POP SWAP3 SWAP2 POP POP JUMP JUMPDEST PUSH2 0x2E5F DUP1 PUSH2 0x118 PUSH1 0x0 CODECOPY PUSH1 0x0 RETURN INVALID PUSH1 0x80 PUSH1 0x40 MSTORE CALLVALUE DUP1 ISZERO PUSH3 0x11 JUMPI PUSH1 0x0 DUP1 REVERT JUMPDEST POP PUSH1 0x4 CALLDATASIZE LT PUSH3 0x5E JUMPI PUSH1 0x0 CALLDATALOAD PUSH1 0xE0 SHR DUP1 PUSH4 0x141961BC EQ PUSH3 0x63 JUMPI DUP1 PUSH4 0x63F812CD EQ PUSH3 0x99 JUMPI DUP1 PUSH4 0xA27924AB EQ PUSH3 0xBB JUMPI DUP1 PUSH4 0xB9618478 EQ PUSH3 0xDB JUMPI DUP1 PUSH4 0xFCA604D7 EQ PUSH3 0xFD JUMPI JUMPDEST PUSH1 0x0 DUP1 REVERT JUMPDEST PUSH3 0x81 PUSH1 0x4 DUP1 CALLDATASIZE SUB DUP2 ADD SWAP1 PUSH3 0x7B SWAP2 SWAP1 PUSH3 0x4D4 JUMP JUMPDEST PUSH3 0x11F JUMP JUMPDEST PUSH1 0x40 MLOAD PUSH3 0x90 SWAP2 SWAP1 PUSH3 0x54B JUMP JUMPDEST PUSH1 0x40 MLOAD DUP1 SWAP2 SUB SWAP1 RETURN JUMPDEST PUSH3 0xA3 PUSH3 0x152 JUMP JUMPDEST PUSH1 0x40 MLOAD PUSH3 0xB2 SWAP2 SWAP1 PUSH3 0x5D3 JUMP JUMPDEST PUSH1 0x40 MLOAD DUP1 SWAP2 SUB SWAP1 RETURN JUMPDEST PUSH3 0xD9 PUSH1 0x4 DUP1 CALLDATASIZE SUB DUP2 ADD SWAP1 PUSH3 0xD3 SWAP2 SWAP1 PUSH3 0x752 JUMP JUMPDEST PUSH3 0x178 JUMP JUMPDEST STOP JUMPDEST PUSH3 0xE5 PUSH3 0x447 JUMP JUMPDEST PUSH1 0x40 MLOAD PUSH3 0xF4 SWAP2 SWAP1 PUSH3 0x54B JUMP JUMPDEST PUSH1 0x40 MLOAD DUP1 SWAP2 SUB SWAP1 RETURN JUMPDEST PUSH3 0x107 PUSH3 0x471 JUMP JUMPDEST PUSH1 0x40 MLOAD PUSH3 0x116 SWAP2 SWAP1 PUSH3 0x83D JUMP JUMPDEST PUSH1 0x40 MLOAD DUP1 SWAP2 SUB SWAP1 RETURN JUMPDEST PUSH1 0x2 PUSH1 0x20 MSTORE DUP1 PUSH1 0x0 MSTORE PUSH1 0x40 PUSH1 0x0 KECCAK256 PUSH1 0x0 SWAP2 POP SLOAD SWAP1 PUSH2 0x100 EXP SWAP1 DIV PUSH20 0xFFFFFFFFFFFFFFFFFFFFFFFFFFFFFFFFFFFFFFFF AND DUP2 JUMP JUMPDEST PUSH1 0x1 PUSH1 0x0 SWAP1 SLOAD SWAP1 PUSH2 0x100 EXP SWAP1 DIV PUSH20 0xFFFFFFFFFFFFFFFFFFFFFFFFFFFFFFFFFFFFFFFF AND DUP2 JUMP JUMPDEST PUSH1 0x0 DUP7 GT PUSH3 0x1B3 JUMPI PUSH1 0x40 MLOAD PUSH32 0x24D1F8ED00000000000000000000000000000000000000000000000000000000 DUP2 MSTORE PUSH1 0x4 ADD PUSH1 0x40 MLOAD DUP1 SWAP2 SUB SWAP1 REVERT JUMPDEST PUSH1 0x64 DUP6 GT ISZERO PUSH3 0x1EF JUMPI PUSH1 0x40 MLOAD PUSH32 0x95A88B4600000000000000000000000000000000000000000000000000000000 DUP2 MSTORE PUSH1 0x4 ADD PUSH1 0x40 MLOAD DUP1 SWAP2 SUB SWAP1 REVERT JUMPDEST PUSH1 0x0 DUP4 GT DUP1 ISZERO PUSH3 0x1FF JUMPI POP DUP3 DUP3 GT JUMPDEST PUSH3 0x236 JUMPI PUSH1 0x40 MLOAD PUSH32 0x2A02773300000000000000000000000000000000000000000000000000000000 DUP2 MSTORE PUSH1 0x4 ADD PUSH1 0x40 MLOAD DUP1 SWAP2 SUB SWAP1 REVERT JUMPDEST DUP6 DUP6 DUP6 DUP6 DUP6 PUSH1 0x1 PUSH1 0x3 SLOAD PUSH3 0x24C SWAP2 SWAP1 PUSH3 0x889 JUMP JUMPDEST DUP7 CALLER PUSH1 0x1 PUSH1 0x0 SWAP1 SLOAD SWAP1 PUSH2 0x100 EXP SWAP1 DIV PUSH20 0xFFFFFFFFFFFFFFFFFFFFFFFFFFFFFFFFFFFFFFFF AND PUSH1 0x40 MLOAD PUSH3 0x27F SWAP1 PUSH3 0x477 JUMP JUMPDEST PUSH3 0x293 SWAP10 SWAP9 SWAP8 SWAP7 SWAP6 SWAP5 SWAP4 SWAP3 SWAP2 SWAP1 PUSH3 0x94D JUMP JUMPDEST PUSH1 0x40 MLOAD DUP1 SWAP2 SUB SWAP1 PUSH1 0x0 CREATE DUP1 ISZERO DUP1 ISZERO PUSH3 0x2B0 JUMPI RETURNDATASIZE PUSH1 0x0 DUP1 RETURNDATACOPY RETURNDATASIZE PUSH1 0x0 REVERT JUMPDEST POP PUSH1 0x0 DUP1 PUSH2 0x100 EXP DUP2 SLOAD DUP2 PUSH20 0xFFFFFFFFFFFFFFFFFFFFFFFFFFFFFFFFFFFFFFFF MUL NOT AND SWAP1 DUP4 PUSH20 0xFFFFFFFFFFFFFFFFFFFFFFFFFFFFFFFFFFFFFFFF AND MUL OR SWAP1 SSTORE POP PUSH1 0x1 PUSH1 0x0 SWAP1 SLOAD SWAP1 PUSH2 0x100 EXP SWAP1 DIV PUSH20 0xFFFFFFFFFFFFFFFFFFFFFFFFFFFFFFFFFFFFFFFF AND PUSH20 0xFFFFFFFFFFFFFFFFFFFFFFFFFFFFFFFFFFFFFFFF AND PUSH4 0x70480275 PUSH1 0x0 DUP1 SLOAD SWAP1 PUSH2 0x100 EXP SWAP1 DIV PUSH20 0xFFFFFFFFFFFFFFFFFFFFFFFFFFFFFFFFFFFFFFFF AND PUSH1 0x40 MLOAD DUP3 PUSH4 0xFFFFFFFF AND PUSH1 0xE0 SHL DUP2 MSTORE PUSH1 0x4 ADD PUSH3 0x36D SWAP2 SWAP1 PUSH3 0x54B JUMP JUMPDEST PUSH1 0x0 PUSH1 0x40 MLOAD DUP1 DUP4 SUB DUP2 PUSH1 0x0 DUP8 DUP1 EXTCODESIZE ISZERO DUP1 ISZERO PUSH3 0x388 JUMPI PUSH1 0x0 DUP1 REVERT JUMPDEST POP GAS CALL ISZERO DUP1 ISZERO PUSH3 0x39D JUMPI RETURNDATASIZE PUSH1 0x0 DUP1 RETURNDATACOPY RETURNDATASIZE PUSH1 0x0 REVERT JUMPDEST POP POP POP POP PUSH1 0x0 DUP1 SLOAD SWAP1 PUSH2 0x100 EXP SWAP1 DIV PUSH20 0xFFFFFFFFFFFFFFFFFFFFFFFFFFFFFFFFFFFFFFFF AND PUSH1 0x2 PUSH1 0x0 PUSH1 0x1 PUSH1 0x3 SLOAD PUSH3 0x3D7 SWAP2 SWAP1 PUSH3 0x889 JUMP JUMPDEST DUP2 MSTORE PUSH1 0x20 ADD SWAP1 DUP2 MSTORE PUSH1 0x20 ADD PUSH1 0x0 KECCAK256 PUSH1 0x0 PUSH2 0x100 EXP DUP2 SLOAD DUP2 PUSH20 0xFFFFFFFFFFFFFFFFFFFFFFFFFFFFFFFFFFFFFFFF MUL NOT AND SWAP1 DUP4 PUSH20 0xFFFFFFFFFFFFFFFFFFFFFFFFFFFFFFFFFFFFFFFF AND MUL OR SWAP1 SSTORE POP PUSH1 0x1 PUSH1 0x3 PUSH1 0x0 DUP3 DUP3 SLOAD PUSH3 0x438 SWAP2 SWAP1 PUSH3 0x889 JUMP JUMPDEST SWAP3 POP POP DUP2 SWAP1 SSTORE POP POP POP POP POP POP POP JUMP JUMPDEST PUSH1 0x0 PUSH1 0x1 PUSH1 0x0 SWAP1 SLOAD SWAP1 PUSH2 0x100 EXP SWAP1 DIV PUSH20 0xFFFFFFFFFFFFFFFFFFFFFFFFFFFFFFFFFFFFFFFF AND SWAP1 POP SWAP1 JUMP JUMPDEST PUSH1 0x3 SLOAD DUP2 JUMP JUMPDEST PUSH2 0x242F DUP1 PUSH3 0x9FB DUP4 CODECOPY ADD SWAP1 JUMP JUMPDEST PUSH1 0x0 PUSH1 0x40 MLOAD SWAP1 POP SWAP1 JUMP JUMPDEST PUSH1 0x0 DUP1 REVERT JUMPDEST PUSH1 0x0 DUP1 REVERT JUMPDEST PUSH1 0x0 DUP2 SWAP1 POP SWAP2 SWAP1 POP JUMP JUMPDEST PUSH3 0x4AE DUP2 PUSH3 0x499 JUMP JUMPDEST DUP2 EQ PUSH3 0x4BA JUMPI PUSH1 0x0 DUP1 REVERT JUMPDEST POP JUMP JUMPDEST PUSH1 0x0 DUP2 CALLDATALOAD SWAP1 POP PUSH3 0x4CE DUP2 PUSH3 0x4A3 JUMP JUMPDEST SWAP3 SWAP2 POP POP JUMP JUMPDEST PUSH1 0x0 PUSH1 0x20 DUP3 DUP5 SUB SLT ISZERO PUSH3 0x4ED JUMPI PUSH3 0x4EC PUSH3 0x48F JUMP JUMPDEST JUMPDEST PUSH1 0x0 PUSH3 0x4FD DUP5 DUP3 DUP6 ADD PUSH3 0x4BD JUMP JUMPDEST SWAP2 POP POP SWAP3 SWAP2 POP POP JUMP JUMPDEST PUSH1 0x0 PUSH20 0xFFFFFFFFFFFFFFFFFFFFFFFFFFFFFFFFFFFFFFFF DUP3 AND SWAP1 POP SWAP2 SWAP1 POP JUMP JUMPDEST PUSH1 0x0 PUSH3 0x533 DUP3 PUSH3 0x506 JUMP JUMPDEST SWAP1 POP SWAP2 SWAP1 POP JUMP JUMPDEST PUSH3 0x545 DUP2 PUSH3 0x526 JUMP JUMPDEST DUP3 MSTORE POP POP JUMP JUMPDEST PUSH1 0x0 PUSH1 0x20 DUP3 ADD SWAP1 POP PUSH3 0x562 PUSH1 0x0 DUP4 ADD DUP5 PUSH3 0x53A JUMP JUMPDEST SWAP3 SWAP2 POP POP JUMP JUMPDEST PUSH1 0x0 DUP2 SWAP1 POP SWAP2 SWAP1 POP JUMP JUMPDEST PUSH1 0x0 PUSH3 0x593 PUSH3 0x58D PUSH3 0x587 DUP5 PUSH3 0x506 JUMP JUMPDEST PUSH3 0x568 JUMP JUMPDEST PUSH3 0x506 JUMP JUMPDEST SWAP1 POP SWAP2 SWAP1 POP JUMP JUMPDEST PUSH1 0x0 PUSH3 0x5A7 DUP3 PUSH3 0x572 JUMP JUMPDEST SWAP1 POP SWAP2 SWAP1 POP JUMP JUMPDEST PUSH1 0x0 PUSH3 0x5BB DUP3 PUSH3 0x59A JUMP JUMPDEST SWAP1 POP SWAP2 SWAP1 POP JUMP JUMPDEST PUSH3 0x5CD DUP2 PUSH3 0x5AE JUMP JUMPDEST DUP3 MSTORE POP POP JUMP JUMPDEST PUSH1 0x0 PUSH1 0x20 DUP3 ADD SWAP1 POP PUSH3 0x5EA PUSH1 0x0 DUP4 ADD DUP5 PUSH3 0x5C2 JUMP JUMPDEST SWAP3 SWAP2 POP POP JUMP JUMPDEST PUSH1 0x0 DUP1 REVERT JUMPDEST PUSH1 0x0 DUP1 REVERT JUMPDEST PUSH1 0x0 PUSH1 0x1F NOT PUSH1 0x1F DUP4 ADD AND SWAP1 POP SWAP2 SWAP1 POP JUMP JUMPDEST PUSH32 0x4E487B7100000000000000000000000000000000000000000000000000000000 PUSH1 0x0 MSTORE PUSH1 0x41 PUSH1 0x4 MSTORE PUSH1 0x24 PUSH1 0x0 REVERT JUMPDEST PUSH3 0x645 DUP3 PUSH3 0x5FA JUMP JUMPDEST DUP2 ADD DUP2 DUP2 LT PUSH8 0xFFFFFFFFFFFFFFFF DUP3 GT OR ISZERO PUSH3 0x667 JUMPI PUSH3 0x666 PUSH3 0x60B JUMP JUMPDEST JUMPDEST DUP1 PUSH1 0x40 MSTORE POP POP POP JUMP JUMPDEST PUSH1 0x0 PUSH3 0x67C PUSH3 0x485 JUMP JUMPDEST SWAP1 POP PUSH3 0x68A DUP3 DUP3 PUSH3 0x63A JUMP JUMPDEST SWAP2 SWAP1 POP JUMP JUMPDEST PUSH1 0x0 PUSH8 0xFFFFFFFFFFFFFFFF DUP3 GT ISZERO PUSH3 0x6AD JUMPI PUSH3 0x6AC PUSH3 0x60B JUMP JUMPDEST JUMPDEST PUSH3 0x6B8 DUP3 PUSH3 0x5FA JUMP JUMPDEST SWAP1 POP PUSH1 0x20 DUP2 ADD SWAP1 POP SWAP2 SWAP1 POP JUMP JUMPDEST DUP3 DUP2 DUP4 CALLDATACOPY PUSH1 0x0 DUP4 DUP4 ADD MSTORE POP POP POP JUMP JUMPDEST PUSH1 0x0 PUSH3 0x6EB PUSH3 0x6E5 DUP5 PUSH3 0x68F JUMP JUMPDEST PUSH3 0x670 JUMP JUMPDEST SWAP1 POP DUP3 DUP2 MSTORE PUSH1 0x20 DUP2 ADD DUP5 DUP5 DUP5 ADD GT ISZERO PUSH3 0x70A JUMPI PUSH3 0x709 PUSH3 0x5F5 JUMP JUMPDEST JUMPDEST PUSH3 0x717 DUP5 DUP3 DUP6 PUSH3 0x6C5 JUMP JUMPDEST POP SWAP4 SWAP3 POP POP POP JUMP JUMPDEST PUSH1 0x0 DUP3 PUSH1 0x1F DUP4 ADD SLT PUSH3 0x737 JUMPI PUSH3 0x736 PUSH3 0x5F0 JUMP JUMPDEST JUMPDEST DUP2 CALLDATALOAD PUSH3 0x749 DUP5 DUP3 PUSH1 0x20 DUP7 ADD PUSH3 0x6D4 JUMP JUMPDEST SWAP2 POP POP SWAP3 SWAP2 POP POP JUMP JUMPDEST PUSH1 0x0 DUP1 PUSH1 0x0 DUP1 PUSH1 0x0 DUP1 PUSH1 0xC0 DUP8 DUP10 SUB SLT ISZERO PUSH3 0x772 JUMPI PUSH3 0x771 PUSH3 0x48F JUMP JUMPDEST JUMPDEST PUSH1 0x0 PUSH3 0x782 DUP10 DUP3 DUP11 ADD PUSH3 0x4BD JUMP JUMPDEST SWAP7 POP POP PUSH1 0x20 PUSH3 0x795 DUP10 DUP3 DUP11 ADD PUSH3 0x4BD JUMP JUMPDEST SWAP6 POP POP PUSH1 0x40 DUP8 ADD CALLDATALOAD PUSH8 0xFFFFFFFFFFFFFFFF DUP2 GT ISZERO PUSH3 0x7B9 JUMPI PUSH3 0x7B8 PUSH3 0x494 JUMP JUMPDEST JUMPDEST PUSH3 0x7C7 DUP10 DUP3 DUP11 ADD PUSH3 0x71F JUMP JUMPDEST SWAP5 POP POP PUSH1 0x60 PUSH3 0x7DA DUP10 DUP3 DUP11 ADD PUSH3 0x4BD JUMP JUMPDEST SWAP4 POP POP PUSH1 0x80 PUSH3 0x7ED DUP10 DUP3 DUP11 ADD PUSH3 0x4BD JUMP JUMPDEST SWAP3 POP POP PUSH1 0xA0 DUP8 ADD CALLDATALOAD PUSH8 0xFFFFFFFFFFFFFFFF DUP2 GT ISZERO PUSH3 0x811 JUMPI PUSH3 0x810 PUSH3 0x494 JUMP JUMPDEST JUMPDEST PUSH3 0x81F DUP10 DUP3 DUP11 ADD PUSH3 0x71F JUMP JUMPDEST SWAP2 POP POP SWAP3 SWAP6 POP SWAP3 SWAP6 POP SWAP3 SWAP6 JUMP JUMPDEST PUSH3 0x837 DUP2 PUSH3 0x499 JUMP JUMPDEST DUP3 MSTORE POP POP JUMP JUMPDEST PUSH1 0x0 PUSH1 0x20 DUP3 ADD SWAP1 POP PUSH3 0x854 PUSH1 0x0 DUP4 ADD DUP5 PUSH3 0x82C JUMP JUMPDEST SWAP3 SWAP2 POP POP JUMP JUMPDEST PUSH32 0x4E487B7100000000000000000000000000000000000000000000000000000000 PUSH1 0x0 MSTORE PUSH1 0x11 PUSH1 0x4 MSTORE PUSH1 0x24 PUSH1 0x0 REVERT JUMPDEST PUSH1 0x0 PUSH3 0x896 DUP3 PUSH3 0x499 JUMP JUMPDEST SWAP2 POP PUSH3 0x8A3 DUP4 PUSH3 0x499 JUMP JUMPDEST SWAP3 POP DUP3 DUP3 ADD SWAP1 POP DUP1 DUP3 GT ISZERO PUSH3 0x8BE JUMPI PUSH3 0x8BD PUSH3 0x85A JUMP JUMPDEST JUMPDEST SWAP3 SWAP2 POP POP JUMP JUMPDEST PUSH1 0x0 DUP2 MLOAD SWAP1 POP SWAP2 SWAP1 POP JUMP JUMPDEST PUSH1 0x0 DUP3 DUP3 MSTORE PUSH1 0x20 DUP3 ADD SWAP1 POP SWAP3 SWAP2 POP POP JUMP JUMPDEST PUSH1 0x0 JUMPDEST DUP4 DUP2 LT ISZERO PUSH3 0x900 JUMPI DUP1 DUP3 ADD MLOAD DUP2 DUP5 ADD MSTORE PUSH1 0x20 DUP2 ADD SWAP1 POP PUSH3 0x8E3 JUMP JUMPDEST PUSH1 0x0 DUP5 DUP5 ADD MSTORE POP POP POP POP JUMP JUMPDEST PUSH1 0x0 PUSH3 0x919 DUP3 PUSH3 0x8C4 JUMP JUMPDEST PUSH3 0x925 DUP2 DUP6 PUSH3 0x8CF JUMP JUMPDEST SWAP4 POP PUSH3 0x937 DUP2 DUP6 PUSH1 0x20 DUP7 ADD PUSH3 0x8E0 JUMP JUMPDEST PUSH3 0x942 DUP2 PUSH3 0x5FA JUMP JUMPDEST DUP5 ADD SWAP2 POP POP SWAP3 SWAP2 POP POP JUMP JUMPDEST PUSH1 0x0 PUSH2 0x120 DUP3 ADD SWAP1 POP PUSH3 0x965 PUSH1 0x0 DUP4 ADD DUP13 PUSH3 0x82C JUMP JUMPDEST PUSH3 0x974 PUSH1 0x20 DUP4 ADD DUP12 PUSH3 0x82C JUMP JUMPDEST DUP2 DUP2 SUB PUSH1 0x40 DUP4 ADD MSTORE PUSH3 0x988 DUP2 DUP11 PUSH3 0x90C JUMP JUMPDEST SWAP1 POP PUSH3 0x999 PUSH1 0x60 DUP4 ADD DUP10 PUSH3 0x82C JUMP JUMPDEST PUSH3 0x9A8 PUSH1 0x80 DUP4 ADD DUP9 PUSH3 0x82C JUMP JUMPDEST PUSH3 0x9B7 PUSH1 0xA0 DUP4 ADD DUP8 PUSH3 0x82C JUMP JUMPDEST DUP2 DUP2 SUB PUSH1 0xC0 DUP4 ADD MSTORE PUSH3 0x9CB DUP2 DUP7 PUSH3 0x90C JUMP JUMPDEST SWAP1 POP PUSH3 0x9DC PUSH1 0xE0 DUP4 ADD DUP6 PUSH3 0x53A JUMP JUMPDEST PUSH3 0x9EC PUSH2 0x100 DUP4 ADD DUP5 PUSH3 0x53A JUMP JUMPDEST SWAP11 SWAP10 POP POP POP POP POP POP POP POP POP POP JUMP INVALID PUSH1 0x80 PUSH1 0x40 MSTORE CALLVALUE DUP1 ISZERO PUSH3 0x11 JUMPI PUSH1 0x0 DUP1 REVERT JUMPDEST POP PUSH1 0x40 MLOAD PUSH3 0x242F CODESIZE SUB DUP1 PUSH3 0x242F DUP4 CODECOPY DUP2 DUP2 ADD PUSH1 0x40 MSTORE DUP2 ADD SWAP1 PUSH3 0x37 SWAP2 SWAP1 PUSH3 0x413 JUMP JUMPDEST DUP2 PUSH1 0x1 PUSH1 0x0 PUSH2 0x100 EXP DUP2 SLOAD DUP2 PUSH20 0xFFFFFFFFFFFFFFFFFFFFFFFFFFFFFFFFFFFFFFFF MUL NOT AND SWAP1 DUP4 PUSH20 0xFFFFFFFFFFFFFFFFFFFFFFFFFFFFFFFFFFFFFFFF AND MUL OR SWAP1 SSTORE POP PUSH1 0x40 MLOAD DUP1 PUSH2 0x140 ADD PUSH1 0x40 MSTORE DUP1 DUP11 DUP2 MSTORE PUSH1 0x20 ADD DUP10 DUP2 MSTORE PUSH1 0x20 ADD DUP9 DUP2 MSTORE PUSH1 0x20 ADD TIMESTAMP DUP2 MSTORE PUSH1 0x20 ADD DUP8 TIMESTAMP PUSH3 0xAA SWAP2 SWAP1 PUSH3 0x55F JUMP JUMPDEST DUP2 MSTORE PUSH1 0x20 ADD DUP7 TIMESTAMP PUSH3 0xBD SWAP2 SWAP1 PUSH3 0x55F JUMP JUMPDEST DUP2 MSTORE PUSH1 0x20 ADD DUP6 DUP2 MSTORE PUSH1 0x20 ADD DUP5 DUP2 MSTORE PUSH1 0x20 ADD PUSH1 0x0 ISZERO ISZERO DUP2 MSTORE PUSH1 0x20 ADD PUSH1 0x0 ISZERO ISZERO DUP2 MSTORE POP PUSH1 0x2 PUSH1 0x0 DUP3 ADD MLOAD DUP2 PUSH1 0x0 ADD SSTORE PUSH1 0x20 DUP3 ADD MLOAD DUP2 PUSH1 0x1 ADD SSTORE PUSH1 0x40 DUP3 ADD MLOAD DUP2 PUSH1 0x2 ADD SWAP1 DUP2 PUSH3 0x10B SWAP2 SWAP1 PUSH3 0x7DB JUMP JUMPDEST POP PUSH1 0x60 DUP3 ADD MLOAD DUP2 PUSH1 0x3 ADD SSTORE PUSH1 0x80 DUP3 ADD MLOAD DUP2 PUSH1 0x4 ADD SSTORE PUSH1 0xA0 DUP3 ADD MLOAD DUP2 PUSH1 0x5 ADD SSTORE PUSH1 0xC0 DUP3 ADD MLOAD DUP2 PUSH1 0x6 ADD SSTORE PUSH1 0xE0 DUP3 ADD MLOAD DUP2 PUSH1 0x7 ADD SWAP1 DUP2 PUSH3 0x14B SWAP2 SWAP1 PUSH3 0x7DB JUMP JUMPDEST POP PUSH2 0x100 DUP3 ADD MLOAD DUP2 PUSH1 0x8 ADD PUSH1 0x0 PUSH2 0x100 EXP DUP2 SLOAD DUP2 PUSH1 0xFF MUL NOT AND SWAP1 DUP4 ISZERO ISZERO MUL OR SWAP1 SSTORE POP PUSH2 0x120 DUP3 ADD MLOAD DUP2 PUSH1 0x8 ADD PUSH1 0x1 PUSH2 0x100 EXP DUP2 SLOAD DUP2 PUSH1 0xFF MUL NOT AND SWAP1 DUP4 ISZERO ISZERO MUL OR SWAP1 SSTORE POP SWAP1 POP POP DUP1 PUSH1 0x0 DUP1 PUSH2 0x100 EXP DUP2 SLOAD DUP2 PUSH20 0xFFFFFFFFFFFFFFFFFFFFFFFFFFFFFFFFFFFFFFFF MUL NOT AND SWAP1 DUP4 PUSH20 0xFFFFFFFFFFFFFFFFFFFFFFFFFFFFFFFFFFFFFFFF AND MUL OR SWAP1 SSTORE POP POP POP POP POP POP POP POP POP POP PUSH3 0x8C2 JUMP JUMPDEST PUSH1 0x0 PUSH1 0x40 MLOAD SWAP1 POP SWAP1 JUMP JUMPDEST PUSH1 0x0 DUP1 REVERT JUMPDEST PUSH1 0x0 DUP1 REVERT JUMPDEST PUSH1 0x0 DUP2 SWAP1 POP SWAP2 SWAP1 POP JUMP JUMPDEST PUSH3 0x209 DUP2 PUSH3 0x1F4 JUMP JUMPDEST DUP2 EQ PUSH3 0x215 JUMPI PUSH1 0x0 DUP1 REVERT JUMPDEST POP JUMP JUMPDEST PUSH1 0x0 DUP2 MLOAD SWAP1 POP PUSH3 0x229 DUP2 PUSH3 0x1FE JUMP JUMPDEST SWAP3 SWAP2 POP POP JUMP JUMPDEST PUSH1 0x0 DUP1 REVERT JUMPDEST PUSH1 0x0 DUP1 REVERT JUMPDEST PUSH1 0x0 PUSH1 0x1F NOT PUSH1 0x1F DUP4 ADD AND SWAP1 POP SWAP2 SWAP1 POP JUMP JUMPDEST PUSH32 0x4E487B7100000000000000000000000000000000000000000000000000000000 PUSH1 0x0 MSTORE PUSH1 0x41 PUSH1 0x4 MSTORE PUSH1 0x24 PUSH1 0x0 REVERT JUMPDEST PUSH3 0x284 DUP3 PUSH3 0x239 JUMP JUMPDEST DUP2 ADD DUP2 DUP2 LT PUSH8 0xFFFFFFFFFFFFFFFF DUP3 GT OR ISZERO PUSH3 0x2A6 JUMPI PUSH3 0x2A5 PUSH3 0x24A JUMP JUMPDEST JUMPDEST DUP1 PUSH1 0x40 MSTORE POP POP POP JUMP JUMPDEST PUSH1 0x0 PUSH3 0x2BB PUSH3 0x1E0 JUMP JUMPDEST SWAP1 POP PUSH3 0x2C9 DUP3 DUP3 PUSH3 0x279 JUMP JUMPDEST SWAP2 SWAP1 POP JUMP JUMPDEST PUSH1 0x0 PUSH8 0xFFFFFFFFFFFFFFFF DUP3 GT ISZERO PUSH3 0x2EC JUMPI PUSH3 0x2EB PUSH3 0x24A JUMP JUMPDEST JUMPDEST PUSH3 0x2F7 DUP3 PUSH3 0x239 JUMP JUMPDEST SWAP1 POP PUSH1 0x20 DUP2 ADD SWAP1 POP SWAP2 SWAP1 POP JUMP JUMPDEST PUSH1 0x0 JUMPDEST DUP4 DUP2 LT ISZERO PUSH3 0x324 JUMPI DUP1 DUP3 ADD MLOAD DUP2 DUP5 ADD MSTORE PUSH1 0x20 DUP2 ADD SWAP1 POP PUSH3 0x307 JUMP JUMPDEST PUSH1 0x0 DUP5 DUP5 ADD MSTORE POP POP POP POP JUMP JUMPDEST PUSH1 0x0 PUSH3 0x347 PUSH3 0x341 DUP5 PUSH3 0x2CE JUMP JUMPDEST PUSH3 0x2AF JUMP JUMPDEST SWAP1 POP DUP3 DUP2 MSTORE PUSH1 0x20 DUP2 ADD DUP5 DUP5 DUP5 ADD GT ISZERO PUSH3 0x366 JUMPI PUSH3 0x365 PUSH3 0x234 JUMP JUMPDEST JUMPDEST PUSH3 0x373 DUP5 DUP3 DUP6 PUSH3 0x304 JUMP JUMPDEST POP SWAP4 SWAP3 POP POP POP JUMP JUMPDEST PUSH1 0x0 DUP3 PUSH1 0x1F DUP4 ADD SLT PUSH3 0x393 JUMPI PUSH3 0x392 PUSH3 0x22F JUMP JUMPDEST JUMPDEST DUP2 MLOAD PUSH3 0x3A5 DUP5 DUP3 PUSH1 0x20 DUP7 ADD PUSH3 0x330 JUMP JUMPDEST SWAP2 POP POP SWAP3 SWAP2 POP POP JUMP JUMPDEST PUSH1 0x0 PUSH20 0xFFFFFFFFFFFFFFFFFFFFFFFFFFFFFFFFFFFFFFFF DUP3 AND SWAP1 POP SWAP2 SWAP1 POP JUMP JUMPDEST PUSH1 0x0 PUSH3 0x3DB DUP3 PUSH3 0x3AE JUMP JUMPDEST SWAP1 POP SWAP2 SWAP1 POP JUMP JUMPDEST PUSH3 0x3ED DUP2 PUSH3 0x3CE JUMP JUMPDEST DUP2 EQ PUSH3 0x3F9 JUMPI PUSH1 0x0 DUP1 REVERT JUMPDEST POP JUMP JUMPDEST PUSH1 0x0 DUP2 MLOAD SWAP1 POP PUSH3 0x40D DUP2 PUSH3 0x3E2 JUMP JUMPDEST SWAP3 SWAP2 POP POP JUMP JUMPDEST PUSH1 0x0 DUP1 PUSH1 0x0 DUP1 PUSH1 0x0 DUP1 PUSH1 0x0 DUP1 PUSH1 0x0 PUSH2 0x120 DUP11 DUP13 SUB SLT ISZERO PUSH3 0x439 JUMPI PUSH3 0x438 PUSH3 0x1EA JUMP JUMPDEST JUMPDEST PUSH1 0x0 PUSH3 0x449 DUP13 DUP3 DUP14 ADD PUSH3 0x218 JUMP JUMPDEST SWAP10 POP POP PUSH1 0x20 PUSH3 0x45C DUP13 DUP3 DUP14 ADD PUSH3 0x218 JUMP JUMPDEST SWAP9 POP POP PUSH1 0x40 DUP11 ADD MLOAD PUSH8 0xFFFFFFFFFFFFFFFF DUP2 GT ISZERO PUSH3 0x480 JUMPI PUSH3 0x47F PUSH3 0x1EF JUMP JUMPDEST JUMPDEST PUSH3 0x48E DUP13 DUP3 DUP14 ADD PUSH3 0x37B JUMP JUMPDEST SWAP8 POP POP PUSH1 0x60 PUSH3 0x4A1 DUP13 DUP3 DUP14 ADD PUSH3 0x218 JUMP JUMPDEST SWAP7 POP POP PUSH1 0x80 PUSH3 0x4B4 DUP13 DUP3 DUP14 ADD PUSH3 0x218 JUMP JUMPDEST SWAP6 POP POP PUSH1 0xA0 PUSH3 0x4C7 DUP13 DUP3 DUP14 ADD PUSH3 0x218 JUMP JUMPDEST SWAP5 POP POP PUSH1 0xC0 DUP11 ADD MLOAD PUSH8 0xFFFFFFFFFFFFFFFF DUP2 GT ISZERO PUSH3 0x4EB JUMPI PUSH3 0x4EA PUSH3 0x1EF JUMP JUMPDEST JUMPDEST PUSH3 0x4F9 DUP13 DUP3 DUP14 ADD PUSH3 0x37B JUMP JUMPDEST SWAP4 POP POP PUSH1 0xE0 PUSH3 0x50C DUP13 DUP3 DUP14 ADD PUSH3 0x3FC JUMP JUMPDEST SWAP3 POP POP PUSH2 0x100 PUSH3 0x520 DUP13 DUP3 DUP14 ADD PUSH3 0x3FC JUMP JUMPDEST SWAP2 POP POP SWAP3 SWAP6 SWAP9 POP SWAP3 SWAP6 SWAP9 POP SWAP3 SWAP6 SWAP9 JUMP JUMPDEST PUSH32 0x4E487B7100000000000000000000000000000000000000000000000000000000 PUSH1 0x0 MSTORE PUSH1 0x11 PUSH1 0x4 MSTORE PUSH1 0x24 PUSH1 0x0 REVERT JUMPDEST PUSH1 0x0 PUSH3 0x56C DUP3 PUSH3 0x1F4 JUMP JUMPDEST SWAP2 POP PUSH3 0x579 DUP4 PUSH3 0x1F4 JUMP JUMPDEST SWAP3 POP DUP3 DUP3 ADD SWAP1 POP DUP1 DUP3 GT ISZERO PUSH3 0x594 JUMPI PUSH3 0x593 PUSH3 0x530 JUMP JUMPDEST JUMPDEST SWAP3 SWAP2 POP POP JUMP JUMPDEST PUSH1 0x0 DUP2 MLOAD SWAP1 POP SWAP2 SWAP1 POP JUMP JUMPDEST PUSH32 0x4E487B7100000000000000000000000000000000000000000000000000000000 PUSH1 0x0 MSTORE PUSH1 0x22 PUSH1 0x4 MSTORE PUSH1 0x24 PUSH1 0x0 REVERT JUMPDEST PUSH1 0x0 PUSH1 0x2 DUP3 DIV SWAP1 POP PUSH1 0x1 DUP3 AND DUP1 PUSH3 0x5ED JUMPI PUSH1 0x7F DUP3 AND SWAP2 POP JUMPDEST PUSH1 0x20 DUP3 LT DUP2 SUB PUSH3 0x603 JUMPI PUSH3 0x602 PUSH3 0x5A5 JUMP JUMPDEST JUMPDEST POP SWAP2 SWAP1 POP JUMP JUMPDEST PUSH1 0x0 DUP2 SWAP1 POP DUP2 PUSH1 0x0 MSTORE PUSH1 0x20 PUSH1 0x0 KECCAK256 SWAP1 POP SWAP2 SWAP1 POP JUMP JUMPDEST PUSH1 0x0 PUSH1 0x20 PUSH1 0x1F DUP4 ADD DIV SWAP1 POP SWAP2 SWAP1 POP JUMP JUMPDEST PUSH1 0x0 DUP3 DUP3 SHL SWAP1 POP SWAP3 SWAP2 POP POP JUMP JUMPDEST PUSH1 0x0 PUSH1 0x8 DUP4 MUL PUSH3 0x66D PUSH32 0xFFFFFFFFFFFFFFFFFFFFFFFFFFFFFFFFFFFFFFFFFFFFFFFFFFFFFFFFFFFFFFFF DUP3 PUSH3 0x62E JUMP JUMPDEST PUSH3 0x679 DUP7 DUP4 PUSH3 0x62E JUMP JUMPDEST SWAP6 POP DUP1 NOT DUP5 AND SWAP4 POP DUP1 DUP7 AND DUP5 OR SWAP3 POP POP POP SWAP4 SWAP3 POP POP POP JUMP JUMPDEST PUSH1 0x0 DUP2 SWAP1 POP SWAP2 SWAP1 POP JUMP JUMPDEST PUSH1 0x0 PUSH3 0x6BC PUSH3 0x6B6 PUSH3 0x6B0 DUP5 PUSH3 0x1F4 JUMP JUMPDEST PUSH3 0x691 JUMP JUMPDEST PUSH3 0x1F4 JUMP JUMPDEST SWAP1 POP SWAP2 SWAP1 POP JUMP JUMPDEST PUSH1 0x0 DUP2 SWAP1 POP SWAP2 SWAP1 POP JUMP JUMPDEST PUSH3 0x6D8 DUP4 PUSH3 0x69B JUMP JUMPDEST PUSH3 0x6F0 PUSH3 0x6E7 DUP3 PUSH3 0x6C3 JUMP JUMPDEST DUP5 DUP5 SLOAD PUSH3 0x63B JUMP JUMPDEST DUP3 SSTORE POP POP POP POP JUMP JUMPDEST PUSH1 0x0 SWAP1 JUMP JUMPDEST PUSH3 0x707 PUSH3 0x6F8 JUMP JUMPDEST PUSH3 0x714 DUP2 DUP5 DUP5 PUSH3 0x6CD JUMP JUMPDEST POP POP POP JUMP JUMPDEST JUMPDEST DUP2 DUP2 LT ISZERO PUSH3 0x73C JUMPI PUSH3 0x730 PUSH1 0x0 DUP3 PUSH3 0x6FD JUMP JUMPDEST PUSH1 0x1 DUP2 ADD SWAP1 POP PUSH3 0x71A JUMP JUMPDEST POP POP JUMP JUMPDEST PUSH1 0x1F DUP3 GT ISZERO PUSH3 0x78B JUMPI PUSH3 0x755 DUP2 PUSH3 0x609 JUMP JUMPDEST PUSH3 0x760 DUP5 PUSH3 0x61E JUMP JUMPDEST DUP2 ADD PUSH1 0x20 DUP6 LT ISZERO PUSH3 0x770 JUMPI DUP2 SWAP1 POP JUMPDEST PUSH3 0x788 PUSH3 0x77F DUP6 PUSH3 0x61E JUMP JUMPDEST DUP4 ADD DUP3 PUSH3 0x719 JUMP JUMPDEST POP POP JUMPDEST POP POP POP JUMP JUMPDEST PUSH1 0x0 DUP3 DUP3 SHR SWAP1 POP SWAP3 SWAP2 POP POP JUMP JUMPDEST PUSH1 0x0 PUSH3 0x7B0 PUSH1 0x0 NOT DUP5 PUSH1 0x8 MUL PUSH3 0x790 JUMP JUMPDEST NOT DUP1 DUP4 AND SWAP2 POP POP SWAP3 SWAP2 POP POP JUMP JUMPDEST PUSH1 0x0 PUSH3 0x7CB DUP4 DUP4 PUSH3 0x79D JUMP JUMPDEST SWAP2 POP DUP3 PUSH1 0x2 MUL DUP3 OR SWAP1 POP SWAP3 SWAP2 POP POP JUMP JUMPDEST PUSH3 0x7E6 DUP3 PUSH3 0x59A JUMP JUMPDEST PUSH8 0xFFFFFFFFFFFFFFFF DUP2 GT ISZERO PUSH3 0x802 JUMPI PUSH3 0x801 PUSH3 0x24A JUMP JUMPDEST JUMPDEST PUSH3 0x80E DUP3 SLOAD PUSH3 0x5D4 JUMP JUMPDEST PUSH3 0x81B DUP3 DUP3 DUP6 PUSH3 0x740 JUMP JUMPDEST PUSH1 0x0 PUSH1 0x20 SWAP1 POP PUSH1 0x1F DUP4 GT PUSH1 0x1 DUP2 EQ PUSH3 0x853 JUMPI PUSH1 0x0 DUP5 ISZERO PUSH3 0x83E JUMPI DUP3 DUP8 ADD MLOAD SWAP1 POP JUMPDEST PUSH3 0x84A DUP6 DUP3 PUSH3 0x7BD JUMP JUMPDEST DUP7 SSTORE POP PUSH3 0x8BA JUMP JUMPDEST PUSH1 0x1F NOT DUP5 AND PUSH3 0x863 DUP7 PUSH3 0x609 JUMP JUMPDEST PUSH1 0x0 JUMPDEST DUP3 DUP2 LT ISZERO PUSH3 0x88D JUMPI DUP5 DUP10 ADD MLOAD DUP3 SSTORE PUSH1 0x1 DUP3 ADD SWAP2 POP PUSH1 0x20 DUP6 ADD SWAP5 POP PUSH1 0x20 DUP2 ADD SWAP1 POP PUSH3 0x866 JUMP JUMPDEST DUP7 DUP4 LT ISZERO PUSH3 0x8AD JUMPI DUP5 DUP10 ADD MLOAD PUSH3 0x8A9 PUSH1 0x1F DUP10 AND DUP3 PUSH3 0x79D JUMP JUMPDEST DUP4 SSTORE POP JUMPDEST PUSH1 0x1 PUSH1 0x2 DUP9 MUL ADD DUP9 SSTORE POP POP POP JUMPDEST POP POP POP POP POP POP JUMP JUMPDEST PUSH2 0x1B5D DUP1 PUSH3 0x8D2 PUSH1 0x0 CODECOPY PUSH1 0x0 RETURN INVALID PUSH1 0x80 PUSH1 0x40 MSTORE PUSH1 0x4 CALLDATASIZE LT PUSH2 0x95 JUMPI PUSH1 0x0 CALLDATALOAD PUSH1 0xE0 SHR DUP1 PUSH4 0x9F8743F7 GT PUSH2 0x59 JUMPI DUP1 PUSH4 0x9F8743F7 EQ PUSH2 0x180 JUMPI DUP1 PUSH4 0xB60D4288 EQ PUSH2 0x1AB JUMPI DUP1 PUSH4 0xD18F45E1 EQ PUSH2 0x1B5 JUMPI DUP1 PUSH4 0xE4FC6B6D EQ PUSH2 0x1F2 JUMPI DUP1 PUSH4 0xF851A440 EQ PUSH2 0x209 JUMPI PUSH2 0x9C JUMP JUMPDEST DUP1 PUSH4 0x31B3677 EQ PUSH2 0xA1 JUMPI DUP1 PUSH4 0x13A2E117 EQ PUSH2 0xDF JUMPI DUP1 PUSH4 0x1439AEF2 EQ PUSH2 0x10A JUMPI DUP1 PUSH4 0x4E71D92D EQ PUSH2 0x135 JUMPI DUP1 PUSH4 0x811E539C EQ PUSH2 0x14C JUMPI PUSH2 0x9C JUMP JUMPDEST CALLDATASIZE PUSH2 0x9C JUMPI STOP JUMPDEST PUSH1 0x0 DUP1 REVERT JUMPDEST CALLVALUE DUP1 ISZERO PUSH2 0xAD JUMPI PUSH1 0x0 DUP1 REVERT JUMPDEST POP PUSH2 0xC8 PUSH1 0x4 DUP1 CALLDATASIZE SUB DUP2 ADD SWAP1 PUSH2 0xC3 SWAP2 SWAP1 PUSH2 0x10DA JUMP JUMPDEST PUSH2 0x234 JUMP JUMPDEST PUSH1 0x40 MLOAD PUSH2 0xD6 SWAP3 SWAP2 SWAP1 PUSH2 0x1120 JUMP JUMPDEST PUSH1 0x40 MLOAD DUP1 SWAP2 SUB SWAP1 RETURN JUMPDEST CALLVALUE DUP1 ISZERO PUSH2 0xEB JUMPI PUSH1 0x0 DUP1 REVERT JUMPDEST POP PUSH2 0xF4 PUSH2 0x258 JUMP JUMPDEST PUSH1 0x40 MLOAD PUSH2 0x101 SWAP2 SWAP1 PUSH2 0x1149 JUMP JUMPDEST PUSH1 0x40 MLOAD DUP1 SWAP2 SUB SWAP1 RETURN JUMPDEST CALLVALUE DUP1 ISZERO PUSH2 0x116 JUMPI PUSH1 0x0 DUP1 REVERT JUMPDEST POP PUSH2 0x11F PUSH2 0x25E JUMP JUMPDEST PUSH1 0x40 MLOAD PUSH2 0x12C SWAP2 SWAP1 PUSH2 0x1149 JUMP JUMPDEST PUSH1 0x40 MLOAD DUP1 SWAP2 SUB SWAP1 RETURN JUMPDEST CALLVALUE DUP1 ISZERO PUSH2 0x141 JUMPI PUSH1 0x0 DUP1 REVERT JUMPDEST POP PUSH2 0x14A PUSH2 0x264 JUMP JUMPDEST STOP JUMPDEST CALLVALUE DUP1 ISZERO PUSH2 0x158 JUMPI PUSH1 0x0 DUP1 REVERT JUMPDEST POP PUSH2 0x161 PUSH2 0x417 JUMP JUMPDEST PUSH1 0x40 MLOAD PUSH2 0x177 SWAP11 SWAP10 SWAP9 SWAP8 SWAP7 SWAP6 SWAP5 SWAP4 SWAP3 SWAP2 SWAP1 PUSH2 0x120F JUMP JUMPDEST PUSH1 0x40 MLOAD DUP1 SWAP2 SUB SWAP1 RETURN JUMPDEST CALLVALUE DUP1 ISZERO PUSH2 0x18C JUMPI PUSH1 0x0 DUP1 REVERT JUMPDEST POP PUSH2 0x195 PUSH2 0x583 JUMP JUMPDEST PUSH1 0x40 MLOAD PUSH2 0x1A2 SWAP2 SWAP1 PUSH2 0x12B9 JUMP JUMPDEST PUSH1 0x40 MLOAD DUP1 SWAP2 SUB SWAP1 RETURN JUMPDEST PUSH2 0x1B3 PUSH2 0x69E JUMP JUMPDEST STOP JUMPDEST CALLVALUE DUP1 ISZERO PUSH2 0x1C1 JUMPI PUSH1 0x0 DUP1 REVERT JUMPDEST POP PUSH2 0x1DC PUSH1 0x4 DUP1 CALLDATASIZE SUB DUP2 ADD SWAP1 PUSH2 0x1D7 SWAP2 SWAP1 PUSH2 0x1307 JUMP JUMPDEST PUSH2 0x9E3 JUMP JUMPDEST PUSH1 0x40 MLOAD PUSH2 0x1E9 SWAP2 SWAP1 PUSH2 0x1343 JUMP JUMPDEST PUSH1 0x40 MLOAD DUP1 SWAP2 SUB SWAP1 RETURN JUMPDEST CALLVALUE DUP1 ISZERO PUSH2 0x1FE JUMPI PUSH1 0x0 DUP1 REVERT JUMPDEST POP PUSH2 0x207 PUSH2 0xA22 JUMP JUMPDEST STOP JUMPDEST CALLVALUE DUP1 ISZERO PUSH2 0x215 JUMPI PUSH1 0x0 DUP1 REVERT JUMPDEST POP PUSH2 0x21E PUSH2 0xEF4 JUMP JUMPDEST PUSH1 0x40 MLOAD PUSH2 0x22B SWAP2 SWAP1 PUSH2 0x1343 JUMP JUMPDEST PUSH1 0x40 MLOAD DUP1 SWAP2 SUB SWAP1 RETURN JUMPDEST PUSH1 0xB PUSH1 0x20 MSTORE DUP1 PUSH1 0x0 MSTORE PUSH1 0x40 PUSH1 0x0 KECCAK256 PUSH1 0x0 SWAP2 POP SWAP1 POP DUP1 PUSH1 0x0 ADD SLOAD SWAP1 DUP1 PUSH1 0x1 ADD SLOAD SWAP1 POP DUP3 JUMP JUMPDEST PUSH1 0xD SLOAD DUP2 JUMP JUMPDEST PUSH1 0xE SLOAD DUP2 JUMP JUMPDEST PUSH1 0x1 PUSH1 0x0 SWAP1 SLOAD SWAP1 PUSH2 0x100 EXP SWAP1 DIV PUSH20 0xFFFFFFFFFFFFFFFFFFFFFFFFFFFFFFFFFFFFFFFF AND PUSH20 0xFFFFFFFFFFFFFFFFFFFFFFFFFFFFFFFFFFFFFFFF AND CALLER PUSH20 0xFFFFFFFFFFFFFFFFFFFFFFFFFFFFFFFFFFFFFFFF AND EQ PUSH2 0x2F4 JUMPI PUSH1 0x40 MLOAD PUSH32 0x8C379A000000000000000000000000000000000000000000000000000000000 DUP2 MSTORE PUSH1 0x4 ADD PUSH2 0x2EB SWAP1 PUSH2 0x13D0 JUMP JUMPDEST PUSH1 0x40 MLOAD DUP1 SWAP2 SUB SWAP1 REVERT JUMPDEST PUSH1 0x0 SELFBALANCE SWAP1 POP PUSH1 0x2 PUSH1 0x8 ADD PUSH1 0x0 SWAP1 SLOAD SWAP1 PUSH2 0x100 EXP SWAP1 DIV PUSH1 0xFF AND DUP1 ISZERO PUSH2 0x31C JUMPI POP PUSH1 0x2 PUSH1 0x4 ADD SLOAD TIMESTAMP GT JUMPDEST DUP1 ISZERO PUSH2 0x328 JUMPI POP PUSH1 0x0 DUP2 GT JUMPDEST PUSH2 0x367 JUMPI PUSH1 0x40 MLOAD PUSH32 0x8C379A000000000000000000000000000000000000000000000000000000000 DUP2 MSTORE PUSH1 0x4 ADD PUSH2 0x35E SWAP1 PUSH2 0x143C JUMP JUMPDEST PUSH1 0x40 MLOAD DUP1 SWAP2 SUB SWAP1 REVERT JUMPDEST PUSH1 0x0 CALLER PUSH20 0xFFFFFFFFFFFFFFFFFFFFFFFFFFFFFFFFFFFFFFFF AND DUP3 PUSH1 0x40 MLOAD PUSH2 0x38D SWAP1 PUSH2 0x148D JUMP JUMPDEST PUSH1 0x0 PUSH1 0x40 MLOAD DUP1 DUP4 SUB DUP2 DUP6 DUP8 GAS CALL SWAP3 POP POP POP RETURNDATASIZE DUP1 PUSH1 0x0 DUP2 EQ PUSH2 0x3CA JUMPI PUSH1 0x40 MLOAD SWAP2 POP PUSH1 0x1F NOT PUSH1 0x3F RETURNDATASIZE ADD AND DUP3 ADD PUSH1 0x40 MSTORE RETURNDATASIZE DUP3 MSTORE RETURNDATASIZE PUSH1 0x0 PUSH1 0x20 DUP5 ADD RETURNDATACOPY PUSH2 0x3CF JUMP JUMPDEST PUSH1 0x60 SWAP2 POP JUMPDEST POP POP SWAP1 POP DUP1 PUSH2 0x413 JUMPI PUSH1 0x40 MLOAD PUSH32 0x8C379A000000000000000000000000000000000000000000000000000000000 DUP2 MSTORE PUSH1 0x4 ADD PUSH2 0x40A SWAP1 PUSH2 0x14EE JUMP JUMPDEST PUSH1 0x40 MLOAD DUP1 SWAP2 SUB SWAP1 REVERT JUMPDEST POP POP JUMP JUMPDEST PUSH1 0x2 DUP1 PUSH1 0x0 ADD SLOAD SWAP1 DUP1 PUSH1 0x1 ADD SLOAD SWAP1 DUP1 PUSH1 0x2 ADD DUP1 SLOAD PUSH2 0x434 SWAP1 PUSH2 0x153D JUMP JUMPDEST DUP1 PUSH1 0x1F ADD PUSH1 0x20 DUP1 SWAP2 DIV MUL PUSH1 0x20 ADD PUSH1 0x40 MLOAD SWAP1 DUP2 ADD PUSH1 0x40 MSTORE DUP1 SWAP3 SWAP2 SWAP1 DUP2 DUP2 MSTORE PUSH1 0x20 ADD DUP3 DUP1 SLOAD PUSH2 0x460 SWAP1 PUSH2 0x153D JUMP JUMPDEST DUP1 ISZERO PUSH2 0x4AD JUMPI DUP1 PUSH1 0x1F LT PUSH2 0x482 JUMPI PUSH2 0x100 DUP1 DUP4 SLOAD DIV MUL DUP4 MSTORE SWAP2 PUSH1 0x20 ADD SWAP2 PUSH2 0x4AD JUMP JUMPDEST DUP3 ADD SWAP2 SWAP1 PUSH1 0x0 MSTORE PUSH1 0x20 PUSH1 0x0 KECCAK256 SWAP1 JUMPDEST DUP2 SLOAD DUP2 MSTORE SWAP1 PUSH1 0x1 ADD SWAP1 PUSH1 0x20 ADD DUP1 DUP4 GT PUSH2 0x490 JUMPI DUP3 SWAP1 SUB PUSH1 0x1F AND DUP3 ADD SWAP2 JUMPDEST POP POP POP POP POP SWAP1 DUP1 PUSH1 0x3 ADD SLOAD SWAP1 DUP1 PUSH1 0x4 ADD SLOAD SWAP1 DUP1 PUSH1 0x5 ADD SLOAD SWAP1 DUP1 PUSH1 0x6 ADD SLOAD SWAP1 DUP1 PUSH1 0x7 ADD DUP1 SLOAD PUSH2 0x4DA SWAP1 PUSH2 0x153D JUMP JUMPDEST DUP1 PUSH1 0x1F ADD PUSH1 0x20 DUP1 SWAP2 DIV MUL PUSH1 0x20 ADD PUSH1 0x40 MLOAD SWAP1 DUP2 ADD PUSH1 0x40 MSTORE DUP1 SWAP3 SWAP2 SWAP1 DUP2 DUP2 MSTORE PUSH1 0x20 ADD DUP3 DUP1 SLOAD PUSH2 0x506 SWAP1 PUSH2 0x153D JUMP JUMPDEST DUP1 ISZERO PUSH2 0x553 JUMPI DUP1 PUSH1 0x1F LT PUSH2 0x528 JUMPI PUSH2 0x100 DUP1 DUP4 SLOAD DIV MUL DUP4 MSTORE SWAP2 PUSH1 0x20 ADD SWAP2 PUSH2 0x553 JUMP JUMPDEST DUP3 ADD SWAP2 SWAP1 PUSH1 0x0 MSTORE PUSH1 0x20 PUSH1 0x0 KECCAK256 SWAP1 JUMPDEST DUP2 SLOAD DUP2 MSTORE SWAP1 PUSH1 0x1 ADD SWAP1 PUSH1 0x20 ADD DUP1 DUP4 GT PUSH2 0x536 JUMPI DUP3 SWAP1 SUB PUSH1 0x1F AND DUP3 ADD SWAP2 JUMPDEST POP POP POP POP POP SWAP1 DUP1 PUSH1 0x8 ADD PUSH1 0x0 SWAP1 SLOAD SWAP1 PUSH2 0x100 EXP SWAP1 DIV PUSH1 0xFF AND SWAP1 DUP1 PUSH1 0x8 ADD PUSH1 0x1 SWAP1 SLOAD SWAP1 PUSH2 0x100 EXP SWAP1 DIV PUSH1 0xFF AND SWAP1 POP DUP11 JUMP JUMPDEST PUSH1 0x60 PUSH1 0x2 PUSH1 0x4 ADD SLOAD TIMESTAMP LT ISZERO PUSH2 0x5CF JUMPI PUSH1 0x40 MLOAD DUP1 PUSH1 0x40 ADD PUSH1 0x40 MSTORE DUP1 PUSH1 0x7 DUP2 MSTORE PUSH1 0x20 ADD PUSH32 0x66756E64696E6700000000000000000000000000000000000000000000000000 DUP2 MSTORE POP SWAP1 POP PUSH2 0x69B JUMP JUMPDEST PUSH1 0x2 PUSH1 0x5 ADD SLOAD TIMESTAMP LT ISZERO PUSH2 0x619 JUMPI PUSH1 0x40 MLOAD DUP1 PUSH1 0x40 ADD PUSH1 0x40 MSTORE DUP1 PUSH1 0x8 DUP2 MSTORE PUSH1 0x20 ADD PUSH32 0x636C61696D696E67000000000000000000000000000000000000000000000000 DUP2 MSTORE POP SWAP1 POP PUSH2 0x69B JUMP JUMPDEST PUSH1 0x2 PUSH1 0x5 ADD SLOAD TIMESTAMP LT PUSH2 0x662 JUMPI PUSH1 0x40 MLOAD DUP1 PUSH1 0x40 ADD PUSH1 0x40 MSTORE DUP1 PUSH1 0xC DUP2 MSTORE PUSH1 0x20 ADD PUSH32 0x646973747269627574696F6E0000000000000000000000000000000000000000 DUP2 MSTORE POP SWAP1 POP PUSH2 0x69B JUMP JUMPDEST PUSH1 0x40 MLOAD DUP1 PUSH1 0x40 ADD PUSH1 0x40 MSTORE DUP1 PUSH1 0x8 DUP2 MSTORE PUSH1 0x20 ADD PUSH32 0x7374617274696E67000000000000000000000000000000000000000000000000 DUP2 MSTORE POP SWAP1 POP JUMPDEST SWAP1 JUMP JUMPDEST PUSH1 0x0 CALLVALUE GT PUSH2 0x6E1 JUMPI PUSH1 0x40 MLOAD PUSH32 0x8C379A000000000000000000000000000000000000000000000000000000000 DUP2 MSTORE PUSH1 0x4 ADD PUSH2 0x6D8 SWAP1 PUSH2 0x15E0 JUMP JUMPDEST PUSH1 0x40 MLOAD DUP1 SWAP2 SUB SWAP1 REVERT JUMPDEST PUSH1 0x2 PUSH1 0x3 ADD SLOAD TIMESTAMP LT ISZERO DUP1 ISZERO PUSH2 0x6FB JUMPI POP PUSH1 0x2 PUSH1 0x4 ADD SLOAD TIMESTAMP GT ISZERO JUMPDEST PUSH2 0x73A JUMPI PUSH1 0x40 MLOAD PUSH32 0x8C379A000000000000000000000000000000000000000000000000000000000 DUP2 MSTORE PUSH1 0x4 ADD PUSH2 0x731 SWAP1 PUSH2 0x164C JUMP JUMPDEST PUSH1 0x40 MLOAD DUP1 SWAP2 SUB SWAP1 REVERT JUMPDEST PUSH1 0x2 PUSH1 0x8 ADD PUSH1 0x0 SWAP1 SLOAD SWAP1 PUSH2 0x100 EXP SWAP1 DIV PUSH1 0xFF AND ISZERO PUSH2 0x78D JUMPI PUSH1 0x40 MLOAD PUSH32 0x8C379A000000000000000000000000000000000000000000000000000000000 DUP2 MSTORE PUSH1 0x4 ADD PUSH2 0x784 SWAP1 PUSH2 0x16DE JUMP JUMPDEST PUSH1 0x40 MLOAD DUP1 SWAP2 SUB SWAP1 REVERT JUMPDEST PUSH2 0x796 CALLER PUSH2 0xF1A JUMP JUMPDEST PUSH1 0x0 PUSH1 0xB PUSH1 0x0 CALLER PUSH20 0xFFFFFFFFFFFFFFFFFFFFFFFFFFFFFFFFFFFFFFFF AND PUSH20 0xFFFFFFFFFFFFFFFFFFFFFFFFFFFFFFFFFFFFFFFF AND DUP2 MSTORE PUSH1 0x20 ADD SWAP1 DUP2 MSTORE PUSH1 0x20 ADD PUSH1 0x0 KECCAK256 PUSH1 0x0 ADD SLOAD SWAP1 POP PUSH1 0x0 CALLVALUE DUP3 PUSH2 0x7EB SWAP2 SWAP1 PUSH2 0x172D JUMP JUMPDEST SWAP1 POP CALLVALUE PUSH1 0xE PUSH1 0x0 DUP3 DUP3 SLOAD PUSH2 0x7FF SWAP2 SWAP1 PUSH2 0x172D JUMP JUMPDEST SWAP3 POP POP DUP2 SWAP1 SSTORE POP PUSH1 0x2 PUSH1 0x0 ADD SLOAD PUSH1 0xE SLOAD GT ISZERO PUSH2 0x902 JUMPI PUSH1 0x0 PUSH1 0x2 PUSH1 0x0 ADD SLOAD PUSH1 0xE SLOAD PUSH2 0x82A SWAP2 SWAP1 PUSH2 0x1761 JUMP JUMPDEST SWAP1 POP DUP1 DUP3 PUSH2 0x838 SWAP2 SWAP1 PUSH2 0x1761 JUMP JUMPDEST SWAP2 POP DUP1 PUSH1 0xE PUSH1 0x0 DUP3 DUP3 SLOAD PUSH2 0x84C SWAP2 SWAP1 PUSH2 0x1761 JUMP JUMPDEST SWAP3 POP POP DUP2 SWAP1 SSTORE POP PUSH1 0x0 CALLER PUSH20 0xFFFFFFFFFFFFFFFFFFFFFFFFFFFFFFFFFFFFFFFF AND DUP3 PUSH1 0x40 MLOAD PUSH2 0x879 SWAP1 PUSH2 0x148D JUMP JUMPDEST PUSH1 0x0 PUSH1 0x40 MLOAD DUP1 DUP4 SUB DUP2 DUP6 DUP8 GAS CALL SWAP3 POP POP POP RETURNDATASIZE DUP1 PUSH1 0x0 DUP2 EQ PUSH2 0x8B6 JUMPI PUSH1 0x40 MLOAD SWAP2 POP PUSH1 0x1F NOT PUSH1 0x3F RETURNDATASIZE ADD AND DUP3 ADD PUSH1 0x40 MSTORE RETURNDATASIZE DUP3 MSTORE RETURNDATASIZE PUSH1 0x0 PUSH1 0x20 DUP5 ADD RETURNDATACOPY PUSH2 0x8BB JUMP JUMPDEST PUSH1 0x60 SWAP2 POP JUMPDEST POP POP SWAP1 POP DUP1 PUSH2 0x8FF JUMPI PUSH1 0x40 MLOAD PUSH32 0x8C379A000000000000000000000000000000000000000000000000000000000 DUP2 MSTORE PUSH1 0x4 ADD PUSH2 0x8F6 SWAP1 PUSH2 0x17E1 JUMP JUMPDEST PUSH1 0x40 MLOAD DUP1 SWAP2 SUB SWAP1 REVERT JUMPDEST POP POP JUMPDEST PUSH1 0x0 PUSH1 0x2 PUSH1 0x0 ADD SLOAD PUSH1 0x64 DUP4 PUSH2 0x917 SWAP2 SWAP1 PUSH2 0x1801 JUMP JUMPDEST PUSH2 0x921 SWAP2 SWAP1 PUSH2 0x1872 JUMP JUMPDEST SWAP1 POP DUP2 PUSH1 0xB PUSH1 0x0 CALLER PUSH20 0xFFFFFFFFFFFFFFFFFFFFFFFFFFFFFFFFFFFFFFFF AND PUSH20 0xFFFFFFFFFFFFFFFFFFFFFFFFFFFFFFFFFFFFFFFF AND DUP2 MSTORE PUSH1 0x20 ADD SWAP1 DUP2 MSTORE PUSH1 0x20 ADD PUSH1 0x0 KECCAK256 PUSH1 0x0 ADD DUP2 SWAP1 SSTORE POP DUP1 PUSH1 0xB PUSH1 0x0 CALLER PUSH20 0xFFFFFFFFFFFFFFFFFFFFFFFFFFFFFFFFFFFFFFFF AND PUSH20 0xFFFFFFFFFFFFFFFFFFFFFFFFFFFFFFFFFFFFFFFF AND DUP2 MSTORE PUSH1 0x20 ADD SWAP1 DUP2 MSTORE PUSH1 0x20 ADD PUSH1 0x0 KECCAK256 PUSH1 0x1 ADD DUP2 SWAP1 SSTORE POP PUSH1 0x2 PUSH1 0x0 ADD SLOAD PUSH1 0xE SLOAD LT PUSH2 0x9DE JUMPI PUSH1 0x1 PUSH1 0x2 PUSH1 0x8 ADD PUSH1 0x0 PUSH2 0x100 EXP DUP2 SLOAD DUP2 PUSH1 0xFF MUL NOT AND SWAP1 DUP4 ISZERO ISZERO MUL OR SWAP1 SSTORE POP JUMPDEST POP POP POP JUMP JUMPDEST PUSH1 0xC DUP2 DUP2 SLOAD DUP2 LT PUSH2 0x9F3 JUMPI PUSH1 0x0 DUP1 REVERT JUMPDEST SWAP1 PUSH1 0x0 MSTORE PUSH1 0x20 PUSH1 0x0 KECCAK256 ADD PUSH1 0x0 SWAP2 POP SLOAD SWAP1 PUSH2 0x100 EXP SWAP1 DIV PUSH20 0xFFFFFFFFFFFFFFFFFFFFFFFFFFFFFFFFFFFFFFFF AND DUP2 JUMP JUMPDEST PUSH1 0x2 PUSH1 0x8 ADD PUSH1 0x0 SWAP1 SLOAD SWAP1 PUSH2 0x100 EXP SWAP1 DIV PUSH1 0xFF AND ISZERO DUP1 ISZERO PUSH2 0xA46 JUMPI POP PUSH1 0x2 PUSH1 0x4 ADD SLOAD TIMESTAMP GT JUMPDEST DUP1 PUSH2 0xA55 JUMPI POP PUSH1 0x2 PUSH1 0x5 ADD SLOAD TIMESTAMP GT JUMPDEST PUSH2 0xA94 JUMPI PUSH1 0x40 MLOAD PUSH32 0x8C379A000000000000000000000000000000000000000000000000000000000 DUP2 MSTORE PUSH1 0x4 ADD PUSH2 0xA8B SWAP1 PUSH2 0x1915 JUMP JUMPDEST PUSH1 0x40 MLOAD DUP1 SWAP2 SUB SWAP1 REVERT JUMPDEST PUSH1 0x0 SELFBALANCE SWAP1 POP PUSH1 0x2 PUSH1 0x8 ADD PUSH1 0x0 SWAP1 SLOAD SWAP1 PUSH2 0x100 EXP SWAP1 DIV PUSH1 0xFF AND PUSH2 0xC23 JUMPI PUSH1 0x0 JUMPDEST PUSH1 0xD SLOAD DUP2 LT ISZERO PUSH2 0xC1D JUMPI PUSH1 0x0 PUSH1 0xC DUP3 DUP2 SLOAD DUP2 LT PUSH2 0xAD3 JUMPI PUSH2 0xAD2 PUSH2 0x1935 JUMP JUMPDEST JUMPDEST SWAP1 PUSH1 0x0 MSTORE PUSH1 0x20 PUSH1 0x0 KECCAK256 ADD PUSH1 0x0 SWAP1 SLOAD SWAP1 PUSH2 0x100 EXP SWAP1 DIV PUSH20 0xFFFFFFFFFFFFFFFFFFFFFFFFFFFFFFFFFFFFFFFF AND SWAP1 POP PUSH1 0x0 PUSH1 0xB PUSH1 0x0 DUP4 PUSH20 0xFFFFFFFFFFFFFFFFFFFFFFFFFFFFFFFFFFFFFFFF AND PUSH20 0xFFFFFFFFFFFFFFFFFFFFFFFFFFFFFFFFFFFFFFFF AND DUP2 MSTORE PUSH1 0x20 ADD SWAP1 DUP2 MSTORE PUSH1 0x20 ADD PUSH1 0x0 KECCAK256 SWAP1 POP PUSH1 0x0 DUP3 PUSH20 0xFFFFFFFFFFFFFFFFFFFFFFFFFFFFFFFFFFFFFFFF AND DUP3 PUSH1 0x0 ADD SLOAD PUSH1 0x40 MLOAD PUSH2 0xB6D SWAP1 PUSH2 0x148D JUMP JUMPDEST PUSH1 0x0 PUSH1 0x40 MLOAD DUP1 DUP4 SUB DUP2 DUP6 DUP8 GAS CALL SWAP3 POP POP POP RETURNDATASIZE DUP1 PUSH1 0x0 DUP2 EQ PUSH2 0xBAA JUMPI PUSH1 0x40 MLOAD SWAP2 POP PUSH1 0x1F NOT PUSH1 0x3F RETURNDATASIZE ADD AND DUP3 ADD PUSH1 0x40 MSTORE RETURNDATASIZE DUP3 MSTORE RETURNDATASIZE PUSH1 0x0 PUSH1 0x20 DUP5 ADD RETURNDATACOPY PUSH2 0xBAF JUMP JUMPDEST PUSH1 0x60 SWAP2 POP JUMPDEST POP POP SWAP1 POP DUP1 PUSH2 0xBF3 JUMPI PUSH1 0x40 MLOAD PUSH32 0x8C379A000000000000000000000000000000000000000000000000000000000 DUP2 MSTORE PUSH1 0x4 ADD PUSH2 0xBEA SWAP1 PUSH2 0x19B0 JUMP JUMPDEST PUSH1 0x40 MLOAD DUP1 SWAP2 SUB SWAP1 REVERT JUMPDEST PUSH1 0x0 DUP3 PUSH1 0x0 ADD DUP2 SWAP1 SSTORE POP PUSH1 0x0 DUP3 PUSH1 0x1 ADD DUP2 SWAP1 SSTORE POP POP POP POP DUP1 DUP1 PUSH2 0xC15 SWAP1 PUSH2 0x19D0 JUMP JUMPDEST SWAP2 POP POP PUSH2 0xAB3 JUMP JUMPDEST POP PUSH2 0xEF1 JUMP JUMPDEST PUSH1 0x0 PUSH1 0x2 PUSH1 0x1 ADD SLOAD EQ PUSH2 0xE03 JUMPI PUSH1 0x0 JUMPDEST PUSH1 0xD SLOAD DUP2 LT ISZERO PUSH2 0xE01 JUMPI PUSH1 0x0 PUSH1 0xC DUP3 DUP2 SLOAD DUP2 LT PUSH2 0xC53 JUMPI PUSH2 0xC52 PUSH2 0x1935 JUMP JUMPDEST JUMPDEST SWAP1 PUSH1 0x0 MSTORE PUSH1 0x20 PUSH1 0x0 KECCAK256 ADD PUSH1 0x0 SWAP1 SLOAD SWAP1 PUSH2 0x100 EXP SWAP1 DIV PUSH20 0xFFFFFFFFFFFFFFFFFFFFFFFFFFFFFFFFFFFFFFFF AND SWAP1 POP PUSH1 0x0 PUSH1 0xB PUSH1 0x0 DUP4 PUSH20 0xFFFFFFFFFFFFFFFFFFFFFFFFFFFFFFFFFFFFFFFF AND PUSH20 0xFFFFFFFFFFFFFFFFFFFFFFFFFFFFFFFFFFFFFFFF AND DUP2 MSTORE PUSH1 0x20 ADD SWAP1 DUP2 MSTORE PUSH1 0x20 ADD PUSH1 0x0 KECCAK256 SWAP1 POP PUSH1 0x0 PUSH2 0x2710 DUP3 PUSH1 0x1 ADD SLOAD PUSH1 0x2 PUSH1 0x1 ADD SLOAD DUP8 PUSH2 0xCDE SWAP2 SWAP1 PUSH2 0x1801 JUMP JUMPDEST PUSH2 0xCE8 SWAP2 SWAP1 PUSH2 0x1801 JUMP JUMPDEST PUSH2 0xCF2 SWAP2 SWAP1 PUSH2 0x1872 JUMP JUMPDEST SWAP1 POP PUSH1 0x0 DUP2 GT ISZERO PUSH2 0xDAB JUMPI PUSH1 0x0 DUP4 PUSH20 0xFFFFFFFFFFFFFFFFFFFFFFFFFFFFFFFFFFFFFFFF AND DUP3 PUSH1 0x40 MLOAD PUSH2 0xD23 SWAP1 PUSH2 0x148D JUMP JUMPDEST PUSH1 0x0 PUSH1 0x40 MLOAD DUP1 DUP4 SUB DUP2 DUP6 DUP8 GAS CALL SWAP3 POP POP POP RETURNDATASIZE DUP1 PUSH1 0x0 DUP2 EQ PUSH2 0xD60 JUMPI PUSH1 0x40 MLOAD SWAP2 POP PUSH1 0x1F NOT PUSH1 0x3F RETURNDATASIZE ADD AND DUP3 ADD PUSH1 0x40 MSTORE RETURNDATASIZE DUP3 MSTORE RETURNDATASIZE PUSH1 0x0 PUSH1 0x20 DUP5 ADD RETURNDATACOPY PUSH2 0xD65 JUMP JUMPDEST PUSH1 0x60 SWAP2 POP JUMPDEST POP POP SWAP1 POP DUP1 PUSH2 0xDA9 JUMPI PUSH1 0x40 MLOAD PUSH32 0x8C379A000000000000000000000000000000000000000000000000000000000 DUP2 MSTORE PUSH1 0x4 ADD PUSH2 0xDA0 SWAP1 PUSH2 0x1A64 JUMP JUMPDEST PUSH1 0x40 MLOAD DUP1 SWAP2 SUB SWAP1 REVERT JUMPDEST POP JUMPDEST PUSH1 0x2 PUSH1 0x8 ADD PUSH1 0x1 SWAP1 SLOAD SWAP1 PUSH2 0x100 EXP SWAP1 DIV PUSH1 0xFF AND PUSH2 0xDD7 JUMPI PUSH2 0xDD6 DUP4 PUSH1 0x2 PUSH1 0x6 ADD SLOAD DUP5 PUSH1 0x0 ADD SLOAD PUSH2 0xFE3 JUMP JUMPDEST JUMPDEST PUSH1 0x0 DUP3 PUSH1 0x1 ADD DUP2 SWAP1 SSTORE POP PUSH1 0x0 DUP3 PUSH1 0x0 ADD DUP2 SWAP1 SSTORE POP POP POP POP DUP1 DUP1 PUSH2 0xDF9 SWAP1 PUSH2 0x19D0 JUMP JUMPDEST SWAP2 POP POP PUSH2 0xC33 JUMP JUMPDEST POP JUMPDEST PUSH1 0x1 PUSH1 0x2 PUSH1 0x8 ADD PUSH1 0x1 PUSH2 0x100 EXP DUP2 SLOAD DUP2 PUSH1 0xFF MUL NOT AND SWAP1 DUP4 ISZERO ISZERO MUL OR SWAP1 SSTORE POP PUSH1 0x0 PUSH1 0x1 PUSH1 0x0 SWAP1 SLOAD SWAP1 PUSH2 0x100 EXP SWAP1 DIV PUSH20 0xFFFFFFFFFFFFFFFFFFFFFFFFFFFFFFFFFFFFFFFF AND PUSH20 0xFFFFFFFFFFFFFFFFFFFFFFFFFFFFFFFFFFFFFFFF AND SELFBALANCE PUSH1 0x40 MLOAD PUSH2 0xE69 SWAP1 PUSH2 0x148D JUMP JUMPDEST PUSH1 0x0 PUSH1 0x40 MLOAD DUP1 DUP4 SUB DUP2 DUP6 DUP8 GAS CALL SWAP3 POP POP POP RETURNDATASIZE DUP1 PUSH1 0x0 DUP2 EQ PUSH2 0xEA6 JUMPI PUSH1 0x40 MLOAD SWAP2 POP PUSH1 0x1F NOT PUSH1 0x3F RETURNDATASIZE ADD AND DUP3 ADD PUSH1 0x40 MSTORE RETURNDATASIZE DUP3 MSTORE RETURNDATASIZE PUSH1 0x0 PUSH1 0x20 DUP5 ADD RETURNDATACOPY PUSH2 0xEAB JUMP JUMPDEST PUSH1 0x60 SWAP2 POP JUMPDEST POP POP SWAP1 POP DUP1 PUSH2 0xEEF JUMPI PUSH1 0x40 MLOAD PUSH32 0x8C379A000000000000000000000000000000000000000000000000000000000 DUP2 MSTORE PUSH1 0x4 ADD PUSH2 0xEE6 SWAP1 PUSH2 0x1AD0 JUMP JUMPDEST PUSH1 0x40 MLOAD DUP1 SWAP2 SUB SWAP1 REVERT JUMPDEST POP JUMPDEST POP JUMP JUMPDEST PUSH1 0x1 PUSH1 0x0 SWAP1 SLOAD SWAP1 PUSH2 0x100 EXP SWAP1 DIV PUSH20 0xFFFFFFFFFFFFFFFFFFFFFFFFFFFFFFFFFFFFFFFF AND DUP2 JUMP JUMPDEST PUSH1 0x0 PUSH1 0xB PUSH1 0x0 DUP4 PUSH20 0xFFFFFFFFFFFFFFFFFFFFFFFFFFFFFFFFFFFFFFFF AND PUSH20 0xFFFFFFFFFFFFFFFFFFFFFFFFFFFFFFFFFFFFFFFF AND DUP2 MSTORE PUSH1 0x20 ADD SWAP1 DUP2 MSTORE PUSH1 0x20 ADD PUSH1 0x0 KECCAK256 PUSH1 0x0 ADD SLOAD SUB PUSH2 0xFE0 JUMPI PUSH1 0xC DUP2 SWAP1 DUP1 PUSH1 0x1 DUP2 SLOAD ADD DUP1 DUP3 SSTORE DUP1 SWAP2 POP POP PUSH1 0x1 SWAP1 SUB SWAP1 PUSH1 0x0 MSTORE PUSH1 0x20 PUSH1 0x0 KECCAK256 ADD PUSH1 0x0 SWAP1 SWAP2 SWAP1 SWAP2 SWAP1 SWAP2 PUSH2 0x100 EXP DUP2 SLOAD DUP2 PUSH20 0xFFFFFFFFFFFFFFFFFFFFFFFFFFFFFFFFFFFFFFFF MUL NOT AND SWAP1 DUP4 PUSH20 0xFFFFFFFFFFFFFFFFFFFFFFFFFFFFFFFFFFFFFFFF AND MUL OR SWAP1 SSTORE POP PUSH1 0xD PUSH1 0x0 DUP2 SLOAD DUP1 SWAP3 SWAP2 SWAP1 PUSH2 0xFDA SWAP1 PUSH2 0x19D0 JUMP JUMPDEST SWAP2 SWAP1 POP SSTORE POP JUMPDEST POP JUMP JUMPDEST PUSH1 0x0 DUP1 SLOAD SWAP1 PUSH2 0x100 EXP SWAP1 DIV PUSH20 0xFFFFFFFFFFFFFFFFFFFFFFFFFFFFFFFFFFFFFFFF AND PUSH20 0xFFFFFFFFFFFFFFFFFFFFFFFFFFFFFFFFFFFFFFFF AND PUSH4 0x156E29F6 DUP5 DUP5 DUP5 PUSH1 0x40 MLOAD DUP5 PUSH4 0xFFFFFFFF AND PUSH1 0xE0 SHL DUP2 MSTORE PUSH1 0x4 ADD PUSH2 0x1040 SWAP4 SWAP3 SWAP2 SWAP1 PUSH2 0x1AF0 JUMP JUMPDEST PUSH1 0x0 PUSH1 0x40 MLOAD DUP1 DUP4 SUB DUP2 PUSH1 0x0 DUP8 DUP1 EXTCODESIZE ISZERO DUP1 ISZERO PUSH2 0x105A JUMPI PUSH1 0x0 DUP1 REVERT JUMPDEST POP GAS CALL ISZERO DUP1 ISZERO PUSH2 0x106E JUMPI RETURNDATASIZE PUSH1 0x0 DUP1 RETURNDATACOPY RETURNDATASIZE PUSH1 0x0 REVERT JUMPDEST POP POP POP POP POP POP POP JUMP JUMPDEST PUSH1 0x0 DUP1 REVERT JUMPDEST PUSH1 0x0 PUSH20 0xFFFFFFFFFFFFFFFFFFFFFFFFFFFFFFFFFFFFFFFF DUP3 AND SWAP1 POP SWAP2 SWAP1 POP JUMP JUMPDEST PUSH1 0x0 PUSH2 0x10A7 DUP3 PUSH2 0x107C JUMP JUMPDEST SWAP1 POP SWAP2 SWAP1 POP JUMP JUMPDEST PUSH2 0x10B7 DUP2 PUSH2 0x109C JUMP JUMPDEST DUP2 EQ PUSH2 0x10C2 JUMPI PUSH1 0x0 DUP1 REVERT JUMPDEST POP JUMP JUMPDEST PUSH1 0x0 DUP2 CALLDATALOAD SWAP1 POP PUSH2 0x10D4 DUP2 PUSH2 0x10AE JUMP JUMPDEST SWAP3 SWAP2 POP POP JUMP JUMPDEST PUSH1 0x0 PUSH1 0x20 DUP3 DUP5 SUB SLT ISZERO PUSH2 0x10F0 JUMPI PUSH2 0x10EF PUSH2 0x1077 JUMP JUMPDEST JUMPDEST PUSH1 0x0 PUSH2 0x10FE DUP5 DUP3 DUP6 ADD PUSH2 0x10C5 JUMP JUMPDEST SWAP2 POP POP SWAP3 SWAP2 POP POP JUMP JUMPDEST PUSH1 0x0 DUP2 SWAP1 POP SWAP2 SWAP1 POP JUMP JUMPDEST PUSH2 0x111A DUP2 PUSH2 0x1107 JUMP JUMPDEST DUP3 MSTORE POP POP JUMP JUMPDEST PUSH1 0x0 PUSH1 0x40 DUP3 ADD SWAP1 POP PUSH2 0x1135 PUSH1 0x0 DUP4 ADD DUP6 PUSH2 0x1111 JUMP JUMPDEST PUSH2 0x1142 PUSH1 0x20 DUP4 ADD DUP5 PUSH2 0x1111 JUMP JUMPDEST SWAP4 SWAP3 POP POP POP JUMP JUMPDEST PUSH1 0x0 PUSH1 0x20 DUP3 ADD SWAP1 POP PUSH2 0x115E PUSH1 0x0 DUP4 ADD DUP5 PUSH2 0x1111 JUMP JUMPDEST SWAP3 SWAP2 POP POP JUMP JUMPDEST PUSH1 0x0 DUP2 MLOAD SWAP1 POP SWAP2 SWAP1 POP JUMP JUMPDEST PUSH1 0x0 DUP3 DUP3 MSTORE PUSH1 0x20 DUP3 ADD SWAP1 POP SWAP3 SWAP2 POP POP JUMP JUMPDEST PUSH1 0x0 JUMPDEST DUP4 DUP2 LT ISZERO PUSH2 0x119E JUMPI DUP1 DUP3 ADD MLOAD DUP2 DUP5 ADD MSTORE PUSH1 0x20 DUP2 ADD SWAP1 POP PUSH2 0x1183 JUMP JUMPDEST PUSH1 0x0 DUP5 DUP5 ADD MSTORE POP POP POP POP JUMP JUMPDEST PUSH1 0x0 PUSH1 0x1F NOT PUSH1 0x1F DUP4 ADD AND SWAP1 POP SWAP2 SWAP1 POP JUMP JUMPDEST PUSH1 0x0 PUSH2 0x11C6 DUP3 PUSH2 0x1164 JUMP JUMPDEST PUSH2 0x11D0 DUP2 DUP6 PUSH2 0x116F JUMP JUMPDEST SWAP4 POP PUSH2 0x11E0 DUP2 DUP6 PUSH1 0x20 DUP7 ADD PUSH2 0x1180 JUMP JUMPDEST PUSH2 0x11E9 DUP2 PUSH2 0x11AA JUMP JUMPDEST DUP5 ADD SWAP2 POP POP SWAP3 SWAP2 POP POP JUMP JUMPDEST PUSH1 0x0 DUP2 ISZERO ISZERO SWAP1 POP SWAP2 SWAP1 POP JUMP JUMPDEST PUSH2 0x1209 DUP2 PUSH2 0x11F4 JUMP JUMPDEST DUP3 MSTORE POP POP JUMP JUMPDEST PUSH1 0x0 PUSH2 0x140 DUP3 ADD SWAP1 POP PUSH2 0x1225 PUSH1 0x0 DUP4 ADD DUP14 PUSH2 0x1111 JUMP JUMPDEST PUSH2 0x1232 PUSH1 0x20 DUP4 ADD DUP13 PUSH2 0x1111 JUMP JUMPDEST DUP2 DUP2 SUB PUSH1 0x40 DUP4 ADD MSTORE PUSH2 0x1244 DUP2 DUP12 PUSH2 0x11BB JUMP JUMPDEST SWAP1 POP PUSH2 0x1253 PUSH1 0x60 DUP4 ADD DUP11 PUSH2 0x1111 JUMP JUMPDEST PUSH2 0x1260 PUSH1 0x80 DUP4 ADD DUP10 PUSH2 0x1111 JUMP JUMPDEST PUSH2 0x126D PUSH1 0xA0 DUP4 ADD DUP9 PUSH2 0x1111 JUMP JUMPDEST PUSH2 0x127A PUSH1 0xC0 DUP4 ADD DUP8 PUSH2 0x1111 JUMP JUMPDEST DUP2 DUP2 SUB PUSH1 0xE0 DUP4 ADD MSTORE PUSH2 0x128C DUP2 DUP7 PUSH2 0x11BB JUMP JUMPDEST SWAP1 POP PUSH2 0x129C PUSH2 0x100 DUP4 ADD DUP6 PUSH2 0x1200 JUMP JUMPDEST PUSH2 0x12AA PUSH2 0x120 DUP4 ADD DUP5 PUSH2 0x1200 JUMP JUMPDEST SWAP12 SWAP11 POP POP POP POP POP POP POP POP POP POP POP JUMP JUMPDEST PUSH1 0x0 PUSH1 0x20 DUP3 ADD SWAP1 POP DUP2 DUP2 SUB PUSH1 0x0 DUP4 ADD MSTORE PUSH2 0x12D3 DUP2 DUP5 PUSH2 0x11BB JUMP JUMPDEST SWAP1 POP SWAP3 SWAP2 POP POP JUMP JUMPDEST PUSH2 0x12E4 DUP2 PUSH2 0x1107 JUMP JUMPDEST DUP2 EQ PUSH2 0x12EF JUMPI PUSH1 0x0 DUP1 REVERT JUMPDEST POP JUMP JUMPDEST PUSH1 0x0 DUP2 CALLDATALOAD SWAP1 POP PUSH2 0x1301 DUP2 PUSH2 0x12DB JUMP JUMPDEST SWAP3 SWAP2 POP POP JUMP JUMPDEST PUSH1 0x0 PUSH1 0x20 DUP3 DUP5 SUB SLT ISZERO PUSH2 0x131D JUMPI PUSH2 0x131C PUSH2 0x1077 JUMP JUMPDEST JUMPDEST PUSH1 0x0 PUSH2 0x132B DUP5 DUP3 DUP6 ADD PUSH2 0x12F2 JUMP JUMPDEST SWAP2 POP POP SWAP3 SWAP2 POP POP JUMP JUMPDEST PUSH2 0x133D DUP2 PUSH2 0x109C JUMP JUMPDEST DUP3 MSTORE POP POP JUMP JUMPDEST PUSH1 0x0 PUSH1 0x20 DUP3 ADD SWAP1 POP PUSH2 0x1358 PUSH1 0x0 DUP4 ADD DUP5 PUSH2 0x1334 JUMP JUMPDEST SWAP3 SWAP2 POP POP JUMP JUMPDEST PUSH32 0x4F6E6C79207468652061646D696E2063616E20706572666F726D207468697320 PUSH1 0x0 DUP3 ADD MSTORE PUSH32 0x616374696F6E2E00000000000000000000000000000000000000000000000000 PUSH1 0x20 DUP3 ADD MSTORE POP JUMP JUMPDEST PUSH1 0x0 PUSH2 0x13BA PUSH1 0x27 DUP4 PUSH2 0x116F JUMP JUMPDEST SWAP2 POP PUSH2 0x13C5 DUP3 PUSH2 0x135E JUMP JUMPDEST PUSH1 0x40 DUP3 ADD SWAP1 POP SWAP2 SWAP1 POP JUMP JUMPDEST PUSH1 0x0 PUSH1 0x20 DUP3 ADD SWAP1 POP DUP2 DUP2 SUB PUSH1 0x0 DUP4 ADD MSTORE PUSH2 0x13E9 DUP2 PUSH2 0x13AD JUMP JUMPDEST SWAP1 POP SWAP2 SWAP1 POP JUMP JUMPDEST PUSH32 0x46756E64696E6720676F616C206E6F742072656163686564207965742E000000 PUSH1 0x0 DUP3 ADD MSTORE POP JUMP JUMPDEST PUSH1 0x0 PUSH2 0x1426 PUSH1 0x1D DUP4 PUSH2 0x116F JUMP JUMPDEST SWAP2 POP PUSH2 0x1431 DUP3 PUSH2 0x13F0 JUMP JUMPDEST PUSH1 0x20 DUP3 ADD SWAP1 POP SWAP2 SWAP1 POP JUMP JUMPDEST PUSH1 0x0 PUSH1 0x20 DUP3 ADD SWAP1 POP DUP2 DUP2 SUB PUSH1 0x0 DUP4 ADD MSTORE PUSH2 0x1455 DUP2 PUSH2 0x1419 JUMP JUMPDEST SWAP1 POP SWAP2 SWAP1 POP JUMP JUMPDEST PUSH1 0x0 DUP2 SWAP1 POP SWAP3 SWAP2 POP POP JUMP JUMPDEST POP JUMP JUMPDEST PUSH1 0x0 PUSH2 0x1477 PUSH1 0x0 DUP4 PUSH2 0x145C JUMP JUMPDEST SWAP2 POP PUSH2 0x1482 DUP3 PUSH2 0x1467 JUMP JUMPDEST PUSH1 0x0 DUP3 ADD SWAP1 POP SWAP2 SWAP1 POP JUMP JUMPDEST PUSH1 0x0 PUSH2 0x1498 DUP3 PUSH2 0x146A JUMP JUMPDEST SWAP2 POP DUP2 SWAP1 POP SWAP2 SWAP1 POP JUMP JUMPDEST PUSH32 0x4661696C656420746F2073656E642062616C616E63652E000000000000000000 PUSH1 0x0 DUP3 ADD MSTORE POP JUMP JUMPDEST PUSH1 0x0 PUSH2 0x14D8 PUSH1 0x17 DUP4 PUSH2 0x116F JUMP JUMPDEST SWAP2 POP PUSH2 0x14E3 DUP3 PUSH2 0x14A2 JUMP JUMPDEST PUSH1 0x20 DUP3 ADD SWAP1 POP SWAP2 SWAP1 POP JUMP JUMPDEST PUSH1 0x0 PUSH1 0x20 DUP3 ADD SWAP1 POP DUP2 DUP2 SUB PUSH1 0x0 DUP4 ADD MSTORE PUSH2 0x1507 DUP2 PUSH2 0x14CB JUMP JUMPDEST SWAP1 POP SWAP2 SWAP1 POP JUMP JUMPDEST PUSH32 0x4E487B7100000000000000000000000000000000000000000000000000000000 PUSH1 0x0 MSTORE PUSH1 0x22 PUSH1 0x4 MSTORE PUSH1 0x24 PUSH1 0x0 REVERT JUMPDEST PUSH1 0x0 PUSH1 0x2 DUP3 DIV SWAP1 POP PUSH1 0x1 DUP3 AND DUP1 PUSH2 0x1555 JUMPI PUSH1 0x7F DUP3 AND SWAP2 POP JUMPDEST PUSH1 0x20 DUP3 LT DUP2 SUB PUSH2 0x1568 JUMPI PUSH2 0x1567 PUSH2 0x150E JUMP JUMPDEST JUMPDEST POP SWAP2 SWAP1 POP JUMP JUMPDEST PUSH32 0x46756E64696E6720616D6F756E74206D75737420626520677265617465722074 PUSH1 0x0 DUP3 ADD MSTORE PUSH32 0x68616E207A65726F2E0000000000000000000000000000000000000000000000 PUSH1 0x20 DUP3 ADD MSTORE POP JUMP JUMPDEST PUSH1 0x0 PUSH2 0x15CA PUSH1 0x29 DUP4 PUSH2 0x116F JUMP JUMPDEST SWAP2 POP PUSH2 0x15D5 DUP3 PUSH2 0x156E JUMP JUMPDEST PUSH1 0x40 DUP3 ADD SWAP1 POP SWAP2 SWAP1 POP JUMP JUMPDEST PUSH1 0x0 PUSH1 0x20 DUP3 ADD SWAP1 POP DUP2 DUP2 SUB PUSH1 0x0 DUP4 ADD MSTORE PUSH2 0x15F9 DUP2 PUSH2 0x15BD JUMP JUMPDEST SWAP1 POP SWAP2 SWAP1 POP JUMP JUMPDEST PUSH32 0x46756E64696E6720706572696F642068617320656E6465642E00000000000000 PUSH1 0x0 DUP3 ADD MSTORE POP JUMP JUMPDEST PUSH1 0x0 PUSH2 0x1636 PUSH1 0x19 DUP4 PUSH2 0x116F JUMP JUMPDEST SWAP2 POP PUSH2 0x1641 DUP3 PUSH2 0x1600 JUMP JUMPDEST PUSH1 0x20 DUP3 ADD SWAP1 POP SWAP2 SWAP1 POP JUMP JUMPDEST PUSH1 0x0 PUSH1 0x20 DUP3 ADD SWAP1 POP DUP2 DUP2 SUB PUSH1 0x0 DUP4 ADD MSTORE PUSH2 0x1665 DUP2 PUSH2 0x1629 JUMP JUMPDEST SWAP1 POP SWAP2 SWAP1 POP JUMP JUMPDEST PUSH32 0x43616D706169676E20646973747269627574696F6E206973206C6F636B65642E PUSH1 0x0 DUP3 ADD MSTORE PUSH32 0x2043616E6E6F7420616363657074206E65772066756E64732E00000000000000 PUSH1 0x20 DUP3 ADD MSTORE POP JUMP JUMPDEST PUSH1 0x0 PUSH2 0x16C8 PUSH1 0x39 DUP4 PUSH2 0x116F JUMP JUMPDEST SWAP2 POP PUSH2 0x16D3 DUP3 PUSH2 0x166C JUMP JUMPDEST PUSH1 0x40 DUP3 ADD SWAP1 POP SWAP2 SWAP1 POP JUMP JUMPDEST PUSH1 0x0 PUSH1 0x20 DUP3 ADD SWAP1 POP DUP2 DUP2 SUB PUSH1 0x0 DUP4 ADD MSTORE PUSH2 0x16F7 DUP2 PUSH2 0x16BB JUMP JUMPDEST SWAP1 POP SWAP2 SWAP1 POP JUMP JUMPDEST PUSH32 0x4E487B7100000000000000000000000000000000000000000000000000000000 PUSH1 0x0 MSTORE PUSH1 0x11 PUSH1 0x4 MSTORE PUSH1 0x24 PUSH1 0x0 REVERT JUMPDEST PUSH1 0x0 PUSH2 0x1738 DUP3 PUSH2 0x1107 JUMP JUMPDEST SWAP2 POP PUSH2 0x1743 DUP4 PUSH2 0x1107 JUMP JUMPDEST SWAP3 POP DUP3 DUP3 ADD SWAP1 POP DUP1 DUP3 GT ISZERO PUSH2 0x175B JUMPI PUSH2 0x175A PUSH2 0x16FE JUMP JUMPDEST JUMPDEST SWAP3 SWAP2 POP POP JUMP JUMPDEST PUSH1 0x0 PUSH2 0x176C DUP3 PUSH2 0x1107 JUMP JUMPDEST SWAP2 POP PUSH2 0x1777 DUP4 PUSH2 0x1107 JUMP JUMPDEST SWAP3 POP DUP3 DUP3 SUB SWAP1 POP DUP2 DUP2 GT ISZERO PUSH2 0x178F JUMPI PUSH2 0x178E PUSH2 0x16FE JUMP JUMPDEST JUMPDEST SWAP3 SWAP2 POP POP JUMP JUMPDEST PUSH32 0x4661696C656420746F2073656E6420657863656564696E6720616D6F756E742E PUSH1 0x0 DUP3 ADD MSTORE POP JUMP JUMPDEST PUSH1 0x0 PUSH2 0x17CB PUSH1 0x20 DUP4 PUSH2 0x116F JUMP JUMPDEST SWAP2 POP PUSH2 0x17D6 DUP3 PUSH2 0x1795 JUMP JUMPDEST PUSH1 0x20 DUP3 ADD SWAP1 POP SWAP2 SWAP1 POP JUMP JUMPDEST PUSH1 0x0 PUSH1 0x20 DUP3 ADD SWAP1 POP DUP2 DUP2 SUB PUSH1 0x0 DUP4 ADD MSTORE PUSH2 0x17FA DUP2 PUSH2 0x17BE JUMP JUMPDEST SWAP1 POP SWAP2 SWAP1 POP JUMP JUMPDEST PUSH1 0x0 PUSH2 0x180C DUP3 PUSH2 0x1107 JUMP JUMPDEST SWAP2 POP PUSH2 0x1817 DUP4 PUSH2 0x1107 JUMP JUMPDEST SWAP3 POP DUP3 DUP3 MUL PUSH2 0x1825 DUP2 PUSH2 0x1107 JUMP JUMPDEST SWAP2 POP DUP3 DUP3 DIV DUP5 EQ DUP4 ISZERO OR PUSH2 0x183C JUMPI PUSH2 0x183B PUSH2 0x16FE JUMP JUMPDEST JUMPDEST POP SWAP3 SWAP2 POP POP JUMP JUMPDEST PUSH32 0x4E487B7100000000000000000000000000000000000000000000000000000000 PUSH1 0x0 MSTORE PUSH1 0x12 PUSH1 0x4 MSTORE PUSH1 0x24 PUSH1 0x0 REVERT JUMPDEST PUSH1 0x0 PUSH2 0x187D DUP3 PUSH2 0x1107 JUMP JUMPDEST SWAP2 POP PUSH2 0x1888 DUP4 PUSH2 0x1107 JUMP JUMPDEST SWAP3 POP DUP3 PUSH2 0x1898 JUMPI PUSH2 0x1897 PUSH2 0x1843 JUMP JUMPDEST JUMPDEST DUP3 DUP3 DIV SWAP1 POP SWAP3 SWAP2 POP POP JUMP JUMPDEST PUSH32 0x446973747269627574696F6E206973206E6F742079657420617661696C61626C PUSH1 0x0 DUP3 ADD MSTORE PUSH32 0x652E000000000000000000000000000000000000000000000000000000000000 PUSH1 0x20 DUP3 ADD MSTORE POP JUMP JUMPDEST PUSH1 0x0 PUSH2 0x18FF PUSH1 0x22 DUP4 PUSH2 0x116F JUMP JUMPDEST SWAP2 POP PUSH2 0x190A DUP3 PUSH2 0x18A3 JUMP JUMPDEST PUSH1 0x40 DUP3 ADD SWAP1 POP SWAP2 SWAP1 POP JUMP JUMPDEST PUSH1 0x0 PUSH1 0x20 DUP3 ADD SWAP1 POP DUP2 DUP2 SUB PUSH1 0x0 DUP4 ADD MSTORE PUSH2 0x192E DUP2 PUSH2 0x18F2 JUMP JUMPDEST SWAP1 POP SWAP2 SWAP1 POP JUMP JUMPDEST PUSH32 0x4E487B7100000000000000000000000000000000000000000000000000000000 PUSH1 0x0 MSTORE PUSH1 0x32 PUSH1 0x4 MSTORE PUSH1 0x24 PUSH1 0x0 REVERT JUMPDEST PUSH32 0x4661696C656420746F2073656E6420646F6E6174656420616D6F756E742E0000 PUSH1 0x0 DUP3 ADD MSTORE POP JUMP JUMPDEST PUSH1 0x0 PUSH2 0x199A PUSH1 0x1E DUP4 PUSH2 0x116F JUMP JUMPDEST SWAP2 POP PUSH2 0x19A5 DUP3 PUSH2 0x1964 JUMP JUMPDEST PUSH1 0x20 DUP3 ADD SWAP1 POP SWAP2 SWAP1 POP JUMP JUMPDEST PUSH1 0x0 PUSH1 0x20 DUP3 ADD SWAP1 POP DUP2 DUP2 SUB PUSH1 0x0 DUP4 ADD MSTORE PUSH2 0x19C9 DUP2 PUSH2 0x198D JUMP JUMPDEST SWAP1 POP SWAP2 SWAP1 POP JUMP JUMPDEST PUSH1 0x0 PUSH2 0x19DB DUP3 PUSH2 0x1107 JUMP JUMPDEST SWAP2 POP PUSH32 0xFFFFFFFFFFFFFFFFFFFFFFFFFFFFFFFFFFFFFFFFFFFFFFFFFFFFFFFFFFFFFFFF DUP3 SUB PUSH2 0x1A0D JUMPI PUSH2 0x1A0C PUSH2 0x16FE JUMP JUMPDEST JUMPDEST PUSH1 0x1 DUP3 ADD SWAP1 POP SWAP2 SWAP1 POP JUMP JUMPDEST PUSH32 0x4661696C656420746F2073656E642066756E6465722073686172652E00000000 PUSH1 0x0 DUP3 ADD MSTORE POP JUMP JUMPDEST PUSH1 0x0 PUSH2 0x1A4E PUSH1 0x1C DUP4 PUSH2 0x116F JUMP JUMPDEST SWAP2 POP PUSH2 0x1A59 DUP3 PUSH2 0x1A18 JUMP JUMPDEST PUSH1 0x20 DUP3 ADD SWAP1 POP SWAP2 SWAP1 POP JUMP JUMPDEST PUSH1 0x0 PUSH1 0x20 DUP3 ADD SWAP1 POP DUP2 DUP2 SUB PUSH1 0x0 DUP4 ADD MSTORE PUSH2 0x1A7D DUP2 PUSH2 0x1A41 JUMP JUMPDEST SWAP1 POP SWAP2 SWAP1 POP JUMP JUMPDEST PUSH32 0x4661696C656420746F2073656E642061646D696E2073686172652E0000000000 PUSH1 0x0 DUP3 ADD MSTORE POP JUMP JUMPDEST PUSH1 0x0 PUSH2 0x1ABA PUSH1 0x1B DUP4 PUSH2 0x116F JUMP JUMPDEST SWAP2 POP PUSH2 0x1AC5 DUP3 PUSH2 0x1A84 JUMP JUMPDEST PUSH1 0x20 DUP3 ADD SWAP1 POP SWAP2 SWAP1 POP JUMP JUMPDEST PUSH1 0x0 PUSH1 0x20 DUP3 ADD SWAP1 POP DUP2 DUP2 SUB PUSH1 0x0 DUP4 ADD MSTORE PUSH2 0x1AE9 DUP2 PUSH2 0x1AAD JUMP JUMPDEST SWAP1 POP SWAP2 SWAP1 POP JUMP JUMPDEST PUSH1 0x0 PUSH1 0x60 DUP3 ADD SWAP1 POP PUSH2 0x1B05 PUSH1 0x0 DUP4 ADD DUP7 PUSH2 0x1334 JUMP JUMPDEST PUSH2 0x1B12 PUSH1 0x20 DUP4 ADD DUP6 PUSH2 0x1111 JUMP JUMPDEST PUSH2 0x1B1F PUSH1 0x40 DUP4 ADD DUP5 PUSH2 0x1111 JUMP JUMPDEST SWAP5 SWAP4 POP POP POP POP JUMP INVALID LOG2 PUSH5 0x6970667358 0x22 SLT KECCAK256 ADDMOD EXTCODESIZE BYTE PUSH3 0x52902C NOT 0xDE ORIGIN SELFBALANCE EXTCODESIZE COINBASE 0xF7 GASPRICE 0xB4 SWAP3 PUSH25 0x9385E5D03C3C2B706A79F92C495C64736F6C63430008110033 LOG2 PUSH5 0x6970667358 0x22 SLT KECCAK256 BLOCKHASH 0xE1 PUSH21 0xC451FB185CBC432BCB32B2CA4BA454F0D8433152AA COINBASE 0x24 0xB1 0x2D 0xB1 PUSH16 0xC7A164736F6C63430008110033000000 "},"methodIdentifiers":{"campaignCounter()":"fca604d7","campaigns(uint256)":"141961bc","customERC1155()":"63f812cd","getNFTAddress()":"b9618478","setupCampaign(uint256,uint256,string,uint256,uint256,string)":"a27924ab"}}}}}