{
  "_format": "hh-sol-artifact-1",
  "contractName": "CampaignFactory",
  "sourceName": "contracts/campaignsFactory.sol",
  "abi": [
    {
      "inputs": [
        {
          "internalType": "address",
          "name": "_erc1155Address",
          "type": "address"
        }
      ],
      "stateMutability": "nonpayable",
      "type": "constructor"
    },
    {
      "inputs": [],
      "name": "Factory_GoalMustBeBiggerThanZero",
      "type": "error"
    },
    {
      "inputs": [],
      "name": "Factory_PeriodError",
      "type": "error"
    },
    {
      "inputs": [],
      "name": "Factory_SharedReturnSmaller100",
      "type": "error"
    },
    {
      "inputs": [],
      "name": "campaignCounter",
      "outputs": [
        {
          "internalType": "uint256",
          "name": "",
          "type": "uint256"
        }
      ],
      "stateMutability": "view",
      "type": "function"
    },
    {
      "inputs": [
        {
          "internalType": "uint256",
          "name": "",
          "type": "uint256"
        }
      ],
      "name": "campaigns",
      "outputs": [
        {
          "internalType": "address",
          "name": "",
          "type": "address"
        }
      ],
      "stateMutability": "view",
      "type": "function"
    },
    {
      "inputs": [],
      "name": "customERC1155",
      "outputs": [
        {
          "internalType": "contract MyERC1155",
          "name": "",
          "type": "address"
        }
      ],
      "stateMutability": "view",
      "type": "function"
    },
    {
      "inputs": [],
      "name": "getNFTAddress",
      "outputs": [
        {
          "internalType": "address",
          "name": "",
          "type": "address"
        }
      ],
      "stateMutability": "view",
      "type": "function"
    },
    {
      "inputs": [
        {
          "internalType": "uint256",
          "name": "_fundingGoal",
          "type": "uint256"
        },
        {
          "internalType": "uint256",
          "name": "_sharedReturnPercentage",
          "type": "uint256"
        },
        {
          "internalType": "string",
          "name": "_campaignName",
          "type": "string"
        },
        {
          "internalType": "uint256",
          "name": "_fundingPeriodInSeconds",
          "type": "uint256"
        },
        {
          "internalType": "uint256",
          "name": "_campaignDurationInSeconds",
          "type": "uint256"
        },
        {
          "internalType": "string",
          "name": "_nftMetadataIPFSHash",
          "type": "string"
        }
      ],
      "name": "setupCampaign",
      "outputs": [],
      "stateMutability": "nonpayable",
      "type": "function"
    }
  ],
  "bytecode": "0x608060405234801561001057600080fd5b50604051612f77380380612f77833981810160405281019061003291906100dc565b80600160006101000a81548173ffffffffffffffffffffffffffffffffffffffff021916908373ffffffffffffffffffffffffffffffffffffffff16021790555050610109565b600080fd5b600073ffffffffffffffffffffffffffffffffffffffff82169050919050565b60006100a98261007e565b9050919050565b6100b98161009e565b81146100c457600080fd5b50565b6000815190506100d6816100b0565b92915050565b6000602082840312156100f2576100f1610079565b5b6000610100848285016100c7565b91505092915050565b612e5f806101186000396000f3fe60806040523480156200001157600080fd5b50600436106200005e5760003560e01c8063141961bc146200006357806363f812cd1462000099578063a27924ab14620000bb578063b961847814620000db578063fca604d714620000fd575b600080fd5b6200008160048036038101906200007b9190620004d4565b6200011f565b6040516200009091906200054b565b60405180910390f35b620000a362000152565b604051620000b29190620005d3565b60405180910390f35b620000d96004803603810190620000d3919062000752565b62000178565b005b620000e562000447565b604051620000f491906200054b565b60405180910390f35b6200010762000471565b6040516200011691906200083d565b60405180910390f35b60026020528060005260406000206000915054906101000a900473ffffffffffffffffffffffffffffffffffffffff1681565b600160009054906101000a900473ffffffffffffffffffffffffffffffffffffffff1681565b60008611620001b3576040517f24d1f8ed00000000000000000000000000000000000000000000000000000000815260040160405180910390fd5b6064851115620001ef576040517f95a88b4600000000000000000000000000000000000000000000000000000000815260040160405180910390fd5b600083118015620001ff57508282115b62000236576040517f2a02773300000000000000000000000000000000000000000000000000000000815260040160405180910390fd5b858585858560016003546200024c919062000889565b8633600160009054906101000a900473ffffffffffffffffffffffffffffffffffffffff166040516200027f9062000477565b62000293999897969594939291906200094d565b604051809103906000f080158015620002b0573d6000803e3d6000fd5b506000806101000a81548173ffffffffffffffffffffffffffffffffffffffff021916908373ffffffffffffffffffffffffffffffffffffffff160217905550600160009054906101000a900473ffffffffffffffffffffffffffffffffffffffff1673ffffffffffffffffffffffffffffffffffffffff16637048027560008054906101000a900473ffffffffffffffffffffffffffffffffffffffff166040518263ffffffff1660e01b81526004016200036d91906200054b565b600060405180830381600087803b1580156200038857600080fd5b505af11580156200039d573d6000803e3d6000fd5b5050505060008054906101000a900473ffffffffffffffffffffffffffffffffffffffff16600260006001600354620003d7919062000889565b815260200190815260200160002060006101000a81548173ffffffffffffffffffffffffffffffffffffffff021916908373ffffffffffffffffffffffffffffffffffffffff16021790555060016003600082825462000438919062000889565b92505081905550505050505050565b6000600160009054906101000a900473ffffffffffffffffffffffffffffffffffffffff16905090565b60035481565b61242f80620009fb83390190565b6000604051905090565b600080fd5b600080fd5b6000819050919050565b620004ae8162000499565b8114620004ba57600080fd5b50565b600081359050620004ce81620004a3565b92915050565b600060208284031215620004ed57620004ec6200048f565b5b6000620004fd84828501620004bd565b91505092915050565b600073ffffffffffffffffffffffffffffffffffffffff82169050919050565b6000620005338262000506565b9050919050565b620005458162000526565b82525050565b60006020820190506200056260008301846200053a565b92915050565b6000819050919050565b6000620005936200058d620005878462000506565b62000568565b62000506565b9050919050565b6000620005a78262000572565b9050919050565b6000620005bb826200059a565b9050919050565b620005cd81620005ae565b82525050565b6000602082019050620005ea6000830184620005c2565b92915050565b600080fd5b600080fd5b6000601f19601f8301169050919050565b7f4e487b7100000000000000000000000000000000000000000000000000000000600052604160045260246000fd5b6200064582620005fa565b810181811067ffffffffffffffff821117156200066757620006666200060b565b5b80604052505050565b60006200067c62000485565b90506200068a82826200063a565b919050565b600067ffffffffffffffff821115620006ad57620006ac6200060b565b5b620006b882620005fa565b9050602081019050919050565b82818337600083830152505050565b6000620006eb620006e5846200068f565b62000670565b9050828152602081018484840111156200070a5762000709620005f5565b5b62000717848285620006c5565b509392505050565b600082601f830112620007375762000736620005f0565b5b813562000749848260208601620006d4565b91505092915050565b60008060008060008060c087890312156200077257620007716200048f565b5b60006200078289828a01620004bd565b96505060206200079589828a01620004bd565b955050604087013567ffffffffffffffff811115620007b957620007b862000494565b5b620007c789828a016200071f565b9450506060620007da89828a01620004bd565b9350506080620007ed89828a01620004bd565b92505060a087013567ffffffffffffffff81111562000811576200081062000494565b5b6200081f89828a016200071f565b9150509295509295509295565b620008378162000499565b82525050565b60006020820190506200085460008301846200082c565b92915050565b7f4e487b7100000000000000000000000000000000000000000000000000000000600052601160045260246000fd5b6000620008968262000499565b9150620008a38362000499565b9250828201905080821115620008be57620008bd6200085a565b5b92915050565b600081519050919050565b600082825260208201905092915050565b60005b8381101562000900578082015181840152602081019050620008e3565b60008484015250505050565b60006200091982620008c4565b620009258185620008cf565b935062000937818560208601620008e0565b6200094281620005fa565b840191505092915050565b60006101208201905062000965600083018c6200082c565b62000974602083018b6200082c565b818103604083015262000988818a6200090c565b90506200099960608301896200082c565b620009a860808301886200082c565b620009b760a08301876200082c565b81810360c0830152620009cb81866200090c565b9050620009dc60e08301856200053a565b620009ec6101008301846200053a565b9a995050505050505050505056fe60806040523480156200001157600080fd5b506040516200242f3803806200242f833981810160405281019062000037919062000413565b81600160006101000a81548173ffffffffffffffffffffffffffffffffffffffff021916908373ffffffffffffffffffffffffffffffffffffffff1602179055506040518061014001604052808a81526020018981526020018881526020014281526020018742620000aa91906200055f565b81526020018642620000bd91906200055f565b8152602001858152602001848152602001600015158152602001600015158152506002600082015181600001556020820151816001015560408201518160020190816200010b9190620007db565b50606082015181600301556080820151816004015560a0820151816005015560c0820151816006015560e08201518160070190816200014b9190620007db565b506101008201518160080160006101000a81548160ff0219169083151502179055506101208201518160080160016101000a81548160ff021916908315150217905550905050806000806101000a81548173ffffffffffffffffffffffffffffffffffffffff021916908373ffffffffffffffffffffffffffffffffffffffff160217905550505050505050505050620008c2565b6000604051905090565b600080fd5b600080fd5b6000819050919050565b6200020981620001f4565b81146200021557600080fd5b50565b6000815190506200022981620001fe565b92915050565b600080fd5b600080fd5b6000601f19601f8301169050919050565b7f4e487b7100000000000000000000000000000000000000000000000000000000600052604160045260246000fd5b620002848262000239565b810181811067ffffffffffffffff82111715620002a657620002a56200024a565b5b80604052505050565b6000620002bb620001e0565b9050620002c9828262000279565b919050565b600067ffffffffffffffff821115620002ec57620002eb6200024a565b5b620002f78262000239565b9050602081019050919050565b60005b838110156200032457808201518184015260208101905062000307565b60008484015250505050565b6000620003476200034184620002ce565b620002af565b90508281526020810184848401111562000366576200036562000234565b5b6200037384828562000304565b509392505050565b600082601f8301126200039357620003926200022f565b5b8151620003a584826020860162000330565b91505092915050565b600073ffffffffffffffffffffffffffffffffffffffff82169050919050565b6000620003db82620003ae565b9050919050565b620003ed81620003ce565b8114620003f957600080fd5b50565b6000815190506200040d81620003e2565b92915050565b60008060008060008060008060006101208a8c031215620004395762000438620001ea565b5b6000620004498c828d0162000218565b99505060206200045c8c828d0162000218565b98505060408a015167ffffffffffffffff81111562000480576200047f620001ef565b5b6200048e8c828d016200037b565b9750506060620004a18c828d0162000218565b9650506080620004b48c828d0162000218565b95505060a0620004c78c828d0162000218565b94505060c08a015167ffffffffffffffff811115620004eb57620004ea620001ef565b5b620004f98c828d016200037b565b93505060e06200050c8c828d01620003fc565b925050610100620005208c828d01620003fc565b9150509295985092959850929598565b7f4e487b7100000000000000000000000000000000000000000000000000000000600052601160045260246000fd5b60006200056c82620001f4565b91506200057983620001f4565b925082820190508082111562000594576200059362000530565b5b92915050565b600081519050919050565b7f4e487b7100000000000000000000000000000000000000000000000000000000600052602260045260246000fd5b60006002820490506001821680620005ed57607f821691505b602082108103620006035762000602620005a5565b5b50919050565b60008190508160005260206000209050919050565b60006020601f8301049050919050565b600082821b905092915050565b6000600883026200066d7fffffffffffffffffffffffffffffffffffffffffffffffffffffffffffffffff826200062e565b6200067986836200062e565b95508019841693508086168417925050509392505050565b6000819050919050565b6000620006bc620006b6620006b084620001f4565b62000691565b620001f4565b9050919050565b6000819050919050565b620006d8836200069b565b620006f0620006e782620006c3565b8484546200063b565b825550505050565b600090565b62000707620006f8565b62000714818484620006cd565b505050565b5b818110156200073c5762000730600082620006fd565b6001810190506200071a565b5050565b601f8211156200078b57620007558162000609565b62000760846200061e565b8101602085101562000770578190505b620007886200077f856200061e565b83018262000719565b50505b505050565b600082821c905092915050565b6000620007b06000198460080262000790565b1980831691505092915050565b6000620007cb83836200079d565b9150826002028217905092915050565b620007e6826200059a565b67ffffffffffffffff8111156200080257620008016200024a565b5b6200080e8254620005d4565b6200081b82828562000740565b600060209050601f8311600181146200085357600084156200083e578287015190505b6200084a8582620007bd565b865550620008ba565b601f198416620008638662000609565b60005b828110156200088d5784890151825560018201915060208501945060208101905062000866565b86831015620008ad5784890151620008a9601f8916826200079d565b8355505b6001600288020188555050505b505050505050565b611b5d80620008d26000396000f3fe6080604052600436106100955760003560e01c80639f8743f7116100595780639f8743f714610180578063b60d4288146101ab578063d18f45e1146101b5578063e4fc6b6d146101f2578063f851a440146102095761009c565b8063031b3677146100a157806313a2e117146100df5780631439aef21461010a5780634e71d92d14610135578063811e539c1461014c5761009c565b3661009c57005b600080fd5b3480156100ad57600080fd5b506100c860048036038101906100c391906110da565b610234565b6040516100d6929190611120565b60405180910390f35b3480156100eb57600080fd5b506100f4610258565b6040516101019190611149565b60405180910390f35b34801561011657600080fd5b5061011f61025e565b60405161012c9190611149565b60405180910390f35b34801561014157600080fd5b5061014a610264565b005b34801561015857600080fd5b50610161610417565b6040516101779a9998979695949392919061120f565b60405180910390f35b34801561018c57600080fd5b50610195610583565b6040516101a291906112b9565b60405180910390f35b6101b361069e565b005b3480156101c157600080fd5b506101dc60048036038101906101d79190611307565b6109e3565b6040516101e99190611343565b60405180910390f35b3480156101fe57600080fd5b50610207610a22565b005b34801561021557600080fd5b5061021e610ef4565b60405161022b9190611343565b60405180910390f35b600b6020528060005260406000206000915090508060000154908060010154905082565b600d5481565b600e5481565b600160009054906101000a900473ffffffffffffffffffffffffffffffffffffffff1673ffffffffffffffffffffffffffffffffffffffff163373ffffffffffffffffffffffffffffffffffffffff16146102f4576040517f08c379a00000000000000000000000000000000000000000000000000000000081526004016102eb906113d0565b60405180910390fd5b6000479050600260080160009054906101000a900460ff16801561031c575060026004015442115b80156103285750600081115b610367576040517f08c379a000000000000000000000000000000000000000000000000000000000815260040161035e9061143c565b60405180910390fd5b60003373ffffffffffffffffffffffffffffffffffffffff168260405161038d9061148d565b60006040518083038185875af1925050503d80600081146103ca576040519150601f19603f3d011682016040523d82523d6000602084013e6103cf565b606091505b5050905080610413576040517f08c379a000000000000000000000000000000000000000000000000000000000815260040161040a906114ee565b60405180910390fd5b5050565b60028060000154908060010154908060020180546104349061153d565b80601f01602080910402602001604051908101604052809291908181526020018280546104609061153d565b80156104ad5780601f10610482576101008083540402835291602001916104ad565b820191906000526020600020905b81548152906001019060200180831161049057829003601f168201915b5050505050908060030154908060040154908060050154908060060154908060070180546104da9061153d565b80601f01602080910402602001604051908101604052809291908181526020018280546105069061153d565b80156105535780601f1061052857610100808354040283529160200191610553565b820191906000526020600020905b81548152906001019060200180831161053657829003601f168201915b5050505050908060080160009054906101000a900460ff16908060080160019054906101000a900460ff1690508a565b60606002600401544210156105cf576040518060400160405280600781526020017f66756e64696e6700000000000000000000000000000000000000000000000000815250905061069b565b600260050154421015610619576040518060400160405280600881526020017f636c61696d696e67000000000000000000000000000000000000000000000000815250905061069b565b6002600501544210610662576040518060400160405280600c81526020017f646973747269627574696f6e0000000000000000000000000000000000000000815250905061069b565b6040518060400160405280600881526020017f7374617274696e6700000000000000000000000000000000000000000000000081525090505b90565b600034116106e1576040517f08c379a00000000000000000000000000000000000000000000000000000000081526004016106d8906115e0565b60405180910390fd5b60026003015442101580156106fb57506002600401544211155b61073a576040517f08c379a00000000000000000000000000000000000000000000000000000000081526004016107319061164c565b60405180910390fd5b600260080160009054906101000a900460ff161561078d576040517f08c379a0000000000000000000000000000000000000000000000000000000008152600401610784906116de565b60405180910390fd5b61079633610f1a565b6000600b60003373ffffffffffffffffffffffffffffffffffffffff1673ffffffffffffffffffffffffffffffffffffffff168152602001908152602001600020600001549050600034826107eb919061172d565b905034600e60008282546107ff919061172d565b92505081905550600260000154600e541115610902576000600260000154600e5461082a9190611761565b905080826108389190611761565b915080600e600082825461084c9190611761565b9250508190555060003373ffffffffffffffffffffffffffffffffffffffff16826040516108799061148d565b60006040518083038185875af1925050503d80600081146108b6576040519150601f19603f3d011682016040523d82523d6000602084013e6108bb565b606091505b50509050806108ff576040517f08c379a00000000000000000000000000000000000000000000000000000000081526004016108f6906117e1565b60405180910390fd5b50505b60006002600001546064836109179190611801565b6109219190611872565b905081600b60003373ffffffffffffffffffffffffffffffffffffffff1673ffffffffffffffffffffffffffffffffffffffff1681526020019081526020016000206000018190555080600b60003373ffffffffffffffffffffffffffffffffffffffff1673ffffffffffffffffffffffffffffffffffffffff16815260200190815260200160002060010181905550600260000154600e54106109de576001600260080160006101000a81548160ff0219169083151502179055505b505050565b600c81815481106109f357600080fd5b906000526020600020016000915054906101000a900473ffffffffffffffffffffffffffffffffffffffff1681565b600260080160009054906101000a900460ff16158015610a46575060026004015442115b80610a55575060026005015442115b610a94576040517f08c379a0000000000000000000000000000000000000000000000000000000008152600401610a8b90611915565b60405180910390fd5b6000479050600260080160009054906101000a900460ff16610c235760005b600d54811015610c1d576000600c8281548110610ad357610ad2611935565b5b9060005260206000200160009054906101000a900473ffffffffffffffffffffffffffffffffffffffff1690506000600b60008373ffffffffffffffffffffffffffffffffffffffff1673ffffffffffffffffffffffffffffffffffffffff168152602001908152602001600020905060008273ffffffffffffffffffffffffffffffffffffffff168260000154604051610b6d9061148d565b60006040518083038185875af1925050503d8060008114610baa576040519150601f19603f3d011682016040523d82523d6000602084013e610baf565b606091505b5050905080610bf3576040517f08c379a0000000000000000000000000000000000000000000000000000000008152600401610bea906119b0565b60405180910390fd5b60008260000181905550600082600101819055505050508080610c15906119d0565b915050610ab3565b50610ef1565b600060026001015414610e035760005b600d54811015610e01576000600c8281548110610c5357610c52611935565b5b9060005260206000200160009054906101000a900473ffffffffffffffffffffffffffffffffffffffff1690506000600b60008373ffffffffffffffffffffffffffffffffffffffff1673ffffffffffffffffffffffffffffffffffffffff16815260200190815260200160002090506000612710826001015460026001015487610cde9190611801565b610ce89190611801565b610cf29190611872565b90506000811115610dab5760008373ffffffffffffffffffffffffffffffffffffffff1682604051610d239061148d565b60006040518083038185875af1925050503d8060008114610d60576040519150601f19603f3d011682016040523d82523d6000602084013e610d65565b606091505b5050905080610da9576040517f08c379a0000000000000000000000000000000000000000000000000000000008152600401610da090611a64565b60405180910390fd5b505b600260080160019054906101000a900460ff16610dd757610dd6836002600601548460000154610fe3565b5b60008260010181905550600082600001819055505050508080610df9906119d0565b915050610c33565b505b6001600260080160016101000a81548160ff0219169083151502179055506000600160009054906101000a900473ffffffffffffffffffffffffffffffffffffffff1673ffffffffffffffffffffffffffffffffffffffff1647604051610e699061148d565b60006040518083038185875af1925050503d8060008114610ea6576040519150601f19603f3d011682016040523d82523d6000602084013e610eab565b606091505b5050905080610eef576040517f08c379a0000000000000000000000000000000000000000000000000000000008152600401610ee690611ad0565b60405180910390fd5b505b50565b600160009054906101000a900473ffffffffffffffffffffffffffffffffffffffff1681565b6000600b60008373ffffffffffffffffffffffffffffffffffffffff1673ffffffffffffffffffffffffffffffffffffffff1681526020019081526020016000206000015403610fe057600c819080600181540180825580915050600190039060005260206000200160009091909190916101000a81548173ffffffffffffffffffffffffffffffffffffffff021916908373ffffffffffffffffffffffffffffffffffffffff160217905550600d6000815480929190610fda906119d0565b91905055505b50565b60008054906101000a900473ffffffffffffffffffffffffffffffffffffffff1673ffffffffffffffffffffffffffffffffffffffff1663156e29f68484846040518463ffffffff1660e01b815260040161104093929190611af0565b600060405180830381600087803b15801561105a57600080fd5b505af115801561106e573d6000803e3d6000fd5b50505050505050565b600080fd5b600073ffffffffffffffffffffffffffffffffffffffff82169050919050565b60006110a78261107c565b9050919050565b6110b78161109c565b81146110c257600080fd5b50565b6000813590506110d4816110ae565b92915050565b6000602082840312156110f0576110ef611077565b5b60006110fe848285016110c5565b91505092915050565b6000819050919050565b61111a81611107565b82525050565b60006040820190506111356000830185611111565b6111426020830184611111565b9392505050565b600060208201905061115e6000830184611111565b92915050565b600081519050919050565b600082825260208201905092915050565b60005b8381101561119e578082015181840152602081019050611183565b60008484015250505050565b6000601f19601f8301169050919050565b60006111c682611164565b6111d0818561116f565b93506111e0818560208601611180565b6111e9816111aa565b840191505092915050565b60008115159050919050565b611209816111f4565b82525050565b600061014082019050611225600083018d611111565b611232602083018c611111565b8181036040830152611244818b6111bb565b9050611253606083018a611111565b6112606080830189611111565b61126d60a0830188611111565b61127a60c0830187611111565b81810360e083015261128c81866111bb565b905061129c610100830185611200565b6112aa610120830184611200565b9b9a5050505050505050505050565b600060208201905081810360008301526112d381846111bb565b905092915050565b6112e481611107565b81146112ef57600080fd5b50565b600081359050611301816112db565b92915050565b60006020828403121561131d5761131c611077565b5b600061132b848285016112f2565b91505092915050565b61133d8161109c565b82525050565b60006020820190506113586000830184611334565b92915050565b7f4f6e6c79207468652061646d696e2063616e20706572666f726d20746869732060008201527f616374696f6e2e00000000000000000000000000000000000000000000000000602082015250565b60006113ba60278361116f565b91506113c58261135e565b604082019050919050565b600060208201905081810360008301526113e9816113ad565b9050919050565b7f46756e64696e6720676f616c206e6f742072656163686564207965742e000000600082015250565b6000611426601d8361116f565b9150611431826113f0565b602082019050919050565b6000602082019050818103600083015261145581611419565b9050919050565b600081905092915050565b50565b600061147760008361145c565b915061148282611467565b600082019050919050565b60006114988261146a565b9150819050919050565b7f4661696c656420746f2073656e642062616c616e63652e000000000000000000600082015250565b60006114d860178361116f565b91506114e3826114a2565b602082019050919050565b60006020820190508181036000830152611507816114cb565b9050919050565b7f4e487b7100000000000000000000000000000000000000000000000000000000600052602260045260246000fd5b6000600282049050600182168061155557607f821691505b6020821081036115685761156761150e565b5b50919050565b7f46756e64696e6720616d6f756e74206d7573742062652067726561746572207460008201527f68616e207a65726f2e0000000000000000000000000000000000000000000000602082015250565b60006115ca60298361116f565b91506115d58261156e565b604082019050919050565b600060208201905081810360008301526115f9816115bd565b9050919050565b7f46756e64696e6720706572696f642068617320656e6465642e00000000000000600082015250565b600061163660198361116f565b915061164182611600565b602082019050919050565b6000602082019050818103600083015261166581611629565b9050919050565b7f43616d706169676e20646973747269627574696f6e206973206c6f636b65642e60008201527f2043616e6e6f7420616363657074206e65772066756e64732e00000000000000602082015250565b60006116c860398361116f565b91506116d38261166c565b604082019050919050565b600060208201905081810360008301526116f7816116bb565b9050919050565b7f4e487b7100000000000000000000000000000000000000000000000000000000600052601160045260246000fd5b600061173882611107565b915061174383611107565b925082820190508082111561175b5761175a6116fe565b5b92915050565b600061176c82611107565b915061177783611107565b925082820390508181111561178f5761178e6116fe565b5b92915050565b7f4661696c656420746f2073656e6420657863656564696e6720616d6f756e742e600082015250565b60006117cb60208361116f565b91506117d682611795565b602082019050919050565b600060208201905081810360008301526117fa816117be565b9050919050565b600061180c82611107565b915061181783611107565b925082820261182581611107565b9150828204841483151761183c5761183b6116fe565b5b5092915050565b7f4e487b7100000000000000000000000000000000000000000000000000000000600052601260045260246000fd5b600061187d82611107565b915061188883611107565b92508261189857611897611843565b5b828204905092915050565b7f446973747269627574696f6e206973206e6f742079657420617661696c61626c60008201527f652e000000000000000000000000000000000000000000000000000000000000602082015250565b60006118ff60228361116f565b915061190a826118a3565b604082019050919050565b6000602082019050818103600083015261192e816118f2565b9050919050565b7f4e487b7100000000000000000000000000000000000000000000000000000000600052603260045260246000fd5b7f4661696c656420746f2073656e6420646f6e6174656420616d6f756e742e0000600082015250565b600061199a601e8361116f565b91506119a582611964565b602082019050919050565b600060208201905081810360008301526119c98161198d565b9050919050565b60006119db82611107565b91507fffffffffffffffffffffffffffffffffffffffffffffffffffffffffffffffff8203611a0d57611a0c6116fe565b5b600182019050919050565b7f4661696c656420746f2073656e642066756e6465722073686172652e00000000600082015250565b6000611a4e601c8361116f565b9150611a5982611a18565b602082019050919050565b60006020820190508181036000830152611a7d81611a41565b9050919050565b7f4661696c656420746f2073656e642061646d696e2073686172652e0000000000600082015250565b6000611aba601b8361116f565b9150611ac582611a84565b602082019050919050565b60006020820190508181036000830152611ae981611aad565b9050919050565b6000606082019050611b056000830186611334565b611b126020830185611111565b611b1f6040830184611111565b94935050505056fea2646970667358221220083b1a6252902c19de32473b41f73ab492789385e5d03c3c2b706a79f92c495c64736f6c63430008110033a264697066735822122040e174c451fb185cbc432bcb32b2ca4ba454f0d8433152aa4124b12db16fc7a164736f6c63430008110033",
  "linkReferences": {},
  "deployedLinkReferences": {}
}