{
  "_format": "hh-sol-artifact-1",
  "contractName": "MyERC1155",
  "sourceName": "contracts/erc1155.sol",
  "abi": [
    {
      "inputs": [
        {
          "internalType": "string",
          "name": "_uri",
          "type": "string"
        }
      ],
      "stateMutability": "nonpayable",
      "type": "constructor"
    },
    {
      "anonymous": false,
      "inputs": [
        {
          "indexed": true,
          "internalType": "address",
          "name": "account",
          "type": "address"
        },
        {
          "indexed": true,
          "internalType": "address",
          "name": "operator",
          "type": "address"
        },
        {
          "indexed": false,
          "internalType": "bool",
          "name": "approved",
          "type": "bool"
        }
      ],
      "name": "ApprovalForAll",
      "type": "event"
    },
    {
      "anonymous": false,
      "inputs": [
        {
          "indexed": true,
          "internalType": "address",
          "name": "operator",
          "type": "address"
        },
        {
          "indexed": true,
          "internalType": "address",
          "name": "from",
          "type": "address"
        },
        {
          "indexed": true,
          "internalType": "address",
          "name": "to",
          "type": "address"
        },
        {
          "indexed": false,
          "internalType": "uint256[]",
          "name": "ids",
          "type": "uint256[]"
        },
        {
          "indexed": false,
          "internalType": "uint256[]",
          "name": "values",
          "type": "uint256[]"
        }
      ],
      "name": "TransferBatch",
      "type": "event"
    },
    {
      "anonymous": false,
      "inputs": [
        {
          "indexed": true,
          "internalType": "address",
          "name": "operator",
          "type": "address"
        },
        {
          "indexed": true,
          "internalType": "address",
          "name": "from",
          "type": "address"
        },
        {
          "indexed": true,
          "internalType": "address",
          "name": "to",
          "type": "address"
        },
        {
          "indexed": false,
          "internalType": "uint256",
          "name": "id",
          "type": "uint256"
        },
        {
          "indexed": false,
          "internalType": "uint256",
          "name": "value",
          "type": "uint256"
        }
      ],
      "name": "TransferSingle",
      "type": "event"
    },
    {
      "anonymous": false,
      "inputs": [
        {
          "indexed": false,
          "internalType": "string",
          "name": "value",
          "type": "string"
        },
        {
          "indexed": true,
          "internalType": "uint256",
          "name": "id",
          "type": "uint256"
        }
      ],
      "name": "URI",
      "type": "event"
    },
    {
      "inputs": [
        {
          "internalType": "address",
          "name": "adminAddress",
          "type": "address"
        }
      ],
      "name": "addAdmin",
      "outputs": [],
      "stateMutability": "nonpayable",
      "type": "function"
    },
    {
      "inputs": [
        {
          "internalType": "address",
          "name": "account",
          "type": "address"
        },
        {
          "internalType": "uint256",
          "name": "id",
          "type": "uint256"
        }
      ],
      "name": "balanceOf",
      "outputs": [
        {
          "internalType": "uint256",
          "name": "",
          "type": "uint256"
        }
      ],
      "stateMutability": "view",
      "type": "function"
    },
    {
      "inputs": [
        {
          "internalType": "address[]",
          "name": "accounts",
          "type": "address[]"
        },
        {
          "internalType": "uint256[]",
          "name": "ids",
          "type": "uint256[]"
        }
      ],
      "name": "balanceOfBatch",
      "outputs": [
        {
          "internalType": "uint256[]",
          "name": "",
          "type": "uint256[]"
        }
      ],
      "stateMutability": "view",
      "type": "function"
    },
    {
      "inputs": [
        {
          "internalType": "address",
          "name": "account",
          "type": "address"
        },
        {
          "internalType": "address",
          "name": "operator",
          "type": "address"
        }
      ],
      "name": "isApprovedForAll",
      "outputs": [
        {
          "internalType": "bool",
          "name": "",
          "type": "bool"
        }
      ],
      "stateMutability": "view",
      "type": "function"
    },
    {
      "inputs": [
        {
          "internalType": "address",
          "name": "account",
          "type": "address"
        },
        {
          "internalType": "uint256",
          "name": "tokenId",
          "type": "uint256"
        },
        {
          "internalType": "uint256",
          "name": "units",
          "type": "uint256"
        }
      ],
      "name": "mint",
      "outputs": [],
      "stateMutability": "nonpayable",
      "type": "function"
    },
    {
      "inputs": [
        {
          "internalType": "address",
          "name": "from",
          "type": "address"
        },
        {
          "internalType": "address",
          "name": "to",
          "type": "address"
        },
        {
          "internalType": "uint256[]",
          "name": "ids",
          "type": "uint256[]"
        },
        {
          "internalType": "uint256[]",
          "name": "amounts",
          "type": "uint256[]"
        },
        {
          "internalType": "bytes",
          "name": "data",
          "type": "bytes"
        }
      ],
      "name": "safeBatchTransferFrom",
      "outputs": [],
      "stateMutability": "nonpayable",
      "type": "function"
    },
    {
      "inputs": [
        {
          "internalType": "address",
          "name": "from",
          "type": "address"
        },
        {
          "internalType": "address",
          "name": "to",
          "type": "address"
        },
        {
          "internalType": "uint256",
          "name": "tokenId",
          "type": "uint256"
        },
        {
          "internalType": "uint256",
          "name": "amount",
          "type": "uint256"
        },
        {
          "internalType": "bytes",
          "name": "data",
          "type": "bytes"
        }
      ],
      "name": "safeTransferFrom",
      "outputs": [],
      "stateMutability": "nonpayable",
      "type": "function"
    },
    {
      "inputs": [
        {
          "internalType": "address",
          "name": "operator",
          "type": "address"
        },
        {
          "internalType": "bool",
          "name": "approved",
          "type": "bool"
        }
      ],
      "name": "setApprovalForAll",
      "outputs": [],
      "stateMutability": "nonpayable",
      "type": "function"
    },
    {
      "inputs": [
        {
          "internalType": "bytes4",
          "name": "interfaceId",
          "type": "bytes4"
        }
      ],
      "name": "supportsInterface",
      "outputs": [
        {
          "internalType": "bool",
          "name": "",
          "type": "bool"
        }
      ],
      "stateMutability": "view",
      "type": "function"
    },
    {
      "inputs": [
        {
          "internalType": "address",
          "name": "account",
          "type": "address"
        },
        {
          "internalType": "uint256",
          "name": "tokenId",
          "type": "uint256"
        }
      ],
      "name": "unitsOf",
      "outputs": [
        {
          "internalType": "uint256",
          "name": "",
          "type": "uint256"
        }
      ],
      "stateMutability": "view",
      "type": "function"
    },
    {
      "inputs": [
        {
          "internalType": "uint256",
          "name": "",
          "type": "uint256"
        }
      ],
      "name": "uri",
      "outputs": [
        {
          "internalType": "string",
          "name": "",
          "type": "string"
        }
      ],
      "stateMutability": "view",
      "type": "function"
    }
  ],
  "bytecode": "0x60806040523480156200001157600080fd5b506040516200328838038062003288833981810160405281019062000037919062000251565b806200004981620000a960201b60201c565b506001600460003373ffffffffffffffffffffffffffffffffffffffff1673ffffffffffffffffffffffffffffffffffffffff16815260200190815260200160002060006101000a81548160ff02191690831515021790555050620005d4565b8060029081620000ba9190620004ed565b5050565b6000604051905090565b600080fd5b600080fd5b600080fd5b600080fd5b6000601f19601f8301169050919050565b7f4e487b7100000000000000000000000000000000000000000000000000000000600052604160045260246000fd5b6200012782620000dc565b810181811067ffffffffffffffff82111715620001495762000148620000ed565b5b80604052505050565b60006200015e620000be565b90506200016c82826200011c565b919050565b600067ffffffffffffffff8211156200018f576200018e620000ed565b5b6200019a82620000dc565b9050602081019050919050565b60005b83811015620001c7578082015181840152602081019050620001aa565b60008484015250505050565b6000620001ea620001e48462000171565b62000152565b905082815260208101848484011115620002095762000208620000d7565b5b62000216848285620001a7565b509392505050565b600082601f830112620002365762000235620000d2565b5b815162000248848260208601620001d3565b91505092915050565b6000602082840312156200026a5762000269620000c8565b5b600082015167ffffffffffffffff8111156200028b576200028a620000cd565b5b62000299848285016200021e565b91505092915050565b600081519050919050565b7f4e487b7100000000000000000000000000000000000000000000000000000000600052602260045260246000fd5b60006002820490506001821680620002f557607f821691505b6020821081036200030b576200030a620002ad565b5b50919050565b60008190508160005260206000209050919050565b60006020601f8301049050919050565b600082821b905092915050565b600060088302620003757fffffffffffffffffffffffffffffffffffffffffffffffffffffffffffffffff8262000336565b62000381868362000336565b95508019841693508086168417925050509392505050565b6000819050919050565b6000819050919050565b6000620003ce620003c8620003c28462000399565b620003a3565b62000399565b9050919050565b6000819050919050565b620003ea83620003ad565b62000402620003f982620003d5565b84845462000343565b825550505050565b600090565b620004196200040a565b62000426818484620003df565b505050565b5b818110156200044e57620004426000826200040f565b6001810190506200042c565b5050565b601f8211156200049d57620004678162000311565b620004728462000326565b8101602085101562000482578190505b6200049a620004918562000326565b8301826200042b565b50505b505050565b600082821c905092915050565b6000620004c260001984600802620004a2565b1980831691505092915050565b6000620004dd8383620004af565b9150826002028217905092915050565b620004f882620002a2565b67ffffffffffffffff811115620005145762000513620000ed565b5b620005208254620002dc565b6200052d82828562000452565b600060209050601f83116001811462000565576000841562000550578287015190505b6200055c8582620004cf565b865550620005cc565b601f198416620005758662000311565b60005b828110156200059f5784890151825560018201915060208501945060208101905062000578565b86831015620005bf5784890151620005bb601f891682620004af565b8355505b6001600288020188555050505b505050505050565b612ca480620005e46000396000f3fe608060405234801561001057600080fd5b50600436106100a85760003560e01c80632eb2c2d6116100715780632eb2c2d6146101895780634e1273f4146101a557806370480275146101d5578063a22cb465146101f1578063e985e9c51461020d578063f242432a1461023d576100a8565b8062fdd58e146100ad57806301ffc9a7146100dd5780630e89341c1461010d578063156e29f61461013d5780631a2e982414610159575b600080fd5b6100c760048036038101906100c29190611985565b610259565b6040516100d491906119d4565b60405180910390f35b6100f760048036038101906100f29190611a47565b610321565b6040516101049190611a8f565b60405180910390f35b61012760048036038101906101229190611aaa565b610403565b6040516101349190611b67565b60405180910390f35b61015760048036038101906101529190611b89565b610497565b005b610173600480360381019061016e9190611985565b6105b2565b60405161018091906119d4565b60405180910390f35b6101a3600480360381019061019e9190611dd9565b61060d565b005b6101bf60048036038101906101ba9190611f6b565b6106ae565b6040516101cc91906120a1565b60405180910390f35b6101ef60048036038101906101ea91906120c3565b6107c7565b005b61020b6004803603810190610206919061211c565b6108b5565b005b6102276004803603810190610222919061215c565b6108cb565b6040516102349190611a8f565b60405180910390f35b6102576004803603810190610252919061219c565b61095f565b005b60008073ffffffffffffffffffffffffffffffffffffffff168373ffffffffffffffffffffffffffffffffffffffff16036102c9576040517f08c379a00000000000000000000000000000000000000000000000000000000081526004016102c0906122a5565b60405180910390fd5b60008083815260200190815260200160002060008473ffffffffffffffffffffffffffffffffffffffff1673ffffffffffffffffffffffffffffffffffffffff16815260200190815260200160002054905092915050565b60007fd9b67a26000000000000000000000000000000000000000000000000000000007bffffffffffffffffffffffffffffffffffffffffffffffffffffffff1916827bffffffffffffffffffffffffffffffffffffffffffffffffffffffff191614806103ec57507f0e89341c000000000000000000000000000000000000000000000000000000007bffffffffffffffffffffffffffffffffffffffffffffffffffffffff1916827bffffffffffffffffffffffffffffffffffffffffffffffffffffffff1916145b806103fc57506103fb82610a97565b5b9050919050565b606060028054610412906122f4565b80601f016020809104026020016040519081016040528092919081815260200182805461043e906122f4565b801561048b5780601f106104605761010080835404028352916020019161048b565b820191906000526020600020905b81548152906001019060200180831161046e57829003601f168201915b50505050509050919050565b60011515600460003373ffffffffffffffffffffffffffffffffffffffff1673ffffffffffffffffffffffffffffffffffffffff16815260200190815260200160002060009054906101000a900460ff1615151461052a576040517f08c379a000000000000000000000000000000000000000000000000000000000815260040161052190612397565b60405180910390fd5b6105468383600160405180602001604052806000815250610b01565b806003600084815260200190815260200160002060008573ffffffffffffffffffffffffffffffffffffffff1673ffffffffffffffffffffffffffffffffffffffff16815260200190815260200160002060008282546105a691906123e6565b92505081905550505050565b60006003600083815260200190815260200160002060008473ffffffffffffffffffffffffffffffffffffffff1673ffffffffffffffffffffffffffffffffffffffff16815260200190815260200160002054905092915050565b610615610cb1565b73ffffffffffffffffffffffffffffffffffffffff168573ffffffffffffffffffffffffffffffffffffffff16148061065b575061065a85610655610cb1565b6108cb565b5b61069a576040517f08c379a00000000000000000000000000000000000000000000000000000000081526004016106919061248c565b60405180910390fd5b6106a78585858585610cb9565b5050505050565b606081518351146106f4576040517f08c379a00000000000000000000000000000000000000000000000000000000081526004016106eb9061251e565b60405180910390fd5b6000835167ffffffffffffffff81111561071157610710611be1565b5b60405190808252806020026020018201604052801561073f5781602001602082028036833780820191505090505b50905060005b84518110156107bc5761078c8582815181106107645761076361253e565b5b602002602001015185838151811061077f5761077e61253e565b5b6020026020010151610259565b82828151811061079f5761079e61253e565b5b602002602001018181525050806107b59061256d565b9050610745565b508091505092915050565b60011515600460003373ffffffffffffffffffffffffffffffffffffffff1673ffffffffffffffffffffffffffffffffffffffff16815260200190815260200160002060009054906101000a900460ff1615151461085a576040517f08c379a000000000000000000000000000000000000000000000000000000000815260040161085190612397565b60405180910390fd5b6001600460008373ffffffffffffffffffffffffffffffffffffffff1673ffffffffffffffffffffffffffffffffffffffff16815260200190815260200160002060006101000a81548160ff02191690831515021790555050565b6108c76108c0610cb1565b8383610fda565b5050565b6000600160008473ffffffffffffffffffffffffffffffffffffffff1673ffffffffffffffffffffffffffffffffffffffff16815260200190815260200160002060008373ffffffffffffffffffffffffffffffffffffffff1673ffffffffffffffffffffffffffffffffffffffff16815260200190815260200160002060009054906101000a900460ff16905092915050565b61096c8585858585611146565b60006003600085815260200190815260200160002060008773ffffffffffffffffffffffffffffffffffffffff1673ffffffffffffffffffffffffffffffffffffffff168152602001908152602001600020549050806003600086815260200190815260200160002060008873ffffffffffffffffffffffffffffffffffffffff1673ffffffffffffffffffffffffffffffffffffffff1681526020019081526020016000206000828254610a2191906125b5565b92505081905550806003600086815260200190815260200160002060008773ffffffffffffffffffffffffffffffffffffffff1673ffffffffffffffffffffffffffffffffffffffff1681526020019081526020016000206000828254610a8891906123e6565b92505081905550505050505050565b60007f01ffc9a7000000000000000000000000000000000000000000000000000000007bffffffffffffffffffffffffffffffffffffffffffffffffffffffff1916827bffffffffffffffffffffffffffffffffffffffffffffffffffffffff1916149050919050565b600073ffffffffffffffffffffffffffffffffffffffff168473ffffffffffffffffffffffffffffffffffffffff1603610b70576040517f08c379a0000000000000000000000000000000000000000000000000000000008152600401610b679061265b565b60405180910390fd5b6000610b7a610cb1565b90506000610b87856111e7565b90506000610b94856111e7565b9050610ba583600089858589611261565b8460008088815260200190815260200160002060008973ffffffffffffffffffffffffffffffffffffffff1673ffffffffffffffffffffffffffffffffffffffff1681526020019081526020016000206000828254610c0491906123e6565b925050819055508673ffffffffffffffffffffffffffffffffffffffff16600073ffffffffffffffffffffffffffffffffffffffff168473ffffffffffffffffffffffffffffffffffffffff167fc3d58168c5ae7397731d063d5bbf3d657854427343f4c083240f7aacaa2d0f628989604051610c8292919061267b565b60405180910390a4610c9983600089858589611269565b610ca883600089898989611271565b50505050505050565b600033905090565b8151835114610cfd576040517f08c379a0000000000000000000000000000000000000000000000000000000008152600401610cf490612716565b60405180910390fd5b600073ffffffffffffffffffffffffffffffffffffffff168473ffffffffffffffffffffffffffffffffffffffff1603610d6c576040517f08c379a0000000000000000000000000000000000000000000000000000000008152600401610d63906127a8565b60405180910390fd5b6000610d76610cb1565b9050610d86818787878787611261565b60005b8451811015610f37576000858281518110610da757610da661253e565b5b602002602001015190506000858381518110610dc657610dc561253e565b5b60200260200101519050600080600084815260200190815260200160002060008b73ffffffffffffffffffffffffffffffffffffffff1673ffffffffffffffffffffffffffffffffffffffff16815260200190815260200160002054905081811015610e67576040517f08c379a0000000000000000000000000000000000000000000000000000000008152600401610e5e9061283a565b60405180910390fd5b81810360008085815260200190815260200160002060008c73ffffffffffffffffffffffffffffffffffffffff1673ffffffffffffffffffffffffffffffffffffffff168152602001908152602001600020819055508160008085815260200190815260200160002060008b73ffffffffffffffffffffffffffffffffffffffff1673ffffffffffffffffffffffffffffffffffffffff1681526020019081526020016000206000828254610f1c91906123e6565b9250508190555050505080610f309061256d565b9050610d89565b508473ffffffffffffffffffffffffffffffffffffffff168673ffffffffffffffffffffffffffffffffffffffff168273ffffffffffffffffffffffffffffffffffffffff167f4a39dc06d4c0dbc64b70af90fd698a233a518aa5d07e595d983b8c0526c8f7fb8787604051610fae92919061285a565b60405180910390a4610fc4818787878787611269565b610fd2818787878787611448565b505050505050565b8173ffffffffffffffffffffffffffffffffffffffff168373ffffffffffffffffffffffffffffffffffffffff1603611048576040517f08c379a000000000000000000000000000000000000000000000000000000000815260040161103f90612903565b60405180910390fd5b80600160008573ffffffffffffffffffffffffffffffffffffffff1673ffffffffffffffffffffffffffffffffffffffff16815260200190815260200160002060008473ffffffffffffffffffffffffffffffffffffffff1673ffffffffffffffffffffffffffffffffffffffff16815260200190815260200160002060006101000a81548160ff0219169083151502179055508173ffffffffffffffffffffffffffffffffffffffff168373ffffffffffffffffffffffffffffffffffffffff167f17307eab39ab6107e8899845ad3d59bd9653f200f220920489ca2b5937696c31836040516111399190611a8f565b60405180910390a3505050565b61114e610cb1565b73ffffffffffffffffffffffffffffffffffffffff168573ffffffffffffffffffffffffffffffffffffffff16148061119457506111938561118e610cb1565b6108cb565b5b6111d3576040517f08c379a00000000000000000000000000000000000000000000000000000000081526004016111ca9061248c565b60405180910390fd5b6111e0858585858561161f565b5050505050565b60606000600167ffffffffffffffff81111561120657611205611be1565b5b6040519080825280602002602001820160405280156112345781602001602082028036833780820191505090505b509050828160008151811061124c5761124b61253e565b5b60200260200101818152505080915050919050565b505050505050565b505050505050565b6112908473ffffffffffffffffffffffffffffffffffffffff166118ba565b15611440578373ffffffffffffffffffffffffffffffffffffffff1663f23a6e6187878686866040518663ffffffff1660e01b81526004016112d6959493929190612987565b6020604051808303816000875af192505050801561131257506040513d601f19601f8201168201806040525081019061130f91906129f6565b60015b6113b75761131e612a30565b806308c379a00361137a5750611332612a52565b8061133d575061137c565b806040517f08c379a00000000000000000000000000000000000000000000000000000000081526004016113719190611b67565b60405180910390fd5b505b6040517f08c379a00000000000000000000000000000000000000000000000000000000081526004016113ae90612b54565b60405180910390fd5b63f23a6e6160e01b7bffffffffffffffffffffffffffffffffffffffffffffffffffffffff1916817bffffffffffffffffffffffffffffffffffffffffffffffffffffffff19161461143e576040517f08c379a000000000000000000000000000000000000000000000000000000000815260040161143590612be6565b60405180910390fd5b505b505050505050565b6114678473ffffffffffffffffffffffffffffffffffffffff166118ba565b15611617578373ffffffffffffffffffffffffffffffffffffffff1663bc197c8187878686866040518663ffffffff1660e01b81526004016114ad959493929190612c06565b6020604051808303816000875af19250505080156114e957506040513d601f19601f820116820180604052508101906114e691906129f6565b60015b61158e576114f5612a30565b806308c379a0036115515750611509612a52565b806115145750611553565b806040517f08c379a00000000000000000000000000000000000000000000000000000000081526004016115489190611b67565b60405180910390fd5b505b6040517f08c379a000000000000000000000000000000000000000000000000000000000815260040161158590612b54565b60405180910390fd5b63bc197c8160e01b7bffffffffffffffffffffffffffffffffffffffffffffffffffffffff1916817bffffffffffffffffffffffffffffffffffffffffffffffffffffffff191614611615576040517f08c379a000000000000000000000000000000000000000000000000000000000815260040161160c90612be6565b60405180910390fd5b505b505050505050565b600073ffffffffffffffffffffffffffffffffffffffff168473ffffffffffffffffffffffffffffffffffffffff160361168e576040517f08c379a0000000000000000000000000000000000000000000000000000000008152600401611685906127a8565b60405180910390fd5b6000611698610cb1565b905060006116a5856111e7565b905060006116b2856111e7565b90506116c2838989858589611261565b600080600088815260200190815260200160002060008a73ffffffffffffffffffffffffffffffffffffffff1673ffffffffffffffffffffffffffffffffffffffff16815260200190815260200160002054905085811015611759576040517f08c379a00000000000000000000000000000000000000000000000000000000081526004016117509061283a565b60405180910390fd5b85810360008089815260200190815260200160002060008b73ffffffffffffffffffffffffffffffffffffffff1673ffffffffffffffffffffffffffffffffffffffff168152602001908152602001600020819055508560008089815260200190815260200160002060008a73ffffffffffffffffffffffffffffffffffffffff1673ffffffffffffffffffffffffffffffffffffffff168152602001908152602001600020600082825461180e91906123e6565b925050819055508773ffffffffffffffffffffffffffffffffffffffff168973ffffffffffffffffffffffffffffffffffffffff168573ffffffffffffffffffffffffffffffffffffffff167fc3d58168c5ae7397731d063d5bbf3d657854427343f4c083240f7aacaa2d0f628a8a60405161188b92919061267b565b60405180910390a46118a1848a8a86868a611269565b6118af848a8a8a8a8a611271565b505050505050505050565b6000808273ffffffffffffffffffffffffffffffffffffffff163b119050919050565b6000604051905090565b600080fd5b600080fd5b600073ffffffffffffffffffffffffffffffffffffffff82169050919050565b600061191c826118f1565b9050919050565b61192c81611911565b811461193757600080fd5b50565b60008135905061194981611923565b92915050565b6000819050919050565b6119628161194f565b811461196d57600080fd5b50565b60008135905061197f81611959565b92915050565b6000806040838503121561199c5761199b6118e7565b5b60006119aa8582860161193a565b92505060206119bb85828601611970565b9150509250929050565b6119ce8161194f565b82525050565b60006020820190506119e960008301846119c5565b92915050565b60007fffffffff0000000000000000000000000000000000000000000000000000000082169050919050565b611a24816119ef565b8114611a2f57600080fd5b50565b600081359050611a4181611a1b565b92915050565b600060208284031215611a5d57611a5c6118e7565b5b6000611a6b84828501611a32565b91505092915050565b60008115159050919050565b611a8981611a74565b82525050565b6000602082019050611aa46000830184611a80565b92915050565b600060208284031215611ac057611abf6118e7565b5b6000611ace84828501611970565b91505092915050565b600081519050919050565b600082825260208201905092915050565b60005b83811015611b11578082015181840152602081019050611af6565b60008484015250505050565b6000601f19601f8301169050919050565b6000611b3982611ad7565b611b438185611ae2565b9350611b53818560208601611af3565b611b5c81611b1d565b840191505092915050565b60006020820190508181036000830152611b818184611b2e565b905092915050565b600080600060608486031215611ba257611ba16118e7565b5b6000611bb08682870161193a565b9350506020611bc186828701611970565b9250506040611bd286828701611970565b9150509250925092565b600080fd5b7f4e487b7100000000000000000000000000000000000000000000000000000000600052604160045260246000fd5b611c1982611b1d565b810181811067ffffffffffffffff82111715611c3857611c37611be1565b5b80604052505050565b6000611c4b6118dd565b9050611c578282611c10565b919050565b600067ffffffffffffffff821115611c7757611c76611be1565b5b602082029050602081019050919050565b600080fd5b6000611ca0611c9b84611c5c565b611c41565b90508083825260208201905060208402830185811115611cc357611cc2611c88565b5b835b81811015611cec5780611cd88882611970565b845260208401935050602081019050611cc5565b5050509392505050565b600082601f830112611d0b57611d0a611bdc565b5b8135611d1b848260208601611c8d565b91505092915050565b600080fd5b600067ffffffffffffffff821115611d4457611d43611be1565b5b611d4d82611b1d565b9050602081019050919050565b82818337600083830152505050565b6000611d7c611d7784611d29565b611c41565b905082815260208101848484011115611d9857611d97611d24565b5b611da3848285611d5a565b509392505050565b600082601f830112611dc057611dbf611bdc565b5b8135611dd0848260208601611d69565b91505092915050565b600080600080600060a08688031215611df557611df46118e7565b5b6000611e038882890161193a565b9550506020611e148882890161193a565b945050604086013567ffffffffffffffff811115611e3557611e346118ec565b5b611e4188828901611cf6565b935050606086013567ffffffffffffffff811115611e6257611e616118ec565b5b611e6e88828901611cf6565b925050608086013567ffffffffffffffff811115611e8f57611e8e6118ec565b5b611e9b88828901611dab565b9150509295509295909350565b600067ffffffffffffffff821115611ec357611ec2611be1565b5b602082029050602081019050919050565b6000611ee7611ee284611ea8565b611c41565b90508083825260208201905060208402830185811115611f0a57611f09611c88565b5b835b81811015611f335780611f1f888261193a565b845260208401935050602081019050611f0c565b5050509392505050565b600082601f830112611f5257611f51611bdc565b5b8135611f62848260208601611ed4565b91505092915050565b60008060408385031215611f8257611f816118e7565b5b600083013567ffffffffffffffff811115611fa057611f9f6118ec565b5b611fac85828601611f3d565b925050602083013567ffffffffffffffff811115611fcd57611fcc6118ec565b5b611fd985828601611cf6565b9150509250929050565b600081519050919050565b600082825260208201905092915050565b6000819050602082019050919050565b6120188161194f565b82525050565b600061202a838361200f565b60208301905092915050565b6000602082019050919050565b600061204e82611fe3565b6120588185611fee565b935061206383611fff565b8060005b8381101561209457815161207b888261201e565b975061208683612036565b925050600181019050612067565b5085935050505092915050565b600060208201905081810360008301526120bb8184612043565b905092915050565b6000602082840312156120d9576120d86118e7565b5b60006120e78482850161193a565b91505092915050565b6120f981611a74565b811461210457600080fd5b50565b600081359050612116816120f0565b92915050565b60008060408385031215612133576121326118e7565b5b60006121418582860161193a565b925050602061215285828601612107565b9150509250929050565b60008060408385031215612173576121726118e7565b5b60006121818582860161193a565b92505060206121928582860161193a565b9150509250929050565b600080600080600060a086880312156121b8576121b76118e7565b5b60006121c68882890161193a565b95505060206121d78882890161193a565b94505060406121e888828901611970565b93505060606121f988828901611970565b925050608086013567ffffffffffffffff81111561221a576122196118ec565b5b61222688828901611dab565b9150509295509295909350565b7f455243313135353a2061646472657373207a65726f206973206e6f742061207660008201527f616c6964206f776e657200000000000000000000000000000000000000000000602082015250565b600061228f602a83611ae2565b915061229a82612233565b604082019050919050565b600060208201905081810360008301526122be81612282565b9050919050565b7f4e487b7100000000000000000000000000000000000000000000000000000000600052602260045260246000fd5b6000600282049050600182168061230c57607f821691505b60208210810361231f5761231e6122c5565b5b50919050565b7f4f6e6c792061646d696e2063616e20706572666f726d2074686973206163746960008201527f6f6e2e0000000000000000000000000000000000000000000000000000000000602082015250565b6000612381602383611ae2565b915061238c82612325565b604082019050919050565b600060208201905081810360008301526123b081612374565b9050919050565b7f4e487b7100000000000000000000000000000000000000000000000000000000600052601160045260246000fd5b60006123f18261194f565b91506123fc8361194f565b9250828201905080821115612414576124136123b7565b5b92915050565b7f455243313135353a2063616c6c6572206973206e6f7420746f6b656e206f776e60008201527f6572206f7220617070726f766564000000000000000000000000000000000000602082015250565b6000612476602e83611ae2565b91506124818261241a565b604082019050919050565b600060208201905081810360008301526124a581612469565b9050919050565b7f455243313135353a206163636f756e747320616e6420696473206c656e67746860008201527f206d69736d617463680000000000000000000000000000000000000000000000602082015250565b6000612508602983611ae2565b9150612513826124ac565b604082019050919050565b60006020820190508181036000830152612537816124fb565b9050919050565b7f4e487b7100000000000000000000000000000000000000000000000000000000600052603260045260246000fd5b60006125788261194f565b91507fffffffffffffffffffffffffffffffffffffffffffffffffffffffffffffffff82036125aa576125a96123b7565b5b600182019050919050565b60006125c08261194f565b91506125cb8361194f565b92508282039050818111156125e3576125e26123b7565b5b92915050565b7f455243313135353a206d696e7420746f20746865207a65726f2061646472657360008201527f7300000000000000000000000000000000000000000000000000000000000000602082015250565b6000612645602183611ae2565b9150612650826125e9565b604082019050919050565b6000602082019050818103600083015261267481612638565b9050919050565b600060408201905061269060008301856119c5565b61269d60208301846119c5565b9392505050565b7f455243313135353a2069647320616e6420616d6f756e7473206c656e6774682060008201527f6d69736d61746368000000000000000000000000000000000000000000000000602082015250565b6000612700602883611ae2565b915061270b826126a4565b604082019050919050565b6000602082019050818103600083015261272f816126f3565b9050919050565b7f455243313135353a207472616e7366657220746f20746865207a65726f20616460008201527f6472657373000000000000000000000000000000000000000000000000000000602082015250565b6000612792602583611ae2565b915061279d82612736565b604082019050919050565b600060208201905081810360008301526127c181612785565b9050919050565b7f455243313135353a20696e73756666696369656e742062616c616e636520666f60008201527f72207472616e7366657200000000000000000000000000000000000000000000602082015250565b6000612824602a83611ae2565b915061282f826127c8565b604082019050919050565b6000602082019050818103600083015261285381612817565b9050919050565b600060408201905081810360008301526128748185612043565b905081810360208301526128888184612043565b90509392505050565b7f455243313135353a2073657474696e6720617070726f76616c2073746174757360008201527f20666f722073656c660000000000000000000000000000000000000000000000602082015250565b60006128ed602983611ae2565b91506128f882612891565b604082019050919050565b6000602082019050818103600083015261291c816128e0565b9050919050565b61292c81611911565b82525050565b600081519050919050565b600082825260208201905092915050565b600061295982612932565b612963818561293d565b9350612973818560208601611af3565b61297c81611b1d565b840191505092915050565b600060a08201905061299c6000830188612923565b6129a96020830187612923565b6129b660408301866119c5565b6129c360608301856119c5565b81810360808301526129d5818461294e565b90509695505050505050565b6000815190506129f081611a1b565b92915050565b600060208284031215612a0c57612a0b6118e7565b5b6000612a1a848285016129e1565b91505092915050565b60008160e01c9050919050565b600060033d1115612a4f5760046000803e612a4c600051612a23565b90505b90565b600060443d10612adf57612a646118dd565b60043d036004823e80513d602482011167ffffffffffffffff82111715612a8c575050612adf565b808201805167ffffffffffffffff811115612aaa5750505050612adf565b80602083010160043d038501811115612ac7575050505050612adf565b612ad682602001850186611c10565b82955050505050505b90565b7f455243313135353a207472616e7366657220746f206e6f6e2d4552433131353560008201527f526563656976657220696d706c656d656e746572000000000000000000000000602082015250565b6000612b3e603483611ae2565b9150612b4982612ae2565b604082019050919050565b60006020820190508181036000830152612b6d81612b31565b9050919050565b7f455243313135353a204552433131353552656365697665722072656a6563746560008201527f6420746f6b656e73000000000000000000000000000000000000000000000000602082015250565b6000612bd0602883611ae2565b9150612bdb82612b74565b604082019050919050565b60006020820190508181036000830152612bff81612bc3565b9050919050565b600060a082019050612c1b6000830188612923565b612c286020830187612923565b8181036040830152612c3a8186612043565b90508181036060830152612c4e8185612043565b90508181036080830152612c62818461294e565b9050969550505050505056fea26469706673582212205f2118913603d709af088218f880151adf70f188be6dd885e1d2d476aad6559564736f6c63430008110033",
  "linkReferences": {},
  "deployedLinkReferences": {}
}